{"contracts/EryzaToken.sol":{"EryzaToken":{"abi":[{"inputs":[{"internalType":"uint256","name":"initialSupply","type":"uint256"}],"stateMutability":"nonpayable","type":"constructor"},{"inputs":[{"internalType":"address","name":"spender","type":"address"},{"internalType":"uint256","name":"allowance","type":"uint256"},{"internalType":"uint256","name":"needed","type":"uint256"}],"name":"ERC20InsufficientAllowance","type":"error"},{"inputs":[{"internalType":"address","name":"sender","type":"address"},{"internalType":"uint256","name":"balance","type":"uint256"},{"internalType":"uint256","name":"needed","type":"uint256"}],"name":"ERC20InsufficientBalance","type":"error"},{"inputs":[{"internalType":"address","name":"approver","type":"address"}],"name":"ERC20InvalidApprover","type":"error"},{"inputs":[{"internalType":"address","name":"receiver","type":"address"}],"name":"ERC20InvalidReceiver","type":"error"},{"inputs":[{"internalType":"address","name":"sender","type":"address"}],"name":"ERC20InvalidSender","type":"error"},{"inputs":[{"internalType":"address","name":"spender","type":"address"}],"name":"ERC20InvalidSpender","type":"error"},{"inputs":[],"name":"EnforcedPause","type":"error"},{"inputs":[],"name":"ExpectedPause","type":"error"},{"inputs":[{"internalType":"address","name":"owner","type":"address"}],"name":"OwnableInvalidOwner","type":"error"},{"inputs":[{"internalType":"address","name":"account","type":"address"}],"name":"OwnableUnauthorizedAccount","type":"error"},{"inputs":[],"name":"ReentrancyGuardReentrantCall","type":"error"},{"anonymous":false,"inputs":[{"indexed":true,"internalType":"address","name":"owner","type":"address"},{"indexed":true,"internalType":"address","name":"spender","type":"address"},{"indexed":false,"internalType":"uint256","name":"value","type":"uint256"}],"name":"Approval","type":"event"},{"anonymous":false,"inputs":[{"indexed":true,"internalType":"address","name":"previousOwner","type":"address"},{"indexed":true,"internalType":"address","name":"newOwner","type":"address"}],"name":"OwnershipTransferred","type":"event"},{"anonymous":false,"inputs":[{"indexed":false,"internalType":"address","name":"account","type":"address"}],"name":"Paused","type":"event"},{"anonymous":false,"inputs":[{"indexed":true,"internalType":"bytes32","name":"jobId","type":"bytes32"},{"indexed":true,"internalType":"address","name":"user","type":"address"},{"indexed":true,"internalType":"address","name":"provider","type":"address"},{"indexed":false,"internalType":"uint256","name":"amount","type":"uint256"}],"name":"TokensLocked","type":"event"},{"anonymous":false,"inputs":[{"indexed":true,"internalType":"bytes32","name":"jobId","type":"bytes32"},{"indexed":true,"internalType":"address","name":"user","type":"address"},{"indexed":false,"internalType":"uint256","name":"amount","type":"uint256"}],"name":"TokensRefunded","type":"event"},{"anonymous":false,"inputs":[{"indexed":true,"internalType":"bytes32","name":"jobId","type":"bytes32"},{"indexed":true,"internalType":"address","name":"provider","type":"address"},{"indexed":false,"internalType":"uint256","name":"amount","type":"uint256"}],"name":"TokensReleased","type":"event"},{"anonymous":false,"inputs":[{"indexed":true,"internalType":"address","name":"from","type":"address"},{"indexed":true,"internalType":"address","name":"to","type":"address"},{"indexed":false,"internalType":"uint256","name":"value","type":"uint256"}],"name":"Transfer","type":"event"},{"anonymous":false,"inputs":[{"indexed":false,"internalType":"address","name":"account","type":"address"}],"name":"Unpaused","type":"event"},{"inputs":[{"internalType":"address","name":"owner","type":"address"},{"internalType":"address","name":"spender","type":"address"}],"name":"allowance","outputs":[{"internalType":"uint256","name":"","type":"uint256"}],"stateMutability":"view","type":"function"},{"inputs":[{"internalType":"address","name":"spender","type":"address"},{"internalType":"uint256","name":"value","type":"uint256"}],"name":"approve","outputs":[{"internalType":"bool","name":"","type":"bool"}],"stateMutability":"nonpayable","type":"function"},{"inputs":[{"internalType":"address","name":"account","type":"address"}],"name":"balanceOf","outputs":[{"internalType":"uint256","name":"","type":"uint256"}],"stateMutability":"view","type":"function"},{"inputs":[],"name":"decimals","outputs":[{"internalType":"uint8","name":"","type":"uint8"}],"stateMutability":"view","type":"function"},{"inputs":[{"internalType":"bytes32","name":"jobId","type":"bytes32"}],"name":"getEscrowDetails","outputs":[{"internalType":"uint256","name":"amount","type":"uint256"},{"internalType":"address","name":"user","type":"address"},{"internalType":"address","name":"provider","type":"address"},{"internalType":"bool","name":"locked","type":"bool"},{"internalType":"bool","name":"released","type":"bool"},{"internalType":"uint256","name":"deadline","type":"uint256"}],"stateMutability":"view","type":"function"},{"inputs":[{"internalType":"bytes32","name":"","type":"bytes32"}],"name":"jobEscrows","outputs":[{"internalType":"uint256","name":"amount","type":"uint256"},{"internalType":"address","name":"user","type":"address"},{"internalType":"address","name":"provider","type":"address"},{"internalType":"bool","name":"locked","type":"bool"},{"internalType":"bool","name":"released","type":"bool"},{"internalType":"uint256","name":"deadline","type":"uint256"}],"stateMutability":"view","type":"function"},{"inputs":[{"internalType":"bytes32","name":"jobId","type":"bytes32"},{"internalType":"uint256","name":"amount","type":"uint256"},{"internalType":"address","name":"provider","type":"address"}],"name":"lockTokens","outputs":[],"stateMutability":"nonpayable","type":"function"},{"inputs":[],"name":"name","outputs":[{"internalType":"string","name":"","type":"string"}],"stateMutability":"view","type":"function"},{"inputs":[],"name":"owner","outputs":[{"internalType":"address","name":"","type":"address"}],"stateMutability":"view","type":"function"},{"inputs":[{"internalType":"bytes32","name":"jobId","type":"bytes32"},{"internalType":"uint256","name":"refundAmount","type":"uint256"}],"name":"partialRefund","outputs":[],"stateMutability":"nonpayable","type":"function"},{"inputs":[],"name":"pause","outputs":[],"stateMutability":"nonpayable","type":"function"},{"inputs":[],"name":"paused","outputs":[{"internalType":"bool","name":"","type":"bool"}],"stateMutability":"view","type":"function"},{"inputs":[{"internalType":"bytes32","name":"jobId","type":"bytes32"}],"name":"refundTokens","outputs":[],"stateMutability":"nonpayable","type":"function"},{"inputs":[{"internalType":"bytes32","name":"jobId","type":"bytes32"}],"name":"releaseTokens","outputs":[],"stateMutability":"nonpayable","type":"function"},{"inputs":[],"name":"renounceOwnership","outputs":[],"stateMutability":"nonpayable","type":"function"},{"inputs":[],"name":"symbol","outputs":[{"internalType":"string","name":"","type":"string"}],"stateMutability":"view","type":"function"},{"inputs":[],"name":"totalSupply","outputs":[{"internalType":"uint256","name":"","type":"uint256"}],"stateMutability":"view","type":"function"},{"inputs":[{"internalType":"address","name":"to","type":"address"},{"internalType":"uint256","name":"value","type":"uint256"}],"name":"transfer","outputs":[{"internalType":"bool","name":"","type":"bool"}],"stateMutability":"nonpayable","type":"function"},{"inputs":[{"internalType":"address","name":"from","type":"address"},{"internalType":"address","name":"to","type":"address"},{"internalType":"uint256","name":"value","type":"uint256"}],"name":"transferFrom","outputs":[{"internalType":"bool","name":"","type":"bool"}],"stateMutability":"nonpayable","type":"function"},{"inputs":[{"internalType":"address","name":"newOwner","type":"address"}],"name":"transferOwnership","outputs":[],"stateMutability":"nonpayable","type":"function"},{"inputs":[],"name":"unpause","outputs":[],"stateMutability":"nonpayable","type":"function"}],"devdoc":{"errors":{"ERC20InsufficientAllowance(address,uint256,uint256)":[{"details":"Indicates a failure with the `spender`’s `allowance`. Used in transfers.","params":{"allowance":"Amount of tokens a `spender` is allowed to operate with.","needed":"Minimum amount required to perform a transfer.","spender":"Address that may be allowed to operate on tokens without being their owner."}}],"ERC20InsufficientBalance(address,uint256,uint256)":[{"details":"Indicates an error related to the current `balance` of a `sender`. Used in transfers.","params":{"balance":"Current balance for the interacting account.","needed":"Minimum amount required to perform a transfer.","sender":"Address whose tokens are being transferred."}}],"ERC20InvalidApprover(address)":[{"details":"Indicates a failure with the `approver` of a token to be approved. Used in approvals.","params":{"approver":"Address initiating an approval operation."}}],"ERC20InvalidReceiver(address)":[{"details":"Indicates a failure with the token `receiver`. Used in transfers.","params":{"receiver":"Address to which tokens are being transferred."}}],"ERC20InvalidSender(address)":[{"details":"Indicates a failure with the token `sender`. Used in transfers.","params":{"sender":"Address whose tokens are being transferred."}}],"ERC20InvalidSpender(address)":[{"details":"Indicates a failure with the `spender` to be approved. Used in approvals.","params":{"spender":"Address that may be allowed to operate on tokens without being their owner."}}],"EnforcedPause()":[{"details":"The operation failed because the contract is paused."}],"ExpectedPause()":[{"details":"The operation failed because the contract is not paused."}],"OwnableInvalidOwner(address)":[{"details":"The owner is not a valid owner account. (eg. `address(0)`)"}],"OwnableUnauthorizedAccount(address)":[{"details":"The caller account is not authorized to perform an operation."}],"ReentrancyGuardReentrantCall()":[{"details":"Unauthorized reentrant call."}]},"events":{"Approval(address,address,uint256)":{"details":"Emitted when the allowance of a `spender` for an `owner` is set by a call to {approve}. `value` is the new allowance."},"Paused(address)":{"details":"Emitted when the pause is triggered by `account`."},"Transfer(address,address,uint256)":{"details":"Emitted when `value` tokens are moved from one account (`from`) to another (`to`). Note that `value` may be zero."},"Unpaused(address)":{"details":"Emitted when the pause is lifted by `account`."}},"kind":"dev","methods":{"allowance(address,address)":{"details":"Returns the remaining number of tokens that `spender` will be allowed to spend on behalf of `owner` through {transferFrom}. This is zero by default. This value changes when {approve} or {transferFrom} are called."},"approve(address,uint256)":{"details":"See {IERC20-approve}. NOTE: If `value` is the maximum `uint256`, the allowance is not updated on `transferFrom`. This is semantically equivalent to an infinite approval. Requirements: - `spender` cannot be the zero address."},"balanceOf(address)":{"details":"Returns the value of tokens owned by `account`."},"decimals()":{"details":"Returns the number of decimals used to get its user representation. For example, if `decimals` equals `2`, a balance of `505` tokens should be displayed to a user as `5.05` (`505 / 10 ** 2`). Tokens usually opt for a value of 18, imitating the relationship between Ether and Wei. This is the default value returned by this function, unless it's overridden. NOTE: This information is only used for _display_ purposes: it in no way affects any of the arithmetic of the contract, including {IERC20-balanceOf} and {IERC20-transfer}."},"getEscrowDetails(bytes32)":{"params":{"jobId":"Unique identifier for the job"},"returns":{"amount":"Amount of tokens locked","deadline":"Deadline for the job","locked":"Whether tokens are currently locked","provider":"Address of the compute provider","released":"Whether tokens have been released","user":"Address of the user who locked tokens"}},"lockTokens(bytes32,uint256,address)":{"params":{"amount":"Amount of tokens to lock","jobId":"Unique identifier for the job","provider":"Address of the compute provider"}},"name()":{"details":"Returns the name of the token."},"owner()":{"details":"Returns the address of the current owner."},"partialRefund(bytes32,uint256)":{"params":{"jobId":"Unique identifier for the job","refundAmount":"Amount to refund to user (rest goes to provider)"}},"paused()":{"details":"Returns true if the contract is paused, and false otherwise."},"refundTokens(bytes32)":{"params":{"jobId":"Unique identifier for the job"}},"releaseTokens(bytes32)":{"params":{"jobId":"Unique identifier for the job"}},"renounceOwnership()":{"details":"Leaves the contract without owner. It will not be possible to call `onlyOwner` functions. Can only be called by the current owner. NOTE: Renouncing ownership will leave the contract without an owner, thereby disabling any functionality that is only available to the owner."},"symbol()":{"details":"Returns the symbol of the token, usually a shorter version of the name."},"totalSupply()":{"details":"Returns the value of tokens in existence."},"transfer(address,uint256)":{"details":"See {IERC20-transfer}. Requirements: - `to` cannot be the zero address. - the caller must have a balance of at least `value`."},"transferFrom(address,address,uint256)":{"details":"See {IERC20-transferFrom}. Skips emitting an {Approval} event indicating an allowance update. This is not required by the ERC. See {xref-ERC20-_approve-address-address-uint256-bool-}[_approve]. NOTE: Does not update the allowance if the current allowance is the maximum `uint256`. Requirements: - `from` and `to` cannot be the zero address. - `from` must have a balance of at least `value`. - the caller must have allowance for ``from``'s tokens of at least `value`."},"transferOwnership(address)":{"details":"Transfers ownership of the contract to a new account (`newOwner`). Can only be called by the current owner."}},"version":1},"evm":{"bytecode":{"linkReferences":{},"object":"608034620003f457601f906001600160401b0390601f1962001510388190038581018316840185811185821017620002f857849282916040528339602093849181010312620003f457519262000054620003f9565b90600b82526a22b93cbd30902a37b5b2b760a91b8483015262000076620003f9565b956003908188526245525960e81b868901528351838111620002f85782546001958682811c92168015620003e9575b89831014620003d35781848493116200037d575b5088908483116001146200031a576000926200030e575b505060001982851b1c191690851b1782555b8751928311620002f85760049485548581811c91168015620002ed575b88821014620002d8578281116200028d575b50869184116001146200022757508293949596976000936200021b575b505082841b92600019911b1c19161782555b3315620002035760058054336001600160a01b0319821681179092556001600160a01b03167f8be0079c531659141344cd1fd0a4f28419497f9722a3daafe3b4186f6b6457e0600080a360065560025490838201809211620001ee57506000917fddf252ad1be2c89b69c2b068fc378daa952ba7f163c4a11628f55a4df523b3ef91600255338352828152604083208481540190556040519384523393a36040516110f690816200041a8239f35b601190634e487b7160e01b6000525260246000fd5b604051631e4fbdf760e01b8152600081840152602490fd5b0151915038806200012e565b60008681528781209392918516905b8181106200027757509884869798999a106200025c575b50505050811b01825562000140565b01519060f884600019921b161c19169055388080806200024d565b8a83015185559386019391880191880162000236565b86600052876000208380870160051c8201928a8810620002ce575b0160051c019086905b828110620002c157505062000111565b60008155018690620002b1565b92508192620002a8565b602287634e487b7160e01b6000525260246000fd5b90607f1690620000ff565b634e487b7160e01b600052604160045260246000fd5b015190503880620000d0565b908888941691866000528a6000209260005b8c8282106200036657505084116200034d575b505050811b018255620000e2565b015160001983871b60f8161c191690553880806200033f565b8385015186558b979095019493840193016200032c565b90915084600052886000208480850160051c8201928b8610620003c9575b918991869594930160051c01915b828110620003b9575050620000b9565b60008155859450899101620003a9565b925081926200039b565b634e487b7160e01b600052602260045260246000fd5b91607f1691620000a5565b600080fd5b60408051919082016001600160401b03811183821017620002f85760405256fe6080604081815260048036101561001557600080fd5b600092833560e01c90816306fdde0314610d6b57508063095ea7b314610cc257806318160ddd14610ca357806323b872dd14610bb0578063313ce56714610b945780633f4ba83a14610b255780634397ca8014610a6957806351a89ce8146109af57806358d7faad146109385780635c975abb146109115780636a30a1941461077b57806370a0823114610744578063715018a6146106e45780638456cb59146106835780638da5cb5b1461065a57806395d89b41146105565780639caa0f3d146102dc5780639f1fa6e21461021a578063a9059cbb146101e9578063dd62ed3e1461019c5763f2fde38b1461010a57600080fd5b3461019857602036600319011261019857610123610eaa565b9061012c610edb565b6001600160a01b03918216928315610182575050600554826bffffffffffffffffffffffff60a01b821617600555167f8be0079c531659141344cd1fd0a4f28419497f9722a3daafe3b4186f6b6457e08380a380f35b51631e4fbdf760e01b8152908101849052602490fd5b8280fd5b5050346101e557806003193601126101e557806020926101ba610eaa565b6101c2610ec5565b6001600160a01b0391821683526001865283832091168252845220549051908152f35b5080fd5b5050346101e557806003193601126101e557602090610213610209610eaa565b6024359033610f5b565b5160018152f35b5034610198576020366003190112610198573561023561105a565b61023d611039565b610245610edb565b80835260076020527f62eb4bd96d9a7a66875a9f46f9f9d8bf6cfed3fe0578671b752301427d2a4f6660208385206002810180549160ff8360a01c16806102cd575b6102909061107d565b80546001600160a01b03936102a89190851630610f5b565b815461ffff60a01b198116600160a81b179092555495519586521693a3600160065580f35b5060a883901c60ff1615610287565b50903461019857606036600319011261019857813560248035926044359460018060a01b03908187168097036105525761031461105a565b61031c611039565b85156105105786156104ce578488526020936007855260ff6002858b20015460a01c1661048c5733895288855286848a2054106104535761035e873033610f5b565b6201518042019182421161044257505090600383927fb64df744d1ae5af3157545a341ad27ba7390ffc9d9262575d6c17c16eca25f11959451926103a184610f07565b8884528584013381528b868601928c845260608701926001845288608089019380855260a08a019788528d815260078c52209751885581600189019151166bffffffffffffffffffffffff60a01b8254161790556002870193511683549260ff60a01b9051151560a01b169160ff60a81b9051151560a81b169269ffffffffffffffffffff60b01b16171717905551910155519384523393a4600160065580f35b634e487b7160e01b8a526011905288fd5b835162461bcd60e51b815291820185905260149082015273496e73756666696369656e742062616c616e636560601b6044820152606490fd5b835162461bcd60e51b8152918201859052601d908201527f4a6f6220616c726561647920686173206c6f636b656420746f6b656e730000006044820152606490fd5b606490601885602086519362461bcd60e51b85528401528201527f496e76616c69642070726f7669646572206164647265737300000000000000006044820152fd5b606490601d85602086519362461bcd60e51b85528401528201527f416d6f756e74206d7573742062652067726561746572207468616e20300000006044820152fd5b8780fd5b509190346101e557816003193601126101e557805191809380549160019083821c92828516948515610650575b602095868610811461063d5785895290811561061957506001146105c1575b6105bd87876105b3828c0383610f39565b5191829182610e61565b0390f35b81529295507f8a35acfbc15ff81a39ae7d344fd709f28e8600b4aa8c65c6b64bfe7fe36bd19b5b82841061060657505050826105bd946105b3928201019438806105a2565b80548685018801529286019281016105e8565b60ff19168887015250505050151560051b83010192506105b3826105bd38806105a2565b634e487b7160e01b845260228352602484fd5b93607f1693610583565b5050346101e557816003193601126101e55760055490516001600160a01b039091168152602090f35b5050346101e557816003193601126101e55760207f62e78cea01bee320cd4e420270b5ea74000d11b0c9f74754ebdbfc544b05a258916106c1610edb565b6106c9611039565b6005805460ff60a01b1916600160a01b17905551338152a180f35b83346107415780600319360112610741576106fd610edb565b600580546001600160a01b0319811690915581906001600160a01b03167f8be0079c531659141344cd1fd0a4f28419497f9722a3daafe3b4186f6b6457e08280a380f35b80fd5b5050346101e55760203660031901126101e55760209181906001600160a01b0361076c610eaa565b16815280845220549051908152f35b5090346101985780600319360112610198578135906024359061079c61105a565b6107a4611039565b6107ac610edb565b82855260076020528085209160028301926107d6845460ff8160a01c169081610902575b5061107d565b80548083116108bf57828103968188116108ac57509282867f8b7a551d23f6a979c88b4753bede741d74553e8d70650ddf73b8d2655c2daea460207f62eb4bd96d9a7a66875a9f46f9f9d8bf6cfed3fe0578671b752301427d2a4f669895848299600199610892575b0361087a575b8654968860a81b61ffff60a01b198916179055878060a01b03978891015416938551908152a3519586521693a3600160065580f35b61088d8c898060a01b0389541630610f5b565b610845565b6108a7828b8060a01b038c8601541630610f5b565b61083f565b634e487b7160e01b895260119052602488fd5b835162461bcd60e51b8152602081890152601c60248201527f526566756e642065786365656473206c6f636b656420616d6f756e74000000006044820152606490fd5b60ff915060a81c1615386107d0565b5050346101e557816003193601126101e55760209060ff60055460a01c1690519015158152f35b503461019857602036600319011261019857358252600760209081529181902080546001820154600283015460039093015493519182526001600160a01b0390811694820194909452928116604084015260ff60a082811c82161515606086015260a89290921c161515608084015282015260c090f35b5034610198576020366003190112610198579181923581526007602052206105bd60a08351926109de84610f07565b805493848152600180841b039081600184015416968760208301526002840154928316918282820152600360ff8086891c1615159586606085015260a81c16151595866080840152015495869101525196879687929160a094919796959260c08501988552600180871b03809216602086015216604084015215156060830152151560808201520152565b50346101985760203660031901126101985735610a8461105a565b610a8c611039565b610a94610edb565b80835260076020527f8b7a551d23f6a979c88b4753bede741d74553e8d70650ddf73b8d2655c2daea460208385209360028501610adf815460ff8160a01c169081610902575061107d565b60018601805487546001600160a01b039391610afe9190851630610f5b565b805461ffff60a01b1916600160a81b179055549554915191825290941693a3600160065580f35b5034610198578260031936011261019857610b3e610edb565b6005549060ff8260a01c1615610b86575060ff60a01b1916600555513381527f5db9ee0a495bf2e6ff9c91a7834c1ba4fdd244a5e8aa4e537bd38aeae4b073aa90602090a180f35b8251638dfc202b60e01b8152fd5b5050346101e557816003193601126101e5576020905160128152f35b50823461074157606036600319011261074157610bcb610eaa565b610bd3610ec5565b916044359360018060a01b038316808352600160205286832033845260205286832054916000198310610c0f575b602088610213898989610f5b565b868310610c77578115610c60573315610c495750825260016020908152868320338452815291869020908590039055829061021387610c01565b8751634a1406b160e11b8152908101849052602490fd5b875163e602df0560e01b8152908101849052602490fd5b8751637dc7a0d960e11b8152339181019182526020820193909352604081018790528291506060010390fd5b5050346101e557816003193601126101e5576020906002549051908152f35b5034610198578160031936011261019857610cdb610eaa565b602435903315610d54576001600160a01b0316918215610d3d57508083602095338152600187528181208582528752205582519081527f8c5be1e5ebec7d5bd14f71427d1e84f3dd0314c0f7b2291e5b200ac8c7c3b925843392a35160018152f35b8351634a1406b160e11b8152908101859052602490fd5b835163e602df0560e01b8152808401869052602490fd5b9291905034610e5d5783600319360112610e5d57600354600181811c9186908281168015610e53575b6020958686108214610e405750848852908115610e1e5750600114610dc5575b6105bd86866105b3828b0383610f39565b929550600383527fc2575a0e9e593c00f959f8c92f12db2869c3395a3b0502d05e2516446f71f85b5b828410610e0b57505050826105bd946105b3928201019438610db4565b8054868501880152928601928101610dee565b60ff191687860152505050151560051b83010192506105b3826105bd38610db4565b634e487b7160e01b845260229052602483fd5b93607f1693610d94565b8380fd5b6020808252825181830181905290939260005b828110610e9657505060409293506000838284010152601f8019910116010190565b818101860151848201604001528501610e74565b600435906001600160a01b0382168203610ec057565b600080fd5b602435906001600160a01b0382168203610ec057565b6005546001600160a01b03163303610eef57565b60405163118cdaa760e01b8152336004820152602490fd5b60c0810190811067ffffffffffffffff821117610f2357604052565b634e487b7160e01b600052604160045260246000fd5b90601f8019910116810190811067ffffffffffffffff821117610f2357604052565b916001600160a01b0380841692831561102057169283156110075760009083825281602052604082205490838210610fd5575091604082827fddf252ad1be2c89b69c2b068fc378daa952ba7f163c4a11628f55a4df523b3ef958760209652828652038282205586815220818154019055604051908152a3565b60405163391434e360e21b81526001600160a01b03919091166004820152602481019190915260448101839052606490fd5b60405163ec442f0560e01b815260006004820152602490fd5b604051634b637e8f60e11b815260006004820152602490fd5b60ff60055460a01c1661104857565b60405163d93c066560e01b8152600490fd5b60026006541461106b576002600655565b604051633ee5aeb560e01b8152600490fd5b1561108457565b60405162461bcd60e51b8152602060048201526014602482015273496e76616c696420657363726f7720737461746560601b6044820152606490fdfea26469706673582212209d89a6bcf6d29c481498ca27f1f7b8155c44155918c118d1977b6ff7ed2ddf2e64736f6c63430008140033","opcodes":"PUSH1 0x80 CALLVALUE PUSH3 0x3F4 JUMPI PUSH1 0x1F SWAP1 PUSH1 0x1 PUSH1 0x1 PUSH1 0x40 SHL SUB SWAP1 PUSH1 0x1F NOT PUSH3 0x1510 CODESIZE DUP2 SWAP1 SUB DUP6 DUP2 ADD DUP4 AND DUP5 ADD DUP6 DUP2 GT DUP6 DUP3 LT OR PUSH3 0x2F8 JUMPI DUP5 SWAP3 DUP3 SWAP2 PUSH1 0x40 MSTORE DUP4 CODECOPY PUSH1 0x20 SWAP4 DUP5 SWAP2 DUP2 ADD SUB SLT PUSH3 0x3F4 JUMPI MLOAD SWAP3 PUSH3 0x54 PUSH3 0x3F9 JUMP JUMPDEST SWAP1 PUSH1 0xB DUP3 MSTORE PUSH11 0x22B93CBD30902A37B5B2B7 PUSH1 0xA9 SHL DUP5 DUP4 ADD MSTORE PUSH3 0x76 PUSH3 0x3F9 JUMP JUMPDEST SWAP6 PUSH1 0x3 SWAP1 DUP2 DUP9 MSTORE PUSH3 0x455259 PUSH1 0xE8 SHL DUP7 DUP10 ADD MSTORE DUP4 MLOAD DUP4 DUP2 GT PUSH3 0x2F8 JUMPI DUP3 SLOAD PUSH1 0x1 SWAP6 DUP7 DUP3 DUP2 SHR SWAP3 AND DUP1 ISZERO PUSH3 0x3E9 JUMPI JUMPDEST DUP10 DUP4 LT EQ PUSH3 0x3D3 JUMPI DUP2 DUP5 DUP5 SWAP4 GT PUSH3 0x37D JUMPI JUMPDEST POP DUP9 SWAP1 DUP5 DUP4 GT PUSH1 0x1 EQ PUSH3 0x31A JUMPI PUSH1 0x0 SWAP3 PUSH3 0x30E JUMPI JUMPDEST POP POP PUSH1 0x0 NOT DUP3 DUP6 SHL SHR NOT AND SWAP1 DUP6 SHL OR DUP3 SSTORE JUMPDEST DUP8 MLOAD SWAP3 DUP4 GT PUSH3 0x2F8 JUMPI PUSH1 0x4 SWAP5 DUP6 SLOAD DUP6 DUP2 DUP2 SHR SWAP2 AND DUP1 ISZERO PUSH3 0x2ED JUMPI JUMPDEST DUP9 DUP3 LT EQ PUSH3 0x2D8 JUMPI DUP3 DUP2 GT PUSH3 0x28D JUMPI JUMPDEST POP DUP7 SWAP2 DUP5 GT PUSH1 0x1 EQ PUSH3 0x227 JUMPI POP DUP3 SWAP4 SWAP5 SWAP6 SWAP7 SWAP8 PUSH1 0x0 SWAP4 PUSH3 0x21B JUMPI JUMPDEST POP POP DUP3 DUP5 SHL SWAP3 PUSH1 0x0 NOT SWAP2 SHL SHR NOT AND OR DUP3 SSTORE JUMPDEST CALLER ISZERO PUSH3 0x203 JUMPI PUSH1 0x5 DUP1 SLOAD CALLER PUSH1 0x1 PUSH1 0x1 PUSH1 0xA0 SHL SUB NOT DUP3 AND DUP2 OR SWAP1 SWAP3 SSTORE PUSH1 0x1 PUSH1 0x1 PUSH1 0xA0 SHL SUB AND PUSH32 0x8BE0079C531659141344CD1FD0A4F28419497F9722A3DAAFE3B4186F6B6457E0 PUSH1 0x0 DUP1 LOG3 PUSH1 0x6 SSTORE PUSH1 0x2 SLOAD SWAP1 DUP4 DUP3 ADD DUP1 SWAP3 GT PUSH3 0x1EE JUMPI POP PUSH1 0x0 SWAP2 PUSH32 0xDDF252AD1BE2C89B69C2B068FC378DAA952BA7F163C4A11628F55A4DF523B3EF SWAP2 PUSH1 0x2 SSTORE CALLER DUP4 MSTORE DUP3 DUP2 MSTORE PUSH1 0x40 DUP4 KECCAK256 DUP5 DUP2 SLOAD ADD SWAP1 SSTORE PUSH1 0x40 MLOAD SWAP4 DUP5 MSTORE CALLER SWAP4 LOG3 PUSH1 0x40 MLOAD PUSH2 0x10F6 SWAP1 DUP2 PUSH3 0x41A DUP3 CODECOPY RETURN JUMPDEST PUSH1 0x11 SWAP1 PUSH4 0x4E487B71 PUSH1 0xE0 SHL PUSH1 0x0 MSTORE MSTORE PUSH1 0x24 PUSH1 0x0 REVERT JUMPDEST PUSH1 0x40 MLOAD PUSH4 0x1E4FBDF7 PUSH1 0xE0 SHL DUP2 MSTORE PUSH1 0x0 DUP2 DUP5 ADD MSTORE PUSH1 0x24 SWAP1 REVERT JUMPDEST ADD MLOAD SWAP2 POP CODESIZE DUP1 PUSH3 0x12E JUMP JUMPDEST PUSH1 0x0 DUP7 DUP2 MSTORE DUP8 DUP2 KECCAK256 SWAP4 SWAP3 SWAP2 DUP6 AND SWAP1 JUMPDEST DUP2 DUP2 LT PUSH3 0x277 JUMPI POP SWAP9 DUP5 DUP7 SWAP8 SWAP9 SWAP10 SWAP11 LT PUSH3 0x25C JUMPI JUMPDEST POP POP POP POP DUP2 SHL ADD DUP3 SSTORE PUSH3 0x140 JUMP JUMPDEST ADD MLOAD SWAP1 PUSH1 0xF8 DUP5 PUSH1 0x0 NOT SWAP3 SHL AND SHR NOT AND SWAP1 SSTORE CODESIZE DUP1 DUP1 DUP1 PUSH3 0x24D JUMP JUMPDEST DUP11 DUP4 ADD MLOAD DUP6 SSTORE SWAP4 DUP7 ADD SWAP4 SWAP2 DUP9 ADD SWAP2 DUP9 ADD PUSH3 0x236 JUMP JUMPDEST DUP7 PUSH1 0x0 MSTORE DUP8 PUSH1 0x0 KECCAK256 DUP4 DUP1 DUP8 ADD PUSH1 0x5 SHR DUP3 ADD SWAP3 DUP11 DUP9 LT PUSH3 0x2CE JUMPI JUMPDEST ADD PUSH1 0x5 SHR ADD SWAP1 DUP7 SWAP1 JUMPDEST DUP3 DUP2 LT PUSH3 0x2C1 JUMPI POP POP PUSH3 0x111 JUMP JUMPDEST PUSH1 0x0 DUP2 SSTORE ADD DUP7 SWAP1 PUSH3 0x2B1 JUMP JUMPDEST SWAP3 POP DUP2 SWAP3 PUSH3 0x2A8 JUMP JUMPDEST PUSH1 0x22 DUP8 PUSH4 0x4E487B71 PUSH1 0xE0 SHL PUSH1 0x0 MSTORE MSTORE PUSH1 0x24 PUSH1 0x0 REVERT JUMPDEST SWAP1 PUSH1 0x7F AND SWAP1 PUSH3 0xFF JUMP JUMPDEST PUSH4 0x4E487B71 PUSH1 0xE0 SHL PUSH1 0x0 MSTORE PUSH1 0x41 PUSH1 0x4 MSTORE PUSH1 0x24 PUSH1 0x0 REVERT JUMPDEST ADD MLOAD SWAP1 POP CODESIZE DUP1 PUSH3 0xD0 JUMP JUMPDEST SWAP1 DUP9 DUP9 SWAP5 AND SWAP2 DUP7 PUSH1 0x0 MSTORE DUP11 PUSH1 0x0 KECCAK256 SWAP3 PUSH1 0x0 JUMPDEST DUP13 DUP3 DUP3 LT PUSH3 0x366 JUMPI POP POP DUP5 GT PUSH3 0x34D JUMPI JUMPDEST POP POP POP DUP2 SHL ADD DUP3 SSTORE PUSH3 0xE2 JUMP JUMPDEST ADD MLOAD PUSH1 0x0 NOT DUP4 DUP8 SHL PUSH1 0xF8 AND SHR NOT AND SWAP1 SSTORE CODESIZE DUP1 DUP1 PUSH3 0x33F JUMP JUMPDEST DUP4 DUP6 ADD MLOAD DUP7 SSTORE DUP12 SWAP8 SWAP1 SWAP6 ADD SWAP5 SWAP4 DUP5 ADD SWAP4 ADD PUSH3 0x32C JUMP JUMPDEST SWAP1 SWAP2 POP DUP5 PUSH1 0x0 MSTORE DUP9 PUSH1 0x0 KECCAK256 DUP5 DUP1 DUP6 ADD PUSH1 0x5 SHR DUP3 ADD SWAP3 DUP12 DUP7 LT PUSH3 0x3C9 JUMPI JUMPDEST SWAP2 DUP10 SWAP2 DUP7 SWAP6 SWAP5 SWAP4 ADD PUSH1 0x5 SHR ADD SWAP2 JUMPDEST DUP3 DUP2 LT PUSH3 0x3B9 JUMPI POP POP PUSH3 0xB9 JUMP JUMPDEST PUSH1 0x0 DUP2 SSTORE DUP6 SWAP5 POP DUP10 SWAP2 ADD PUSH3 0x3A9 JUMP JUMPDEST SWAP3 POP DUP2 SWAP3 PUSH3 0x39B JUMP JUMPDEST PUSH4 0x4E487B71 PUSH1 0xE0 SHL PUSH1 0x0 MSTORE PUSH1 0x22 PUSH1 0x4 MSTORE PUSH1 0x24 PUSH1 0x0 REVERT JUMPDEST SWAP2 PUSH1 0x7F AND SWAP2 PUSH3 0xA5 JUMP JUMPDEST PUSH1 0x0 DUP1 REVERT JUMPDEST PUSH1 0x40 DUP1 MLOAD SWAP2 SWAP1 DUP3 ADD PUSH1 0x1 PUSH1 0x1 PUSH1 0x40 SHL SUB DUP2 GT DUP4 DUP3 LT OR PUSH3 0x2F8 JUMPI PUSH1 0x40 MSTORE JUMP INVALID PUSH1 0x80 PUSH1 0x40 DUP2 DUP2 MSTORE PUSH1 0x4 DUP1 CALLDATASIZE LT ISZERO PUSH2 0x15 JUMPI PUSH1 0x0 DUP1 REVERT JUMPDEST PUSH1 0x0 SWAP3 DUP4 CALLDATALOAD PUSH1 0xE0 SHR SWAP1 DUP2 PUSH4 0x6FDDE03 EQ PUSH2 0xD6B JUMPI POP DUP1 PUSH4 0x95EA7B3 EQ PUSH2 0xCC2 JUMPI DUP1 PUSH4 0x18160DDD EQ PUSH2 0xCA3 JUMPI DUP1 PUSH4 0x23B872DD EQ PUSH2 0xBB0 JUMPI DUP1 PUSH4 0x313CE567 EQ PUSH2 0xB94 JUMPI DUP1 PUSH4 0x3F4BA83A EQ PUSH2 0xB25 JUMPI DUP1 PUSH4 0x4397CA80 EQ PUSH2 0xA69 JUMPI DUP1 PUSH4 0x51A89CE8 EQ PUSH2 0x9AF JUMPI DUP1 PUSH4 0x58D7FAAD EQ PUSH2 0x938 JUMPI DUP1 PUSH4 0x5C975ABB EQ PUSH2 0x911 JUMPI DUP1 PUSH4 0x6A30A194 EQ PUSH2 0x77B JUMPI DUP1 PUSH4 0x70A08231 EQ PUSH2 0x744 JUMPI DUP1 PUSH4 0x715018A6 EQ PUSH2 0x6E4 JUMPI DUP1 PUSH4 0x8456CB59 EQ PUSH2 0x683 JUMPI DUP1 PUSH4 0x8DA5CB5B EQ PUSH2 0x65A JUMPI DUP1 PUSH4 0x95D89B41 EQ PUSH2 0x556 JUMPI DUP1 PUSH4 0x9CAA0F3D EQ PUSH2 0x2DC JUMPI DUP1 PUSH4 0x9F1FA6E2 EQ PUSH2 0x21A JUMPI DUP1 PUSH4 0xA9059CBB EQ PUSH2 0x1E9 JUMPI DUP1 PUSH4 0xDD62ED3E EQ PUSH2 0x19C JUMPI PUSH4 0xF2FDE38B EQ PUSH2 0x10A JUMPI PUSH1 0x0 DUP1 REVERT JUMPDEST CALLVALUE PUSH2 0x198 JUMPI PUSH1 0x20 CALLDATASIZE PUSH1 0x3 NOT ADD SLT PUSH2 0x198 JUMPI PUSH2 0x123 PUSH2 0xEAA JUMP JUMPDEST SWAP1 PUSH2 0x12C PUSH2 0xEDB JUMP JUMPDEST PUSH1 0x1 PUSH1 0x1 PUSH1 0xA0 SHL SUB SWAP2 DUP3 AND SWAP3 DUP4 ISZERO PUSH2 0x182 JUMPI POP POP PUSH1 0x5 SLOAD DUP3 PUSH12 0xFFFFFFFFFFFFFFFFFFFFFFFF PUSH1 0xA0 SHL DUP3 AND OR PUSH1 0x5 SSTORE AND PUSH32 0x8BE0079C531659141344CD1FD0A4F28419497F9722A3DAAFE3B4186F6B6457E0 DUP4 DUP1 LOG3 DUP1 RETURN JUMPDEST MLOAD PUSH4 0x1E4FBDF7 PUSH1 0xE0 SHL DUP2 MSTORE SWAP1 DUP2 ADD DUP5 SWAP1 MSTORE PUSH1 0x24 SWAP1 REVERT JUMPDEST DUP3 DUP1 REVERT JUMPDEST POP POP CALLVALUE PUSH2 0x1E5 JUMPI DUP1 PUSH1 0x3 NOT CALLDATASIZE ADD SLT PUSH2 0x1E5 JUMPI DUP1 PUSH1 0x20 SWAP3 PUSH2 0x1BA PUSH2 0xEAA JUMP JUMPDEST PUSH2 0x1C2 PUSH2 0xEC5 JUMP JUMPDEST PUSH1 0x1 PUSH1 0x1 PUSH1 0xA0 SHL SUB SWAP2 DUP3 AND DUP4 MSTORE PUSH1 0x1 DUP7 MSTORE DUP4 DUP4 KECCAK256 SWAP2 AND DUP3 MSTORE DUP5 MSTORE KECCAK256 SLOAD SWAP1 MLOAD SWAP1 DUP2 MSTORE RETURN JUMPDEST POP DUP1 REVERT JUMPDEST POP POP CALLVALUE PUSH2 0x1E5 JUMPI DUP1 PUSH1 0x3 NOT CALLDATASIZE ADD SLT PUSH2 0x1E5 JUMPI PUSH1 0x20 SWAP1 PUSH2 0x213 PUSH2 0x209 PUSH2 0xEAA JUMP JUMPDEST PUSH1 0x24 CALLDATALOAD SWAP1 CALLER PUSH2 0xF5B JUMP JUMPDEST MLOAD PUSH1 0x1 DUP2 MSTORE RETURN JUMPDEST POP CALLVALUE PUSH2 0x198 JUMPI PUSH1 0x20 CALLDATASIZE PUSH1 0x3 NOT ADD SLT PUSH2 0x198 JUMPI CALLDATALOAD PUSH2 0x235 PUSH2 0x105A JUMP JUMPDEST PUSH2 0x23D PUSH2 0x1039 JUMP JUMPDEST PUSH2 0x245 PUSH2 0xEDB JUMP JUMPDEST DUP1 DUP4 MSTORE PUSH1 0x7 PUSH1 0x20 MSTORE PUSH32 0x62EB4BD96D9A7A66875A9F46F9F9D8BF6CFED3FE0578671B752301427D2A4F66 PUSH1 0x20 DUP4 DUP6 KECCAK256 PUSH1 0x2 DUP2 ADD DUP1 SLOAD SWAP2 PUSH1 0xFF DUP4 PUSH1 0xA0 SHR AND DUP1 PUSH2 0x2CD JUMPI JUMPDEST PUSH2 0x290 SWAP1 PUSH2 0x107D JUMP JUMPDEST DUP1 SLOAD PUSH1 0x1 PUSH1 0x1 PUSH1 0xA0 SHL SUB SWAP4 PUSH2 0x2A8 SWAP2 SWAP1 DUP6 AND ADDRESS PUSH2 0xF5B JUMP JUMPDEST DUP2 SLOAD PUSH2 0xFFFF PUSH1 0xA0 SHL NOT DUP2 AND PUSH1 0x1 PUSH1 0xA8 SHL OR SWAP1 SWAP3 SSTORE SLOAD SWAP6 MLOAD SWAP6 DUP7 MSTORE AND SWAP4 LOG3 PUSH1 0x1 PUSH1 0x6 SSTORE DUP1 RETURN JUMPDEST POP PUSH1 0xA8 DUP4 SWAP1 SHR PUSH1 0xFF AND ISZERO PUSH2 0x287 JUMP JUMPDEST POP SWAP1 CALLVALUE PUSH2 0x198 JUMPI PUSH1 0x60 CALLDATASIZE PUSH1 0x3 NOT ADD SLT PUSH2 0x198 JUMPI DUP2 CALLDATALOAD PUSH1 0x24 DUP1 CALLDATALOAD SWAP3 PUSH1 0x44 CALLDATALOAD SWAP5 PUSH1 0x1 DUP1 PUSH1 0xA0 SHL SUB SWAP1 DUP2 DUP8 AND DUP1 SWAP8 SUB PUSH2 0x552 JUMPI PUSH2 0x314 PUSH2 0x105A JUMP JUMPDEST PUSH2 0x31C PUSH2 0x1039 JUMP JUMPDEST DUP6 ISZERO PUSH2 0x510 JUMPI DUP7 ISZERO PUSH2 0x4CE JUMPI DUP5 DUP9 MSTORE PUSH1 0x20 SWAP4 PUSH1 0x7 DUP6 MSTORE PUSH1 0xFF PUSH1 0x2 DUP6 DUP12 KECCAK256 ADD SLOAD PUSH1 0xA0 SHR AND PUSH2 0x48C JUMPI CALLER DUP10 MSTORE DUP9 DUP6 MSTORE DUP7 DUP5 DUP11 KECCAK256 SLOAD LT PUSH2 0x453 JUMPI PUSH2 0x35E DUP8 ADDRESS CALLER PUSH2 0xF5B JUMP JUMPDEST PUSH3 0x15180 TIMESTAMP ADD SWAP2 DUP3 TIMESTAMP GT PUSH2 0x442 JUMPI POP POP SWAP1 PUSH1 0x3 DUP4 SWAP3 PUSH32 0xB64DF744D1AE5AF3157545A341AD27BA7390FFC9D9262575D6C17C16ECA25F11 SWAP6 SWAP5 MLOAD SWAP3 PUSH2 0x3A1 DUP5 PUSH2 0xF07 JUMP JUMPDEST DUP9 DUP5 MSTORE DUP6 DUP5 ADD CALLER DUP2 MSTORE DUP12 DUP7 DUP7 ADD SWAP3 DUP13 DUP5 MSTORE PUSH1 0x60 DUP8 ADD SWAP3 PUSH1 0x1 DUP5 MSTORE DUP9 PUSH1 0x80 DUP10 ADD SWAP4 DUP1 DUP6 MSTORE PUSH1 0xA0 DUP11 ADD SWAP8 DUP9 MSTORE DUP14 DUP2 MSTORE PUSH1 0x7 DUP13 MSTORE KECCAK256 SWAP8 MLOAD DUP9 SSTORE DUP2 PUSH1 0x1 DUP10 ADD SWAP2 MLOAD AND PUSH12 0xFFFFFFFFFFFFFFFFFFFFFFFF PUSH1 0xA0 SHL DUP3 SLOAD AND OR SWAP1 SSTORE PUSH1 0x2 DUP8 ADD SWAP4 MLOAD AND DUP4 SLOAD SWAP3 PUSH1 0xFF PUSH1 0xA0 SHL SWAP1 MLOAD ISZERO ISZERO PUSH1 0xA0 SHL AND SWAP2 PUSH1 0xFF PUSH1 0xA8 SHL SWAP1 MLOAD ISZERO ISZERO PUSH1 0xA8 SHL AND SWAP3 PUSH10 0xFFFFFFFFFFFFFFFFFFFF PUSH1 0xB0 SHL AND OR OR OR SWAP1 SSTORE MLOAD SWAP2 ADD SSTORE MLOAD SWAP4 DUP5 MSTORE CALLER SWAP4 LOG4 PUSH1 0x1 PUSH1 0x6 SSTORE DUP1 RETURN JUMPDEST PUSH4 0x4E487B71 PUSH1 0xE0 SHL DUP11 MSTORE PUSH1 0x11 SWAP1 MSTORE DUP9 REVERT JUMPDEST DUP4 MLOAD PUSH3 0x461BCD PUSH1 0xE5 SHL DUP2 MSTORE SWAP2 DUP3 ADD DUP6 SWAP1 MSTORE PUSH1 0x14 SWAP1 DUP3 ADD MSTORE PUSH20 0x496E73756666696369656E742062616C616E6365 PUSH1 0x60 SHL PUSH1 0x44 DUP3 ADD MSTORE PUSH1 0x64 SWAP1 REVERT JUMPDEST DUP4 MLOAD PUSH3 0x461BCD PUSH1 0xE5 SHL DUP2 MSTORE SWAP2 DUP3 ADD DUP6 SWAP1 MSTORE PUSH1 0x1D SWAP1 DUP3 ADD MSTORE PUSH32 0x4A6F6220616C726561647920686173206C6F636B656420746F6B656E73000000 PUSH1 0x44 DUP3 ADD MSTORE PUSH1 0x64 SWAP1 REVERT JUMPDEST PUSH1 0x64 SWAP1 PUSH1 0x18 DUP6 PUSH1 0x20 DUP7 MLOAD SWAP4 PUSH3 0x461BCD PUSH1 0xE5 SHL DUP6 MSTORE DUP5 ADD MSTORE DUP3 ADD MSTORE PUSH32 0x496E76616C69642070726F766964657220616464726573730000000000000000 PUSH1 0x44 DUP3 ADD MSTORE REVERT JUMPDEST PUSH1 0x64 SWAP1 PUSH1 0x1D DUP6 PUSH1 0x20 DUP7 MLOAD SWAP4 PUSH3 0x461BCD PUSH1 0xE5 SHL DUP6 MSTORE DUP5 ADD MSTORE DUP3 ADD MSTORE PUSH32 0x416D6F756E74206D7573742062652067726561746572207468616E2030000000 PUSH1 0x44 DUP3 ADD MSTORE REVERT JUMPDEST DUP8 DUP1 REVERT JUMPDEST POP SWAP2 SWAP1 CALLVALUE PUSH2 0x1E5 JUMPI DUP2 PUSH1 0x3 NOT CALLDATASIZE ADD SLT PUSH2 0x1E5 JUMPI DUP1 MLOAD SWAP2 DUP1 SWAP4 DUP1 SLOAD SWAP2 PUSH1 0x1 SWAP1 DUP4 DUP3 SHR SWAP3 DUP3 DUP6 AND SWAP5 DUP6 ISZERO PUSH2 0x650 JUMPI JUMPDEST PUSH1 0x20 SWAP6 DUP7 DUP7 LT DUP2 EQ PUSH2 0x63D JUMPI DUP6 DUP10 MSTORE SWAP1 DUP2 ISZERO PUSH2 0x619 JUMPI POP PUSH1 0x1 EQ PUSH2 0x5C1 JUMPI JUMPDEST PUSH2 0x5BD DUP8 DUP8 PUSH2 0x5B3 DUP3 DUP13 SUB DUP4 PUSH2 0xF39 JUMP JUMPDEST MLOAD SWAP2 DUP3 SWAP2 DUP3 PUSH2 0xE61 JUMP JUMPDEST SUB SWAP1 RETURN JUMPDEST DUP2 MSTORE SWAP3 SWAP6 POP PUSH32 0x8A35ACFBC15FF81A39AE7D344FD709F28E8600B4AA8C65C6B64BFE7FE36BD19B JUMPDEST DUP3 DUP5 LT PUSH2 0x606 JUMPI POP POP POP DUP3 PUSH2 0x5BD SWAP5 PUSH2 0x5B3 SWAP3 DUP3 ADD ADD SWAP5 CODESIZE DUP1 PUSH2 0x5A2 JUMP JUMPDEST DUP1 SLOAD DUP7 DUP6 ADD DUP9 ADD MSTORE SWAP3 DUP7 ADD SWAP3 DUP2 ADD PUSH2 0x5E8 JUMP JUMPDEST PUSH1 0xFF NOT AND DUP9 DUP8 ADD MSTORE POP POP POP POP ISZERO ISZERO PUSH1 0x5 SHL DUP4 ADD ADD SWAP3 POP PUSH2 0x5B3 DUP3 PUSH2 0x5BD CODESIZE DUP1 PUSH2 0x5A2 JUMP JUMPDEST PUSH4 0x4E487B71 PUSH1 0xE0 SHL DUP5 MSTORE PUSH1 0x22 DUP4 MSTORE PUSH1 0x24 DUP5 REVERT JUMPDEST SWAP4 PUSH1 0x7F AND SWAP4 PUSH2 0x583 JUMP JUMPDEST POP POP CALLVALUE PUSH2 0x1E5 JUMPI DUP2 PUSH1 0x3 NOT CALLDATASIZE ADD SLT PUSH2 0x1E5 JUMPI PUSH1 0x5 SLOAD SWAP1 MLOAD PUSH1 0x1 PUSH1 0x1 PUSH1 0xA0 SHL SUB SWAP1 SWAP2 AND DUP2 MSTORE PUSH1 0x20 SWAP1 RETURN JUMPDEST POP POP CALLVALUE PUSH2 0x1E5 JUMPI DUP2 PUSH1 0x3 NOT CALLDATASIZE ADD SLT PUSH2 0x1E5 JUMPI PUSH1 0x20 PUSH32 0x62E78CEA01BEE320CD4E420270B5EA74000D11B0C9F74754EBDBFC544B05A258 SWAP2 PUSH2 0x6C1 PUSH2 0xEDB JUMP JUMPDEST PUSH2 0x6C9 PUSH2 0x1039 JUMP JUMPDEST PUSH1 0x5 DUP1 SLOAD PUSH1 0xFF PUSH1 0xA0 SHL NOT AND PUSH1 0x1 PUSH1 0xA0 SHL OR SWAP1 SSTORE MLOAD CALLER DUP2 MSTORE LOG1 DUP1 RETURN JUMPDEST DUP4 CALLVALUE PUSH2 0x741 JUMPI DUP1 PUSH1 0x3 NOT CALLDATASIZE ADD SLT PUSH2 0x741 JUMPI PUSH2 0x6FD PUSH2 0xEDB JUMP JUMPDEST PUSH1 0x5 DUP1 SLOAD PUSH1 0x1 PUSH1 0x1 PUSH1 0xA0 SHL SUB NOT DUP2 AND SWAP1 SWAP2 SSTORE DUP2 SWAP1 PUSH1 0x1 PUSH1 0x1 PUSH1 0xA0 SHL SUB AND PUSH32 0x8BE0079C531659141344CD1FD0A4F28419497F9722A3DAAFE3B4186F6B6457E0 DUP3 DUP1 LOG3 DUP1 RETURN JUMPDEST DUP1 REVERT JUMPDEST POP POP CALLVALUE PUSH2 0x1E5 JUMPI PUSH1 0x20 CALLDATASIZE PUSH1 0x3 NOT ADD SLT PUSH2 0x1E5 JUMPI PUSH1 0x20 SWAP2 DUP2 SWAP1 PUSH1 0x1 PUSH1 0x1 PUSH1 0xA0 SHL SUB PUSH2 0x76C PUSH2 0xEAA JUMP JUMPDEST AND DUP2 MSTORE DUP1 DUP5 MSTORE KECCAK256 SLOAD SWAP1 MLOAD SWAP1 DUP2 MSTORE RETURN JUMPDEST POP SWAP1 CALLVALUE PUSH2 0x198 JUMPI DUP1 PUSH1 0x3 NOT CALLDATASIZE ADD SLT PUSH2 0x198 JUMPI DUP2 CALLDATALOAD SWAP1 PUSH1 0x24 CALLDATALOAD SWAP1 PUSH2 0x79C PUSH2 0x105A JUMP JUMPDEST PUSH2 0x7A4 PUSH2 0x1039 JUMP JUMPDEST PUSH2 0x7AC PUSH2 0xEDB JUMP JUMPDEST DUP3 DUP6 MSTORE PUSH1 0x7 PUSH1 0x20 MSTORE DUP1 DUP6 KECCAK256 SWAP2 PUSH1 0x2 DUP4 ADD SWAP3 PUSH2 0x7D6 DUP5 SLOAD PUSH1 0xFF DUP2 PUSH1 0xA0 SHR AND SWAP1 DUP2 PUSH2 0x902 JUMPI JUMPDEST POP PUSH2 0x107D JUMP JUMPDEST DUP1 SLOAD DUP1 DUP4 GT PUSH2 0x8BF JUMPI DUP3 DUP2 SUB SWAP7 DUP2 DUP9 GT PUSH2 0x8AC JUMPI POP SWAP3 DUP3 DUP7 PUSH32 0x8B7A551D23F6A979C88B4753BEDE741D74553E8D70650DDF73B8D2655C2DAEA4 PUSH1 0x20 PUSH32 0x62EB4BD96D9A7A66875A9F46F9F9D8BF6CFED3FE0578671B752301427D2A4F66 SWAP9 SWAP6 DUP5 DUP3 SWAP10 PUSH1 0x1 SWAP10 PUSH2 0x892 JUMPI JUMPDEST SUB PUSH2 0x87A JUMPI JUMPDEST DUP7 SLOAD SWAP7 DUP9 PUSH1 0xA8 SHL PUSH2 0xFFFF PUSH1 0xA0 SHL NOT DUP10 AND OR SWAP1 SSTORE DUP8 DUP1 PUSH1 0xA0 SHL SUB SWAP8 DUP9 SWAP2 ADD SLOAD AND SWAP4 DUP6 MLOAD SWAP1 DUP2 MSTORE LOG3 MLOAD SWAP6 DUP7 MSTORE AND SWAP4 LOG3 PUSH1 0x1 PUSH1 0x6 SSTORE DUP1 RETURN JUMPDEST PUSH2 0x88D DUP13 DUP10 DUP1 PUSH1 0xA0 SHL SUB DUP10 SLOAD AND ADDRESS PUSH2 0xF5B JUMP JUMPDEST PUSH2 0x845 JUMP JUMPDEST PUSH2 0x8A7 DUP3 DUP12 DUP1 PUSH1 0xA0 SHL SUB DUP13 DUP7 ADD SLOAD AND ADDRESS PUSH2 0xF5B JUMP JUMPDEST PUSH2 0x83F JUMP JUMPDEST PUSH4 0x4E487B71 PUSH1 0xE0 SHL DUP10 MSTORE PUSH1 0x11 SWAP1 MSTORE PUSH1 0x24 DUP9 REVERT JUMPDEST DUP4 MLOAD PUSH3 0x461BCD PUSH1 0xE5 SHL DUP2 MSTORE PUSH1 0x20 DUP2 DUP10 ADD MSTORE PUSH1 0x1C PUSH1 0x24 DUP3 ADD MSTORE PUSH32 0x526566756E642065786365656473206C6F636B656420616D6F756E7400000000 PUSH1 0x44 DUP3 ADD MSTORE PUSH1 0x64 SWAP1 REVERT JUMPDEST PUSH1 0xFF SWAP2 POP PUSH1 0xA8 SHR AND ISZERO CODESIZE PUSH2 0x7D0 JUMP JUMPDEST POP POP CALLVALUE PUSH2 0x1E5 JUMPI DUP2 PUSH1 0x3 NOT CALLDATASIZE ADD SLT PUSH2 0x1E5 JUMPI PUSH1 0x20 SWAP1 PUSH1 0xFF PUSH1 0x5 SLOAD PUSH1 0xA0 SHR AND SWAP1 MLOAD SWAP1 ISZERO ISZERO DUP2 MSTORE RETURN JUMPDEST POP CALLVALUE PUSH2 0x198 JUMPI PUSH1 0x20 CALLDATASIZE PUSH1 0x3 NOT ADD SLT PUSH2 0x198 JUMPI CALLDATALOAD DUP3 MSTORE PUSH1 0x7 PUSH1 0x20 SWAP1 DUP2 MSTORE SWAP2 DUP2 SWAP1 KECCAK256 DUP1 SLOAD PUSH1 0x1 DUP3 ADD SLOAD PUSH1 0x2 DUP4 ADD SLOAD PUSH1 0x3 SWAP1 SWAP4 ADD SLOAD SWAP4 MLOAD SWAP2 DUP3 MSTORE PUSH1 0x1 PUSH1 0x1 PUSH1 0xA0 SHL SUB SWAP1 DUP2 AND SWAP5 DUP3 ADD SWAP5 SWAP1 SWAP5 MSTORE SWAP3 DUP2 AND PUSH1 0x40 DUP5 ADD MSTORE PUSH1 0xFF PUSH1 0xA0 DUP3 DUP2 SHR DUP3 AND ISZERO ISZERO PUSH1 0x60 DUP7 ADD MSTORE PUSH1 0xA8 SWAP3 SWAP1 SWAP3 SHR AND ISZERO ISZERO PUSH1 0x80 DUP5 ADD MSTORE DUP3 ADD MSTORE PUSH1 0xC0 SWAP1 RETURN JUMPDEST POP CALLVALUE PUSH2 0x198 JUMPI PUSH1 0x20 CALLDATASIZE PUSH1 0x3 NOT ADD SLT PUSH2 0x198 JUMPI SWAP2 DUP2 SWAP3 CALLDATALOAD DUP2 MSTORE PUSH1 0x7 PUSH1 0x20 MSTORE KECCAK256 PUSH2 0x5BD PUSH1 0xA0 DUP4 MLOAD SWAP3 PUSH2 0x9DE DUP5 PUSH2 0xF07 JUMP JUMPDEST DUP1 SLOAD SWAP4 DUP5 DUP2 MSTORE PUSH1 0x1 DUP1 DUP5 SHL SUB SWAP1 DUP2 PUSH1 0x1 DUP5 ADD SLOAD AND SWAP7 DUP8 PUSH1 0x20 DUP4 ADD MSTORE PUSH1 0x2 DUP5 ADD SLOAD SWAP3 DUP4 AND SWAP2 DUP3 DUP3 DUP3 ADD MSTORE PUSH1 0x3 PUSH1 0xFF DUP1 DUP7 DUP10 SHR AND ISZERO ISZERO SWAP6 DUP7 PUSH1 0x60 DUP6 ADD MSTORE PUSH1 0xA8 SHR AND ISZERO ISZERO SWAP6 DUP7 PUSH1 0x80 DUP5 ADD MSTORE ADD SLOAD SWAP6 DUP7 SWAP2 ADD MSTORE MLOAD SWAP7 DUP8 SWAP7 DUP8 SWAP3 SWAP2 PUSH1 0xA0 SWAP5 SWAP2 SWAP8 SWAP7 SWAP6 SWAP3 PUSH1 0xC0 DUP6 ADD SWAP9 DUP6 MSTORE PUSH1 0x1 DUP1 DUP8 SHL SUB DUP1 SWAP3 AND PUSH1 0x20 DUP7 ADD MSTORE AND PUSH1 0x40 DUP5 ADD MSTORE ISZERO ISZERO PUSH1 0x60 DUP4 ADD MSTORE ISZERO ISZERO PUSH1 0x80 DUP3 ADD MSTORE ADD MSTORE JUMP JUMPDEST POP CALLVALUE PUSH2 0x198 JUMPI PUSH1 0x20 CALLDATASIZE PUSH1 0x3 NOT ADD SLT PUSH2 0x198 JUMPI CALLDATALOAD PUSH2 0xA84 PUSH2 0x105A JUMP JUMPDEST PUSH2 0xA8C PUSH2 0x1039 JUMP JUMPDEST PUSH2 0xA94 PUSH2 0xEDB JUMP JUMPDEST DUP1 DUP4 MSTORE PUSH1 0x7 PUSH1 0x20 MSTORE PUSH32 0x8B7A551D23F6A979C88B4753BEDE741D74553E8D70650DDF73B8D2655C2DAEA4 PUSH1 0x20 DUP4 DUP6 KECCAK256 SWAP4 PUSH1 0x2 DUP6 ADD PUSH2 0xADF DUP2 SLOAD PUSH1 0xFF DUP2 PUSH1 0xA0 SHR AND SWAP1 DUP2 PUSH2 0x902 JUMPI POP PUSH2 0x107D JUMP JUMPDEST PUSH1 0x1 DUP7 ADD DUP1 SLOAD DUP8 SLOAD PUSH1 0x1 PUSH1 0x1 PUSH1 0xA0 SHL SUB SWAP4 SWAP2 PUSH2 0xAFE SWAP2 SWAP1 DUP6 AND ADDRESS PUSH2 0xF5B JUMP JUMPDEST DUP1 SLOAD PUSH2 0xFFFF PUSH1 0xA0 SHL NOT AND PUSH1 0x1 PUSH1 0xA8 SHL OR SWAP1 SSTORE SLOAD SWAP6 SLOAD SWAP2 MLOAD SWAP2 DUP3 MSTORE SWAP1 SWAP5 AND SWAP4 LOG3 PUSH1 0x1 PUSH1 0x6 SSTORE DUP1 RETURN JUMPDEST POP CALLVALUE PUSH2 0x198 JUMPI DUP3 PUSH1 0x3 NOT CALLDATASIZE ADD SLT PUSH2 0x198 JUMPI PUSH2 0xB3E PUSH2 0xEDB JUMP JUMPDEST PUSH1 0x5 SLOAD SWAP1 PUSH1 0xFF DUP3 PUSH1 0xA0 SHR AND ISZERO PUSH2 0xB86 JUMPI POP PUSH1 0xFF PUSH1 0xA0 SHL NOT AND PUSH1 0x5 SSTORE MLOAD CALLER DUP2 MSTORE PUSH32 0x5DB9EE0A495BF2E6FF9C91A7834C1BA4FDD244A5E8AA4E537BD38AEAE4B073AA SWAP1 PUSH1 0x20 SWAP1 LOG1 DUP1 RETURN JUMPDEST DUP3 MLOAD PUSH4 0x8DFC202B PUSH1 0xE0 SHL DUP2 MSTORE REVERT JUMPDEST POP POP CALLVALUE PUSH2 0x1E5 JUMPI DUP2 PUSH1 0x3 NOT CALLDATASIZE ADD SLT PUSH2 0x1E5 JUMPI PUSH1 0x20 SWAP1 MLOAD PUSH1 0x12 DUP2 MSTORE RETURN JUMPDEST POP DUP3 CALLVALUE PUSH2 0x741 JUMPI PUSH1 0x60 CALLDATASIZE PUSH1 0x3 NOT ADD SLT PUSH2 0x741 JUMPI PUSH2 0xBCB PUSH2 0xEAA JUMP JUMPDEST PUSH2 0xBD3 PUSH2 0xEC5 JUMP JUMPDEST SWAP2 PUSH1 0x44 CALLDATALOAD SWAP4 PUSH1 0x1 DUP1 PUSH1 0xA0 SHL SUB DUP4 AND DUP1 DUP4 MSTORE PUSH1 0x1 PUSH1 0x20 MSTORE DUP7 DUP4 KECCAK256 CALLER DUP5 MSTORE PUSH1 0x20 MSTORE DUP7 DUP4 KECCAK256 SLOAD SWAP2 PUSH1 0x0 NOT DUP4 LT PUSH2 0xC0F JUMPI JUMPDEST PUSH1 0x20 DUP9 PUSH2 0x213 DUP10 DUP10 DUP10 PUSH2 0xF5B JUMP JUMPDEST DUP7 DUP4 LT PUSH2 0xC77 JUMPI DUP2 ISZERO PUSH2 0xC60 JUMPI CALLER ISZERO PUSH2 0xC49 JUMPI POP DUP3 MSTORE PUSH1 0x1 PUSH1 0x20 SWAP1 DUP2 MSTORE DUP7 DUP4 KECCAK256 CALLER DUP5 MSTORE DUP2 MSTORE SWAP2 DUP7 SWAP1 KECCAK256 SWAP1 DUP6 SWAP1 SUB SWAP1 SSTORE DUP3 SWAP1 PUSH2 0x213 DUP8 PUSH2 0xC01 JUMP JUMPDEST DUP8 MLOAD PUSH4 0x4A1406B1 PUSH1 0xE1 SHL DUP2 MSTORE SWAP1 DUP2 ADD DUP5 SWAP1 MSTORE PUSH1 0x24 SWAP1 REVERT JUMPDEST DUP8 MLOAD PUSH4 0xE602DF05 PUSH1 0xE0 SHL DUP2 MSTORE SWAP1 DUP2 ADD DUP5 SWAP1 MSTORE PUSH1 0x24 SWAP1 REVERT JUMPDEST DUP8 MLOAD PUSH4 0x7DC7A0D9 PUSH1 0xE1 SHL DUP2 MSTORE CALLER SWAP2 DUP2 ADD SWAP2 DUP3 MSTORE PUSH1 0x20 DUP3 ADD SWAP4 SWAP1 SWAP4 MSTORE PUSH1 0x40 DUP2 ADD DUP8 SWAP1 MSTORE DUP3 SWAP2 POP PUSH1 0x60 ADD SUB SWAP1 REVERT JUMPDEST POP POP CALLVALUE PUSH2 0x1E5 JUMPI DUP2 PUSH1 0x3 NOT CALLDATASIZE ADD SLT PUSH2 0x1E5 JUMPI PUSH1 0x20 SWAP1 PUSH1 0x2 SLOAD SWAP1 MLOAD SWAP1 DUP2 MSTORE RETURN JUMPDEST POP CALLVALUE PUSH2 0x198 JUMPI DUP2 PUSH1 0x3 NOT CALLDATASIZE ADD SLT PUSH2 0x198 JUMPI PUSH2 0xCDB PUSH2 0xEAA JUMP JUMPDEST PUSH1 0x24 CALLDATALOAD SWAP1 CALLER ISZERO PUSH2 0xD54 JUMPI PUSH1 0x1 PUSH1 0x1 PUSH1 0xA0 SHL SUB AND SWAP2 DUP3 ISZERO PUSH2 0xD3D JUMPI POP DUP1 DUP4 PUSH1 0x20 SWAP6 CALLER DUP2 MSTORE PUSH1 0x1 DUP8 MSTORE DUP2 DUP2 KECCAK256 DUP6 DUP3 MSTORE DUP8 MSTORE KECCAK256 SSTORE DUP3 MLOAD SWAP1 DUP2 MSTORE PUSH32 0x8C5BE1E5EBEC7D5BD14F71427D1E84F3DD0314C0F7B2291E5B200AC8C7C3B925 DUP5 CALLER SWAP3 LOG3 MLOAD PUSH1 0x1 DUP2 MSTORE RETURN JUMPDEST DUP4 MLOAD PUSH4 0x4A1406B1 PUSH1 0xE1 SHL DUP2 MSTORE SWAP1 DUP2 ADD DUP6 SWAP1 MSTORE PUSH1 0x24 SWAP1 REVERT JUMPDEST DUP4 MLOAD PUSH4 0xE602DF05 PUSH1 0xE0 SHL DUP2 MSTORE DUP1 DUP5 ADD DUP7 SWAP1 MSTORE PUSH1 0x24 SWAP1 REVERT JUMPDEST SWAP3 SWAP2 SWAP1 POP CALLVALUE PUSH2 0xE5D JUMPI DUP4 PUSH1 0x3 NOT CALLDATASIZE ADD SLT PUSH2 0xE5D JUMPI PUSH1 0x3 SLOAD PUSH1 0x1 DUP2 DUP2 SHR SWAP2 DUP7 SWAP1 DUP3 DUP2 AND DUP1 ISZERO PUSH2 0xE53 JUMPI JUMPDEST PUSH1 0x20 SWAP6 DUP7 DUP7 LT DUP3 EQ PUSH2 0xE40 JUMPI POP DUP5 DUP9 MSTORE SWAP1 DUP2 ISZERO PUSH2 0xE1E JUMPI POP PUSH1 0x1 EQ PUSH2 0xDC5 JUMPI JUMPDEST PUSH2 0x5BD DUP7 DUP7 PUSH2 0x5B3 DUP3 DUP12 SUB DUP4 PUSH2 0xF39 JUMP JUMPDEST SWAP3 SWAP6 POP PUSH1 0x3 DUP4 MSTORE PUSH32 0xC2575A0E9E593C00F959F8C92F12DB2869C3395A3B0502D05E2516446F71F85B JUMPDEST DUP3 DUP5 LT PUSH2 0xE0B JUMPI POP POP POP DUP3 PUSH2 0x5BD SWAP5 PUSH2 0x5B3 SWAP3 DUP3 ADD ADD SWAP5 CODESIZE PUSH2 0xDB4 JUMP JUMPDEST DUP1 SLOAD DUP7 DUP6 ADD DUP9 ADD MSTORE SWAP3 DUP7 ADD SWAP3 DUP2 ADD PUSH2 0xDEE JUMP JUMPDEST PUSH1 0xFF NOT AND DUP8 DUP7 ADD MSTORE POP POP POP ISZERO ISZERO PUSH1 0x5 SHL DUP4 ADD ADD SWAP3 POP PUSH2 0x5B3 DUP3 PUSH2 0x5BD CODESIZE PUSH2 0xDB4 JUMP JUMPDEST PUSH4 0x4E487B71 PUSH1 0xE0 SHL DUP5 MSTORE PUSH1 0x22 SWAP1 MSTORE PUSH1 0x24 DUP4 REVERT JUMPDEST SWAP4 PUSH1 0x7F AND SWAP4 PUSH2 0xD94 JUMP JUMPDEST DUP4 DUP1 REVERT JUMPDEST PUSH1 0x20 DUP1 DUP3 MSTORE DUP3 MLOAD DUP2 DUP4 ADD DUP2 SWAP1 MSTORE SWAP1 SWAP4 SWAP3 PUSH1 0x0 JUMPDEST DUP3 DUP2 LT PUSH2 0xE96 JUMPI POP POP PUSH1 0x40 SWAP3 SWAP4 POP PUSH1 0x0 DUP4 DUP3 DUP5 ADD ADD MSTORE PUSH1 0x1F DUP1 NOT SWAP2 ADD AND ADD ADD SWAP1 JUMP JUMPDEST DUP2 DUP2 ADD DUP7 ADD MLOAD DUP5 DUP3 ADD PUSH1 0x40 ADD MSTORE DUP6 ADD PUSH2 0xE74 JUMP JUMPDEST PUSH1 0x4 CALLDATALOAD SWAP1 PUSH1 0x1 PUSH1 0x1 PUSH1 0xA0 SHL SUB DUP3 AND DUP3 SUB PUSH2 0xEC0 JUMPI JUMP JUMPDEST PUSH1 0x0 DUP1 REVERT JUMPDEST PUSH1 0x24 CALLDATALOAD SWAP1 PUSH1 0x1 PUSH1 0x1 PUSH1 0xA0 SHL SUB DUP3 AND DUP3 SUB PUSH2 0xEC0 JUMPI JUMP JUMPDEST PUSH1 0x5 SLOAD PUSH1 0x1 PUSH1 0x1 PUSH1 0xA0 SHL SUB AND CALLER SUB PUSH2 0xEEF JUMPI JUMP JUMPDEST PUSH1 0x40 MLOAD PUSH4 0x118CDAA7 PUSH1 0xE0 SHL DUP2 MSTORE CALLER PUSH1 0x4 DUP3 ADD MSTORE PUSH1 0x24 SWAP1 REVERT JUMPDEST PUSH1 0xC0 DUP2 ADD SWAP1 DUP2 LT PUSH8 0xFFFFFFFFFFFFFFFF DUP3 GT OR PUSH2 0xF23 JUMPI PUSH1 0x40 MSTORE JUMP JUMPDEST PUSH4 0x4E487B71 PUSH1 0xE0 SHL PUSH1 0x0 MSTORE PUSH1 0x41 PUSH1 0x4 MSTORE PUSH1 0x24 PUSH1 0x0 REVERT JUMPDEST SWAP1 PUSH1 0x1F DUP1 NOT SWAP2 ADD AND DUP2 ADD SWAP1 DUP2 LT PUSH8 0xFFFFFFFFFFFFFFFF DUP3 GT OR PUSH2 0xF23 JUMPI PUSH1 0x40 MSTORE JUMP JUMPDEST SWAP2 PUSH1 0x1 PUSH1 0x1 PUSH1 0xA0 SHL SUB DUP1 DUP5 AND SWAP3 DUP4 ISZERO PUSH2 0x1020 JUMPI AND SWAP3 DUP4 ISZERO PUSH2 0x1007 JUMPI PUSH1 0x0 SWAP1 DUP4 DUP3 MSTORE DUP2 PUSH1 0x20 MSTORE PUSH1 0x40 DUP3 KECCAK256 SLOAD SWAP1 DUP4 DUP3 LT PUSH2 0xFD5 JUMPI POP SWAP2 PUSH1 0x40 DUP3 DUP3 PUSH32 0xDDF252AD1BE2C89B69C2B068FC378DAA952BA7F163C4A11628F55A4DF523B3EF SWAP6 DUP8 PUSH1 0x20 SWAP7 MSTORE DUP3 DUP7 MSTORE SUB DUP3 DUP3 KECCAK256 SSTORE DUP7 DUP2 MSTORE KECCAK256 DUP2 DUP2 SLOAD ADD SWAP1 SSTORE PUSH1 0x40 MLOAD SWAP1 DUP2 MSTORE LOG3 JUMP JUMPDEST PUSH1 0x40 MLOAD PUSH4 0x391434E3 PUSH1 0xE2 SHL DUP2 MSTORE PUSH1 0x1 PUSH1 0x1 PUSH1 0xA0 SHL SUB SWAP2 SWAP1 SWAP2 AND PUSH1 0x4 DUP3 ADD MSTORE PUSH1 0x24 DUP2 ADD SWAP2 SWAP1 SWAP2 MSTORE PUSH1 0x44 DUP2 ADD DUP4 SWAP1 MSTORE PUSH1 0x64 SWAP1 REVERT JUMPDEST PUSH1 0x40 MLOAD PUSH4 0xEC442F05 PUSH1 0xE0 SHL DUP2 MSTORE PUSH1 0x0 PUSH1 0x4 DUP3 ADD MSTORE PUSH1 0x24 SWAP1 REVERT JUMPDEST PUSH1 0x40 MLOAD PUSH4 0x4B637E8F PUSH1 0xE1 SHL DUP2 MSTORE PUSH1 0x0 PUSH1 0x4 DUP3 ADD MSTORE PUSH1 0x24 SWAP1 REVERT JUMPDEST PUSH1 0xFF PUSH1 0x5 SLOAD PUSH1 0xA0 SHR AND PUSH2 0x1048 JUMPI JUMP JUMPDEST PUSH1 0x40 MLOAD PUSH4 0xD93C0665 PUSH1 0xE0 SHL DUP2 MSTORE PUSH1 0x4 SWAP1 REVERT JUMPDEST PUSH1 0x2 PUSH1 0x6 SLOAD EQ PUSH2 0x106B JUMPI PUSH1 0x2 PUSH1 0x6 SSTORE JUMP JUMPDEST PUSH1 0x40 MLOAD PUSH4 0x3EE5AEB5 PUSH1 0xE0 SHL DUP2 MSTORE PUSH1 0x4 SWAP1 REVERT JUMPDEST ISZERO PUSH2 0x1084 JUMPI JUMP JUMPDEST PUSH1 0x40 MLOAD PUSH3 0x461BCD PUSH1 0xE5 SHL DUP2 MSTORE PUSH1 0x20 PUSH1 0x4 DUP3 ADD MSTORE PUSH1 0x14 PUSH1 0x24 DUP3 ADD MSTORE PUSH20 0x496E76616C696420657363726F77207374617465 PUSH1 0x60 SHL PUSH1 0x44 DUP3 ADD MSTORE PUSH1 0x64 SWAP1 REVERT INVALID LOG2 PUSH5 0x6970667358 0x22 SLT KECCAK256 SWAP14 DUP10 0xA6 0xBC 0xF6 0xD2 SWAP13 BASEFEE EQ SWAP9 0xCA 0x27 CALL 0xF7 0xB8 ISZERO 0x5C PREVRANDAO ISZERO MSIZE XOR 0xC1 XOR 0xD1 SWAP8 PUSH28 0x6FF7ED2DDF2E64736F6C634300081400330000000000000000000000 "},"gasEstimates":{"creation":{"codeDepositCost":"868400","executionCost":"infinite","totalCost":"infinite"},"external":{"allowance(address,address)":"2988","approve(address,uint256)":"24343","balanceOf(address)":"2670","decimals()":"259","getEscrowDetails(bytes32)":"9264","jobEscrows(bytes32)":"9021","lockTokens(bytes32,uint256,address)":"199300","name()":"infinite","owner()":"2606","partialRefund(bytes32,uint256)":"infinite","pause()":"30019","paused()":"2493","refundTokens(bytes32)":"138250","releaseTokens(bytes32)":"134273","renounceOwnership()":"28345","symbol()":"infinite","totalSupply()":"2321","transfer(address,uint256)":"51172","transferFrom(address,address,uint256)":"75538","transferOwnership(address)":"28611","unpause()":"27713"}},"methodIdentifiers":{"allowance(address,address)":"dd62ed3e","approve(address,uint256)":"095ea7b3","balanceOf(address)":"70a08231","decimals()":"313ce567","getEscrowDetails(bytes32)":"51a89ce8","jobEscrows(bytes32)":"58d7faad","lockTokens(bytes32,uint256,address)":"9caa0f3d","name()":"06fdde03","owner()":"8da5cb5b","partialRefund(bytes32,uint256)":"6a30a194","pause()":"8456cb59","paused()":"5c975abb","refundTokens(bytes32)":"4397ca80","releaseTokens(bytes32)":"9f1fa6e2","renounceOwnership()":"715018a6","symbol()":"95d89b41","totalSupply()":"18160ddd","transfer(address,uint256)":"a9059cbb","transferFrom(address,address,uint256)":"23b872dd","transferOwnership(address)":"f2fde38b","unpause()":"3f4ba83a"}},"storageLayout":{"storage":[{"astId":307,"contract":"contracts/EryzaToken.sol:EryzaToken","label":"_balances","offset":0,"slot":"0","type":"t_mapping(t_address,t_uint256)"},{"astId":313,"contract":"contracts/EryzaToken.sol:EryzaToken","label":"_allowances","offset":0,"slot":"1","type":"t_mapping(t_address,t_mapping(t_address,t_uint256))"},{"astId":315,"contract":"contracts/EryzaToken.sol:EryzaToken","label":"_totalSupply","offset":0,"slot":"2","type":"t_uint256"},{"astId":317,"contract":"contracts/EryzaToken.sol:EryzaToken","label":"_name","offset":0,"slot":"3","type":"t_string_storage"},{"astId":319,"contract":"contracts/EryzaToken.sol:EryzaToken","label":"_symbol","offset":0,"slot":"4","type":"t_string_storage"},{"astId":8,"contract":"contracts/EryzaToken.sol:EryzaToken","label":"_owner","offset":0,"slot":"5","type":"t_address"},{"astId":942,"contract":"contracts/EryzaToken.sol:EryzaToken","label":"_paused","offset":20,"slot":"5","type":"t_bool"},{"astId":1052,"contract":"contracts/EryzaToken.sol:EryzaToken","label":"_status","offset":0,"slot":"6","type":"t_uint256"},{"astId":1142,"contract":"contracts/EryzaToken.sol:EryzaToken","label":"jobEscrows","offset":0,"slot":"7","type":"t_mapping(t_bytes32,t_struct(JobEscrow)1137_storage)"}],"types":{"t_address":{"encoding":"inplace","label":"address","numberOfBytes":"20"},"t_bool":{"encoding":"inplace","label":"bool","numberOfBytes":"1"},"t_bytes32":{"encoding":"inplace","label":"bytes32","numberOfBytes":"32"},"t_mapping(t_address,t_mapping(t_address,t_uint256))":{"encoding":"mapping","key":"t_address","label":"mapping(address => mapping(address => uint256))","numberOfBytes":"32","value":"t_mapping(t_address,t_uint256)"},"t_mapping(t_address,t_uint256)":{"encoding":"mapping","key":"t_address","label":"mapping(address => uint256)","numberOfBytes":"32","value":"t_uint256"},"t_mapping(t_bytes32,t_struct(JobEscrow)1137_storage)":{"encoding":"mapping","key":"t_bytes32","label":"mapping(bytes32 => struct EryzaToken.JobEscrow)","numberOfBytes":"32","value":"t_struct(JobEscrow)1137_storage"},"t_string_storage":{"encoding":"bytes","label":"string","numberOfBytes":"32"},"t_struct(JobEscrow)1137_storage":{"encoding":"inplace","label":"struct EryzaToken.JobEscrow","members":[{"astId":1126,"contract":"contracts/EryzaToken.sol:EryzaToken","label":"amount","offset":0,"slot":"0","type":"t_uint256"},{"astId":1128,"contract":"contracts/EryzaToken.sol:EryzaToken","label":"user","offset":0,"slot":"1","type":"t_address"},{"astId":1130,"contract":"contracts/EryzaToken.sol:EryzaToken","label":"provider","offset":0,"slot":"2","type":"t_address"},{"astId":1132,"contract":"contracts/EryzaToken.sol:EryzaToken","label":"locked","offset":20,"slot":"2","type":"t_bool"},{"astId":1134,"contract":"contracts/EryzaToken.sol:EryzaToken","label":"released","offset":21,"slot":"2","type":"t_bool"},{"astId":1136,"contract":"contracts/EryzaToken.sol:EryzaToken","label":"deadline","offset":0,"slot":"3","type":"t_uint256"}],"numberOfBytes":"128"},"t_uint256":{"encoding":"inplace","label":"uint256","numberOfBytes":"32"}}},"userdoc":{"kind":"user","methods":{"getEscrowDetails(bytes32)":{"notice":"Get escrow details for a job"},"lockTokens(bytes32,uint256,address)":{"notice":"Lock tokens in escrow for a job"},"partialRefund(bytes32,uint256)":{"notice":"Partial refund in case of disputes"},"refundTokens(bytes32)":{"notice":"Refund tokens to the user if job fails or is cancelled"},"releaseTokens(bytes32)":{"notice":"Release tokens to the provider upon job completion"}},"version":1}}}}