{"blockchain/contracts/EryzaStaking.sol":{"EryzaStaking":{"abi":[{"inputs":[{"internalType":"address","name":"_stakeToken","type":"address"},{"internalType":"address","name":"_rewardToken","type":"address"}],"stateMutability":"nonpayable","type":"constructor"},{"inputs":[{"internalType":"address","name":"owner","type":"address"}],"name":"OwnableInvalidOwner","type":"error"},{"inputs":[{"internalType":"address","name":"account","type":"address"}],"name":"OwnableUnauthorizedAccount","type":"error"},{"inputs":[],"name":"ReentrancyGuardReentrantCall","type":"error"},{"inputs":[{"internalType":"address","name":"token","type":"address"}],"name":"SafeERC20FailedOperation","type":"error"},{"anonymous":false,"inputs":[{"indexed":true,"internalType":"address","name":"previousOwner","type":"address"},{"indexed":true,"internalType":"address","name":"newOwner","type":"address"}],"name":"OwnershipTransferred","type":"event"},{"anonymous":false,"inputs":[{"indexed":false,"internalType":"uint256","name":"amount","type":"uint256"}],"name":"RewardsAdded","type":"event"},{"anonymous":false,"inputs":[{"indexed":true,"internalType":"address","name":"user","type":"address"},{"indexed":false,"internalType":"uint256","name":"reward","type":"uint256"}],"name":"RewardsClaimed","type":"event"},{"anonymous":false,"inputs":[{"indexed":true,"internalType":"address","name":"user","type":"address"},{"indexed":false,"internalType":"uint256","name":"amount","type":"uint256"}],"name":"Staked","type":"event"},{"anonymous":false,"inputs":[{"indexed":true,"internalType":"address","name":"user","type":"address"},{"indexed":false,"internalType":"uint256","name":"amount","type":"uint256"}],"name":"Unstaked","type":"event"},{"inputs":[],"name":"LOCK_PERIOD","outputs":[{"internalType":"uint256","name":"","type":"uint256"}],"stateMutability":"view","type":"function"},{"inputs":[],"name":"MINIMUM_STAKE","outputs":[{"internalType":"uint256","name":"","type":"uint256"}],"stateMutability":"view","type":"function"},{"inputs":[{"internalType":"uint256","name":"reward","type":"uint256"}],"name":"addRewards","outputs":[],"stateMutability":"nonpayable","type":"function"},{"inputs":[],"name":"claimRewards","outputs":[],"stateMutability":"nonpayable","type":"function"},{"inputs":[{"internalType":"address","name":"account","type":"address"}],"name":"earned","outputs":[{"internalType":"uint256","name":"","type":"uint256"}],"stateMutability":"view","type":"function"},{"inputs":[{"internalType":"address","name":"token","type":"address"},{"internalType":"uint256","name":"amount","type":"uint256"}],"name":"emergencyWithdraw","outputs":[],"stateMutability":"nonpayable","type":"function"},{"inputs":[],"name":"exit","outputs":[],"stateMutability":"nonpayable","type":"function"},{"inputs":[],"name":"getStakingStats","outputs":[{"internalType":"uint256","name":"_totalStaked","type":"uint256"},{"internalType":"uint256","name":"_rewardRate","type":"uint256"},{"internalType":"uint256","name":"_periodFinish","type":"uint256"},{"internalType":"uint256","name":"_rewardPerTokenStored","type":"uint256"}],"stateMutability":"view","type":"function"},{"inputs":[{"internalType":"address","name":"account","type":"address"}],"name":"getUserInfo","outputs":[{"internalType":"uint256","name":"stakedAmount","type":"uint256"},{"internalType":"uint256","name":"earnedRewards","type":"uint256"},{"internalType":"uint256","name":"lockTimeRemaining","type":"uint256"}],"stateMutability":"view","type":"function"},{"inputs":[],"name":"lastTimeRewardApplicable","outputs":[{"internalType":"uint256","name":"","type":"uint256"}],"stateMutability":"view","type":"function"},{"inputs":[],"name":"lastUpdateTime","outputs":[{"internalType":"uint256","name":"","type":"uint256"}],"stateMutability":"view","type":"function"},{"inputs":[],"name":"owner","outputs":[{"internalType":"address","name":"","type":"address"}],"stateMutability":"view","type":"function"},{"inputs":[],"name":"periodFinish","outputs":[{"internalType":"uint256","name":"","type":"uint256"}],"stateMutability":"view","type":"function"},{"inputs":[],"name":"renounceOwnership","outputs":[],"stateMutability":"nonpayable","type":"function"},{"inputs":[],"name":"rewardPerToken","outputs":[{"internalType":"uint256","name":"","type":"uint256"}],"stateMutability":"view","type":"function"},{"inputs":[],"name":"rewardPerTokenStored","outputs":[{"internalType":"uint256","name":"","type":"uint256"}],"stateMutability":"view","type":"function"},{"inputs":[],"name":"rewardRate","outputs":[{"internalType":"uint256","name":"","type":"uint256"}],"stateMutability":"view","type":"function"},{"inputs":[],"name":"rewardToken","outputs":[{"internalType":"contract IERC20","name":"","type":"address"}],"stateMutability":"view","type":"function"},{"inputs":[{"internalType":"address","name":"","type":"address"}],"name":"rewards","outputs":[{"internalType":"uint256","name":"","type":"uint256"}],"stateMutability":"view","type":"function"},{"inputs":[],"name":"rewardsDuration","outputs":[{"internalType":"uint256","name":"","type":"uint256"}],"stateMutability":"view","type":"function"},{"inputs":[{"internalType":"uint256","name":"_rewardsDuration","type":"uint256"}],"name":"setRewardsDuration","outputs":[],"stateMutability":"nonpayable","type":"function"},{"inputs":[{"internalType":"uint256","name":"amount","type":"uint256"}],"name":"stake","outputs":[],"stateMutability":"nonpayable","type":"function"},{"inputs":[],"name":"stakeToken","outputs":[{"internalType":"contract IERC20","name":"","type":"address"}],"stateMutability":"view","type":"function"},{"inputs":[],"name":"totalStaked","outputs":[{"internalType":"uint256","name":"","type":"uint256"}],"stateMutability":"view","type":"function"},{"inputs":[{"internalType":"address","name":"newOwner","type":"address"}],"name":"transferOwnership","outputs":[],"stateMutability":"nonpayable","type":"function"},{"inputs":[{"internalType":"uint256","name":"amount","type":"uint256"}],"name":"unstake","outputs":[],"stateMutability":"nonpayable","type":"function"},{"inputs":[{"internalType":"address","name":"","type":"address"}],"name":"userInfo","outputs":[{"internalType":"uint256","name":"stakedAmount","type":"uint256"},{"internalType":"uint256","name":"rewardDebt","type":"uint256"},{"internalType":"uint256","name":"lastStakeTime","type":"uint256"}],"stateMutability":"view","type":"function"},{"inputs":[{"internalType":"address","name":"","type":"address"}],"name":"userRewardPerTokenPaid","outputs":[{"internalType":"uint256","name":"","type":"uint256"}],"stateMutability":"view","type":"function"}],"devdoc":{"details":"Staking contract for ERYZA tokens with rewards distribution","errors":{"OwnableInvalidOwner(address)":[{"details":"The owner is not a valid owner account. (eg. `address(0)`)"}],"OwnableUnauthorizedAccount(address)":[{"details":"The caller account is not authorized to perform an operation."}],"ReentrancyGuardReentrantCall()":[{"details":"Unauthorized reentrant call."}],"SafeERC20FailedOperation(address)":[{"details":"An operation with an ERC-20 token failed."}]},"kind":"dev","methods":{"addRewards(uint256)":{"details":"Add rewards to the contract (only owner)"},"claimRewards()":{"details":"Claim rewards"},"earned(address)":{"details":"Calculate earned rewards for a user"},"emergencyWithdraw(address,uint256)":{"details":"Emergency withdraw (only owner, for emergency situations)"},"exit()":{"details":"Exit staking (unstake all and claim rewards)"},"getStakingStats()":{"details":"Get staking stats"},"getUserInfo(address)":{"details":"Get user staking info"},"lastTimeRewardApplicable()":{"details":"Get last time reward applicable"},"owner()":{"details":"Returns the address of the current owner."},"renounceOwnership()":{"details":"Leaves the contract without owner. It will not be possible to call `onlyOwner` functions. Can only be called by the current owner. NOTE: Renouncing ownership will leave the contract without an owner, thereby disabling any functionality that is only available to the owner."},"rewardPerToken()":{"details":"Calculate reward per token"},"setRewardsDuration(uint256)":{"details":"Set rewards duration (only owner)"},"stake(uint256)":{"details":"Stake tokens"},"transferOwnership(address)":{"details":"Transfers ownership of the contract to a new account (`newOwner`). Can only be called by the current owner."},"unstake(uint256)":{"details":"Unstake tokens"}},"title":"EryzaStaking","version":1},"evm":{"bytecode":{"linkReferences":{},"object":"6080346100ee57601f61111a38819003918201601f19168301916001600160401b038311848410176100f35780849260409485528339810103126100ee57610052602061004b83610109565b9201610109565b600160005533156100d55760018054336001600160a01b031980831682179093556040519492936001600160a01b0393909284929083167f8be0079c531659141344cd1fd0a4f28419497f9722a3daafe3b4186f6b6457e0600080a362093a806008551683600254161760025516906003541617600355610ffc908161011e8239f35b604051631e4fbdf760e01b815260006004820152602490fd5b600080fd5b634e487b7160e01b600052604160045260246000fd5b51906001600160a01b03821682036100ee5756fe6040608081526004908136101561001557600080fd5b600091823560e01c9081628cc26214610b0e5781630700037d14610ad657816308dbbb0314610ab25781631820cabb14610a945781631959a00214610a385781632e17de7814610a0c578163372500ab14610945578163386a95251461092657816351ed6a30146108fd5781636386c1c714610811578163715018a6146107b45781637b0a47ee1461079557816380faa57d14610778578163817b1cd21461075a5781638b876347146107225781638da5cb5b146106f957816395ccea67146106b6578163a694fc3a14610551578163beceed3914610439578163c1dd608414610401578163c8f33c91146103e2578163cc1a378f14610360578163cd3daf9d1461033c578163df136d651461031d578163e9fad8ee14610234578163ebe2b12b14610215578163f2fde38b14610181575063f7c618c11461015657600080fd5b3461017d578160031936011261017d5760035490516001600160a01b039091168152602090f35b5080fd5b9050346102115760203660031901126102115761019c610b34565b906101a5610b4f565b6001600160a01b039182169283156101fb575050600154826bffffffffffffffffffffffff60a01b821617600155167f8be0079c531659141344cd1fd0a4f28419497f9722a3daafe3b4186f6b6457e08380a380f35b51631e4fbdf760e01b8152908101849052602490fd5b8280fd5b50503461017d578160031936011261017d576020906009549051908152f35b50503461017d578160031936011261017d573382526020600a815261027c828420835161026081610c4a565b8460028354938484526001810154878501520154910152610de0565b610284610bf3565b60055561028f610b7b565b600655336102f9575b338352600a81526001828420019081549284846102b25780f35b7ffc30cddea38e2bf4d6ea7d3f9ed3b6ad7f176419f4963bd81318067a4aee73fe93556102ea843360018060a01b0360035416610f76565b519283523392a2388080808480f35b61030233610c7c565b338452600c825282842055600554600b825282842055610298565b50503461017d578160031936011261017d576020906005549051908152f35b50503461017d578160031936011261017d57602090610359610bf3565b9051908152f35b919050346102115760203660031901126102115761037c610b4f565b60095442111561038e57503560085580f35b906020608492519162461bcd60e51b8352820152602860248201527f50726576696f7573207265776172647320706572696f64206d75737420626520604482015267636f6d706c65746560c01b6064820152fd5b50503461017d578160031936011261017d576020906006549051908152f35b905034610211578260031936011261021157608092505490600754906009549060055492815194855260208501528301526060820152f35b9190503461021157602036600319011261021157813591610458610b4f565b610460610bf3565b600555821561051857507ff8fad42e780bfa5459be3fe691e8ba1aec70342250112139c5771c3fd155f31291602091600954804210156000146104e457506104aa60085483610bc6565b6007555b426006556104be60085442610be6565b6009556003546104dc908390309033906001600160a01b0316610cfa565b51908152a180f35b6105076105016104f8610510934290610b90565b60075490610bb3565b84610be6565b60085490610bc6565b6007556104ae565b6020606492519162461bcd60e51b8352820152601460248201527343616e6e6f74206164642030207265776172647360601b6044820152fd5b9190503461021157602090816003193601126106b257823592610572610dbd565b61057a610bf3565b600555610585610b7b565b6006553361068e575b68056bc75e2d63100000841061064d57831561061b5733808652600a84528286206002547f9e71bc8eea02a63969f509818f2dafb9254532904319f9dbda79b67bd34a5f3d959493926105ed91889130916001600160a01b0316610cfa565b6105f8868254610be6565b815560024291015561060b858254610be6565b9055519283523392a26001815580f35b82606492519162461bcd60e51b8352820152600e60248201526d043616e6e6f74207374616b6520360941b6044820152fd5b82606492519162461bcd60e51b8352820152601a60248201527f416d6f756e742062656c6f77206d696e696d756d207374616b650000000000006044820152fd5b61069733610c7c565b338652600c845282862055600554600b84528286205561058e565b8380fd5b50503461017d573660031901126106f6576106f36106d2610b34565b6106da610b4f565b600154602435916001600160a01b039182169116610f76565b80f35b80fd5b50503461017d578160031936011261017d5760015490516001600160a01b039091168152602090f35b50503461017d57602036600319011261017d5760209181906001600160a01b0361074a610b34565b168152600b845220549051908152f35b90503461021157826003193601126102115760209250549051908152f35b50503461017d578160031936011261017d57602090610359610b7b565b50503461017d578160031936011261017d576020906007549051908152f35b83346106f657806003193601126106f6576107cd610b4f565b600180546001600160a01b0319811690915581906001600160a01b03167f8be0079c531659141344cd1fd0a4f28419497f9722a3daafe3b4186f6b6457e08280a380f35b83833461017d57602036600319011261017d5761082c610b34565b6001600160a01b0381168352600a6020528183208251909390916108729061085384610c4a565b8460028754978887526001810154602088015201549401938452610c7c565b9482519262093a80938481018091116108ea574210156108dc57519283018093116108c9575050906108a86108c5924290610b90565b905b51938493846040919493926060820195825260208201520152565b0390f35b634e487b7160e01b825260119052602490fd5b50506108c5929150906108aa565b634e487b7160e01b845260118352602484fd5b50503461017d578160031936011261017d5760025490516001600160a01b039091168152602090f35b50503461017d578160031936011261017d576020906008549051908152f35b50503461017d578160031936011261017d5761095f610dbd565b610967610bf3565b600555610972610b7b565b600655336109e6575b338252600c602052808220908282549283610999575b506001815580f35b556003546109b390839033906001600160a01b0316610f76565b519081527ffc30cddea38e2bf4d6ea7d3f9ed3b6ad7f176419f4963bd81318067a4aee73fe60203392a238808281610991565b6109ef33610c7c565b338352600c60205281832055600554600b6020528183205561097b565b83903461017d57602036600319011261017d57610a3190610a2b610dbd565b35610de0565b6001815580f35b50503461017d57602036600319011261017d579081906001600160a01b03610a5e610b34565b168152600a60205220906108c5825491600260018501549401549051938493846040919493926060820195825260208201520152565b50503461017d578160031936011261017d576020905162093a808152f35b50503461017d578160031936011261017d576020905168056bc75e2d631000008152f35b50503461017d57602036600319011261017d5760209181906001600160a01b03610afe610b34565b168152600c845220549051908152f35b50503461017d57602036600319011261017d57602090610359610b2f610b34565b610c7c565b600435906001600160a01b0382168203610b4a57565b600080fd5b6001546001600160a01b03163303610b6357565b60405163118cdaa760e01b8152336004820152602490fd5b600954804210600014610b8d57504290565b90565b91908203918211610b9d57565b634e487b7160e01b600052601160045260246000fd5b81810292918115918404141715610b9d57565b8115610bd0570490565b634e487b7160e01b600052601260045260246000fd5b91908201809211610b9d57565b6004548015610c4357600554610c166104f8610c0d610b7b565b60065490610b90565b670de0b6b3a764000090818102918183041490151715610b9d57610b8d92610c3d91610bc6565b90610be6565b5060055490565b6060810190811067ffffffffffffffff821117610c6657604052565b634e487b7160e01b600052604160045260246000fd5b610b8d9060018060a01b031660406000828152600a602052670de0b6b3a7640000610ce98383208451610cae81610c4a565b856002835493848452600181015460208501520154910152610ce3610cd1610bf3565b878652600b6020528686205490610b90565b90610bb3565b04928152600c602052205490610be6565b6040516323b872dd60e01b60208201526001600160a01b03928316602482015292909116604483015260648083019390935291815260a081019181831067ffffffffffffffff841117610c6657610d5392604052610d55565b565b906000602091828151910182855af115610db1576000513d610da857506001600160a01b0381163b155b610d865750565b604051635274afe760e01b81526001600160a01b039091166004820152602490fd5b60011415610d7f565b6040513d6000823e3d90fd5b600260005414610dce576002600055565b604051633ee5aeb560e01b8152600490fd5b610de8610bf3565b600555610df3610b7b565b60065533610f4b575b8015610f135733600052600a60205260406000208054828110610ece57600282015462093a808101809111610b9d574210610e935782610e3b91610b90565b9055610e4981600454610b90565b600455600254610e6590829033906001600160a01b0316610f76565b6040519081527f0f5bb82176feb1b5e747e28471aa92156a04d9f3ab9f45f28e2d704232b93f7560203392a2565b60405162461bcd60e51b8152602060048201526013602482015272151bdad95b9cc81cdd1a5b1b081b1bd8dad959606a1b6044820152606490fd5b60405162461bcd60e51b815260206004820152601a60248201527f496e73756666696369656e74207374616b656420616d6f756e740000000000006044820152606490fd5b60405162461bcd60e51b815260206004820152601060248201526f043616e6e6f7420756e7374616b6520360841b6044820152606490fd5b610f5433610c7c565b33600052600c602052604060002055600554600b602052604060002055610dfc565b60405163a9059cbb60e01b60208201526001600160a01b039092166024830152604480830193909352918152608081019167ffffffffffffffff831182841017610c6657610d5392604052610d5556fea2646970667358221220c5244a9e76fb3ec26d8422bd881120f00c6b17ecd31d37c9ea74e74763b758ae64736f6c63430008140033","opcodes":"PUSH1 0x80 CALLVALUE PUSH2 0xEE JUMPI PUSH1 0x1F PUSH2 0x111A CODESIZE DUP2 SWAP1 SUB SWAP2 DUP3 ADD PUSH1 0x1F NOT AND DUP4 ADD SWAP2 PUSH1 0x1 PUSH1 0x1 PUSH1 0x40 SHL SUB DUP4 GT DUP5 DUP5 LT OR PUSH2 0xF3 JUMPI DUP1 DUP5 SWAP3 PUSH1 0x40 SWAP5 DUP6 MSTORE DUP4 CODECOPY DUP2 ADD SUB SLT PUSH2 0xEE JUMPI PUSH2 0x52 PUSH1 0x20 PUSH2 0x4B DUP4 PUSH2 0x109 JUMP JUMPDEST SWAP3 ADD PUSH2 0x109 JUMP JUMPDEST PUSH1 0x1 PUSH1 0x0 SSTORE CALLER ISZERO PUSH2 0xD5 JUMPI PUSH1 0x1 DUP1 SLOAD CALLER PUSH1 0x1 PUSH1 0x1 PUSH1 0xA0 SHL SUB NOT DUP1 DUP4 AND DUP3 OR SWAP1 SWAP4 SSTORE PUSH1 0x40 MLOAD SWAP5 SWAP3 SWAP4 PUSH1 0x1 PUSH1 0x1 PUSH1 0xA0 SHL SUB SWAP4 SWAP1 SWAP3 DUP5 SWAP3 SWAP1 DUP4 AND PUSH32 0x8BE0079C531659141344CD1FD0A4F28419497F9722A3DAAFE3B4186F6B6457E0 PUSH1 0x0 DUP1 LOG3 PUSH3 0x93A80 PUSH1 0x8 SSTORE AND DUP4 PUSH1 0x2 SLOAD AND OR PUSH1 0x2 SSTORE AND SWAP1 PUSH1 0x3 SLOAD AND OR PUSH1 0x3 SSTORE PUSH2 0xFFC SWAP1 DUP2 PUSH2 0x11E DUP3 CODECOPY RETURN JUMPDEST PUSH1 0x40 MLOAD PUSH4 0x1E4FBDF7 PUSH1 0xE0 SHL DUP2 MSTORE PUSH1 0x0 PUSH1 0x4 DUP3 ADD MSTORE PUSH1 0x24 SWAP1 REVERT JUMPDEST PUSH1 0x0 DUP1 REVERT JUMPDEST PUSH4 0x4E487B71 PUSH1 0xE0 SHL PUSH1 0x0 MSTORE PUSH1 0x41 PUSH1 0x4 MSTORE PUSH1 0x24 PUSH1 0x0 REVERT JUMPDEST MLOAD SWAP1 PUSH1 0x1 PUSH1 0x1 PUSH1 0xA0 SHL SUB DUP3 AND DUP3 SUB PUSH2 0xEE JUMPI JUMP INVALID PUSH1 0x40 PUSH1 0x80 DUP2 MSTORE PUSH1 0x4 SWAP1 DUP2 CALLDATASIZE LT ISZERO PUSH2 0x15 JUMPI PUSH1 0x0 DUP1 REVERT JUMPDEST PUSH1 0x0 SWAP2 DUP3 CALLDATALOAD PUSH1 0xE0 SHR SWAP1 DUP2 PUSH3 0x8CC262 EQ PUSH2 0xB0E JUMPI DUP2 PUSH4 0x700037D EQ PUSH2 0xAD6 JUMPI DUP2 PUSH4 0x8DBBB03 EQ PUSH2 0xAB2 JUMPI DUP2 PUSH4 0x1820CABB EQ PUSH2 0xA94 JUMPI DUP2 PUSH4 0x1959A002 EQ PUSH2 0xA38 JUMPI DUP2 PUSH4 0x2E17DE78 EQ PUSH2 0xA0C JUMPI DUP2 PUSH4 0x372500AB EQ PUSH2 0x945 JUMPI DUP2 PUSH4 0x386A9525 EQ PUSH2 0x926 JUMPI DUP2 PUSH4 0x51ED6A30 EQ PUSH2 0x8FD JUMPI DUP2 PUSH4 0x6386C1C7 EQ PUSH2 0x811 JUMPI DUP2 PUSH4 0x715018A6 EQ PUSH2 0x7B4 JUMPI DUP2 PUSH4 0x7B0A47EE EQ PUSH2 0x795 JUMPI DUP2 PUSH4 0x80FAA57D EQ PUSH2 0x778 JUMPI DUP2 PUSH4 0x817B1CD2 EQ PUSH2 0x75A JUMPI DUP2 PUSH4 0x8B876347 EQ PUSH2 0x722 JUMPI DUP2 PUSH4 0x8DA5CB5B EQ PUSH2 0x6F9 JUMPI DUP2 PUSH4 0x95CCEA67 EQ PUSH2 0x6B6 JUMPI DUP2 PUSH4 0xA694FC3A EQ PUSH2 0x551 JUMPI DUP2 PUSH4 0xBECEED39 EQ PUSH2 0x439 JUMPI DUP2 PUSH4 0xC1DD6084 EQ PUSH2 0x401 JUMPI DUP2 PUSH4 0xC8F33C91 EQ PUSH2 0x3E2 JUMPI DUP2 PUSH4 0xCC1A378F EQ PUSH2 0x360 JUMPI DUP2 PUSH4 0xCD3DAF9D EQ PUSH2 0x33C JUMPI DUP2 PUSH4 0xDF136D65 EQ PUSH2 0x31D JUMPI DUP2 PUSH4 0xE9FAD8EE EQ PUSH2 0x234 JUMPI DUP2 PUSH4 0xEBE2B12B EQ PUSH2 0x215 JUMPI DUP2 PUSH4 0xF2FDE38B EQ PUSH2 0x181 JUMPI POP PUSH4 0xF7C618C1 EQ PUSH2 0x156 JUMPI PUSH1 0x0 DUP1 REVERT JUMPDEST CALLVALUE PUSH2 0x17D JUMPI DUP2 PUSH1 0x3 NOT CALLDATASIZE ADD SLT PUSH2 0x17D JUMPI PUSH1 0x3 SLOAD SWAP1 MLOAD PUSH1 0x1 PUSH1 0x1 PUSH1 0xA0 SHL SUB SWAP1 SWAP2 AND DUP2 MSTORE PUSH1 0x20 SWAP1 RETURN JUMPDEST POP DUP1 REVERT JUMPDEST SWAP1 POP CALLVALUE PUSH2 0x211 JUMPI PUSH1 0x20 CALLDATASIZE PUSH1 0x3 NOT ADD SLT PUSH2 0x211 JUMPI PUSH2 0x19C PUSH2 0xB34 JUMP JUMPDEST SWAP1 PUSH2 0x1A5 PUSH2 0xB4F JUMP JUMPDEST PUSH1 0x1 PUSH1 0x1 PUSH1 0xA0 SHL SUB SWAP2 DUP3 AND SWAP3 DUP4 ISZERO PUSH2 0x1FB JUMPI POP POP PUSH1 0x1 SLOAD DUP3 PUSH12 0xFFFFFFFFFFFFFFFFFFFFFFFF PUSH1 0xA0 SHL DUP3 AND OR PUSH1 0x1 SSTORE AND PUSH32 0x8BE0079C531659141344CD1FD0A4F28419497F9722A3DAAFE3B4186F6B6457E0 DUP4 DUP1 LOG3 DUP1 RETURN JUMPDEST MLOAD PUSH4 0x1E4FBDF7 PUSH1 0xE0 SHL DUP2 MSTORE SWAP1 DUP2 ADD DUP5 SWAP1 MSTORE PUSH1 0x24 SWAP1 REVERT JUMPDEST DUP3 DUP1 REVERT JUMPDEST POP POP CALLVALUE PUSH2 0x17D JUMPI DUP2 PUSH1 0x3 NOT CALLDATASIZE ADD SLT PUSH2 0x17D JUMPI PUSH1 0x20 SWAP1 PUSH1 0x9 SLOAD SWAP1 MLOAD SWAP1 DUP2 MSTORE RETURN JUMPDEST POP POP CALLVALUE PUSH2 0x17D JUMPI DUP2 PUSH1 0x3 NOT CALLDATASIZE ADD SLT PUSH2 0x17D JUMPI CALLER DUP3 MSTORE PUSH1 0x20 PUSH1 0xA DUP2 MSTORE PUSH2 0x27C DUP3 DUP5 KECCAK256 DUP4 MLOAD PUSH2 0x260 DUP2 PUSH2 0xC4A JUMP JUMPDEST DUP5 PUSH1 0x2 DUP4 SLOAD SWAP4 DUP5 DUP5 MSTORE PUSH1 0x1 DUP2 ADD SLOAD DUP8 DUP6 ADD MSTORE ADD SLOAD SWAP2 ADD MSTORE PUSH2 0xDE0 JUMP JUMPDEST PUSH2 0x284 PUSH2 0xBF3 JUMP JUMPDEST PUSH1 0x5 SSTORE PUSH2 0x28F PUSH2 0xB7B JUMP JUMPDEST PUSH1 0x6 SSTORE CALLER PUSH2 0x2F9 JUMPI JUMPDEST CALLER DUP4 MSTORE PUSH1 0xA DUP2 MSTORE PUSH1 0x1 DUP3 DUP5 KECCAK256 ADD SWAP1 DUP2 SLOAD SWAP3 DUP5 DUP5 PUSH2 0x2B2 JUMPI DUP1 RETURN JUMPDEST PUSH32 0xFC30CDDEA38E2BF4D6EA7D3F9ED3B6AD7F176419F4963BD81318067A4AEE73FE SWAP4 SSTORE PUSH2 0x2EA DUP5 CALLER PUSH1 0x1 DUP1 PUSH1 0xA0 SHL SUB PUSH1 0x3 SLOAD AND PUSH2 0xF76 JUMP JUMPDEST MLOAD SWAP3 DUP4 MSTORE CALLER SWAP3 LOG2 CODESIZE DUP1 DUP1 DUP1 DUP5 DUP1 RETURN JUMPDEST PUSH2 0x302 CALLER PUSH2 0xC7C JUMP JUMPDEST CALLER DUP5 MSTORE PUSH1 0xC DUP3 MSTORE DUP3 DUP5 KECCAK256 SSTORE PUSH1 0x5 SLOAD PUSH1 0xB DUP3 MSTORE DUP3 DUP5 KECCAK256 SSTORE PUSH2 0x298 JUMP JUMPDEST POP POP CALLVALUE PUSH2 0x17D JUMPI DUP2 PUSH1 0x3 NOT CALLDATASIZE ADD SLT PUSH2 0x17D JUMPI PUSH1 0x20 SWAP1 PUSH1 0x5 SLOAD SWAP1 MLOAD SWAP1 DUP2 MSTORE RETURN JUMPDEST POP POP CALLVALUE PUSH2 0x17D JUMPI DUP2 PUSH1 0x3 NOT CALLDATASIZE ADD SLT PUSH2 0x17D JUMPI PUSH1 0x20 SWAP1 PUSH2 0x359 PUSH2 0xBF3 JUMP JUMPDEST SWAP1 MLOAD SWAP1 DUP2 MSTORE RETURN JUMPDEST SWAP2 SWAP1 POP CALLVALUE PUSH2 0x211 JUMPI PUSH1 0x20 CALLDATASIZE PUSH1 0x3 NOT ADD SLT PUSH2 0x211 JUMPI PUSH2 0x37C PUSH2 0xB4F JUMP JUMPDEST PUSH1 0x9 SLOAD TIMESTAMP GT ISZERO PUSH2 0x38E JUMPI POP CALLDATALOAD PUSH1 0x8 SSTORE DUP1 RETURN JUMPDEST SWAP1 PUSH1 0x20 PUSH1 0x84 SWAP3 MLOAD SWAP2 PUSH3 0x461BCD PUSH1 0xE5 SHL DUP4 MSTORE DUP3 ADD MSTORE PUSH1 0x28 PUSH1 0x24 DUP3 ADD MSTORE PUSH32 0x50726576696F7573207265776172647320706572696F64206D75737420626520 PUSH1 0x44 DUP3 ADD MSTORE PUSH8 0x636F6D706C657465 PUSH1 0xC0 SHL PUSH1 0x64 DUP3 ADD MSTORE REVERT JUMPDEST POP POP CALLVALUE PUSH2 0x17D JUMPI DUP2 PUSH1 0x3 NOT CALLDATASIZE ADD SLT PUSH2 0x17D JUMPI PUSH1 0x20 SWAP1 PUSH1 0x6 SLOAD SWAP1 MLOAD SWAP1 DUP2 MSTORE RETURN JUMPDEST SWAP1 POP CALLVALUE PUSH2 0x211 JUMPI DUP3 PUSH1 0x3 NOT CALLDATASIZE ADD SLT PUSH2 0x211 JUMPI PUSH1 0x80 SWAP3 POP SLOAD SWAP1 PUSH1 0x7 SLOAD SWAP1 PUSH1 0x9 SLOAD SWAP1 PUSH1 0x5 SLOAD SWAP3 DUP2 MLOAD SWAP5 DUP6 MSTORE PUSH1 0x20 DUP6 ADD MSTORE DUP4 ADD MSTORE PUSH1 0x60 DUP3 ADD MSTORE RETURN JUMPDEST SWAP2 SWAP1 POP CALLVALUE PUSH2 0x211 JUMPI PUSH1 0x20 CALLDATASIZE PUSH1 0x3 NOT ADD SLT PUSH2 0x211 JUMPI DUP2 CALLDATALOAD SWAP2 PUSH2 0x458 PUSH2 0xB4F JUMP JUMPDEST PUSH2 0x460 PUSH2 0xBF3 JUMP JUMPDEST PUSH1 0x5 SSTORE DUP3 ISZERO PUSH2 0x518 JUMPI POP PUSH32 0xF8FAD42E780BFA5459BE3FE691E8BA1AEC70342250112139C5771C3FD155F312 SWAP2 PUSH1 0x20 SWAP2 PUSH1 0x9 SLOAD DUP1 TIMESTAMP LT ISZERO PUSH1 0x0 EQ PUSH2 0x4E4 JUMPI POP PUSH2 0x4AA PUSH1 0x8 SLOAD DUP4 PUSH2 0xBC6 JUMP JUMPDEST PUSH1 0x7 SSTORE JUMPDEST TIMESTAMP PUSH1 0x6 SSTORE PUSH2 0x4BE PUSH1 0x8 SLOAD TIMESTAMP PUSH2 0xBE6 JUMP JUMPDEST PUSH1 0x9 SSTORE PUSH1 0x3 SLOAD PUSH2 0x4DC SWAP1 DUP4 SWAP1 ADDRESS SWAP1 CALLER SWAP1 PUSH1 0x1 PUSH1 0x1 PUSH1 0xA0 SHL SUB AND PUSH2 0xCFA JUMP JUMPDEST MLOAD SWAP1 DUP2 MSTORE LOG1 DUP1 RETURN JUMPDEST PUSH2 0x507 PUSH2 0x501 PUSH2 0x4F8 PUSH2 0x510 SWAP4 TIMESTAMP SWAP1 PUSH2 0xB90 JUMP JUMPDEST PUSH1 0x7 SLOAD SWAP1 PUSH2 0xBB3 JUMP JUMPDEST DUP5 PUSH2 0xBE6 JUMP JUMPDEST PUSH1 0x8 SLOAD SWAP1 PUSH2 0xBC6 JUMP JUMPDEST PUSH1 0x7 SSTORE PUSH2 0x4AE JUMP JUMPDEST PUSH1 0x20 PUSH1 0x64 SWAP3 MLOAD SWAP2 PUSH3 0x461BCD PUSH1 0xE5 SHL DUP4 MSTORE DUP3 ADD MSTORE PUSH1 0x14 PUSH1 0x24 DUP3 ADD MSTORE PUSH20 0x43616E6E6F742061646420302072657761726473 PUSH1 0x60 SHL PUSH1 0x44 DUP3 ADD MSTORE REVERT JUMPDEST SWAP2 SWAP1 POP CALLVALUE PUSH2 0x211 JUMPI PUSH1 0x20 SWAP1 DUP2 PUSH1 0x3 NOT CALLDATASIZE ADD SLT PUSH2 0x6B2 JUMPI DUP3 CALLDATALOAD SWAP3 PUSH2 0x572 PUSH2 0xDBD JUMP JUMPDEST PUSH2 0x57A PUSH2 0xBF3 JUMP JUMPDEST PUSH1 0x5 SSTORE PUSH2 0x585 PUSH2 0xB7B JUMP JUMPDEST PUSH1 0x6 SSTORE CALLER PUSH2 0x68E JUMPI JUMPDEST PUSH9 0x56BC75E2D63100000 DUP5 LT PUSH2 0x64D JUMPI DUP4 ISZERO PUSH2 0x61B JUMPI CALLER DUP1 DUP7 MSTORE PUSH1 0xA DUP5 MSTORE DUP3 DUP7 KECCAK256 PUSH1 0x2 SLOAD PUSH32 0x9E71BC8EEA02A63969F509818F2DAFB9254532904319F9DBDA79B67BD34A5F3D SWAP6 SWAP5 SWAP4 SWAP3 PUSH2 0x5ED SWAP2 DUP9 SWAP2 ADDRESS SWAP2 PUSH1 0x1 PUSH1 0x1 PUSH1 0xA0 SHL SUB AND PUSH2 0xCFA JUMP JUMPDEST PUSH2 0x5F8 DUP7 DUP3 SLOAD PUSH2 0xBE6 JUMP JUMPDEST DUP2 SSTORE PUSH1 0x2 TIMESTAMP SWAP2 ADD SSTORE PUSH2 0x60B DUP6 DUP3 SLOAD PUSH2 0xBE6 JUMP JUMPDEST SWAP1 SSTORE MLOAD SWAP3 DUP4 MSTORE CALLER SWAP3 LOG2 PUSH1 0x1 DUP2 SSTORE DUP1 RETURN JUMPDEST DUP3 PUSH1 0x64 SWAP3 MLOAD SWAP2 PUSH3 0x461BCD PUSH1 0xE5 SHL DUP4 MSTORE DUP3 ADD MSTORE PUSH1 0xE PUSH1 0x24 DUP3 ADD MSTORE PUSH14 0x43616E6E6F74207374616B65203 PUSH1 0x94 SHL PUSH1 0x44 DUP3 ADD MSTORE REVERT JUMPDEST DUP3 PUSH1 0x64 SWAP3 MLOAD SWAP2 PUSH3 0x461BCD PUSH1 0xE5 SHL DUP4 MSTORE DUP3 ADD MSTORE PUSH1 0x1A PUSH1 0x24 DUP3 ADD MSTORE PUSH32 0x416D6F756E742062656C6F77206D696E696D756D207374616B65000000000000 PUSH1 0x44 DUP3 ADD MSTORE REVERT JUMPDEST PUSH2 0x697 CALLER PUSH2 0xC7C JUMP JUMPDEST CALLER DUP7 MSTORE PUSH1 0xC DUP5 MSTORE DUP3 DUP7 KECCAK256 SSTORE PUSH1 0x5 SLOAD PUSH1 0xB DUP5 MSTORE DUP3 DUP7 KECCAK256 SSTORE PUSH2 0x58E JUMP JUMPDEST DUP4 DUP1 REVERT JUMPDEST POP POP CALLVALUE PUSH2 0x17D JUMPI CALLDATASIZE PUSH1 0x3 NOT ADD SLT PUSH2 0x6F6 JUMPI PUSH2 0x6F3 PUSH2 0x6D2 PUSH2 0xB34 JUMP JUMPDEST PUSH2 0x6DA PUSH2 0xB4F JUMP JUMPDEST PUSH1 0x1 SLOAD PUSH1 0x24 CALLDATALOAD SWAP2 PUSH1 0x1 PUSH1 0x1 PUSH1 0xA0 SHL SUB SWAP2 DUP3 AND SWAP2 AND PUSH2 0xF76 JUMP JUMPDEST DUP1 RETURN JUMPDEST DUP1 REVERT JUMPDEST POP POP CALLVALUE PUSH2 0x17D JUMPI DUP2 PUSH1 0x3 NOT CALLDATASIZE ADD SLT PUSH2 0x17D JUMPI PUSH1 0x1 SLOAD SWAP1 MLOAD PUSH1 0x1 PUSH1 0x1 PUSH1 0xA0 SHL SUB SWAP1 SWAP2 AND DUP2 MSTORE PUSH1 0x20 SWAP1 RETURN JUMPDEST POP POP CALLVALUE PUSH2 0x17D JUMPI PUSH1 0x20 CALLDATASIZE PUSH1 0x3 NOT ADD SLT PUSH2 0x17D JUMPI PUSH1 0x20 SWAP2 DUP2 SWAP1 PUSH1 0x1 PUSH1 0x1 PUSH1 0xA0 SHL SUB PUSH2 0x74A PUSH2 0xB34 JUMP JUMPDEST AND DUP2 MSTORE PUSH1 0xB DUP5 MSTORE KECCAK256 SLOAD SWAP1 MLOAD SWAP1 DUP2 MSTORE RETURN JUMPDEST SWAP1 POP CALLVALUE PUSH2 0x211 JUMPI DUP3 PUSH1 0x3 NOT CALLDATASIZE ADD SLT PUSH2 0x211 JUMPI PUSH1 0x20 SWAP3 POP SLOAD SWAP1 MLOAD SWAP1 DUP2 MSTORE RETURN JUMPDEST POP POP CALLVALUE PUSH2 0x17D JUMPI DUP2 PUSH1 0x3 NOT CALLDATASIZE ADD SLT PUSH2 0x17D JUMPI PUSH1 0x20 SWAP1 PUSH2 0x359 PUSH2 0xB7B JUMP JUMPDEST POP POP CALLVALUE PUSH2 0x17D JUMPI DUP2 PUSH1 0x3 NOT CALLDATASIZE ADD SLT PUSH2 0x17D JUMPI PUSH1 0x20 SWAP1 PUSH1 0x7 SLOAD SWAP1 MLOAD SWAP1 DUP2 MSTORE RETURN JUMPDEST DUP4 CALLVALUE PUSH2 0x6F6 JUMPI DUP1 PUSH1 0x3 NOT CALLDATASIZE ADD SLT PUSH2 0x6F6 JUMPI PUSH2 0x7CD PUSH2 0xB4F JUMP JUMPDEST PUSH1 0x1 DUP1 SLOAD PUSH1 0x1 PUSH1 0x1 PUSH1 0xA0 SHL SUB NOT DUP2 AND SWAP1 SWAP2 SSTORE DUP2 SWAP1 PUSH1 0x1 PUSH1 0x1 PUSH1 0xA0 SHL SUB AND PUSH32 0x8BE0079C531659141344CD1FD0A4F28419497F9722A3DAAFE3B4186F6B6457E0 DUP3 DUP1 LOG3 DUP1 RETURN JUMPDEST DUP4 DUP4 CALLVALUE PUSH2 0x17D JUMPI PUSH1 0x20 CALLDATASIZE PUSH1 0x3 NOT ADD SLT PUSH2 0x17D JUMPI PUSH2 0x82C PUSH2 0xB34 JUMP JUMPDEST PUSH1 0x1 PUSH1 0x1 PUSH1 0xA0 SHL SUB DUP2 AND DUP4 MSTORE PUSH1 0xA PUSH1 0x20 MSTORE DUP2 DUP4 KECCAK256 DUP3 MLOAD SWAP1 SWAP4 SWAP1 SWAP2 PUSH2 0x872 SWAP1 PUSH2 0x853 DUP5 PUSH2 0xC4A JUMP JUMPDEST DUP5 PUSH1 0x2 DUP8 SLOAD SWAP8 DUP9 DUP8 MSTORE PUSH1 0x1 DUP2 ADD SLOAD PUSH1 0x20 DUP9 ADD MSTORE ADD SLOAD SWAP5 ADD SWAP4 DUP5 MSTORE PUSH2 0xC7C JUMP JUMPDEST SWAP5 DUP3 MLOAD SWAP3 PUSH3 0x93A80 SWAP4 DUP5 DUP2 ADD DUP1 SWAP2 GT PUSH2 0x8EA JUMPI TIMESTAMP LT ISZERO PUSH2 0x8DC JUMPI MLOAD SWAP3 DUP4 ADD DUP1 SWAP4 GT PUSH2 0x8C9 JUMPI POP POP SWAP1 PUSH2 0x8A8 PUSH2 0x8C5 SWAP3 TIMESTAMP SWAP1 PUSH2 0xB90 JUMP JUMPDEST SWAP1 JUMPDEST MLOAD SWAP4 DUP5 SWAP4 DUP5 PUSH1 0x40 SWAP2 SWAP5 SWAP4 SWAP3 PUSH1 0x60 DUP3 ADD SWAP6 DUP3 MSTORE PUSH1 0x20 DUP3 ADD MSTORE ADD MSTORE JUMP JUMPDEST SUB SWAP1 RETURN JUMPDEST PUSH4 0x4E487B71 PUSH1 0xE0 SHL DUP3 MSTORE PUSH1 0x11 SWAP1 MSTORE PUSH1 0x24 SWAP1 REVERT JUMPDEST POP POP PUSH2 0x8C5 SWAP3 SWAP2 POP SWAP1 PUSH2 0x8AA JUMP JUMPDEST PUSH4 0x4E487B71 PUSH1 0xE0 SHL DUP5 MSTORE PUSH1 0x11 DUP4 MSTORE PUSH1 0x24 DUP5 REVERT JUMPDEST POP POP CALLVALUE PUSH2 0x17D JUMPI DUP2 PUSH1 0x3 NOT CALLDATASIZE ADD SLT PUSH2 0x17D JUMPI PUSH1 0x2 SLOAD SWAP1 MLOAD PUSH1 0x1 PUSH1 0x1 PUSH1 0xA0 SHL SUB SWAP1 SWAP2 AND DUP2 MSTORE PUSH1 0x20 SWAP1 RETURN JUMPDEST POP POP CALLVALUE PUSH2 0x17D JUMPI DUP2 PUSH1 0x3 NOT CALLDATASIZE ADD SLT PUSH2 0x17D JUMPI PUSH1 0x20 SWAP1 PUSH1 0x8 SLOAD SWAP1 MLOAD SWAP1 DUP2 MSTORE RETURN JUMPDEST POP POP CALLVALUE PUSH2 0x17D JUMPI DUP2 PUSH1 0x3 NOT CALLDATASIZE ADD SLT PUSH2 0x17D JUMPI PUSH2 0x95F PUSH2 0xDBD JUMP JUMPDEST PUSH2 0x967 PUSH2 0xBF3 JUMP JUMPDEST PUSH1 0x5 SSTORE PUSH2 0x972 PUSH2 0xB7B JUMP JUMPDEST PUSH1 0x6 SSTORE CALLER PUSH2 0x9E6 JUMPI JUMPDEST CALLER DUP3 MSTORE PUSH1 0xC PUSH1 0x20 MSTORE DUP1 DUP3 KECCAK256 SWAP1 DUP3 DUP3 SLOAD SWAP3 DUP4 PUSH2 0x999 JUMPI JUMPDEST POP PUSH1 0x1 DUP2 SSTORE DUP1 RETURN JUMPDEST SSTORE PUSH1 0x3 SLOAD PUSH2 0x9B3 SWAP1 DUP4 SWAP1 CALLER SWAP1 PUSH1 0x1 PUSH1 0x1 PUSH1 0xA0 SHL SUB AND PUSH2 0xF76 JUMP JUMPDEST MLOAD SWAP1 DUP2 MSTORE PUSH32 0xFC30CDDEA38E2BF4D6EA7D3F9ED3B6AD7F176419F4963BD81318067A4AEE73FE PUSH1 0x20 CALLER SWAP3 LOG2 CODESIZE DUP1 DUP3 DUP2 PUSH2 0x991 JUMP JUMPDEST PUSH2 0x9EF CALLER PUSH2 0xC7C JUMP JUMPDEST CALLER DUP4 MSTORE PUSH1 0xC PUSH1 0x20 MSTORE DUP2 DUP4 KECCAK256 SSTORE PUSH1 0x5 SLOAD PUSH1 0xB PUSH1 0x20 MSTORE DUP2 DUP4 KECCAK256 SSTORE PUSH2 0x97B JUMP JUMPDEST DUP4 SWAP1 CALLVALUE PUSH2 0x17D JUMPI PUSH1 0x20 CALLDATASIZE PUSH1 0x3 NOT ADD SLT PUSH2 0x17D JUMPI PUSH2 0xA31 SWAP1 PUSH2 0xA2B PUSH2 0xDBD JUMP JUMPDEST CALLDATALOAD PUSH2 0xDE0 JUMP JUMPDEST PUSH1 0x1 DUP2 SSTORE DUP1 RETURN JUMPDEST POP POP CALLVALUE PUSH2 0x17D JUMPI PUSH1 0x20 CALLDATASIZE PUSH1 0x3 NOT ADD SLT PUSH2 0x17D JUMPI SWAP1 DUP2 SWAP1 PUSH1 0x1 PUSH1 0x1 PUSH1 0xA0 SHL SUB PUSH2 0xA5E PUSH2 0xB34 JUMP JUMPDEST AND DUP2 MSTORE PUSH1 0xA PUSH1 0x20 MSTORE KECCAK256 SWAP1 PUSH2 0x8C5 DUP3 SLOAD SWAP2 PUSH1 0x2 PUSH1 0x1 DUP6 ADD SLOAD SWAP5 ADD SLOAD SWAP1 MLOAD SWAP4 DUP5 SWAP4 DUP5 PUSH1 0x40 SWAP2 SWAP5 SWAP4 SWAP3 PUSH1 0x60 DUP3 ADD SWAP6 DUP3 MSTORE PUSH1 0x20 DUP3 ADD MSTORE ADD MSTORE JUMP JUMPDEST POP POP CALLVALUE PUSH2 0x17D JUMPI DUP2 PUSH1 0x3 NOT CALLDATASIZE ADD SLT PUSH2 0x17D JUMPI PUSH1 0x20 SWAP1 MLOAD PUSH3 0x93A80 DUP2 MSTORE RETURN JUMPDEST POP POP CALLVALUE PUSH2 0x17D JUMPI DUP2 PUSH1 0x3 NOT CALLDATASIZE ADD SLT PUSH2 0x17D JUMPI PUSH1 0x20 SWAP1 MLOAD PUSH9 0x56BC75E2D63100000 DUP2 MSTORE RETURN JUMPDEST POP POP CALLVALUE PUSH2 0x17D JUMPI PUSH1 0x20 CALLDATASIZE PUSH1 0x3 NOT ADD SLT PUSH2 0x17D JUMPI PUSH1 0x20 SWAP2 DUP2 SWAP1 PUSH1 0x1 PUSH1 0x1 PUSH1 0xA0 SHL SUB PUSH2 0xAFE PUSH2 0xB34 JUMP JUMPDEST AND DUP2 MSTORE PUSH1 0xC DUP5 MSTORE KECCAK256 SLOAD SWAP1 MLOAD SWAP1 DUP2 MSTORE RETURN JUMPDEST POP POP CALLVALUE PUSH2 0x17D JUMPI PUSH1 0x20 CALLDATASIZE PUSH1 0x3 NOT ADD SLT PUSH2 0x17D JUMPI PUSH1 0x20 SWAP1 PUSH2 0x359 PUSH2 0xB2F PUSH2 0xB34 JUMP JUMPDEST PUSH2 0xC7C JUMP JUMPDEST PUSH1 0x4 CALLDATALOAD SWAP1 PUSH1 0x1 PUSH1 0x1 PUSH1 0xA0 SHL SUB DUP3 AND DUP3 SUB PUSH2 0xB4A JUMPI JUMP JUMPDEST PUSH1 0x0 DUP1 REVERT JUMPDEST PUSH1 0x1 SLOAD PUSH1 0x1 PUSH1 0x1 PUSH1 0xA0 SHL SUB AND CALLER SUB PUSH2 0xB63 JUMPI JUMP JUMPDEST PUSH1 0x40 MLOAD PUSH4 0x118CDAA7 PUSH1 0xE0 SHL DUP2 MSTORE CALLER PUSH1 0x4 DUP3 ADD MSTORE PUSH1 0x24 SWAP1 REVERT JUMPDEST PUSH1 0x9 SLOAD DUP1 TIMESTAMP LT PUSH1 0x0 EQ PUSH2 0xB8D JUMPI POP TIMESTAMP SWAP1 JUMP JUMPDEST SWAP1 JUMP JUMPDEST SWAP2 SWAP1 DUP3 SUB SWAP2 DUP3 GT PUSH2 0xB9D JUMPI JUMP JUMPDEST PUSH4 0x4E487B71 PUSH1 0xE0 SHL PUSH1 0x0 MSTORE PUSH1 0x11 PUSH1 0x4 MSTORE PUSH1 0x24 PUSH1 0x0 REVERT JUMPDEST DUP2 DUP2 MUL SWAP3 SWAP2 DUP2 ISZERO SWAP2 DUP5 DIV EQ OR ISZERO PUSH2 0xB9D JUMPI JUMP JUMPDEST DUP2 ISZERO PUSH2 0xBD0 JUMPI DIV SWAP1 JUMP JUMPDEST PUSH4 0x4E487B71 PUSH1 0xE0 SHL PUSH1 0x0 MSTORE PUSH1 0x12 PUSH1 0x4 MSTORE PUSH1 0x24 PUSH1 0x0 REVERT JUMPDEST SWAP2 SWAP1 DUP3 ADD DUP1 SWAP3 GT PUSH2 0xB9D JUMPI JUMP JUMPDEST PUSH1 0x4 SLOAD DUP1 ISZERO PUSH2 0xC43 JUMPI PUSH1 0x5 SLOAD PUSH2 0xC16 PUSH2 0x4F8 PUSH2 0xC0D PUSH2 0xB7B JUMP JUMPDEST PUSH1 0x6 SLOAD SWAP1 PUSH2 0xB90 JUMP JUMPDEST PUSH8 0xDE0B6B3A7640000 SWAP1 DUP2 DUP2 MUL SWAP2 DUP2 DUP4 DIV EQ SWAP1 ISZERO OR ISZERO PUSH2 0xB9D JUMPI PUSH2 0xB8D SWAP3 PUSH2 0xC3D SWAP2 PUSH2 0xBC6 JUMP JUMPDEST SWAP1 PUSH2 0xBE6 JUMP JUMPDEST POP PUSH1 0x5 SLOAD SWAP1 JUMP JUMPDEST PUSH1 0x60 DUP2 ADD SWAP1 DUP2 LT PUSH8 0xFFFFFFFFFFFFFFFF DUP3 GT OR PUSH2 0xC66 JUMPI PUSH1 0x40 MSTORE JUMP JUMPDEST PUSH4 0x4E487B71 PUSH1 0xE0 SHL PUSH1 0x0 MSTORE PUSH1 0x41 PUSH1 0x4 MSTORE PUSH1 0x24 PUSH1 0x0 REVERT JUMPDEST PUSH2 0xB8D SWAP1 PUSH1 0x1 DUP1 PUSH1 0xA0 SHL SUB AND PUSH1 0x40 PUSH1 0x0 DUP3 DUP2 MSTORE PUSH1 0xA PUSH1 0x20 MSTORE PUSH8 0xDE0B6B3A7640000 PUSH2 0xCE9 DUP4 DUP4 KECCAK256 DUP5 MLOAD PUSH2 0xCAE DUP2 PUSH2 0xC4A JUMP JUMPDEST DUP6 PUSH1 0x2 DUP4 SLOAD SWAP4 DUP5 DUP5 MSTORE PUSH1 0x1 DUP2 ADD SLOAD PUSH1 0x20 DUP6 ADD MSTORE ADD SLOAD SWAP2 ADD MSTORE PUSH2 0xCE3 PUSH2 0xCD1 PUSH2 0xBF3 JUMP JUMPDEST DUP8 DUP7 MSTORE PUSH1 0xB PUSH1 0x20 MSTORE DUP7 DUP7 KECCAK256 SLOAD SWAP1 PUSH2 0xB90 JUMP JUMPDEST SWAP1 PUSH2 0xBB3 JUMP JUMPDEST DIV SWAP3 DUP2 MSTORE PUSH1 0xC PUSH1 0x20 MSTORE KECCAK256 SLOAD SWAP1 PUSH2 0xBE6 JUMP JUMPDEST PUSH1 0x40 MLOAD PUSH4 0x23B872DD PUSH1 0xE0 SHL PUSH1 0x20 DUP3 ADD MSTORE PUSH1 0x1 PUSH1 0x1 PUSH1 0xA0 SHL SUB SWAP3 DUP4 AND PUSH1 0x24 DUP3 ADD MSTORE SWAP3 SWAP1 SWAP2 AND PUSH1 0x44 DUP4 ADD MSTORE PUSH1 0x64 DUP1 DUP4 ADD SWAP4 SWAP1 SWAP4 MSTORE SWAP2 DUP2 MSTORE PUSH1 0xA0 DUP2 ADD SWAP2 DUP2 DUP4 LT PUSH8 0xFFFFFFFFFFFFFFFF DUP5 GT OR PUSH2 0xC66 JUMPI PUSH2 0xD53 SWAP3 PUSH1 0x40 MSTORE PUSH2 0xD55 JUMP JUMPDEST JUMP JUMPDEST SWAP1 PUSH1 0x0 PUSH1 0x20 SWAP2 DUP3 DUP2 MLOAD SWAP2 ADD DUP3 DUP6 GAS CALL ISZERO PUSH2 0xDB1 JUMPI PUSH1 0x0 MLOAD RETURNDATASIZE PUSH2 0xDA8 JUMPI POP PUSH1 0x1 PUSH1 0x1 PUSH1 0xA0 SHL SUB DUP2 AND EXTCODESIZE ISZERO JUMPDEST PUSH2 0xD86 JUMPI POP JUMP JUMPDEST PUSH1 0x40 MLOAD PUSH4 0x5274AFE7 PUSH1 0xE0 SHL DUP2 MSTORE PUSH1 0x1 PUSH1 0x1 PUSH1 0xA0 SHL SUB SWAP1 SWAP2 AND PUSH1 0x4 DUP3 ADD MSTORE PUSH1 0x24 SWAP1 REVERT JUMPDEST PUSH1 0x1 EQ ISZERO PUSH2 0xD7F JUMP JUMPDEST PUSH1 0x40 MLOAD RETURNDATASIZE PUSH1 0x0 DUP3 RETURNDATACOPY RETURNDATASIZE SWAP1 REVERT JUMPDEST PUSH1 0x2 PUSH1 0x0 SLOAD EQ PUSH2 0xDCE JUMPI PUSH1 0x2 PUSH1 0x0 SSTORE JUMP JUMPDEST PUSH1 0x40 MLOAD PUSH4 0x3EE5AEB5 PUSH1 0xE0 SHL DUP2 MSTORE PUSH1 0x4 SWAP1 REVERT JUMPDEST PUSH2 0xDE8 PUSH2 0xBF3 JUMP JUMPDEST PUSH1 0x5 SSTORE PUSH2 0xDF3 PUSH2 0xB7B JUMP JUMPDEST PUSH1 0x6 SSTORE CALLER PUSH2 0xF4B JUMPI JUMPDEST DUP1 ISZERO PUSH2 0xF13 JUMPI CALLER PUSH1 0x0 MSTORE PUSH1 0xA PUSH1 0x20 MSTORE PUSH1 0x40 PUSH1 0x0 KECCAK256 DUP1 SLOAD DUP3 DUP2 LT PUSH2 0xECE JUMPI PUSH1 0x2 DUP3 ADD SLOAD PUSH3 0x93A80 DUP2 ADD DUP1 SWAP2 GT PUSH2 0xB9D JUMPI TIMESTAMP LT PUSH2 0xE93 JUMPI DUP3 PUSH2 0xE3B SWAP2 PUSH2 0xB90 JUMP JUMPDEST SWAP1 SSTORE PUSH2 0xE49 DUP2 PUSH1 0x4 SLOAD PUSH2 0xB90 JUMP JUMPDEST PUSH1 0x4 SSTORE PUSH1 0x2 SLOAD PUSH2 0xE65 SWAP1 DUP3 SWAP1 CALLER SWAP1 PUSH1 0x1 PUSH1 0x1 PUSH1 0xA0 SHL SUB AND PUSH2 0xF76 JUMP JUMPDEST PUSH1 0x40 MLOAD SWAP1 DUP2 MSTORE PUSH32 0xF5BB82176FEB1B5E747E28471AA92156A04D9F3AB9F45F28E2D704232B93F75 PUSH1 0x20 CALLER SWAP3 LOG2 JUMP JUMPDEST PUSH1 0x40 MLOAD PUSH3 0x461BCD PUSH1 0xE5 SHL DUP2 MSTORE PUSH1 0x20 PUSH1 0x4 DUP3 ADD MSTORE PUSH1 0x13 PUSH1 0x24 DUP3 ADD MSTORE PUSH19 0x151BDAD95B9CC81CDD1A5B1B081B1BD8DAD959 PUSH1 0x6A SHL PUSH1 0x44 DUP3 ADD MSTORE PUSH1 0x64 SWAP1 REVERT JUMPDEST PUSH1 0x40 MLOAD PUSH3 0x461BCD PUSH1 0xE5 SHL DUP2 MSTORE PUSH1 0x20 PUSH1 0x4 DUP3 ADD MSTORE PUSH1 0x1A PUSH1 0x24 DUP3 ADD MSTORE PUSH32 0x496E73756666696369656E74207374616B656420616D6F756E74000000000000 PUSH1 0x44 DUP3 ADD MSTORE PUSH1 0x64 SWAP1 REVERT JUMPDEST PUSH1 0x40 MLOAD PUSH3 0x461BCD PUSH1 0xE5 SHL DUP2 MSTORE PUSH1 0x20 PUSH1 0x4 DUP3 ADD MSTORE PUSH1 0x10 PUSH1 0x24 DUP3 ADD MSTORE PUSH16 0x43616E6E6F7420756E7374616B65203 PUSH1 0x84 SHL PUSH1 0x44 DUP3 ADD MSTORE PUSH1 0x64 SWAP1 REVERT JUMPDEST PUSH2 0xF54 CALLER PUSH2 0xC7C JUMP JUMPDEST CALLER PUSH1 0x0 MSTORE PUSH1 0xC PUSH1 0x20 MSTORE PUSH1 0x40 PUSH1 0x0 KECCAK256 SSTORE PUSH1 0x5 SLOAD PUSH1 0xB PUSH1 0x20 MSTORE PUSH1 0x40 PUSH1 0x0 KECCAK256 SSTORE PUSH2 0xDFC JUMP JUMPDEST PUSH1 0x40 MLOAD PUSH4 0xA9059CBB PUSH1 0xE0 SHL PUSH1 0x20 DUP3 ADD MSTORE PUSH1 0x1 PUSH1 0x1 PUSH1 0xA0 SHL SUB SWAP1 SWAP3 AND PUSH1 0x24 DUP4 ADD MSTORE PUSH1 0x44 DUP1 DUP4 ADD SWAP4 SWAP1 SWAP4 MSTORE SWAP2 DUP2 MSTORE PUSH1 0x80 DUP2 ADD SWAP2 PUSH8 0xFFFFFFFFFFFFFFFF DUP4 GT DUP3 DUP5 LT OR PUSH2 0xC66 JUMPI PUSH2 0xD53 SWAP3 PUSH1 0x40 MSTORE PUSH2 0xD55 JUMP INVALID LOG2 PUSH5 0x6970667358 0x22 SLT KECCAK256 0xC5 0x24 0x4A SWAP15 PUSH23 0xFB3EC26D8422BD881120F00C6B17ECD31D37C9EA74E747 PUSH4 0xB758AE64 PUSH20 0x6F6C634300081400330000000000000000000000 "},"gasEstimates":{"creation":{"codeDepositCost":"818400","executionCost":"infinite","totalCost":"infinite"},"external":{"LOCK_PERIOD()":"235","MINIMUM_STAKE()":"213","addRewards(uint256)":"infinite","claimRewards()":"infinite","earned(address)":"infinite","emergencyWithdraw(address,uint256)":"infinite","exit()":"infinite","getStakingStats()":"9056","getUserInfo(address)":"infinite","lastTimeRewardApplicable()":"2597","lastUpdateTime()":"2715","owner()":"2626","periodFinish()":"2825","renounceOwnership()":"28299","rewardPerToken()":"11596","rewardPerTokenStored()":"2781","rewardRate()":"2517","rewardToken()":"2885","rewards(address)":"2448","rewardsDuration()":"2429","setRewardsDuration(uint256)":"27009","stake(uint256)":"infinite","stakeToken()":"2472","totalStaked()":"2561","transferOwnership(address)":"28749","unstake(uint256)":"infinite","userInfo(address)":"6816","userRewardPerTokenPaid(address)":"2734"},"internal":{"_claimRewards()":"infinite","_unstake(uint256)":"infinite"}},"methodIdentifiers":{"LOCK_PERIOD()":"1820cabb","MINIMUM_STAKE()":"08dbbb03","addRewards(uint256)":"beceed39","claimRewards()":"372500ab","earned(address)":"008cc262","emergencyWithdraw(address,uint256)":"95ccea67","exit()":"e9fad8ee","getStakingStats()":"c1dd6084","getUserInfo(address)":"6386c1c7","lastTimeRewardApplicable()":"80faa57d","lastUpdateTime()":"c8f33c91","owner()":"8da5cb5b","periodFinish()":"ebe2b12b","renounceOwnership()":"715018a6","rewardPerToken()":"cd3daf9d","rewardPerTokenStored()":"df136d65","rewardRate()":"7b0a47ee","rewardToken()":"f7c618c1","rewards(address)":"0700037d","rewardsDuration()":"386a9525","setRewardsDuration(uint256)":"cc1a378f","stake(uint256)":"a694fc3a","stakeToken()":"51ed6a30","totalStaked()":"817b1cd2","transferOwnership(address)":"f2fde38b","unstake(uint256)":"2e17de78","userInfo(address)":"1959a002","userRewardPerTokenPaid(address)":"8b876347"}},"storageLayout":{"storage":[{"astId":1606,"contract":"blockchain/contracts/EryzaStaking.sol:EryzaStaking","label":"_status","offset":0,"slot":"0","type":"t_uint256"},{"astId":8,"contract":"blockchain/contracts/EryzaStaking.sol:EryzaStaking","label":"_owner","offset":0,"slot":"1","type":"t_address"},{"astId":2907,"contract":"blockchain/contracts/EryzaStaking.sol:EryzaStaking","label":"stakeToken","offset":0,"slot":"2","type":"t_contract(IERC20)967"},{"astId":2910,"contract":"blockchain/contracts/EryzaStaking.sol:EryzaStaking","label":"rewardToken","offset":0,"slot":"3","type":"t_contract(IERC20)967"},{"astId":2912,"contract":"blockchain/contracts/EryzaStaking.sol:EryzaStaking","label":"totalStaked","offset":0,"slot":"4","type":"t_uint256"},{"astId":2914,"contract":"blockchain/contracts/EryzaStaking.sol:EryzaStaking","label":"rewardPerTokenStored","offset":0,"slot":"5","type":"t_uint256"},{"astId":2916,"contract":"blockchain/contracts/EryzaStaking.sol:EryzaStaking","label":"lastUpdateTime","offset":0,"slot":"6","type":"t_uint256"},{"astId":2918,"contract":"blockchain/contracts/EryzaStaking.sol:EryzaStaking","label":"rewardRate","offset":0,"slot":"7","type":"t_uint256"},{"astId":2921,"contract":"blockchain/contracts/EryzaStaking.sol:EryzaStaking","label":"rewardsDuration","offset":0,"slot":"8","type":"t_uint256"},{"astId":2923,"contract":"blockchain/contracts/EryzaStaking.sol:EryzaStaking","label":"periodFinish","offset":0,"slot":"9","type":"t_uint256"},{"astId":2938,"contract":"blockchain/contracts/EryzaStaking.sol:EryzaStaking","label":"userInfo","offset":0,"slot":"10","type":"t_mapping(t_address,t_struct(UserInfo)2904_storage)"},{"astId":2942,"contract":"blockchain/contracts/EryzaStaking.sol:EryzaStaking","label":"userRewardPerTokenPaid","offset":0,"slot":"11","type":"t_mapping(t_address,t_uint256)"},{"astId":2946,"contract":"blockchain/contracts/EryzaStaking.sol:EryzaStaking","label":"rewards","offset":0,"slot":"12","type":"t_mapping(t_address,t_uint256)"}],"types":{"t_address":{"encoding":"inplace","label":"address","numberOfBytes":"20"},"t_contract(IERC20)967":{"encoding":"inplace","label":"contract IERC20","numberOfBytes":"20"},"t_mapping(t_address,t_struct(UserInfo)2904_storage)":{"encoding":"mapping","key":"t_address","label":"mapping(address => struct EryzaStaking.UserInfo)","numberOfBytes":"32","value":"t_struct(UserInfo)2904_storage"},"t_mapping(t_address,t_uint256)":{"encoding":"mapping","key":"t_address","label":"mapping(address => uint256)","numberOfBytes":"32","value":"t_uint256"},"t_struct(UserInfo)2904_storage":{"encoding":"inplace","label":"struct EryzaStaking.UserInfo","members":[{"astId":2899,"contract":"blockchain/contracts/EryzaStaking.sol:EryzaStaking","label":"stakedAmount","offset":0,"slot":"0","type":"t_uint256"},{"astId":2901,"contract":"blockchain/contracts/EryzaStaking.sol:EryzaStaking","label":"rewardDebt","offset":0,"slot":"1","type":"t_uint256"},{"astId":2903,"contract":"blockchain/contracts/EryzaStaking.sol:EryzaStaking","label":"lastStakeTime","offset":0,"slot":"2","type":"t_uint256"}],"numberOfBytes":"96"},"t_uint256":{"encoding":"inplace","label":"uint256","numberOfBytes":"32"}}},"userdoc":{"kind":"user","methods":{},"version":1}}}}