{"blockchain/contracts/EryzaToken.sol":{"EryzaToken":{"abi":[{"inputs":[{"internalType":"address","name":"_teamVesting","type":"address"},{"internalType":"address","name":"_investorVesting","type":"address"},{"internalType":"address","name":"_communityRewards","type":"address"},{"internalType":"address","name":"_treasury","type":"address"},{"internalType":"address","name":"_liquidityPool","type":"address"}],"stateMutability":"nonpayable","type":"constructor"},{"inputs":[{"internalType":"address","name":"spender","type":"address"},{"internalType":"uint256","name":"allowance","type":"uint256"},{"internalType":"uint256","name":"needed","type":"uint256"}],"name":"ERC20InsufficientAllowance","type":"error"},{"inputs":[{"internalType":"address","name":"sender","type":"address"},{"internalType":"uint256","name":"balance","type":"uint256"},{"internalType":"uint256","name":"needed","type":"uint256"}],"name":"ERC20InsufficientBalance","type":"error"},{"inputs":[{"internalType":"address","name":"approver","type":"address"}],"name":"ERC20InvalidApprover","type":"error"},{"inputs":[{"internalType":"address","name":"receiver","type":"address"}],"name":"ERC20InvalidReceiver","type":"error"},{"inputs":[{"internalType":"address","name":"sender","type":"address"}],"name":"ERC20InvalidSender","type":"error"},{"inputs":[{"internalType":"address","name":"spender","type":"address"}],"name":"ERC20InvalidSpender","type":"error"},{"inputs":[],"name":"EnforcedPause","type":"error"},{"inputs":[],"name":"ExpectedPause","type":"error"},{"inputs":[{"internalType":"address","name":"owner","type":"address"}],"name":"OwnableInvalidOwner","type":"error"},{"inputs":[{"internalType":"address","name":"account","type":"address"}],"name":"OwnableUnauthorizedAccount","type":"error"},{"anonymous":false,"inputs":[{"indexed":true,"internalType":"address","name":"owner","type":"address"},{"indexed":true,"internalType":"address","name":"spender","type":"address"},{"indexed":false,"internalType":"uint256","name":"value","type":"uint256"}],"name":"Approval","type":"event"},{"anonymous":false,"inputs":[{"indexed":true,"internalType":"address","name":"minter","type":"address"}],"name":"MinterAdded","type":"event"},{"anonymous":false,"inputs":[{"indexed":true,"internalType":"address","name":"minter","type":"address"}],"name":"MinterRemoved","type":"event"},{"anonymous":false,"inputs":[{"indexed":true,"internalType":"address","name":"previousOwner","type":"address"},{"indexed":true,"internalType":"address","name":"newOwner","type":"address"}],"name":"OwnershipTransferred","type":"event"},{"anonymous":false,"inputs":[{"indexed":false,"internalType":"address","name":"account","type":"address"}],"name":"Paused","type":"event"},{"anonymous":false,"inputs":[{"indexed":true,"internalType":"address","name":"to","type":"address"},{"indexed":false,"internalType":"uint256","name":"amount","type":"uint256"}],"name":"TokensMinted","type":"event"},{"anonymous":false,"inputs":[{"indexed":true,"internalType":"address","name":"from","type":"address"},{"indexed":true,"internalType":"address","name":"to","type":"address"},{"indexed":false,"internalType":"uint256","name":"value","type":"uint256"}],"name":"Transfer","type":"event"},{"anonymous":false,"inputs":[{"indexed":false,"internalType":"address","name":"account","type":"address"}],"name":"Unpaused","type":"event"},{"inputs":[],"name":"COMMUNITY_PERCENT","outputs":[{"internalType":"uint256","name":"","type":"uint256"}],"stateMutability":"view","type":"function"},{"inputs":[],"name":"INITIAL_SUPPLY","outputs":[{"internalType":"uint256","name":"","type":"uint256"}],"stateMutability":"view","type":"function"},{"inputs":[],"name":"INVESTORS_PERCENT","outputs":[{"internalType":"uint256","name":"","type":"uint256"}],"stateMutability":"view","type":"function"},{"inputs":[],"name":"LIQUIDITY_PERCENT","outputs":[{"internalType":"uint256","name":"","type":"uint256"}],"stateMutability":"view","type":"function"},{"inputs":[],"name":"MAX_SUPPLY","outputs":[{"internalType":"uint256","name":"","type":"uint256"}],"stateMutability":"view","type":"function"},{"inputs":[],"name":"TEAM_PERCENT","outputs":[{"internalType":"uint256","name":"","type":"uint256"}],"stateMutability":"view","type":"function"},{"inputs":[],"name":"TREASURY_PERCENT","outputs":[{"internalType":"uint256","name":"","type":"uint256"}],"stateMutability":"view","type":"function"},{"inputs":[{"internalType":"address","name":"minter","type":"address"}],"name":"addMinter","outputs":[],"stateMutability":"nonpayable","type":"function"},{"inputs":[{"internalType":"address","name":"owner","type":"address"},{"internalType":"address","name":"spender","type":"address"}],"name":"allowance","outputs":[{"internalType":"uint256","name":"","type":"uint256"}],"stateMutability":"view","type":"function"},{"inputs":[{"internalType":"address","name":"spender","type":"address"},{"internalType":"uint256","name":"value","type":"uint256"}],"name":"approve","outputs":[{"internalType":"bool","name":"","type":"bool"}],"stateMutability":"nonpayable","type":"function"},{"inputs":[{"internalType":"address","name":"account","type":"address"}],"name":"balanceOf","outputs":[{"internalType":"uint256","name":"","type":"uint256"}],"stateMutability":"view","type":"function"},{"inputs":[{"internalType":"uint256","name":"amount","type":"uint256"}],"name":"burn","outputs":[],"stateMutability":"nonpayable","type":"function"},{"inputs":[{"internalType":"address","name":"account","type":"address"},{"internalType":"uint256","name":"amount","type":"uint256"}],"name":"burnFrom","outputs":[],"stateMutability":"nonpayable","type":"function"},{"inputs":[],"name":"communityRewards","outputs":[{"internalType":"address","name":"","type":"address"}],"stateMutability":"view","type":"function"},{"inputs":[],"name":"decimals","outputs":[{"internalType":"uint8","name":"","type":"uint8"}],"stateMutability":"view","type":"function"},{"inputs":[],"name":"investorVesting","outputs":[{"internalType":"address","name":"","type":"address"}],"stateMutability":"view","type":"function"},{"inputs":[],"name":"liquidityPool","outputs":[{"internalType":"address","name":"","type":"address"}],"stateMutability":"view","type":"function"},{"inputs":[{"internalType":"address","name":"to","type":"address"},{"internalType":"uint256","name":"amount","type":"uint256"}],"name":"mint","outputs":[],"stateMutability":"nonpayable","type":"function"},{"inputs":[{"internalType":"address","name":"","type":"address"}],"name":"minters","outputs":[{"internalType":"bool","name":"","type":"bool"}],"stateMutability":"view","type":"function"},{"inputs":[],"name":"name","outputs":[{"internalType":"string","name":"","type":"string"}],"stateMutability":"view","type":"function"},{"inputs":[],"name":"owner","outputs":[{"internalType":"address","name":"","type":"address"}],"stateMutability":"view","type":"function"},{"inputs":[],"name":"pause","outputs":[],"stateMutability":"nonpayable","type":"function"},{"inputs":[],"name":"paused","outputs":[{"internalType":"bool","name":"","type":"bool"}],"stateMutability":"view","type":"function"},{"inputs":[],"name":"remainingSupply","outputs":[{"internalType":"uint256","name":"","type":"uint256"}],"stateMutability":"view","type":"function"},{"inputs":[{"internalType":"address","name":"minter","type":"address"}],"name":"removeMinter","outputs":[],"stateMutability":"nonpayable","type":"function"},{"inputs":[],"name":"renounceOwnership","outputs":[],"stateMutability":"nonpayable","type":"function"},{"inputs":[],"name":"symbol","outputs":[{"internalType":"string","name":"","type":"string"}],"stateMutability":"view","type":"function"},{"inputs":[],"name":"teamVesting","outputs":[{"internalType":"address","name":"","type":"address"}],"stateMutability":"view","type":"function"},{"inputs":[],"name":"totalMinted","outputs":[{"internalType":"uint256","name":"","type":"uint256"}],"stateMutability":"view","type":"function"},{"inputs":[],"name":"totalSupply","outputs":[{"internalType":"uint256","name":"","type":"uint256"}],"stateMutability":"view","type":"function"},{"inputs":[{"internalType":"address","name":"to","type":"address"},{"internalType":"uint256","name":"value","type":"uint256"}],"name":"transfer","outputs":[{"internalType":"bool","name":"","type":"bool"}],"stateMutability":"nonpayable","type":"function"},{"inputs":[{"internalType":"address","name":"from","type":"address"},{"internalType":"address","name":"to","type":"address"},{"internalType":"uint256","name":"value","type":"uint256"}],"name":"transferFrom","outputs":[{"internalType":"bool","name":"","type":"bool"}],"stateMutability":"nonpayable","type":"function"},{"inputs":[{"internalType":"address","name":"newOwner","type":"address"}],"name":"transferOwnership","outputs":[],"stateMutability":"nonpayable","type":"function"},{"inputs":[],"name":"treasury","outputs":[{"internalType":"address","name":"","type":"address"}],"stateMutability":"view","type":"function"},{"inputs":[],"name":"unpause","outputs":[],"stateMutability":"nonpayable","type":"function"}],"devdoc":{"details":"ERC20 token for the Eryza decentralized computing platform","errors":{"ERC20InsufficientAllowance(address,uint256,uint256)":[{"details":"Indicates a failure with the `spender`’s `allowance`. Used in transfers.","params":{"allowance":"Amount of tokens a `spender` is allowed to operate with.","needed":"Minimum amount required to perform a transfer.","spender":"Address that may be allowed to operate on tokens without being their owner."}}],"ERC20InsufficientBalance(address,uint256,uint256)":[{"details":"Indicates an error related to the current `balance` of a `sender`. Used in transfers.","params":{"balance":"Current balance for the interacting account.","needed":"Minimum amount required to perform a transfer.","sender":"Address whose tokens are being transferred."}}],"ERC20InvalidApprover(address)":[{"details":"Indicates a failure with the `approver` of a token to be approved. Used in approvals.","params":{"approver":"Address initiating an approval operation."}}],"ERC20InvalidReceiver(address)":[{"details":"Indicates a failure with the token `receiver`. Used in transfers.","params":{"receiver":"Address to which tokens are being transferred."}}],"ERC20InvalidSender(address)":[{"details":"Indicates a failure with the token `sender`. Used in transfers.","params":{"sender":"Address whose tokens are being transferred."}}],"ERC20InvalidSpender(address)":[{"details":"Indicates a failure with the `spender` to be approved. Used in approvals.","params":{"spender":"Address that may be allowed to operate on tokens without being their owner."}}],"EnforcedPause()":[{"details":"The operation failed because the contract is paused."}],"ExpectedPause()":[{"details":"The operation failed because the contract is not paused."}],"OwnableInvalidOwner(address)":[{"details":"The owner is not a valid owner account. (eg. `address(0)`)"}],"OwnableUnauthorizedAccount(address)":[{"details":"The caller account is not authorized to perform an operation."}]},"events":{"Approval(address,address,uint256)":{"details":"Emitted when the allowance of a `spender` for an `owner` is set by a call to {approve}. `value` is the new allowance."},"Paused(address)":{"details":"Emitted when the pause is triggered by `account`."},"Transfer(address,address,uint256)":{"details":"Emitted when `value` tokens are moved from one account (`from`) to another (`to`). Note that `value` may be zero."},"Unpaused(address)":{"details":"Emitted when the pause is lifted by `account`."}},"kind":"dev","methods":{"addMinter(address)":{"details":"Add a minter address"},"allowance(address,address)":{"details":"Returns the remaining number of tokens that `spender` will be allowed to spend on behalf of `owner` through {transferFrom}. This is zero by default. This value changes when {approve} or {transferFrom} are called."},"approve(address,uint256)":{"details":"See {IERC20-approve}. NOTE: If `value` is the maximum `uint256`, the allowance is not updated on `transferFrom`. This is semantically equivalent to an infinite approval. Requirements: - `spender` cannot be the zero address."},"balanceOf(address)":{"details":"Returns the value of tokens owned by `account`."},"burn(uint256)":{"details":"Burn tokens"},"burnFrom(address,uint256)":{"details":"Burn tokens from another account (with allowance)"},"decimals()":{"details":"Returns the number of decimals used to get its user representation. For example, if `decimals` equals `2`, a balance of `505` tokens should be displayed to a user as `5.05` (`505 / 10 ** 2`). Tokens usually opt for a value of 18, imitating the relationship between Ether and Wei. This is the default value returned by this function, unless it's overridden. NOTE: This information is only used for _display_ purposes: it in no way affects any of the arithmetic of the contract, including {IERC20-balanceOf} and {IERC20-transfer}."},"mint(address,uint256)":{"details":"Mint new tokens (only by authorized minters)"},"name()":{"details":"Returns the name of the token."},"owner()":{"details":"Returns the address of the current owner."},"pause()":{"details":"Pause token transfers (only owner)"},"paused()":{"details":"Returns true if the contract is paused, and false otherwise."},"remainingSupply()":{"details":"Get remaining mintable supply"},"removeMinter(address)":{"details":"Remove a minter address"},"renounceOwnership()":{"details":"Leaves the contract without owner. It will not be possible to call `onlyOwner` functions. Can only be called by the current owner. NOTE: Renouncing ownership will leave the contract without an owner, thereby disabling any functionality that is only available to the owner."},"symbol()":{"details":"Returns the symbol of the token, usually a shorter version of the name."},"totalSupply()":{"details":"Returns the value of tokens in existence."},"transfer(address,uint256)":{"details":"See {IERC20-transfer}. Requirements: - `to` cannot be the zero address. - the caller must have a balance of at least `value`."},"transferFrom(address,address,uint256)":{"details":"See {IERC20-transferFrom}. Skips emitting an {Approval} event indicating an allowance update. This is not required by the ERC. See {xref-ERC20-_approve-address-address-uint256-bool-}[_approve]. NOTE: Does not update the allowance if the current allowance is the maximum `uint256`. Requirements: - `from` and `to` cannot be the zero address. - `from` must have a balance of at least `value`. - the caller must have allowance for ``from``'s tokens of at least `value`."},"transferOwnership(address)":{"details":"Transfers ownership of the contract to a new account (`newOwner`). Can only be called by the current owner."},"unpause()":{"details":"Unpause token transfers (only owner)"}},"title":"EryzaToken (ERYZA)","version":1},"evm":{"bytecode":{"linkReferences":{},"object":"608034620006d957601f620017ef38819003918201601f19168301916001600160401b03831184841017620005ac5780849260a094604052833981010312620006d9576200004d81620006fe565b906200005c60208201620006fe565b6200006a60408301620006fe565b916200008760806200007f60608401620006fe565b9201620006fe565b9062000092620006de565b600b81526a22b93cbd30902a37b5b2b760a91b6020820152620000b4620006de565b60058152644552595a4160d81b6020820152815190916001600160401b038211620005ac5760035490600182811c92168015620006ce575b60208310146200058b5781601f84931162000659575b50602090601f8311600114620005ce57600092620005c2575b50508160011b916000199060031b1c1916176003555b8051906001600160401b038211620005ac5760045490600182811c92168015620005a1575b60208310146200058b5781601f84931162000519575b50602090601f83116001146200048e5760009262000482575b50508160011b916000199060031b1c1916176004555b3315620004695760058054336001600160a01b0319808316821793849055976001600160a01b039283928392839283929083167f8be0079c531659141344cd1fd0a4f28419497f9722a3daafe3b4186f6b6457e0600080a31697888b60065416176006551697888a6007541617600755169384896008541617600855169384886009541617600955168096600a541617600a558315620004505760a01c60ff166200040b576002938454936a108b2a2c2802909400000094858101809111620003f5578655600081815260208181526040808320805489019055519687527fddf252ad1be2c89b69c2b068fc378daa952ba7f163c4a11628f55a4df523b3ef96879190a38015620004505760ff60055460a01c166200040b5784546a0c685fa11e01ec6f000000808201809211620003f55760208691600093895584845283825260408420818154019055604051908152a38015620004505760ff60055460a01c166200040b5783546a18d0bf423c03d8de000000808201809211620003f55760208591600093885584845283825260408420818154019055604051908152a38015620004505760ff60055460a01c166200040b5782546a14adf4b7320334b9000000808201809211620003f55760208491600093875584845283825260408420818154019055604051908152a38215620004505760ff60055460a01c166200040b578154916a084595161401484a000000808401809411620003f5576000936020925584845283825260408420818154019055604051908152a36a52b7d2dcc80cd2e4000000600c556040516110db9081620007148239f35b634e487b7160e01b600052601160045260246000fd5b60405162461bcd60e51b815260206004820152601660248201527f546f6b656e207472616e736665727320706175736564000000000000000000006044820152606490fd5b60405163ec442f0560e01b815260006004820152602490fd5b604051631e4fbdf760e01b815260006004820152602490fd5b01519050388062000185565b600460009081527f8a35acfbc15ff81a39ae7d344fd709f28e8600b4aa8c65c6b64bfe7fe36bd19b9350601f198516905b818110620005005750908460019594939210620004e6575b505050811b016004556200019b565b015160001960f88460031b161c19169055388080620004d7565b92936020600181928786015181550195019301620004bf565b60046000529091507f8a35acfbc15ff81a39ae7d344fd709f28e8600b4aa8c65c6b64bfe7fe36bd19b601f840160051c81016020851062000583575b90849392915b601f830160051c82018110620005735750506200016c565b600081558594506001016200055b565b508062000555565b634e487b7160e01b600052602260045260246000fd5b91607f169162000156565b634e487b7160e01b600052604160045260246000fd5b0151905038806200011b565b600360009081527fc2575a0e9e593c00f959f8c92f12db2869c3395a3b0502d05e2516446f71f85b9350601f198516905b81811062000640575090846001959493921062000626575b505050811b0160035562000131565b015160001960f88460031b161c1916905538808062000617565b92936020600181928786015181550195019301620005ff565b60036000529091507fc2575a0e9e593c00f959f8c92f12db2869c3395a3b0502d05e2516446f71f85b601f840160051c81019160208510620006c3575b90601f859493920160051c01905b818110620006b3575062000102565b60008155849350600101620006a4565b909150819062000696565b91607f1691620000ec565b600080fd5b60408051919082016001600160401b03811183821017620005ac57604052565b51906001600160a01b0382168203620006d95756fe608060408181526004918236101561001657600080fd5b600092833560e01c91826306fdde0314610c3b57508163095ea7b314610b9157816318160ddd14610b72578163193ce1e414610b4957816323b872dd14610b0c5781632ff2e9dc14610ae65781633092afd514610a80578163313ce56714610a6457816332cb6b0c14610a3d5781633ccfbabf14610a215781633f4ba83a146109b157816340c10f19146107d457816342966c68146107b65781634c1861971461079a5781635c975abb14610773578163619f3d6c1461074a57816361d027b314610721578163665a11ca146106f857816370a08231146106c157816371311eed146106a5578163715018a61461064857816379cc67901461061257816383d5e726146105f65781638456cb59146105955781638da5cb5b1461056c57816395d89b411461044d578163983b2d56146103a1578163a2309ff814610382578163a804fcb414610366578163a9059cbb14610335578163da0239a6146102eb578163dd62ed3e146102a2578163f2fde38b1461020e57508063f46eccc4146101d15763f64585c0146101a657600080fd5b346101cd57816003193601126101cd5760075490516001600160a01b039091168152602090f35b5080fd5b50346101cd5760203660031901126101cd5760209160ff9082906001600160a01b036101fb610d5c565b168152600b855220541690519015158152f35b90503461029e57602036600319011261029e57610229610d5c565b90610232610d8d565b6001600160a01b03918216928315610288575050600554826bffffffffffffffffffffffff60a01b821617600555167f8be0079c531659141344cd1fd0a4f28419497f9722a3daafe3b4186f6b6457e08380a380f35b51631e4fbdf760e01b8152908101849052602490fd5b8280fd5b5050346101cd57806003193601126101cd57806020926102c0610d5c565b6102c8610d77565b6001600160a01b0391821683526001865283832091168252845220549051908152f35b8383346101cd57816003193601126101cd57600c54916b033b2e3c9fd0803ce8000000928303928311610322576020838351908152f35b634e487b7160e01b815260118452602490fd5b5050346101cd57806003193601126101cd5760209061035f610355610d5c565b6024359033610db9565b5160018152f35b5050346101cd57816003193601126101cd5760209051601e8152f35b5050346101cd57816003193601126101cd57602090600c549051908152f35b9190503461029e57602036600319011261029e576103bd610d5c565b6103c5610d8d565b6001600160a01b03169182156104125750818352600b6020528220805460ff191660011790557f6ae172837ea30b801fbfcdd4108aa1d5bf8ff775444fd70256b44e6bf3dfc3f68280a280f35b6020606492519162461bcd60e51b83528201526016602482015275496e76616c6964206d696e746572206164647265737360501b6044820152fd5b8383346101cd57816003193601126101cd57805190828454600181811c90808316928315610562575b602093848410811461054f5783885290811561053357506001146104de575b505050829003601f01601f191682019267ffffffffffffffff8411838510176104cb57508291826104c7925282610d13565b0390f35b634e487b7160e01b815260418552602490fd5b8787529192508591837f8a35acfbc15ff81a39ae7d344fd709f28e8600b4aa8c65c6b64bfe7fe36bd19b5b83851061051f5750505050830101858080610495565b805488860183015293019284908201610509565b60ff1916878501525050151560051b8401019050858080610495565b634e487b7160e01b895260228a52602489fd5b91607f1691610476565b5050346101cd57816003193601126101cd5760055490516001600160a01b039091168152602090f35b5050346101cd57816003193601126101cd5760207f62e78cea01bee320cd4e420270b5ea74000d11b0c9f74754ebdbfc544b05a258916105d3610d8d565b6105db610fd8565b6005805460ff60a01b1916600160a01b17905551338152a180f35b5050346101cd57816003193601126101cd576020905160198152f35b5050346101cd573660031901126106455761064261062e610d5c565b6024359061063d823383610ee2565b610ff9565b80f35b80fd5b8334610645578060031936011261064557610661610d8d565b600580546001600160a01b0319811690915581906001600160a01b03167f8be0079c531659141344cd1fd0a4f28419497f9722a3daafe3b4186f6b6457e08280a380f35b5050346101cd57816003193601126101cd5760209051600f8152f35b5050346101cd5760203660031901126101cd5760209181906001600160a01b036106e9610d5c565b16815280845220549051908152f35b5050346101cd57816003193601126101cd57600a5490516001600160a01b039091168152602090f35b5050346101cd57816003193601126101cd5760095490516001600160a01b039091168152602090f35b5050346101cd57816003193601126101cd5760065490516001600160a01b039091168152602090f35b5050346101cd57816003193601126101cd5760209060ff60055460a01c1690519015158152f35b5050346101cd57816003193601126101cd576020905160148152f35b8390346101cd5760203660031901126101cd57610642903533610ff9565b9190503461029e578060031936011261029e576107ef610d5c565b9060243590338552602092600b845260ff82872054161561097657610812610fd8565b6001600160a01b0316938415610941576b033b2e3c9fd0803ce800000061083b84600c54610fb5565b1161090b5760ff60055460a01c166108d15750907f3f2c9d57c068687834f0de942a9babb9e5acab57d516d3480a3c16ee165a4273929161087e82600254610fb5565b60025584865285835280862082815401905584867fddf252ad1be2c89b69c2b068fc378daa952ba7f163c4a11628f55a4df523b3ef858451868152a36108c682600c54610fb5565b600c5551908152a280f35b83606492519162461bcd60e51b83528201526016602482015275151bdad95b881d1c985b9cd9995c9cc81c185d5cd95960521b6044820152fd5b83606492519162461bcd60e51b8352820152601260248201527145786365656473206d617820737570706c7960701b6044820152fd5b83606492519162461bcd60e51b83528201526011602482015270125b9d985b1a59081c9958da5c1a595b9d607a1b6044820152fd5b815162461bcd60e51b815280860185905260156024820152742737ba1030baba3437b934bd32b21036b4b73a32b960591b6044820152606490fd5b90503461029e578260031936011261029e576109cb610d8d565b6005549060ff8260a01c1615610a13575060ff60a01b1916600555513381527f5db9ee0a495bf2e6ff9c91a7834c1ba4fdd244a5e8aa4e537bd38aeae4b073aa90602090a180f35b8251638dfc202b60e01b8152fd5b5050346101cd57816003193601126101cd5760209051600a8152f35b5050346101cd57816003193601126101cd57602090516b033b2e3c9fd0803ce80000008152f35b5050346101cd57816003193601126101cd576020905160128152f35b5050346101cd5760203660031901126101cd57610a9b610d5c565b610aa3610d8d565b6001600160a01b0316808352600b602052908220805460ff191690557fe94479a9f7e1952cc78f2d6baab678adc1b772d936c6583def489e524cb666928280a280f35b5050346101cd57816003193601126101cd57602090516a52b7d2dcc80cd2e40000008152f35b5050346101cd5760603660031901126101cd5760209061035f610b2d610d5c565b610b35610d77565b60443591610b44833383610ee2565b610db9565b5050346101cd57816003193601126101cd5760085490516001600160a01b039091168152602090f35b5050346101cd57816003193601126101cd576020906002549051908152f35b90503461029e578160031936011261029e57610bab610d5c565b602435903315610c24576001600160a01b0316918215610c0d57508083602095338152600187528181208582528752205582519081527f8c5be1e5ebec7d5bd14f71427d1e84f3dd0314c0f7b2291e5b200ac8c7c3b925843392a35160018152f35b8351634a1406b160e11b8152908101859052602490fd5b835163e602df0560e01b8152808401869052602490fd5b8490843461029e578260031936011261029e5782600354600181811c90808316928315610d09575b602093848410811461054f578388529081156105335750600114610cb357505050829003601f01601f191682019267ffffffffffffffff8411838510176104cb57508291826104c7925282610d13565b600387529192508591837fc2575a0e9e593c00f959f8c92f12db2869c3395a3b0502d05e2516446f71f85b5b838510610cf55750505050830101858080610495565b805488860183015293019284908201610cdf565b91607f1691610c63565b6020808252825181830181905290939260005b828110610d4857505060409293506000838284010152601f8019910116010190565b818101860151848201604001528501610d26565b600435906001600160a01b0382168203610d7257565b600080fd5b602435906001600160a01b0382168203610d7257565b6005546001600160a01b03163303610da157565b60405163118cdaa760e01b8152336004820152602490fd5b916001600160a01b03808416928315610ec95716928315610eb05760ff60055460a01c16610e725760009083825281602052604082205490838210610e40575091604082827fddf252ad1be2c89b69c2b068fc378daa952ba7f163c4a11628f55a4df523b3ef958760209652828652038282205586815220818154019055604051908152a3565b60405163391434e360e21b81526001600160a01b03919091166004820152602481019190915260448101839052606490fd5b60405162461bcd60e51b8152602060048201526016602482015275151bdad95b881d1c985b9cd9995c9cc81c185d5cd95960521b6044820152606490fd5b60405163ec442f0560e01b815260006004820152602490fd5b604051634b637e8f60e11b815260006004820152602490fd5b9160018060a01b038093169160009383855260016020526040938486209183169182875260205284862054926000198410610f21575b50505050505050565b848410610f8557508015610f6d578115610f5557855260016020528385209085526020520391205538808080808080610f18565b8451634a1406b160e11b815260048101879052602490fd5b845163e602df0560e01b815260048101879052602490fd5b8551637dc7a0d960e11b81526001600160a01b039190911660048201526024810184905260448101859052606490fd5b91908201809211610fc257565b634e487b7160e01b600052601160045260246000fd5b60ff60055460a01c16610fe757565b60405163d93c066560e01b8152600490fd5b906001600160a01b038216908115610ec95760ff60055460a01c16610e7257600092828452836020526040842054908282106110735750817fddf252ad1be2c89b69c2b068fc378daa952ba7f163c4a11628f55a4df523b3ef926020928587528684520360408620558060025403600255604051908152a3565b60405163391434e360e21b81526001600160a01b03919091166004820152602481019190915260448101829052606490fdfea2646970667358221220026b135a5a437b270e17847882fcadef59754bc4af96c614aba02908cbf2934b64736f6c63430008140033","opcodes":"PUSH1 0x80 CALLVALUE PUSH3 0x6D9 JUMPI PUSH1 0x1F PUSH3 0x17EF CODESIZE DUP2 SWAP1 SUB SWAP2 DUP3 ADD PUSH1 0x1F NOT AND DUP4 ADD SWAP2 PUSH1 0x1 PUSH1 0x1 PUSH1 0x40 SHL SUB DUP4 GT DUP5 DUP5 LT OR PUSH3 0x5AC JUMPI DUP1 DUP5 SWAP3 PUSH1 0xA0 SWAP5 PUSH1 0x40 MSTORE DUP4 CODECOPY DUP2 ADD SUB SLT PUSH3 0x6D9 JUMPI PUSH3 0x4D DUP2 PUSH3 0x6FE JUMP JUMPDEST SWAP1 PUSH3 0x5C PUSH1 0x20 DUP3 ADD PUSH3 0x6FE JUMP JUMPDEST PUSH3 0x6A PUSH1 0x40 DUP4 ADD PUSH3 0x6FE JUMP JUMPDEST SWAP2 PUSH3 0x87 PUSH1 0x80 PUSH3 0x7F PUSH1 0x60 DUP5 ADD PUSH3 0x6FE JUMP JUMPDEST SWAP3 ADD PUSH3 0x6FE JUMP JUMPDEST SWAP1 PUSH3 0x92 PUSH3 0x6DE JUMP JUMPDEST PUSH1 0xB DUP2 MSTORE PUSH11 0x22B93CBD30902A37B5B2B7 PUSH1 0xA9 SHL PUSH1 0x20 DUP3 ADD MSTORE PUSH3 0xB4 PUSH3 0x6DE JUMP JUMPDEST PUSH1 0x5 DUP2 MSTORE PUSH5 0x4552595A41 PUSH1 0xD8 SHL PUSH1 0x20 DUP3 ADD MSTORE DUP2 MLOAD SWAP1 SWAP2 PUSH1 0x1 PUSH1 0x1 PUSH1 0x40 SHL SUB DUP3 GT PUSH3 0x5AC JUMPI PUSH1 0x3 SLOAD SWAP1 PUSH1 0x1 DUP3 DUP2 SHR SWAP3 AND DUP1 ISZERO PUSH3 0x6CE JUMPI JUMPDEST PUSH1 0x20 DUP4 LT EQ PUSH3 0x58B JUMPI DUP2 PUSH1 0x1F DUP5 SWAP4 GT PUSH3 0x659 JUMPI JUMPDEST POP PUSH1 0x20 SWAP1 PUSH1 0x1F DUP4 GT PUSH1 0x1 EQ PUSH3 0x5CE JUMPI PUSH1 0x0 SWAP3 PUSH3 0x5C2 JUMPI JUMPDEST POP POP DUP2 PUSH1 0x1 SHL SWAP2 PUSH1 0x0 NOT SWAP1 PUSH1 0x3 SHL SHR NOT AND OR PUSH1 0x3 SSTORE JUMPDEST DUP1 MLOAD SWAP1 PUSH1 0x1 PUSH1 0x1 PUSH1 0x40 SHL SUB DUP3 GT PUSH3 0x5AC JUMPI PUSH1 0x4 SLOAD SWAP1 PUSH1 0x1 DUP3 DUP2 SHR SWAP3 AND DUP1 ISZERO PUSH3 0x5A1 JUMPI JUMPDEST PUSH1 0x20 DUP4 LT EQ PUSH3 0x58B JUMPI DUP2 PUSH1 0x1F DUP5 SWAP4 GT PUSH3 0x519 JUMPI JUMPDEST POP PUSH1 0x20 SWAP1 PUSH1 0x1F DUP4 GT PUSH1 0x1 EQ PUSH3 0x48E JUMPI PUSH1 0x0 SWAP3 PUSH3 0x482 JUMPI JUMPDEST POP POP DUP2 PUSH1 0x1 SHL SWAP2 PUSH1 0x0 NOT SWAP1 PUSH1 0x3 SHL SHR NOT AND OR PUSH1 0x4 SSTORE JUMPDEST CALLER ISZERO PUSH3 0x469 JUMPI PUSH1 0x5 DUP1 SLOAD CALLER PUSH1 0x1 PUSH1 0x1 PUSH1 0xA0 SHL SUB NOT DUP1 DUP4 AND DUP3 OR SWAP4 DUP5 SWAP1 SSTORE SWAP8 PUSH1 0x1 PUSH1 0x1 PUSH1 0xA0 SHL SUB SWAP3 DUP4 SWAP3 DUP4 SWAP3 DUP4 SWAP3 DUP4 SWAP3 SWAP1 DUP4 AND PUSH32 0x8BE0079C531659141344CD1FD0A4F28419497F9722A3DAAFE3B4186F6B6457E0 PUSH1 0x0 DUP1 LOG3 AND SWAP8 DUP9 DUP12 PUSH1 0x6 SLOAD AND OR PUSH1 0x6 SSTORE AND SWAP8 DUP9 DUP11 PUSH1 0x7 SLOAD AND OR PUSH1 0x7 SSTORE AND SWAP4 DUP5 DUP10 PUSH1 0x8 SLOAD AND OR PUSH1 0x8 SSTORE AND SWAP4 DUP5 DUP9 PUSH1 0x9 SLOAD AND OR PUSH1 0x9 SSTORE AND DUP1 SWAP7 PUSH1 0xA SLOAD AND OR PUSH1 0xA SSTORE DUP4 ISZERO PUSH3 0x450 JUMPI PUSH1 0xA0 SHR PUSH1 0xFF AND PUSH3 0x40B JUMPI PUSH1 0x2 SWAP4 DUP5 SLOAD SWAP4 PUSH11 0x108B2A2C28029094000000 SWAP5 DUP6 DUP2 ADD DUP1 SWAP2 GT PUSH3 0x3F5 JUMPI DUP7 SSTORE PUSH1 0x0 DUP2 DUP2 MSTORE PUSH1 0x20 DUP2 DUP2 MSTORE PUSH1 0x40 DUP1 DUP4 KECCAK256 DUP1 SLOAD DUP10 ADD SWAP1 SSTORE MLOAD SWAP7 DUP8 MSTORE PUSH32 0xDDF252AD1BE2C89B69C2B068FC378DAA952BA7F163C4A11628F55A4DF523B3EF SWAP7 DUP8 SWAP2 SWAP1 LOG3 DUP1 ISZERO PUSH3 0x450 JUMPI PUSH1 0xFF PUSH1 0x5 SLOAD PUSH1 0xA0 SHR AND PUSH3 0x40B JUMPI DUP5 SLOAD PUSH11 0xC685FA11E01EC6F000000 DUP1 DUP3 ADD DUP1 SWAP3 GT PUSH3 0x3F5 JUMPI PUSH1 0x20 DUP7 SWAP2 PUSH1 0x0 SWAP4 DUP10 SSTORE DUP5 DUP5 MSTORE DUP4 DUP3 MSTORE PUSH1 0x40 DUP5 KECCAK256 DUP2 DUP2 SLOAD ADD SWAP1 SSTORE PUSH1 0x40 MLOAD SWAP1 DUP2 MSTORE LOG3 DUP1 ISZERO PUSH3 0x450 JUMPI PUSH1 0xFF PUSH1 0x5 SLOAD PUSH1 0xA0 SHR AND PUSH3 0x40B JUMPI DUP4 SLOAD PUSH11 0x18D0BF423C03D8DE000000 DUP1 DUP3 ADD DUP1 SWAP3 GT PUSH3 0x3F5 JUMPI PUSH1 0x20 DUP6 SWAP2 PUSH1 0x0 SWAP4 DUP9 SSTORE DUP5 DUP5 MSTORE DUP4 DUP3 MSTORE PUSH1 0x40 DUP5 KECCAK256 DUP2 DUP2 SLOAD ADD SWAP1 SSTORE PUSH1 0x40 MLOAD SWAP1 DUP2 MSTORE LOG3 DUP1 ISZERO PUSH3 0x450 JUMPI PUSH1 0xFF PUSH1 0x5 SLOAD PUSH1 0xA0 SHR AND PUSH3 0x40B JUMPI DUP3 SLOAD PUSH11 0x14ADF4B7320334B9000000 DUP1 DUP3 ADD DUP1 SWAP3 GT PUSH3 0x3F5 JUMPI PUSH1 0x20 DUP5 SWAP2 PUSH1 0x0 SWAP4 DUP8 SSTORE DUP5 DUP5 MSTORE DUP4 DUP3 MSTORE PUSH1 0x40 DUP5 KECCAK256 DUP2 DUP2 SLOAD ADD SWAP1 SSTORE PUSH1 0x40 MLOAD SWAP1 DUP2 MSTORE LOG3 DUP3 ISZERO PUSH3 0x450 JUMPI PUSH1 0xFF PUSH1 0x5 SLOAD PUSH1 0xA0 SHR AND PUSH3 0x40B JUMPI DUP2 SLOAD SWAP2 PUSH11 0x84595161401484A000000 DUP1 DUP5 ADD DUP1 SWAP5 GT PUSH3 0x3F5 JUMPI PUSH1 0x0 SWAP4 PUSH1 0x20 SWAP3 SSTORE DUP5 DUP5 MSTORE DUP4 DUP3 MSTORE PUSH1 0x40 DUP5 KECCAK256 DUP2 DUP2 SLOAD ADD SWAP1 SSTORE PUSH1 0x40 MLOAD SWAP1 DUP2 MSTORE LOG3 PUSH11 0x52B7D2DCC80CD2E4000000 PUSH1 0xC SSTORE PUSH1 0x40 MLOAD PUSH2 0x10DB SWAP1 DUP2 PUSH3 0x714 DUP3 CODECOPY RETURN JUMPDEST PUSH4 0x4E487B71 PUSH1 0xE0 SHL PUSH1 0x0 MSTORE PUSH1 0x11 PUSH1 0x4 MSTORE PUSH1 0x24 PUSH1 0x0 REVERT JUMPDEST PUSH1 0x40 MLOAD PUSH3 0x461BCD PUSH1 0xE5 SHL DUP2 MSTORE PUSH1 0x20 PUSH1 0x4 DUP3 ADD MSTORE PUSH1 0x16 PUSH1 0x24 DUP3 ADD MSTORE PUSH32 0x546F6B656E207472616E73666572732070617573656400000000000000000000 PUSH1 0x44 DUP3 ADD MSTORE PUSH1 0x64 SWAP1 REVERT JUMPDEST PUSH1 0x40 MLOAD PUSH4 0xEC442F05 PUSH1 0xE0 SHL DUP2 MSTORE PUSH1 0x0 PUSH1 0x4 DUP3 ADD MSTORE PUSH1 0x24 SWAP1 REVERT JUMPDEST PUSH1 0x40 MLOAD PUSH4 0x1E4FBDF7 PUSH1 0xE0 SHL DUP2 MSTORE PUSH1 0x0 PUSH1 0x4 DUP3 ADD MSTORE PUSH1 0x24 SWAP1 REVERT JUMPDEST ADD MLOAD SWAP1 POP CODESIZE DUP1 PUSH3 0x185 JUMP JUMPDEST PUSH1 0x4 PUSH1 0x0 SWAP1 DUP2 MSTORE PUSH32 0x8A35ACFBC15FF81A39AE7D344FD709F28E8600B4AA8C65C6B64BFE7FE36BD19B SWAP4 POP PUSH1 0x1F NOT DUP6 AND SWAP1 JUMPDEST DUP2 DUP2 LT PUSH3 0x500 JUMPI POP SWAP1 DUP5 PUSH1 0x1 SWAP6 SWAP5 SWAP4 SWAP3 LT PUSH3 0x4E6 JUMPI JUMPDEST POP POP POP DUP2 SHL ADD PUSH1 0x4 SSTORE PUSH3 0x19B JUMP JUMPDEST ADD MLOAD PUSH1 0x0 NOT PUSH1 0xF8 DUP5 PUSH1 0x3 SHL AND SHR NOT AND SWAP1 SSTORE CODESIZE DUP1 DUP1 PUSH3 0x4D7 JUMP JUMPDEST SWAP3 SWAP4 PUSH1 0x20 PUSH1 0x1 DUP2 SWAP3 DUP8 DUP7 ADD MLOAD DUP2 SSTORE ADD SWAP6 ADD SWAP4 ADD PUSH3 0x4BF JUMP JUMPDEST PUSH1 0x4 PUSH1 0x0 MSTORE SWAP1 SWAP2 POP PUSH32 0x8A35ACFBC15FF81A39AE7D344FD709F28E8600B4AA8C65C6B64BFE7FE36BD19B PUSH1 0x1F DUP5 ADD PUSH1 0x5 SHR DUP2 ADD PUSH1 0x20 DUP6 LT PUSH3 0x583 JUMPI JUMPDEST SWAP1 DUP5 SWAP4 SWAP3 SWAP2 JUMPDEST PUSH1 0x1F DUP4 ADD PUSH1 0x5 SHR DUP3 ADD DUP2 LT PUSH3 0x573 JUMPI POP POP PUSH3 0x16C JUMP JUMPDEST PUSH1 0x0 DUP2 SSTORE DUP6 SWAP5 POP PUSH1 0x1 ADD PUSH3 0x55B JUMP JUMPDEST POP DUP1 PUSH3 0x555 JUMP JUMPDEST PUSH4 0x4E487B71 PUSH1 0xE0 SHL PUSH1 0x0 MSTORE PUSH1 0x22 PUSH1 0x4 MSTORE PUSH1 0x24 PUSH1 0x0 REVERT JUMPDEST SWAP2 PUSH1 0x7F AND SWAP2 PUSH3 0x156 JUMP JUMPDEST PUSH4 0x4E487B71 PUSH1 0xE0 SHL PUSH1 0x0 MSTORE PUSH1 0x41 PUSH1 0x4 MSTORE PUSH1 0x24 PUSH1 0x0 REVERT JUMPDEST ADD MLOAD SWAP1 POP CODESIZE DUP1 PUSH3 0x11B JUMP JUMPDEST PUSH1 0x3 PUSH1 0x0 SWAP1 DUP2 MSTORE PUSH32 0xC2575A0E9E593C00F959F8C92F12DB2869C3395A3B0502D05E2516446F71F85B SWAP4 POP PUSH1 0x1F NOT DUP6 AND SWAP1 JUMPDEST DUP2 DUP2 LT PUSH3 0x640 JUMPI POP SWAP1 DUP5 PUSH1 0x1 SWAP6 SWAP5 SWAP4 SWAP3 LT PUSH3 0x626 JUMPI JUMPDEST POP POP POP DUP2 SHL ADD PUSH1 0x3 SSTORE PUSH3 0x131 JUMP JUMPDEST ADD MLOAD PUSH1 0x0 NOT PUSH1 0xF8 DUP5 PUSH1 0x3 SHL AND SHR NOT AND SWAP1 SSTORE CODESIZE DUP1 DUP1 PUSH3 0x617 JUMP JUMPDEST SWAP3 SWAP4 PUSH1 0x20 PUSH1 0x1 DUP2 SWAP3 DUP8 DUP7 ADD MLOAD DUP2 SSTORE ADD SWAP6 ADD SWAP4 ADD PUSH3 0x5FF JUMP JUMPDEST PUSH1 0x3 PUSH1 0x0 MSTORE SWAP1 SWAP2 POP PUSH32 0xC2575A0E9E593C00F959F8C92F12DB2869C3395A3B0502D05E2516446F71F85B PUSH1 0x1F DUP5 ADD PUSH1 0x5 SHR DUP2 ADD SWAP2 PUSH1 0x20 DUP6 LT PUSH3 0x6C3 JUMPI JUMPDEST SWAP1 PUSH1 0x1F DUP6 SWAP5 SWAP4 SWAP3 ADD PUSH1 0x5 SHR ADD SWAP1 JUMPDEST DUP2 DUP2 LT PUSH3 0x6B3 JUMPI POP PUSH3 0x102 JUMP JUMPDEST PUSH1 0x0 DUP2 SSTORE DUP5 SWAP4 POP PUSH1 0x1 ADD PUSH3 0x6A4 JUMP JUMPDEST SWAP1 SWAP2 POP DUP2 SWAP1 PUSH3 0x696 JUMP JUMPDEST SWAP2 PUSH1 0x7F AND SWAP2 PUSH3 0xEC JUMP JUMPDEST PUSH1 0x0 DUP1 REVERT JUMPDEST PUSH1 0x40 DUP1 MLOAD SWAP2 SWAP1 DUP3 ADD PUSH1 0x1 PUSH1 0x1 PUSH1 0x40 SHL SUB DUP2 GT DUP4 DUP3 LT OR PUSH3 0x5AC JUMPI PUSH1 0x40 MSTORE JUMP JUMPDEST MLOAD SWAP1 PUSH1 0x1 PUSH1 0x1 PUSH1 0xA0 SHL SUB DUP3 AND DUP3 SUB PUSH3 0x6D9 JUMPI JUMP INVALID PUSH1 0x80 PUSH1 0x40 DUP2 DUP2 MSTORE PUSH1 0x4 SWAP2 DUP3 CALLDATASIZE LT ISZERO PUSH2 0x16 JUMPI PUSH1 0x0 DUP1 REVERT JUMPDEST PUSH1 0x0 SWAP3 DUP4 CALLDATALOAD PUSH1 0xE0 SHR SWAP2 DUP3 PUSH4 0x6FDDE03 EQ PUSH2 0xC3B JUMPI POP DUP2 PUSH4 0x95EA7B3 EQ PUSH2 0xB91 JUMPI DUP2 PUSH4 0x18160DDD EQ PUSH2 0xB72 JUMPI DUP2 PUSH4 0x193CE1E4 EQ PUSH2 0xB49 JUMPI DUP2 PUSH4 0x23B872DD EQ PUSH2 0xB0C JUMPI DUP2 PUSH4 0x2FF2E9DC EQ PUSH2 0xAE6 JUMPI DUP2 PUSH4 0x3092AFD5 EQ PUSH2 0xA80 JUMPI DUP2 PUSH4 0x313CE567 EQ PUSH2 0xA64 JUMPI DUP2 PUSH4 0x32CB6B0C EQ PUSH2 0xA3D JUMPI DUP2 PUSH4 0x3CCFBABF EQ PUSH2 0xA21 JUMPI DUP2 PUSH4 0x3F4BA83A EQ PUSH2 0x9B1 JUMPI DUP2 PUSH4 0x40C10F19 EQ PUSH2 0x7D4 JUMPI DUP2 PUSH4 0x42966C68 EQ PUSH2 0x7B6 JUMPI DUP2 PUSH4 0x4C186197 EQ PUSH2 0x79A JUMPI DUP2 PUSH4 0x5C975ABB EQ PUSH2 0x773 JUMPI DUP2 PUSH4 0x619F3D6C EQ PUSH2 0x74A JUMPI DUP2 PUSH4 0x61D027B3 EQ PUSH2 0x721 JUMPI DUP2 PUSH4 0x665A11CA EQ PUSH2 0x6F8 JUMPI DUP2 PUSH4 0x70A08231 EQ PUSH2 0x6C1 JUMPI DUP2 PUSH4 0x71311EED EQ PUSH2 0x6A5 JUMPI DUP2 PUSH4 0x715018A6 EQ PUSH2 0x648 JUMPI DUP2 PUSH4 0x79CC6790 EQ PUSH2 0x612 JUMPI DUP2 PUSH4 0x83D5E726 EQ PUSH2 0x5F6 JUMPI DUP2 PUSH4 0x8456CB59 EQ PUSH2 0x595 JUMPI DUP2 PUSH4 0x8DA5CB5B EQ PUSH2 0x56C JUMPI DUP2 PUSH4 0x95D89B41 EQ PUSH2 0x44D JUMPI DUP2 PUSH4 0x983B2D56 EQ PUSH2 0x3A1 JUMPI DUP2 PUSH4 0xA2309FF8 EQ PUSH2 0x382 JUMPI DUP2 PUSH4 0xA804FCB4 EQ PUSH2 0x366 JUMPI DUP2 PUSH4 0xA9059CBB EQ PUSH2 0x335 JUMPI DUP2 PUSH4 0xDA0239A6 EQ PUSH2 0x2EB JUMPI DUP2 PUSH4 0xDD62ED3E EQ PUSH2 0x2A2 JUMPI DUP2 PUSH4 0xF2FDE38B EQ PUSH2 0x20E JUMPI POP DUP1 PUSH4 0xF46ECCC4 EQ PUSH2 0x1D1 JUMPI PUSH4 0xF64585C0 EQ PUSH2 0x1A6 JUMPI PUSH1 0x0 DUP1 REVERT JUMPDEST CALLVALUE PUSH2 0x1CD JUMPI DUP2 PUSH1 0x3 NOT CALLDATASIZE ADD SLT PUSH2 0x1CD JUMPI PUSH1 0x7 SLOAD SWAP1 MLOAD PUSH1 0x1 PUSH1 0x1 PUSH1 0xA0 SHL SUB SWAP1 SWAP2 AND DUP2 MSTORE PUSH1 0x20 SWAP1 RETURN JUMPDEST POP DUP1 REVERT JUMPDEST POP CALLVALUE PUSH2 0x1CD JUMPI PUSH1 0x20 CALLDATASIZE PUSH1 0x3 NOT ADD SLT PUSH2 0x1CD JUMPI PUSH1 0x20 SWAP2 PUSH1 0xFF SWAP1 DUP3 SWAP1 PUSH1 0x1 PUSH1 0x1 PUSH1 0xA0 SHL SUB PUSH2 0x1FB PUSH2 0xD5C JUMP JUMPDEST AND DUP2 MSTORE PUSH1 0xB DUP6 MSTORE KECCAK256 SLOAD AND SWAP1 MLOAD SWAP1 ISZERO ISZERO DUP2 MSTORE RETURN JUMPDEST SWAP1 POP CALLVALUE PUSH2 0x29E JUMPI PUSH1 0x20 CALLDATASIZE PUSH1 0x3 NOT ADD SLT PUSH2 0x29E JUMPI PUSH2 0x229 PUSH2 0xD5C JUMP JUMPDEST SWAP1 PUSH2 0x232 PUSH2 0xD8D JUMP JUMPDEST PUSH1 0x1 PUSH1 0x1 PUSH1 0xA0 SHL SUB SWAP2 DUP3 AND SWAP3 DUP4 ISZERO PUSH2 0x288 JUMPI POP POP PUSH1 0x5 SLOAD DUP3 PUSH12 0xFFFFFFFFFFFFFFFFFFFFFFFF PUSH1 0xA0 SHL DUP3 AND OR PUSH1 0x5 SSTORE AND PUSH32 0x8BE0079C531659141344CD1FD0A4F28419497F9722A3DAAFE3B4186F6B6457E0 DUP4 DUP1 LOG3 DUP1 RETURN JUMPDEST MLOAD PUSH4 0x1E4FBDF7 PUSH1 0xE0 SHL DUP2 MSTORE SWAP1 DUP2 ADD DUP5 SWAP1 MSTORE PUSH1 0x24 SWAP1 REVERT JUMPDEST DUP3 DUP1 REVERT JUMPDEST POP POP CALLVALUE PUSH2 0x1CD JUMPI DUP1 PUSH1 0x3 NOT CALLDATASIZE ADD SLT PUSH2 0x1CD JUMPI DUP1 PUSH1 0x20 SWAP3 PUSH2 0x2C0 PUSH2 0xD5C JUMP JUMPDEST PUSH2 0x2C8 PUSH2 0xD77 JUMP JUMPDEST PUSH1 0x1 PUSH1 0x1 PUSH1 0xA0 SHL SUB SWAP2 DUP3 AND DUP4 MSTORE PUSH1 0x1 DUP7 MSTORE DUP4 DUP4 KECCAK256 SWAP2 AND DUP3 MSTORE DUP5 MSTORE KECCAK256 SLOAD SWAP1 MLOAD SWAP1 DUP2 MSTORE RETURN JUMPDEST DUP4 DUP4 CALLVALUE PUSH2 0x1CD JUMPI DUP2 PUSH1 0x3 NOT CALLDATASIZE ADD SLT PUSH2 0x1CD JUMPI PUSH1 0xC SLOAD SWAP2 PUSH12 0x33B2E3C9FD0803CE8000000 SWAP3 DUP4 SUB SWAP3 DUP4 GT PUSH2 0x322 JUMPI PUSH1 0x20 DUP4 DUP4 MLOAD SWAP1 DUP2 MSTORE RETURN JUMPDEST PUSH4 0x4E487B71 PUSH1 0xE0 SHL DUP2 MSTORE PUSH1 0x11 DUP5 MSTORE PUSH1 0x24 SWAP1 REVERT JUMPDEST POP POP CALLVALUE PUSH2 0x1CD JUMPI DUP1 PUSH1 0x3 NOT CALLDATASIZE ADD SLT PUSH2 0x1CD JUMPI PUSH1 0x20 SWAP1 PUSH2 0x35F PUSH2 0x355 PUSH2 0xD5C JUMP JUMPDEST PUSH1 0x24 CALLDATALOAD SWAP1 CALLER PUSH2 0xDB9 JUMP JUMPDEST MLOAD PUSH1 0x1 DUP2 MSTORE RETURN JUMPDEST POP POP CALLVALUE PUSH2 0x1CD JUMPI DUP2 PUSH1 0x3 NOT CALLDATASIZE ADD SLT PUSH2 0x1CD JUMPI PUSH1 0x20 SWAP1 MLOAD PUSH1 0x1E DUP2 MSTORE RETURN JUMPDEST POP POP CALLVALUE PUSH2 0x1CD JUMPI DUP2 PUSH1 0x3 NOT CALLDATASIZE ADD SLT PUSH2 0x1CD JUMPI PUSH1 0x20 SWAP1 PUSH1 0xC SLOAD SWAP1 MLOAD SWAP1 DUP2 MSTORE RETURN JUMPDEST SWAP2 SWAP1 POP CALLVALUE PUSH2 0x29E JUMPI PUSH1 0x20 CALLDATASIZE PUSH1 0x3 NOT ADD SLT PUSH2 0x29E JUMPI PUSH2 0x3BD PUSH2 0xD5C JUMP JUMPDEST PUSH2 0x3C5 PUSH2 0xD8D JUMP JUMPDEST PUSH1 0x1 PUSH1 0x1 PUSH1 0xA0 SHL SUB AND SWAP2 DUP3 ISZERO PUSH2 0x412 JUMPI POP DUP2 DUP4 MSTORE PUSH1 0xB PUSH1 0x20 MSTORE DUP3 KECCAK256 DUP1 SLOAD PUSH1 0xFF NOT AND PUSH1 0x1 OR SWAP1 SSTORE PUSH32 0x6AE172837EA30B801FBFCDD4108AA1D5BF8FF775444FD70256B44E6BF3DFC3F6 DUP3 DUP1 LOG2 DUP1 RETURN JUMPDEST PUSH1 0x20 PUSH1 0x64 SWAP3 MLOAD SWAP2 PUSH3 0x461BCD PUSH1 0xE5 SHL DUP4 MSTORE DUP3 ADD MSTORE PUSH1 0x16 PUSH1 0x24 DUP3 ADD MSTORE PUSH22 0x496E76616C6964206D696E7465722061646472657373 PUSH1 0x50 SHL PUSH1 0x44 DUP3 ADD MSTORE REVERT JUMPDEST DUP4 DUP4 CALLVALUE PUSH2 0x1CD JUMPI DUP2 PUSH1 0x3 NOT CALLDATASIZE ADD SLT PUSH2 0x1CD JUMPI DUP1 MLOAD SWAP1 DUP3 DUP5 SLOAD PUSH1 0x1 DUP2 DUP2 SHR SWAP1 DUP1 DUP4 AND SWAP3 DUP4 ISZERO PUSH2 0x562 JUMPI JUMPDEST PUSH1 0x20 SWAP4 DUP5 DUP5 LT DUP2 EQ PUSH2 0x54F JUMPI DUP4 DUP9 MSTORE SWAP1 DUP2 ISZERO PUSH2 0x533 JUMPI POP PUSH1 0x1 EQ PUSH2 0x4DE JUMPI JUMPDEST POP POP POP DUP3 SWAP1 SUB PUSH1 0x1F ADD PUSH1 0x1F NOT AND DUP3 ADD SWAP3 PUSH8 0xFFFFFFFFFFFFFFFF DUP5 GT DUP4 DUP6 LT OR PUSH2 0x4CB JUMPI POP DUP3 SWAP2 DUP3 PUSH2 0x4C7 SWAP3 MSTORE DUP3 PUSH2 0xD13 JUMP JUMPDEST SUB SWAP1 RETURN JUMPDEST PUSH4 0x4E487B71 PUSH1 0xE0 SHL DUP2 MSTORE PUSH1 0x41 DUP6 MSTORE PUSH1 0x24 SWAP1 REVERT JUMPDEST DUP8 DUP8 MSTORE SWAP2 SWAP3 POP DUP6 SWAP2 DUP4 PUSH32 0x8A35ACFBC15FF81A39AE7D344FD709F28E8600B4AA8C65C6B64BFE7FE36BD19B JUMPDEST DUP4 DUP6 LT PUSH2 0x51F JUMPI POP POP POP POP DUP4 ADD ADD DUP6 DUP1 DUP1 PUSH2 0x495 JUMP JUMPDEST DUP1 SLOAD DUP9 DUP7 ADD DUP4 ADD MSTORE SWAP4 ADD SWAP3 DUP5 SWAP1 DUP3 ADD PUSH2 0x509 JUMP JUMPDEST PUSH1 0xFF NOT AND DUP8 DUP6 ADD MSTORE POP POP ISZERO ISZERO PUSH1 0x5 SHL DUP5 ADD ADD SWAP1 POP DUP6 DUP1 DUP1 PUSH2 0x495 JUMP JUMPDEST PUSH4 0x4E487B71 PUSH1 0xE0 SHL DUP10 MSTORE PUSH1 0x22 DUP11 MSTORE PUSH1 0x24 DUP10 REVERT JUMPDEST SWAP2 PUSH1 0x7F AND SWAP2 PUSH2 0x476 JUMP JUMPDEST POP POP CALLVALUE PUSH2 0x1CD JUMPI DUP2 PUSH1 0x3 NOT CALLDATASIZE ADD SLT PUSH2 0x1CD JUMPI PUSH1 0x5 SLOAD SWAP1 MLOAD PUSH1 0x1 PUSH1 0x1 PUSH1 0xA0 SHL SUB SWAP1 SWAP2 AND DUP2 MSTORE PUSH1 0x20 SWAP1 RETURN JUMPDEST POP POP CALLVALUE PUSH2 0x1CD JUMPI DUP2 PUSH1 0x3 NOT CALLDATASIZE ADD SLT PUSH2 0x1CD JUMPI PUSH1 0x20 PUSH32 0x62E78CEA01BEE320CD4E420270B5EA74000D11B0C9F74754EBDBFC544B05A258 SWAP2 PUSH2 0x5D3 PUSH2 0xD8D JUMP JUMPDEST PUSH2 0x5DB PUSH2 0xFD8 JUMP JUMPDEST PUSH1 0x5 DUP1 SLOAD PUSH1 0xFF PUSH1 0xA0 SHL NOT AND PUSH1 0x1 PUSH1 0xA0 SHL OR SWAP1 SSTORE MLOAD CALLER DUP2 MSTORE LOG1 DUP1 RETURN JUMPDEST POP POP CALLVALUE PUSH2 0x1CD JUMPI DUP2 PUSH1 0x3 NOT CALLDATASIZE ADD SLT PUSH2 0x1CD JUMPI PUSH1 0x20 SWAP1 MLOAD PUSH1 0x19 DUP2 MSTORE RETURN JUMPDEST POP POP CALLVALUE PUSH2 0x1CD JUMPI CALLDATASIZE PUSH1 0x3 NOT ADD SLT PUSH2 0x645 JUMPI PUSH2 0x642 PUSH2 0x62E PUSH2 0xD5C JUMP JUMPDEST PUSH1 0x24 CALLDATALOAD SWAP1 PUSH2 0x63D DUP3 CALLER DUP4 PUSH2 0xEE2 JUMP JUMPDEST PUSH2 0xFF9 JUMP JUMPDEST DUP1 RETURN JUMPDEST DUP1 REVERT JUMPDEST DUP4 CALLVALUE PUSH2 0x645 JUMPI DUP1 PUSH1 0x3 NOT CALLDATASIZE ADD SLT PUSH2 0x645 JUMPI PUSH2 0x661 PUSH2 0xD8D JUMP JUMPDEST PUSH1 0x5 DUP1 SLOAD PUSH1 0x1 PUSH1 0x1 PUSH1 0xA0 SHL SUB NOT DUP2 AND SWAP1 SWAP2 SSTORE DUP2 SWAP1 PUSH1 0x1 PUSH1 0x1 PUSH1 0xA0 SHL SUB AND PUSH32 0x8BE0079C531659141344CD1FD0A4F28419497F9722A3DAAFE3B4186F6B6457E0 DUP3 DUP1 LOG3 DUP1 RETURN JUMPDEST POP POP CALLVALUE PUSH2 0x1CD JUMPI DUP2 PUSH1 0x3 NOT CALLDATASIZE ADD SLT PUSH2 0x1CD JUMPI PUSH1 0x20 SWAP1 MLOAD PUSH1 0xF DUP2 MSTORE RETURN JUMPDEST POP POP CALLVALUE PUSH2 0x1CD JUMPI PUSH1 0x20 CALLDATASIZE PUSH1 0x3 NOT ADD SLT PUSH2 0x1CD JUMPI PUSH1 0x20 SWAP2 DUP2 SWAP1 PUSH1 0x1 PUSH1 0x1 PUSH1 0xA0 SHL SUB PUSH2 0x6E9 PUSH2 0xD5C JUMP JUMPDEST AND DUP2 MSTORE DUP1 DUP5 MSTORE KECCAK256 SLOAD SWAP1 MLOAD SWAP1 DUP2 MSTORE RETURN JUMPDEST POP POP CALLVALUE PUSH2 0x1CD JUMPI DUP2 PUSH1 0x3 NOT CALLDATASIZE ADD SLT PUSH2 0x1CD JUMPI PUSH1 0xA SLOAD SWAP1 MLOAD PUSH1 0x1 PUSH1 0x1 PUSH1 0xA0 SHL SUB SWAP1 SWAP2 AND DUP2 MSTORE PUSH1 0x20 SWAP1 RETURN JUMPDEST POP POP CALLVALUE PUSH2 0x1CD JUMPI DUP2 PUSH1 0x3 NOT CALLDATASIZE ADD SLT PUSH2 0x1CD JUMPI PUSH1 0x9 SLOAD SWAP1 MLOAD PUSH1 0x1 PUSH1 0x1 PUSH1 0xA0 SHL SUB SWAP1 SWAP2 AND DUP2 MSTORE PUSH1 0x20 SWAP1 RETURN JUMPDEST POP POP CALLVALUE PUSH2 0x1CD JUMPI DUP2 PUSH1 0x3 NOT CALLDATASIZE ADD SLT PUSH2 0x1CD JUMPI PUSH1 0x6 SLOAD SWAP1 MLOAD PUSH1 0x1 PUSH1 0x1 PUSH1 0xA0 SHL SUB SWAP1 SWAP2 AND DUP2 MSTORE PUSH1 0x20 SWAP1 RETURN JUMPDEST POP POP CALLVALUE PUSH2 0x1CD JUMPI DUP2 PUSH1 0x3 NOT CALLDATASIZE ADD SLT PUSH2 0x1CD JUMPI PUSH1 0x20 SWAP1 PUSH1 0xFF PUSH1 0x5 SLOAD PUSH1 0xA0 SHR AND SWAP1 MLOAD SWAP1 ISZERO ISZERO DUP2 MSTORE RETURN JUMPDEST POP POP CALLVALUE PUSH2 0x1CD JUMPI DUP2 PUSH1 0x3 NOT CALLDATASIZE ADD SLT PUSH2 0x1CD JUMPI PUSH1 0x20 SWAP1 MLOAD PUSH1 0x14 DUP2 MSTORE RETURN JUMPDEST DUP4 SWAP1 CALLVALUE PUSH2 0x1CD JUMPI PUSH1 0x20 CALLDATASIZE PUSH1 0x3 NOT ADD SLT PUSH2 0x1CD JUMPI PUSH2 0x642 SWAP1 CALLDATALOAD CALLER PUSH2 0xFF9 JUMP JUMPDEST SWAP2 SWAP1 POP CALLVALUE PUSH2 0x29E JUMPI DUP1 PUSH1 0x3 NOT CALLDATASIZE ADD SLT PUSH2 0x29E JUMPI PUSH2 0x7EF PUSH2 0xD5C JUMP JUMPDEST SWAP1 PUSH1 0x24 CALLDATALOAD SWAP1 CALLER DUP6 MSTORE PUSH1 0x20 SWAP3 PUSH1 0xB DUP5 MSTORE PUSH1 0xFF DUP3 DUP8 KECCAK256 SLOAD AND ISZERO PUSH2 0x976 JUMPI PUSH2 0x812 PUSH2 0xFD8 JUMP JUMPDEST PUSH1 0x1 PUSH1 0x1 PUSH1 0xA0 SHL SUB AND SWAP4 DUP5 ISZERO PUSH2 0x941 JUMPI PUSH12 0x33B2E3C9FD0803CE8000000 PUSH2 0x83B DUP5 PUSH1 0xC SLOAD PUSH2 0xFB5 JUMP JUMPDEST GT PUSH2 0x90B JUMPI PUSH1 0xFF PUSH1 0x5 SLOAD PUSH1 0xA0 SHR AND PUSH2 0x8D1 JUMPI POP SWAP1 PUSH32 0x3F2C9D57C068687834F0DE942A9BABB9E5ACAB57D516D3480A3C16EE165A4273 SWAP3 SWAP2 PUSH2 0x87E DUP3 PUSH1 0x2 SLOAD PUSH2 0xFB5 JUMP JUMPDEST PUSH1 0x2 SSTORE DUP5 DUP7 MSTORE DUP6 DUP4 MSTORE DUP1 DUP7 KECCAK256 DUP3 DUP2 SLOAD ADD SWAP1 SSTORE DUP5 DUP7 PUSH32 0xDDF252AD1BE2C89B69C2B068FC378DAA952BA7F163C4A11628F55A4DF523B3EF DUP6 DUP5 MLOAD DUP7 DUP2 MSTORE LOG3 PUSH2 0x8C6 DUP3 PUSH1 0xC SLOAD PUSH2 0xFB5 JUMP JUMPDEST PUSH1 0xC SSTORE MLOAD SWAP1 DUP2 MSTORE LOG2 DUP1 RETURN JUMPDEST DUP4 PUSH1 0x64 SWAP3 MLOAD SWAP2 PUSH3 0x461BCD PUSH1 0xE5 SHL DUP4 MSTORE DUP3 ADD MSTORE PUSH1 0x16 PUSH1 0x24 DUP3 ADD MSTORE PUSH22 0x151BDAD95B881D1C985B9CD9995C9CC81C185D5CD959 PUSH1 0x52 SHL PUSH1 0x44 DUP3 ADD MSTORE REVERT JUMPDEST DUP4 PUSH1 0x64 SWAP3 MLOAD SWAP2 PUSH3 0x461BCD PUSH1 0xE5 SHL DUP4 MSTORE DUP3 ADD MSTORE PUSH1 0x12 PUSH1 0x24 DUP3 ADD MSTORE PUSH18 0x45786365656473206D617820737570706C79 PUSH1 0x70 SHL PUSH1 0x44 DUP3 ADD MSTORE REVERT JUMPDEST DUP4 PUSH1 0x64 SWAP3 MLOAD SWAP2 PUSH3 0x461BCD PUSH1 0xE5 SHL DUP4 MSTORE DUP3 ADD MSTORE PUSH1 0x11 PUSH1 0x24 DUP3 ADD MSTORE PUSH17 0x125B9D985B1A59081C9958DA5C1A595B9D PUSH1 0x7A SHL PUSH1 0x44 DUP3 ADD MSTORE REVERT JUMPDEST DUP2 MLOAD PUSH3 0x461BCD PUSH1 0xE5 SHL DUP2 MSTORE DUP1 DUP7 ADD DUP6 SWAP1 MSTORE PUSH1 0x15 PUSH1 0x24 DUP3 ADD MSTORE PUSH21 0x2737BA1030BABA3437B934BD32B21036B4B73A32B9 PUSH1 0x59 SHL PUSH1 0x44 DUP3 ADD MSTORE PUSH1 0x64 SWAP1 REVERT JUMPDEST SWAP1 POP CALLVALUE PUSH2 0x29E JUMPI DUP3 PUSH1 0x3 NOT CALLDATASIZE ADD SLT PUSH2 0x29E JUMPI PUSH2 0x9CB PUSH2 0xD8D JUMP JUMPDEST PUSH1 0x5 SLOAD SWAP1 PUSH1 0xFF DUP3 PUSH1 0xA0 SHR AND ISZERO PUSH2 0xA13 JUMPI POP PUSH1 0xFF PUSH1 0xA0 SHL NOT AND PUSH1 0x5 SSTORE MLOAD CALLER DUP2 MSTORE PUSH32 0x5DB9EE0A495BF2E6FF9C91A7834C1BA4FDD244A5E8AA4E537BD38AEAE4B073AA SWAP1 PUSH1 0x20 SWAP1 LOG1 DUP1 RETURN JUMPDEST DUP3 MLOAD PUSH4 0x8DFC202B PUSH1 0xE0 SHL DUP2 MSTORE REVERT JUMPDEST POP POP CALLVALUE PUSH2 0x1CD JUMPI DUP2 PUSH1 0x3 NOT CALLDATASIZE ADD SLT PUSH2 0x1CD JUMPI PUSH1 0x20 SWAP1 MLOAD PUSH1 0xA DUP2 MSTORE RETURN JUMPDEST POP POP CALLVALUE PUSH2 0x1CD JUMPI DUP2 PUSH1 0x3 NOT CALLDATASIZE ADD SLT PUSH2 0x1CD JUMPI PUSH1 0x20 SWAP1 MLOAD PUSH12 0x33B2E3C9FD0803CE8000000 DUP2 MSTORE RETURN JUMPDEST POP POP CALLVALUE PUSH2 0x1CD JUMPI DUP2 PUSH1 0x3 NOT CALLDATASIZE ADD SLT PUSH2 0x1CD JUMPI PUSH1 0x20 SWAP1 MLOAD PUSH1 0x12 DUP2 MSTORE RETURN JUMPDEST POP POP CALLVALUE PUSH2 0x1CD JUMPI PUSH1 0x20 CALLDATASIZE PUSH1 0x3 NOT ADD SLT PUSH2 0x1CD JUMPI PUSH2 0xA9B PUSH2 0xD5C JUMP JUMPDEST PUSH2 0xAA3 PUSH2 0xD8D JUMP JUMPDEST PUSH1 0x1 PUSH1 0x1 PUSH1 0xA0 SHL SUB AND DUP1 DUP4 MSTORE PUSH1 0xB PUSH1 0x20 MSTORE SWAP1 DUP3 KECCAK256 DUP1 SLOAD PUSH1 0xFF NOT AND SWAP1 SSTORE PUSH32 0xE94479A9F7E1952CC78F2D6BAAB678ADC1B772D936C6583DEF489E524CB66692 DUP3 DUP1 LOG2 DUP1 RETURN JUMPDEST POP POP CALLVALUE PUSH2 0x1CD JUMPI DUP2 PUSH1 0x3 NOT CALLDATASIZE ADD SLT PUSH2 0x1CD JUMPI PUSH1 0x20 SWAP1 MLOAD PUSH11 0x52B7D2DCC80CD2E4000000 DUP2 MSTORE RETURN JUMPDEST POP POP CALLVALUE PUSH2 0x1CD JUMPI PUSH1 0x60 CALLDATASIZE PUSH1 0x3 NOT ADD SLT PUSH2 0x1CD JUMPI PUSH1 0x20 SWAP1 PUSH2 0x35F PUSH2 0xB2D PUSH2 0xD5C JUMP JUMPDEST PUSH2 0xB35 PUSH2 0xD77 JUMP JUMPDEST PUSH1 0x44 CALLDATALOAD SWAP2 PUSH2 0xB44 DUP4 CALLER DUP4 PUSH2 0xEE2 JUMP JUMPDEST PUSH2 0xDB9 JUMP JUMPDEST POP POP CALLVALUE PUSH2 0x1CD JUMPI DUP2 PUSH1 0x3 NOT CALLDATASIZE ADD SLT PUSH2 0x1CD JUMPI PUSH1 0x8 SLOAD SWAP1 MLOAD PUSH1 0x1 PUSH1 0x1 PUSH1 0xA0 SHL SUB SWAP1 SWAP2 AND DUP2 MSTORE PUSH1 0x20 SWAP1 RETURN JUMPDEST POP POP CALLVALUE PUSH2 0x1CD JUMPI DUP2 PUSH1 0x3 NOT CALLDATASIZE ADD SLT PUSH2 0x1CD JUMPI PUSH1 0x20 SWAP1 PUSH1 0x2 SLOAD SWAP1 MLOAD SWAP1 DUP2 MSTORE RETURN JUMPDEST SWAP1 POP CALLVALUE PUSH2 0x29E JUMPI DUP2 PUSH1 0x3 NOT CALLDATASIZE ADD SLT PUSH2 0x29E JUMPI PUSH2 0xBAB PUSH2 0xD5C JUMP JUMPDEST PUSH1 0x24 CALLDATALOAD SWAP1 CALLER ISZERO PUSH2 0xC24 JUMPI PUSH1 0x1 PUSH1 0x1 PUSH1 0xA0 SHL SUB AND SWAP2 DUP3 ISZERO PUSH2 0xC0D JUMPI POP DUP1 DUP4 PUSH1 0x20 SWAP6 CALLER DUP2 MSTORE PUSH1 0x1 DUP8 MSTORE DUP2 DUP2 KECCAK256 DUP6 DUP3 MSTORE DUP8 MSTORE KECCAK256 SSTORE DUP3 MLOAD SWAP1 DUP2 MSTORE PUSH32 0x8C5BE1E5EBEC7D5BD14F71427D1E84F3DD0314C0F7B2291E5B200AC8C7C3B925 DUP5 CALLER SWAP3 LOG3 MLOAD PUSH1 0x1 DUP2 MSTORE RETURN JUMPDEST DUP4 MLOAD PUSH4 0x4A1406B1 PUSH1 0xE1 SHL DUP2 MSTORE SWAP1 DUP2 ADD DUP6 SWAP1 MSTORE PUSH1 0x24 SWAP1 REVERT JUMPDEST DUP4 MLOAD PUSH4 0xE602DF05 PUSH1 0xE0 SHL DUP2 MSTORE DUP1 DUP5 ADD DUP7 SWAP1 MSTORE PUSH1 0x24 SWAP1 REVERT JUMPDEST DUP5 SWAP1 DUP5 CALLVALUE PUSH2 0x29E JUMPI DUP3 PUSH1 0x3 NOT CALLDATASIZE ADD SLT PUSH2 0x29E JUMPI DUP3 PUSH1 0x3 SLOAD PUSH1 0x1 DUP2 DUP2 SHR SWAP1 DUP1 DUP4 AND SWAP3 DUP4 ISZERO PUSH2 0xD09 JUMPI JUMPDEST PUSH1 0x20 SWAP4 DUP5 DUP5 LT DUP2 EQ PUSH2 0x54F JUMPI DUP4 DUP9 MSTORE SWAP1 DUP2 ISZERO PUSH2 0x533 JUMPI POP PUSH1 0x1 EQ PUSH2 0xCB3 JUMPI POP POP POP DUP3 SWAP1 SUB PUSH1 0x1F ADD PUSH1 0x1F NOT AND DUP3 ADD SWAP3 PUSH8 0xFFFFFFFFFFFFFFFF DUP5 GT DUP4 DUP6 LT OR PUSH2 0x4CB JUMPI POP DUP3 SWAP2 DUP3 PUSH2 0x4C7 SWAP3 MSTORE DUP3 PUSH2 0xD13 JUMP JUMPDEST PUSH1 0x3 DUP8 MSTORE SWAP2 SWAP3 POP DUP6 SWAP2 DUP4 PUSH32 0xC2575A0E9E593C00F959F8C92F12DB2869C3395A3B0502D05E2516446F71F85B JUMPDEST DUP4 DUP6 LT PUSH2 0xCF5 JUMPI POP POP POP POP DUP4 ADD ADD DUP6 DUP1 DUP1 PUSH2 0x495 JUMP JUMPDEST DUP1 SLOAD DUP9 DUP7 ADD DUP4 ADD MSTORE SWAP4 ADD SWAP3 DUP5 SWAP1 DUP3 ADD PUSH2 0xCDF JUMP JUMPDEST SWAP2 PUSH1 0x7F AND SWAP2 PUSH2 0xC63 JUMP JUMPDEST PUSH1 0x20 DUP1 DUP3 MSTORE DUP3 MLOAD DUP2 DUP4 ADD DUP2 SWAP1 MSTORE SWAP1 SWAP4 SWAP3 PUSH1 0x0 JUMPDEST DUP3 DUP2 LT PUSH2 0xD48 JUMPI POP POP PUSH1 0x40 SWAP3 SWAP4 POP PUSH1 0x0 DUP4 DUP3 DUP5 ADD ADD MSTORE PUSH1 0x1F DUP1 NOT SWAP2 ADD AND ADD ADD SWAP1 JUMP JUMPDEST DUP2 DUP2 ADD DUP7 ADD MLOAD DUP5 DUP3 ADD PUSH1 0x40 ADD MSTORE DUP6 ADD PUSH2 0xD26 JUMP JUMPDEST PUSH1 0x4 CALLDATALOAD SWAP1 PUSH1 0x1 PUSH1 0x1 PUSH1 0xA0 SHL SUB DUP3 AND DUP3 SUB PUSH2 0xD72 JUMPI JUMP JUMPDEST PUSH1 0x0 DUP1 REVERT JUMPDEST PUSH1 0x24 CALLDATALOAD SWAP1 PUSH1 0x1 PUSH1 0x1 PUSH1 0xA0 SHL SUB DUP3 AND DUP3 SUB PUSH2 0xD72 JUMPI JUMP JUMPDEST PUSH1 0x5 SLOAD PUSH1 0x1 PUSH1 0x1 PUSH1 0xA0 SHL SUB AND CALLER SUB PUSH2 0xDA1 JUMPI JUMP JUMPDEST PUSH1 0x40 MLOAD PUSH4 0x118CDAA7 PUSH1 0xE0 SHL DUP2 MSTORE CALLER PUSH1 0x4 DUP3 ADD MSTORE PUSH1 0x24 SWAP1 REVERT JUMPDEST SWAP2 PUSH1 0x1 PUSH1 0x1 PUSH1 0xA0 SHL SUB DUP1 DUP5 AND SWAP3 DUP4 ISZERO PUSH2 0xEC9 JUMPI AND SWAP3 DUP4 ISZERO PUSH2 0xEB0 JUMPI PUSH1 0xFF PUSH1 0x5 SLOAD PUSH1 0xA0 SHR AND PUSH2 0xE72 JUMPI PUSH1 0x0 SWAP1 DUP4 DUP3 MSTORE DUP2 PUSH1 0x20 MSTORE PUSH1 0x40 DUP3 KECCAK256 SLOAD SWAP1 DUP4 DUP3 LT PUSH2 0xE40 JUMPI POP SWAP2 PUSH1 0x40 DUP3 DUP3 PUSH32 0xDDF252AD1BE2C89B69C2B068FC378DAA952BA7F163C4A11628F55A4DF523B3EF SWAP6 DUP8 PUSH1 0x20 SWAP7 MSTORE DUP3 DUP7 MSTORE SUB DUP3 DUP3 KECCAK256 SSTORE DUP7 DUP2 MSTORE KECCAK256 DUP2 DUP2 SLOAD ADD SWAP1 SSTORE PUSH1 0x40 MLOAD SWAP1 DUP2 MSTORE LOG3 JUMP JUMPDEST PUSH1 0x40 MLOAD PUSH4 0x391434E3 PUSH1 0xE2 SHL DUP2 MSTORE PUSH1 0x1 PUSH1 0x1 PUSH1 0xA0 SHL SUB SWAP2 SWAP1 SWAP2 AND PUSH1 0x4 DUP3 ADD MSTORE PUSH1 0x24 DUP2 ADD SWAP2 SWAP1 SWAP2 MSTORE PUSH1 0x44 DUP2 ADD DUP4 SWAP1 MSTORE PUSH1 0x64 SWAP1 REVERT JUMPDEST PUSH1 0x40 MLOAD PUSH3 0x461BCD PUSH1 0xE5 SHL DUP2 MSTORE PUSH1 0x20 PUSH1 0x4 DUP3 ADD MSTORE PUSH1 0x16 PUSH1 0x24 DUP3 ADD MSTORE PUSH22 0x151BDAD95B881D1C985B9CD9995C9CC81C185D5CD959 PUSH1 0x52 SHL PUSH1 0x44 DUP3 ADD MSTORE PUSH1 0x64 SWAP1 REVERT JUMPDEST PUSH1 0x40 MLOAD PUSH4 0xEC442F05 PUSH1 0xE0 SHL DUP2 MSTORE PUSH1 0x0 PUSH1 0x4 DUP3 ADD MSTORE PUSH1 0x24 SWAP1 REVERT JUMPDEST PUSH1 0x40 MLOAD PUSH4 0x4B637E8F PUSH1 0xE1 SHL DUP2 MSTORE PUSH1 0x0 PUSH1 0x4 DUP3 ADD MSTORE PUSH1 0x24 SWAP1 REVERT JUMPDEST SWAP2 PUSH1 0x1 DUP1 PUSH1 0xA0 SHL SUB DUP1 SWAP4 AND SWAP2 PUSH1 0x0 SWAP4 DUP4 DUP6 MSTORE PUSH1 0x1 PUSH1 0x20 MSTORE PUSH1 0x40 SWAP4 DUP5 DUP7 KECCAK256 SWAP2 DUP4 AND SWAP2 DUP3 DUP8 MSTORE PUSH1 0x20 MSTORE DUP5 DUP7 KECCAK256 SLOAD SWAP3 PUSH1 0x0 NOT DUP5 LT PUSH2 0xF21 JUMPI JUMPDEST POP POP POP POP POP POP POP JUMP JUMPDEST DUP5 DUP5 LT PUSH2 0xF85 JUMPI POP DUP1 ISZERO PUSH2 0xF6D JUMPI DUP2 ISZERO PUSH2 0xF55 JUMPI DUP6 MSTORE PUSH1 0x1 PUSH1 0x20 MSTORE DUP4 DUP6 KECCAK256 SWAP1 DUP6 MSTORE PUSH1 0x20 MSTORE SUB SWAP2 KECCAK256 SSTORE CODESIZE DUP1 DUP1 DUP1 DUP1 DUP1 DUP1 PUSH2 0xF18 JUMP JUMPDEST DUP5 MLOAD PUSH4 0x4A1406B1 PUSH1 0xE1 SHL DUP2 MSTORE PUSH1 0x4 DUP2 ADD DUP8 SWAP1 MSTORE PUSH1 0x24 SWAP1 REVERT JUMPDEST DUP5 MLOAD PUSH4 0xE602DF05 PUSH1 0xE0 SHL DUP2 MSTORE PUSH1 0x4 DUP2 ADD DUP8 SWAP1 MSTORE PUSH1 0x24 SWAP1 REVERT JUMPDEST DUP6 MLOAD PUSH4 0x7DC7A0D9 PUSH1 0xE1 SHL DUP2 MSTORE PUSH1 0x1 PUSH1 0x1 PUSH1 0xA0 SHL SUB SWAP2 SWAP1 SWAP2 AND PUSH1 0x4 DUP3 ADD MSTORE PUSH1 0x24 DUP2 ADD DUP5 SWAP1 MSTORE PUSH1 0x44 DUP2 ADD DUP6 SWAP1 MSTORE PUSH1 0x64 SWAP1 REVERT JUMPDEST SWAP2 SWAP1 DUP3 ADD DUP1 SWAP3 GT PUSH2 0xFC2 JUMPI JUMP JUMPDEST PUSH4 0x4E487B71 PUSH1 0xE0 SHL PUSH1 0x0 MSTORE PUSH1 0x11 PUSH1 0x4 MSTORE PUSH1 0x24 PUSH1 0x0 REVERT JUMPDEST PUSH1 0xFF PUSH1 0x5 SLOAD PUSH1 0xA0 SHR AND PUSH2 0xFE7 JUMPI JUMP JUMPDEST PUSH1 0x40 MLOAD PUSH4 0xD93C0665 PUSH1 0xE0 SHL DUP2 MSTORE PUSH1 0x4 SWAP1 REVERT JUMPDEST SWAP1 PUSH1 0x1 PUSH1 0x1 PUSH1 0xA0 SHL SUB DUP3 AND SWAP1 DUP2 ISZERO PUSH2 0xEC9 JUMPI PUSH1 0xFF PUSH1 0x5 SLOAD PUSH1 0xA0 SHR AND PUSH2 0xE72 JUMPI PUSH1 0x0 SWAP3 DUP3 DUP5 MSTORE DUP4 PUSH1 0x20 MSTORE PUSH1 0x40 DUP5 KECCAK256 SLOAD SWAP1 DUP3 DUP3 LT PUSH2 0x1073 JUMPI POP DUP2 PUSH32 0xDDF252AD1BE2C89B69C2B068FC378DAA952BA7F163C4A11628F55A4DF523B3EF SWAP3 PUSH1 0x20 SWAP3 DUP6 DUP8 MSTORE DUP7 DUP5 MSTORE SUB PUSH1 0x40 DUP7 KECCAK256 SSTORE DUP1 PUSH1 0x2 SLOAD SUB PUSH1 0x2 SSTORE PUSH1 0x40 MLOAD SWAP1 DUP2 MSTORE LOG3 JUMP JUMPDEST PUSH1 0x40 MLOAD PUSH4 0x391434E3 PUSH1 0xE2 SHL DUP2 MSTORE PUSH1 0x1 PUSH1 0x1 PUSH1 0xA0 SHL SUB SWAP2 SWAP1 SWAP2 AND PUSH1 0x4 DUP3 ADD MSTORE PUSH1 0x24 DUP2 ADD SWAP2 SWAP1 SWAP2 MSTORE PUSH1 0x44 DUP2 ADD DUP3 SWAP1 MSTORE PUSH1 0x64 SWAP1 REVERT INVALID LOG2 PUSH5 0x6970667358 0x22 SLT KECCAK256 MUL PUSH12 0x135A5A437B270E17847882FC 0xAD 0xEF MSIZE PUSH22 0x4BC4AF96C614ABA02908CBF2934B64736F6C63430008 EQ STOP CALLER "},"gasEstimates":{"creation":{"codeDepositCost":"863000","executionCost":"infinite","totalCost":"infinite"},"external":{"COMMUNITY_PERCENT()":"790","INITIAL_SUPPLY()":"284","INVESTORS_PERCENT()":"592","LIQUIDITY_PERCENT()":"372","MAX_SUPPLY()":"350","TEAM_PERCENT()":"460","TREASURY_PERCENT()":"658","addMinter(address)":"28425","allowance(address,address)":"3255","approve(address,uint256)":"24349","balanceOf(address)":"2827","burn(uint256)":"52997","burnFrom(address,uint256)":"77942","communityRewards()":"2367","decimals()":"328","investorVesting()":"3044","liquidityPool()":"2675","mint(address,uint256)":"infinite","minters(address)":"3172","name()":"infinite","owner()":"2829","pause()":"30242","paused()":"2606","remainingSupply()":"2983","removeMinter(address)":"27954","renounceOwnership()":"28524","symbol()":"infinite","teamVesting()":"2631","totalMinted()":"2874","totalSupply()":"2324","transfer(address,uint256)":"53545","transferFrom(address,address,uint256)":"77744","transferOwnership(address)":"28886","treasury()":"2653","unpause()":"27829"},"internal":{"_update(address,address,uint256)":"infinite"}},"methodIdentifiers":{"COMMUNITY_PERCENT()":"a804fcb4","INITIAL_SUPPLY()":"2ff2e9dc","INVESTORS_PERCENT()":"71311eed","LIQUIDITY_PERCENT()":"3ccfbabf","MAX_SUPPLY()":"32cb6b0c","TEAM_PERCENT()":"4c186197","TREASURY_PERCENT()":"83d5e726","addMinter(address)":"983b2d56","allowance(address,address)":"dd62ed3e","approve(address,uint256)":"095ea7b3","balanceOf(address)":"70a08231","burn(uint256)":"42966c68","burnFrom(address,uint256)":"79cc6790","communityRewards()":"193ce1e4","decimals()":"313ce567","investorVesting()":"f64585c0","liquidityPool()":"665a11ca","mint(address,uint256)":"40c10f19","minters(address)":"f46eccc4","name()":"06fdde03","owner()":"8da5cb5b","pause()":"8456cb59","paused()":"5c975abb","remainingSupply()":"da0239a6","removeMinter(address)":"3092afd5","renounceOwnership()":"715018a6","symbol()":"95d89b41","teamVesting()":"619f3d6c","totalMinted()":"a2309ff8","totalSupply()":"18160ddd","transfer(address,uint256)":"a9059cbb","transferFrom(address,address,uint256)":"23b872dd","transferOwnership(address)":"f2fde38b","treasury()":"61d027b3","unpause()":"3f4ba83a"}},"storageLayout":{"storage":[{"astId":397,"contract":"blockchain/contracts/EryzaToken.sol:EryzaToken","label":"_balances","offset":0,"slot":"0","type":"t_mapping(t_address,t_uint256)"},{"astId":403,"contract":"blockchain/contracts/EryzaToken.sol:EryzaToken","label":"_allowances","offset":0,"slot":"1","type":"t_mapping(t_address,t_mapping(t_address,t_uint256))"},{"astId":405,"contract":"blockchain/contracts/EryzaToken.sol:EryzaToken","label":"_totalSupply","offset":0,"slot":"2","type":"t_uint256"},{"astId":407,"contract":"blockchain/contracts/EryzaToken.sol:EryzaToken","label":"_name","offset":0,"slot":"3","type":"t_string_storage"},{"astId":409,"contract":"blockchain/contracts/EryzaToken.sol:EryzaToken","label":"_symbol","offset":0,"slot":"4","type":"t_string_storage"},{"astId":8,"contract":"blockchain/contracts/EryzaToken.sol:EryzaToken","label":"_owner","offset":0,"slot":"5","type":"t_address"},{"astId":1496,"contract":"blockchain/contracts/EryzaToken.sol:EryzaToken","label":"_paused","offset":20,"slot":"5","type":"t_bool"},{"astId":3666,"contract":"blockchain/contracts/EryzaToken.sol:EryzaToken","label":"teamVesting","offset":0,"slot":"6","type":"t_address"},{"astId":3668,"contract":"blockchain/contracts/EryzaToken.sol:EryzaToken","label":"investorVesting","offset":0,"slot":"7","type":"t_address"},{"astId":3670,"contract":"blockchain/contracts/EryzaToken.sol:EryzaToken","label":"communityRewards","offset":0,"slot":"8","type":"t_address"},{"astId":3672,"contract":"blockchain/contracts/EryzaToken.sol:EryzaToken","label":"treasury","offset":0,"slot":"9","type":"t_address"},{"astId":3674,"contract":"blockchain/contracts/EryzaToken.sol:EryzaToken","label":"liquidityPool","offset":0,"slot":"10","type":"t_address"},{"astId":3678,"contract":"blockchain/contracts/EryzaToken.sol:EryzaToken","label":"minters","offset":0,"slot":"11","type":"t_mapping(t_address,t_bool)"},{"astId":3680,"contract":"blockchain/contracts/EryzaToken.sol:EryzaToken","label":"totalMinted","offset":0,"slot":"12","type":"t_uint256"}],"types":{"t_address":{"encoding":"inplace","label":"address","numberOfBytes":"20"},"t_bool":{"encoding":"inplace","label":"bool","numberOfBytes":"1"},"t_mapping(t_address,t_bool)":{"encoding":"mapping","key":"t_address","label":"mapping(address => bool)","numberOfBytes":"32","value":"t_bool"},"t_mapping(t_address,t_mapping(t_address,t_uint256))":{"encoding":"mapping","key":"t_address","label":"mapping(address => mapping(address => uint256))","numberOfBytes":"32","value":"t_mapping(t_address,t_uint256)"},"t_mapping(t_address,t_uint256)":{"encoding":"mapping","key":"t_address","label":"mapping(address => uint256)","numberOfBytes":"32","value":"t_uint256"},"t_string_storage":{"encoding":"bytes","label":"string","numberOfBytes":"32"},"t_uint256":{"encoding":"inplace","label":"uint256","numberOfBytes":"32"}}},"userdoc":{"kind":"user","methods":{},"version":1}}}}