{"blockchain/contracts/EryzaComputeMarketplace.sol":{"EryzaComputeMarketplace":{"abi":[{"inputs":[{"internalType":"address","name":"_paymentToken","type":"address"}],"stateMutability":"nonpayable","type":"constructor"},{"inputs":[{"internalType":"address","name":"owner","type":"address"}],"name":"OwnableInvalidOwner","type":"error"},{"inputs":[{"internalType":"address","name":"account","type":"address"}],"name":"OwnableUnauthorizedAccount","type":"error"},{"inputs":[],"name":"ReentrancyGuardReentrantCall","type":"error"},{"inputs":[{"internalType":"address","name":"token","type":"address"}],"name":"SafeERC20FailedOperation","type":"error"},{"anonymous":false,"inputs":[{"indexed":true,"internalType":"uint256","name":"jobId","type":"uint256"},{"indexed":false,"internalType":"uint256","name":"endTime","type":"uint256"}],"name":"ComputeJobCompleted","type":"event"},{"anonymous":false,"inputs":[{"indexed":true,"internalType":"uint256","name":"jobId","type":"uint256"},{"indexed":true,"internalType":"address","name":"client","type":"address"},{"indexed":true,"internalType":"uint256","name":"nodeId","type":"uint256"},{"indexed":false,"internalType":"uint256","name":"duration","type":"uint256"}],"name":"ComputeJobCreated","type":"event"},{"anonymous":false,"inputs":[{"indexed":true,"internalType":"uint256","name":"jobId","type":"uint256"},{"indexed":false,"internalType":"uint256","name":"startTime","type":"uint256"}],"name":"ComputeJobStarted","type":"event"},{"anonymous":false,"inputs":[{"indexed":true,"internalType":"address","name":"provider","type":"address"},{"indexed":true,"internalType":"uint256","name":"nodeId","type":"uint256"},{"indexed":false,"internalType":"uint256","name":"pricePerHour","type":"uint256"}],"name":"ComputeNodeRegistered","type":"event"},{"anonymous":false,"inputs":[{"indexed":true,"internalType":"uint256","name":"jobId","type":"uint256"},{"indexed":true,"internalType":"address","name":"raiser","type":"address"},{"indexed":false,"internalType":"string","name":"reason","type":"string"}],"name":"DisputeRaised","type":"event"},{"anonymous":false,"inputs":[{"indexed":true,"internalType":"uint256","name":"jobId","type":"uint256"},{"indexed":false,"internalType":"bool","name":"favorProvider","type":"bool"}],"name":"DisputeResolved","type":"event"},{"anonymous":false,"inputs":[{"indexed":true,"internalType":"address","name":"previousOwner","type":"address"},{"indexed":true,"internalType":"address","name":"newOwner","type":"address"}],"name":"OwnershipTransferred","type":"event"},{"anonymous":false,"inputs":[{"indexed":true,"internalType":"uint256","name":"jobId","type":"uint256"},{"indexed":true,"internalType":"address","name":"provider","type":"address"},{"indexed":false,"internalType":"uint256","name":"amount","type":"uint256"}],"name":"PaymentReleased","type":"event"},{"inputs":[],"name":"BASIS_POINTS","outputs":[{"internalType":"uint256","name":"","type":"uint256"}],"stateMutability":"view","type":"function"},{"inputs":[],"name":"PLATFORM_FEE_PERCENT","outputs":[{"internalType":"uint256","name":"","type":"uint256"}],"stateMutability":"view","type":"function"},{"inputs":[{"internalType":"uint256","name":"jobId","type":"uint256"}],"name":"cancelJob","outputs":[],"stateMutability":"nonpayable","type":"function"},{"inputs":[{"internalType":"address","name":"","type":"address"},{"internalType":"uint256","name":"","type":"uint256"}],"name":"clientJobs","outputs":[{"internalType":"uint256","name":"","type":"uint256"}],"stateMutability":"view","type":"function"},{"inputs":[{"internalType":"uint256","name":"jobId","type":"uint256"}],"name":"completeComputeJob","outputs":[],"stateMutability":"nonpayable","type":"function"},{"inputs":[{"internalType":"uint256","name":"","type":"uint256"}],"name":"computeJobs","outputs":[{"internalType":"uint256","name":"nodeId","type":"uint256"},{"internalType":"address","name":"client","type":"address"},{"internalType":"address","name":"provider","type":"address"},{"internalType":"uint256","name":"duration","type":"uint256"},{"internalType":"uint256","name":"totalCost","type":"uint256"},{"internalType":"uint256","name":"startTime","type":"uint256"},{"internalType":"uint256","name":"endTime","type":"uint256"},{"internalType":"enum EryzaComputeMarketplace.JobStatus","name":"status","type":"uint8"},{"internalType":"string","name":"jobType","type":"string"},{"internalType":"string","name":"jobConfig","type":"string"},{"internalType":"bool","name":"disputed","type":"bool"},{"internalType":"address","name":"disputer","type":"address"},{"internalType":"string","name":"disputeReason","type":"string"}],"stateMutability":"view","type":"function"},{"inputs":[{"internalType":"uint256","name":"","type":"uint256"}],"name":"computeNodes","outputs":[{"internalType":"address","name":"provider","type":"address"},{"internalType":"string","name":"nodeType","type":"string"},{"internalType":"uint256","name":"cpuCores","type":"uint256"},{"internalType":"uint256","name":"memoryGB","type":"uint256"},{"internalType":"uint256","name":"gpuCount","type":"uint256"},{"internalType":"string","name":"gpuType","type":"string"},{"internalType":"uint256","name":"pricePerHour","type":"uint256"},{"internalType":"bool","name":"available","type":"bool"},{"internalType":"uint256","name":"totalJobs","type":"uint256"},{"internalType":"uint256","name":"successfulJobs","type":"uint256"},{"internalType":"string","name":"endpoint","type":"string"}],"stateMutability":"view","type":"function"},{"inputs":[{"internalType":"uint256","name":"nodeId","type":"uint256"},{"internalType":"uint256","name":"duration","type":"uint256"},{"internalType":"string","name":"jobType","type":"string"},{"internalType":"string","name":"jobConfig","type":"string"}],"name":"createComputeJob","outputs":[{"internalType":"uint256","name":"","type":"uint256"}],"stateMutability":"nonpayable","type":"function"},{"inputs":[],"name":"disputeTimeWindow","outputs":[{"internalType":"uint256","name":"","type":"uint256"}],"stateMutability":"view","type":"function"},{"inputs":[{"internalType":"address","name":"token","type":"address"},{"internalType":"uint256","name":"amount","type":"uint256"}],"name":"emergencyWithdraw","outputs":[],"stateMutability":"nonpayable","type":"function"},{"inputs":[{"internalType":"string","name":"nodeType","type":"string"}],"name":"getAvailableNodes","outputs":[{"internalType":"uint256[]","name":"","type":"uint256[]"}],"stateMutability":"view","type":"function"},{"inputs":[{"internalType":"address","name":"client","type":"address"}],"name":"getClientJobs","outputs":[{"internalType":"uint256[]","name":"","type":"uint256[]"}],"stateMutability":"view","type":"function"},{"inputs":[{"internalType":"uint256","name":"jobId","type":"uint256"}],"name":"getJobInfo","outputs":[{"components":[{"internalType":"uint256","name":"nodeId","type":"uint256"},{"internalType":"address","name":"client","type":"address"},{"internalType":"address","name":"provider","type":"address"},{"internalType":"uint256","name":"duration","type":"uint256"},{"internalType":"uint256","name":"totalCost","type":"uint256"},{"internalType":"uint256","name":"startTime","type":"uint256"},{"internalType":"uint256","name":"endTime","type":"uint256"},{"internalType":"enum EryzaComputeMarketplace.JobStatus","name":"status","type":"uint8"},{"internalType":"string","name":"jobType","type":"string"},{"internalType":"string","name":"jobConfig","type":"string"},{"internalType":"bool","name":"disputed","type":"bool"},{"internalType":"address","name":"disputer","type":"address"},{"internalType":"string","name":"disputeReason","type":"string"}],"internalType":"struct EryzaComputeMarketplace.ComputeJob","name":"","type":"tuple"}],"stateMutability":"view","type":"function"},{"inputs":[{"internalType":"uint256","name":"nodeId","type":"uint256"}],"name":"getNodeInfo","outputs":[{"components":[{"internalType":"address","name":"provider","type":"address"},{"internalType":"string","name":"nodeType","type":"string"},{"internalType":"uint256","name":"cpuCores","type":"uint256"},{"internalType":"uint256","name":"memoryGB","type":"uint256"},{"internalType":"uint256","name":"gpuCount","type":"uint256"},{"internalType":"string","name":"gpuType","type":"string"},{"internalType":"uint256","name":"pricePerHour","type":"uint256"},{"internalType":"bool","name":"available","type":"bool"},{"internalType":"uint256","name":"totalJobs","type":"uint256"},{"internalType":"uint256","name":"successfulJobs","type":"uint256"},{"internalType":"string","name":"endpoint","type":"string"}],"internalType":"struct EryzaComputeMarketplace.ComputeNode","name":"","type":"tuple"}],"stateMutability":"view","type":"function"},{"inputs":[{"internalType":"address","name":"provider","type":"address"}],"name":"getProviderNodes","outputs":[{"internalType":"uint256[]","name":"","type":"uint256[]"}],"stateMutability":"view","type":"function"},{"inputs":[{"internalType":"uint256","name":"","type":"uint256"}],"name":"jobEscrow","outputs":[{"internalType":"uint256","name":"","type":"uint256"}],"stateMutability":"view","type":"function"},{"inputs":[{"internalType":"uint256","name":"","type":"uint256"}],"name":"nodeActiveJobs","outputs":[{"internalType":"uint256","name":"","type":"uint256"}],"stateMutability":"view","type":"function"},{"inputs":[],"name":"owner","outputs":[{"internalType":"address","name":"","type":"address"}],"stateMutability":"view","type":"function"},{"inputs":[],"name":"paymentToken","outputs":[{"internalType":"contract IERC20","name":"","type":"address"}],"stateMutability":"view","type":"function"},{"inputs":[{"internalType":"address","name":"","type":"address"},{"internalType":"uint256","name":"","type":"uint256"}],"name":"providerNodes","outputs":[{"internalType":"uint256","name":"","type":"uint256"}],"stateMutability":"view","type":"function"},{"inputs":[{"internalType":"uint256","name":"jobId","type":"uint256"},{"internalType":"string","name":"reason","type":"string"}],"name":"raiseDispute","outputs":[],"stateMutability":"nonpayable","type":"function"},{"inputs":[{"internalType":"string","name":"nodeType","type":"string"},{"internalType":"uint256","name":"cpuCores","type":"uint256"},{"internalType":"uint256","name":"memoryGB","type":"uint256"},{"internalType":"uint256","name":"gpuCount","type":"uint256"},{"internalType":"string","name":"gpuType","type":"string"},{"internalType":"uint256","name":"pricePerHour","type":"uint256"},{"internalType":"string","name":"endpoint","type":"string"}],"name":"registerComputeNode","outputs":[{"internalType":"uint256","name":"","type":"uint256"}],"stateMutability":"nonpayable","type":"function"},{"inputs":[{"internalType":"uint256","name":"jobId","type":"uint256"}],"name":"releasePayment","outputs":[],"stateMutability":"nonpayable","type":"function"},{"inputs":[],"name":"renounceOwnership","outputs":[],"stateMutability":"nonpayable","type":"function"},{"inputs":[{"internalType":"uint256","name":"jobId","type":"uint256"},{"internalType":"bool","name":"favorProvider","type":"bool"}],"name":"resolveDispute","outputs":[],"stateMutability":"nonpayable","type":"function"},{"inputs":[{"internalType":"uint256","name":"jobId","type":"uint256"}],"name":"startComputeJob","outputs":[],"stateMutability":"nonpayable","type":"function"},{"inputs":[{"internalType":"address","name":"newOwner","type":"address"}],"name":"transferOwnership","outputs":[],"stateMutability":"nonpayable","type":"function"},{"inputs":[{"internalType":"uint256","name":"newWindow","type":"uint256"}],"name":"updateDisputeTimeWindow","outputs":[],"stateMutability":"nonpayable","type":"function"},{"inputs":[{"internalType":"uint256","name":"nodeId","type":"uint256"},{"internalType":"bool","name":"available","type":"bool"}],"name":"updateNodeAvailability","outputs":[],"stateMutability":"nonpayable","type":"function"},{"inputs":[{"internalType":"uint256","name":"nodeId","type":"uint256"},{"internalType":"uint256","name":"newPrice","type":"uint256"}],"name":"updateNodePrice","outputs":[],"stateMutability":"nonpayable","type":"function"},{"inputs":[{"internalType":"uint256","name":"newFeePercent","type":"uint256"}],"name":"updatePlatformFee","outputs":[],"stateMutability":"nonpayable","type":"function"}],"devdoc":{"details":"Smart contract for managing compute resource marketplace on Avalanche","errors":{"OwnableInvalidOwner(address)":[{"details":"The owner is not a valid owner account. (eg. `address(0)`)"}],"OwnableUnauthorizedAccount(address)":[{"details":"The caller account is not authorized to perform an operation."}],"ReentrancyGuardReentrantCall()":[{"details":"Unauthorized reentrant call."}],"SafeERC20FailedOperation(address)":[{"details":"An operation with an ERC-20 token failed."}]},"kind":"dev","methods":{"cancelJob(uint256)":{"details":"Cancel job before it starts"},"completeComputeJob(uint256)":{"details":"Complete a compute job (called by client or automatically)"},"createComputeJob(uint256,uint256,string,string)":{"details":"Create a new compute job"},"emergencyWithdraw(address,uint256)":{"details":"Emergency withdrawal (only owner)"},"getAvailableNodes(string)":{"details":"Get available nodes by type"},"getClientJobs(address)":{"details":"Get client's jobs"},"getJobInfo(uint256)":{"details":"Get job information"},"getNodeInfo(uint256)":{"details":"Get node information"},"getProviderNodes(address)":{"details":"Get provider's nodes"},"owner()":{"details":"Returns the address of the current owner."},"raiseDispute(uint256,string)":{"details":"Raise a dispute"},"registerComputeNode(string,uint256,uint256,uint256,string,uint256,string)":{"details":"Register a new compute node"},"releasePayment(uint256)":{"details":"Release payment to provider"},"renounceOwnership()":{"details":"Leaves the contract without owner. It will not be possible to call `onlyOwner` functions. Can only be called by the current owner. NOTE: Renouncing ownership will leave the contract without an owner, thereby disabling any functionality that is only available to the owner."},"resolveDispute(uint256,bool)":{"details":"Resolve dispute (called by platform admin)"},"startComputeJob(uint256)":{"details":"Start a compute job (called by provider)"},"transferOwnership(address)":{"details":"Transfers ownership of the contract to a new account (`newOwner`). Can only be called by the current owner."},"updateDisputeTimeWindow(uint256)":{"details":"Update dispute time window (only owner)"},"updateNodeAvailability(uint256,bool)":{"details":"Update compute node availability"},"updateNodePrice(uint256,uint256)":{"details":"Update compute node pricing"},"updatePlatformFee(uint256)":{"details":"Update platform fee (only owner)"}},"title":"EryzaComputeMarketplace","version":1},"evm":{"bytecode":{"linkReferences":{},"object":"6080346100e057601f62002abf38819003918201601f19168301916001600160401b038311848410176100e5578084926020946040528339810103126100e057516001600160a01b0390818116908190036100e057600160005533156100c75760018054336001600160a01b03198083168217909355604051949091167f8be0079c531659141344cd1fd0a4f28419497f9722a3daafe3b4186f6b6457e0600080a3620151806003556001600455600160055560025416176002556129c39081620000fc8239f35b604051631e4fbdf760e01b815260006004820152602490fd5b600080fd5b634e487b7160e01b600052604160045260246000fdfe608080604052600436101561001357600080fd5b60003560e01c9081630c4f321f1461246d575080631dffa3dc1461237e5780633013ce291461235557806334b25ee2146121e35780633d44645c14611ad9578063486fbd7914611a8f5780634afedcd614611a3b5780634b9d4bab146119e157806352a662a31461143257806353e215f414611253578063560d52d4146112375780635aef573c14610f61578063715018a614610f0457806372143f4114610df35780637e4dcc0614610dd55780637f4497d814610b8557806388685cd9146109c05780638da5cb5b146109975780638df32711146107fc5780638facd859146107a457806395ccea6714610765578063a3590e4b14610739578063aa0b5988146106df578063be452e0414610667578063cf2646c2146105e3578063e13242dd146105c2578063e1f1c4a7146105a5578063eb1140aa14610464578063eb96e6591461032e578063f2fde38b146102a55763f72d3a7e1461017457600080fd5b346102a0576020806003193601126102a0576004356000818152600783526040902060028101549092906001600160a01b0316330361026957600783019283549360ff851660068110156102535760010361021d5760027fe3afe40bf62af5d61e451ce5ac1a16baa282148052ee6bd241deb3cd0242d21a949542600585015560ff191617905554600052600a815260406000206102128154612761565b9055604051428152a2005b60405162461bcd60e51b815260048101849052600e60248201526d129bd8881b9bdd08199d5b99195960921b6044820152606490fd5b634e487b7160e01b600052602160045260246000fd5b6064906040519062461bcd60e51b82526004820152601060248201526f2737ba103537b110383937bb34b232b960811b6044820152fd5b600080fd5b346102a05760203660031901126102a0576102be612563565b6102c66126e9565b6001600160a01b0390811690811561031557600154826001600160601b0360a01b821617600155167f8be0079c531659141344cd1fd0a4f28419497f9722a3daafe3b4186f6b6457e0600080a3005b604051631e4fbdf760e01b815260006004820152602490fd5b346102a0576020806003193601126102a05760043590816000526007815260406000209061037360018060a01b03806001850154163314908115610454575b5061285c565b60078201805460ff811660068110156102535760020361041d5760039042600686015560ff19161790558154600052600a81526040600020918254928315610407577f41930f16e103c5d76d3ab5a14c0201a0adab06354e8e99241f5b2ad02566525e93600019019055546000526006815260096040600020600881016103fa8154612761565b9055016102128154612761565b634e487b7160e01b600052601160045260246000fd5b60405162461bcd60e51b815260048101849052600f60248201526e129bd8881b9bdd081cdd185c9d1959608a1b6044820152606490fd5b600285015416331490508561036d565b346102a05760203660031901126102a057600435600052600760205260406000208054600160a01b6001900391826001820154169280600283015416906003830154600484015460058501546006860154600787015460ff169160405193848060088b01906104d29161260b565b036104dd90866124ec565b60405195866104ef8160098d0161260b565b036104fa90886124ec565b600a8a01549860405180600b819d01906105139161260b565b0361051e908c6124ec565b6040519c8d9c8d5260208d015260408c015260608b015260808a015260a089015260c088015260e08701610551916126a1565b6101a080610100880152860161056691612591565b85810361012087015261057891612591565b9160ff8116151561014086015260081c166101608401528281036101808401526105a191612591565b0390f35b346102a05760003660031901126102a05760206040516127108152f35b346102a05760203660031901126102a0576105db6126e9565b600435600355005b346102a0576020806003193601126102a0576001600160a01b03610605612563565b1660005260098152604060002090604051908181845491828152019360005281600020916000905b828210610650576105a185610644818903826124ec565b604051918291826126ae565b83548652948501946001938401939091019061062d565b346102a0576020806003193601126102a0576001600160a01b03610689612563565b1660005260088152604060002090604051908181845491828152019360005281600020916000905b8282106106c8576105a185610644818903826124ec565b8354865294850194600193840193909101906106b1565b346102a05760203660031901126102a0576106f86126e9565b6103e86004351161070557005b60405162461bcd60e51b815260206004820152600c60248201526b08ccaca40e8dede40d0d2ced60a31b6044820152606490fd5b346102a05760203660031901126102a057600435600052600a6020526020604060002054604051908152f35b346102a05760403660031901126102a0576107a2610781612563565b6107896126e9565b600154602435916001600160a01b039182169116612925565b005b346102a05760403660031901126102a0576107bd612563565b6001600160a01b03166000908152600960205260409020805460243591908210156102a0576020916107ee91612579565b90546040519160031b1c8152f35b346102a0576020806003193601126102a0576004356001600160401b0381116102a05761082d90369060040161250d565b600091600191600454925b838110610927575061084984612976565b9361085760405195866124ec565b808552610866601f1991612976565b01368386013760009060015b84811061088757604051806105a188826126ae565b8060005260068452604060002060ff60078201541690816108f5575b506108b7575b6108b290612761565b610872565b9185518110156108df576108d78184866108b29460051b8a010152612761565b9290506108a9565b634e487b7160e01b600052603260045260246000fd5b600191506109149061090d604051809481930161260b565b03826124ec565b84815191012082518584012014876108a3565b8060005260068352604060002060ff600782015416908161096c575b50610957575b61095290612761565b610838565b9361096461095291612761565b949050610949565b600191506109849061090d604051809481930161260b565b8381519101208251848401201486610943565b346102a05760003660031901126102a0576001546040516001600160a01b039091168152602090f35b346102a0576020806003193601126102a057600435600260005414610b735760026000558060005260078252604060002060ff6007820154166006811015610253576003610a0e9114612899565b60ff600a82015416610b3f57610a2b6006820154600354906127e7565b4210801590610b29575b15610ae45781600052600b8352610a5260406000205415156128d9565b81600052600b83526000604081205560048101549260fa840284810460fa1485151715610407577f21d71db5be59bb9fa133895586b7404307dd33fb93b16db09dc6f1d9d7d231b092610ad360018060a01b0392610abd886002868154169501948686541690612925565b6127108460025416910490846001541690612925565b541693604051908152a36001600055005b60405162461bcd60e51b815260048101849052601960248201527f446973707574652077696e646f77206e6f7420706173736564000000000000006044820152606490fd5b5060018101546001600160a01b03163314610a35565b60405162461bcd60e51b815260048101849052600c60248201526b129bd888191a5cdc1d5d195960a21b6044820152606490fd5b604051633ee5aeb560e01b8152600490fd5b346102a05760203660031901126102a0576060610180604051610ba7816124b4565b60008152600060208201526000604082015260008382015260006080820152600060a0820152600060c0820152600060e0820152826101008201528261012082015260006101408201526000610160820152015260043560005260076020526040600020604051610c17816124b4565b8154815260018201546001600160a01b03908116602083015260028301541660408201526003820154606082015260048201546080820152600582015460a082015260068083015460c0830152600783015460ff16929083101561025357610ced600b916105a19460e0850152604051610c988161090d816008860161260b565b610100850152604051610cb28161090d816009860161260b565b610120850152600a81015460ff8116151561014086015260081c6001600160a01b031661016085015260405192839161090d9183910161260b565b610180820152604051918291602083528051602084015260018060a01b03602082015116604084015260018060a01b03604082015116606084015260608101516080840152608081015160a084015260a081015160c084015260c081015160e0840152610d6360e08201516101008501906126a1565b610100810151610d826101a091826101208701526101c0860190612591565b90610180610da461012085015193601f199485898303016101408a0152612591565b93610140810151151561016088015260018060a01b0361016082015116828801520151918584030190850152612591565b346102a05760003660031901126102a0576020600354604051908152f35b346102a05760203660031901126102a0576004356000526006602052604060002060018060a01b038154166105a160405192610e3d84610e36816001850161260b565b03856124ec565b600a60028201549160038101546004820154610edd60405195610e6e87610e67816005890161260b565b03886124ec565b60068501549660ff60078701541693600887015495610ea3600989015498610e9c604051809c81930161260b565b038a6124ec565b610ec06040519d8e9d8e528d610160908160208201520190612591565b9360408d015260608c015260808b015289820360a08b0152612591565b9460c0880152151560e0870152610100860152610120850152838203610140850152612591565b346102a05760003660031901126102a057610f1d6126e9565b600180546001600160a01b031981169091556000906001600160a01b03167f8be0079c531659141344cd1fd0a4f28419497f9722a3daafe3b4186f6b6457e08280a3005b346102a05760403660031901126102a0576001600160401b036004356024358281116102a057610f9590369060040161250d565b816000526020926007845260406000209060018060a01b0391610fc96001938085840154163314908115611227575061285c565b60ff6007820154166006811015610253576003610fe69114612899565b600a8101805460ff81166111ef576110056006840154600354906127e7565b42116111b257610100600160a81b031985166001600160a81b0319909116173360081b610100600160a81b0316179055600b0191835191821161119c5761104c83546125d1565b601f8111611153575b5085601f83116001146110c9579180806110b995937f1b84372106d77c6daea0dda35bbc0229d10a83f58ec89909288492519368234197956000936110be575b501b916000199060031b1c19161790555b6040519182918683523396830190612591565b0390a3005b86015192508a611095565b601f9291921982169084600052876000209160005b8982821061113f5750509183916110b996947f1b84372106d77c6daea0dda35bbc0229d10a83f58ec89909288492519368234198969410611126575b5050811b0190556110a6565b85015160001960f88460031b161c19169055888061111a565b8884015185559386019392830192016110de565b8360005286600020601f840160051c810191888510611192575b601f0160051c019082905b828110611186575050611055565b60008155018290611178565b909150819061116d565b634e487b7160e01b600052604160045260246000fd5b60405162461bcd60e51b8152600481018990526015602482015274111a5cdc1d5d19481dda5b991bddc81c185cdcd959605a1b6044820152606490fd5b60405162461bcd60e51b815260048101899052601060248201526f105b1c9958591e48191a5cdc1d5d195960821b6044820152606490fd5b600284015416331490508861036d565b346102a05760003660031901126102a057602060405160fa8152f35b346102a05760203660031901126102a0576060610140604051611275816124d0565b6000815282602082015260006040820152600083820152600060808201528260a0820152600060c0820152600060e082015260006101008201526000610120820152015260043560005260066020526105a16040600020600a61137a604051926112de846124d0565b80546001600160a01b031684526040516112ff8161090d816001860161260b565b60208501526002810154604085015260038101546060850152600481015460808501526040516113368161090d816005860161260b565b60a0850152600681015460c085015260ff600782015416151560e08501526008810154610100850152600981015461012085015261090d604051809481930161260b565b6101408201526040519182916020835260018060a01b03815116602084015260208101516113b661016091826040870152610180860190612591565b906040830151606086015260608301516080860152608083015160a08601526101406113f460a085015193601f1994858983030160c08a0152612591565b9360c081015160e088015260e08101511515610100880152610100810151610120880152610120810151828801520151918584030190850152612591565b346102a05760e03660031901126102a0576004356001600160401b0381116102a05761146290369060040161250d565b6084356001600160401b0381116102a05761148190369060040161250d565b9060c4356001600160401b0381116102a0576114a190369060040161250d565b6114ae60a4351515612715565b6024351561199d576044351561195857600454926114cb84612761565b600455604051926114db846124d0565b338452602084015260243560408401526044356060840152606435608084015260a083015260a43560c0830152600160e08301526000610100830152600061012083015261014082015281600052600660205260406000209160018060a01b038251166001600160601b0360a01b84541617835560208201519283516001600160401b03811161119c5761157260018301546125d1565b601f8111611911575b506020601f82116001146118a2578192939495600092611897575b50508160011b916000199060031b1c19161760018201555b60408301516002820155606083015160038201556080830151600482015560a08301518051906001600160401b03821161119c576115ef60058401546125d1565b601f8111611850575b50602090601f83116001146117da5791806101409492600a946000926117cf575b50508160011b916000199060031b1c19161760058201555b60c0850151600682015561165a60e08601511515600783019060ff801983541691151516179055565b6101008501516008820155610120850151600982015501920151908151926001600160401b03841161119c5761169081546125d1565b93601f8511611787575b602094508493601f8211600114611724579381929394600092611719575b50508160011b916000199060031b1c19161790555b33600052600882526116e3816040600020612770565b8060405160a43581527f9ae856703585c6656a94de0b9fa016ae1dab239ff224e877e311fa47d796e341843392a3604051908152f35b0151905085806116b8565b601f1982169483600052866000209160005b878110611770575083600195969710611757575b505050811b0190556116cd565b015160001960f88460031b161c1916905585808061174a565b919288600181928685015181550194019201611736565b816000526020600020601f820160051c810195602083106117c5575b601f0160051c01945b8581106117b9575061169a565b600081556001016117ac565b90955085906117a3565b015190508780611619565b906005840160005260206000209160005b601f19851681106118385750926101409492600192600a9583601f1981161061181f575b505050811b016005820155611631565b015160001960f88460031b161c1916905587808061180f565b919260206001819286850151815501940192016117eb565b600584016000526020600020601f840160051c810160208510611890575b601f830160051c820181106118845750506115f8565b6000815560010161186e565b508061186e565b015190508580611596565b6001830160005260206000209060005b601f19841681106118f9575060019394959683601f198116106118e0575b505050811b0160018201556115ae565b015160001960f88460031b161c191690558580806118d0565b9091602060018192858b0151815501930191016118b2565b600183016000526020600020601f830160051c810160208410611951575b601f830160051c8201811061194557505061157b565b6000815560010161192f565b508061192f565b60405162461bcd60e51b815260206004820152601d60248201527f4d656d6f7279206d7573742062652067726561746572207468616e20300000006044820152606490fd5b606460405162461bcd60e51b815260206004820152602060248201527f43505520636f726573206d7573742062652067726561746572207468616e20306044820152fd5b346102a05760403660031901126102a05760043560243590806000526006602052611a1a60018060a01b036040600020541633146127aa565b611a25821515612715565b6000526006602052600660406000200155600080f35b346102a0576107a2611a4c36612495565b90806000526006602052611a6e60018060a01b036040600020541633146127aa565b600052600660205260076040600020019060ff801983541691151516179055565b346102a05760403660031901126102a057611aa8612563565b6001600160a01b03166000908152600860205260409020805460243591908210156102a0576020916107ee91612579565b346102a05760803660031901126102a0576044356001600160401b0381116102a057611b0990369060040161250d565b6064356001600160401b0381116102a057611b2890369060040161250d565b600435600052600660205260ff60076040600020015416156121a9576024351561216457600435600052600660205260406000209060068201549060243582029180830460243514901517156104075760fa820282810460fa148315171561040757612710611b989104836127e7565b9360055493611ba685612761565b6005555460405193906001600160a01b0316611bc1856124b4565b6004358552336020860152604085015260243560608501526080840152600060a0840152600060c0840152600060e0840152610100830152610120820152600061014082015260006101608201526040518060208101106001600160401b0360208301111761119c576020810160405260008152610180820152816000526007602052604060002090805182556001820160018060a01b03602083015116906001600160601b0360a01b9182825416179055600283019060018060a01b0360408401511690825416179055606081015160038301556080810151600483015560a0810151600583015560c0810151600683015560e081015160068110156102535760ff801960078501541691161760078301556101008101518051906001600160401b03821161119c578190611cfa60088601546125d1565b601f8111612111575b50602090601f831160011461209f57600092612094575b50508160011b916000199060031b1c19161760088301555b6101208101518051906001600160401b03821161119c57611d5660098501546125d1565b601f811161204d575b50602090601f8311600114611fd95761018093929160009183611fce575b50508160011b916000199060031b1c19161760098401555b611de1600a8401611db96101408401511515829060ff801983541691151516179055565b6101608301518154610100600160a81b03191660089190911b610100600160a81b0316179055565b01518051906001600160401b03821161119c57611e01600b8401546125d1565b601f8111611f87575b50602090601f8311600114611f1957600b929160009183611f0e575b50508160011b916000199060031b1c1916179101555b336000526009602052611e53816040600020612770565b6002546040516323b872dd60e01b6020820152336024820152306044820152606480820185905281526001600160a01b03909116929060a08101908082106001600160401b0383111761119c57602094611eaf926040526127f4565b81600052600b8352604060002055600782526007604060002001600160ff19825416179055604051602435815260043590827f07aedeaaa47605dac1fb02ecea3128d244eea577d97e042a68813b0ddcdcfa35853393a4604051908152f35b015190508680611e26565b90601f19831691600b850160005260206000209260005b818110611f6f5750916001939185600b969410611f56575b505050811b01910155611e3c565b015160001960f88460031b161c19169055868080611f48565b92936020600181928786015181550195019301611f30565b600b84016000526020600020601f840160051c810160208510611fc7575b601f830160051c82018110611fbb575050611e0a565b60008155600101611fa5565b5080611fa5565b015190508780611d7d565b906009850160005260206000209160005b601f198516811061203557509183916001936101809695601f1981161061201c575b505050811b016009840155611d95565b015160001960f88460031b161c1916905587808061200c565b91926020600181928685015181550194019201611fea565b600985016000526020600020601f840160051c81016020851061208d575b601f830160051c82018110612081575050611d5f565b6000815560010161206b565b508061206b565b015190508680611d1a565b9250600885016000526020600020906000935b601f19841685106120f6576001945083601f198116106120dd575b505050811b016008830155611d32565b015160001960f88460031b161c191690558680806120cd565b818101518355602094850194600190930192909101906120b2565b909150600885016000526020600020601f840160051c81016020851061215d575b90849392915b601f830160051c8201811061214e575050611d03565b60008155859450600101612138565b5080612132565b60405162461bcd60e51b815260206004820152601f60248201527f4475726174696f6e206d7573742062652067726561746572207468616e2030006044820152606490fd5b60405162461bcd60e51b81526020600482015260126024820152714e6f6465206e6f7420617661696c61626c6560701b6044820152606490fd5b346102a0576121f136612495565b6121f96126e9565b8160005260206007815260406000209160ff600a84015416156123235783600052600b825260406000205461222f8115156128d9565b6000858152600b8452604081205581156122dc575060048301549260fa840284810460fa1485151715610407577f5a87909bff68caaaaf0b3fd9c74eeccc928832f879315e5c6fb7a73612f26c0c946122b49161229f60018060a01b039283600254168460028801541690612925565b61271082600254169104916001541690612925565b546000526006825260096040600020016122ce8154612761565b90555b6040519015158152a2005b6002546001909401547f5a87909bff68caaaaf0b3fd9c74eeccc928832f879315e5c6fb7a73612f26c0c9461231e92916001600160a01b039081169116612925565b6122d1565b60405162461bcd60e51b815260048101839052600a6024820152694e6f206469737075746560b01b6044820152606490fd5b346102a05760003660031901126102a0576002546040516001600160a01b039091168152602090f35b346102a05760203660031901126102a05760043560008181526007602052604090206001810180546001600160a01b03929083163303612437576007019283549360ff85166006811015610253576001036124025760046107a29560ff1916179055600052600b602052604060002091600083549355806002541691541690612925565b60405162461bcd60e51b815260206004820152600d60248201526c10d85b9b9bdd0818d85b98d95b609a1b6044820152606490fd5b60405162461bcd60e51b815260206004820152600e60248201526d139bdd081a9bd88818db1a595b9d60921b6044820152606490fd5b346102a05760203660031901126102a057602090600435600052600b82526040600020548152f35b60409060031901126102a0576004359060243580151581036102a05790565b6101a081019081106001600160401b0382111761119c57604052565b61016081019081106001600160401b0382111761119c57604052565b90601f801991011681019081106001600160401b0382111761119c57604052565b81601f820112156102a0578035906001600160401b03821161119c5760405192612541601f8401601f1916602001856124ec565b828452602083830101116102a057816000926020809301838601378301015290565b600435906001600160a01b03821682036102a057565b80548210156108df5760005260206000200190600090565b919082519283825260005b8481106125bd575050826000602080949584010152601f8019910116010190565b60208183018101518483018201520161259c565b90600182811c92168015612601575b60208310146125eb57565b634e487b7160e01b600052602260045260246000fd5b91607f16916125e0565b906000929180549161261c836125d1565b91828252600193848116908160001461267e575060011461263e575b50505050565b90919394506000526020928360002092846000945b83861061266a575050505001019038808080612638565b805485870183015294019385908201612653565b9294505050602093945060ff191683830152151560051b01019038808080612638565b9060068210156102535752565b6020908160408183019282815285518094520193019160005b8281106126d5575050505090565b8351855293810193928101926001016126c7565b6001546001600160a01b031633036126fd57565b60405163118cdaa760e01b8152336004820152602490fd5b1561271c57565b60405162461bcd60e51b815260206004820152601c60248201527f5072696365206d7573742062652067726561746572207468616e2030000000006044820152606490fd5b60001981146104075760010190565b80546801000000000000000081101561119c5761279291600182018155612579565b819291549060031b91821b91600019901b1916179055565b156127b157565b60405162461bcd60e51b815260206004820152600e60248201526d2737ba103737b2329037bbb732b960911b6044820152606490fd5b9190820180921161040757565b906000602091828151910182855af115612850576000513d61284757506001600160a01b0381163b155b6128255750565b604051635274afe760e01b81526001600160a01b039091166004820152602490fd5b6001141561281e565b6040513d6000823e3d90fd5b1561286357565b60405162461bcd60e51b815260206004820152600e60248201526d139bdd08185d5d1a1bdc9a5e995960921b6044820152606490fd5b156128a057565b60405162461bcd60e51b8152602060048201526011602482015270129bd8881b9bdd0818dbdb5c1b195d1959607a1b6044820152606490fd5b156128e057565b60405162461bcd60e51b815260206004820152601860248201527f5061796d656e7420616c72656164792072656c656173656400000000000000006044820152606490fd5b60405163a9059cbb60e01b60208201526001600160a01b03909216602483015260448083019390935291815260808101916001600160401b0383118284101761119c57612974926040526127f4565b565b6001600160401b03811161119c5760051b6020019056fea2646970667358221220ed934501bc74ed6ca1ca553509cb6db94397dd47a569704ef8323a3e5320c91d64736f6c63430008140033","opcodes":"PUSH1 0x80 CALLVALUE PUSH2 0xE0 JUMPI PUSH1 0x1F PUSH3 0x2ABF CODESIZE DUP2 SWAP1 SUB SWAP2 DUP3 ADD PUSH1 0x1F NOT AND DUP4 ADD SWAP2 PUSH1 0x1 PUSH1 0x1 PUSH1 0x40 SHL SUB DUP4 GT DUP5 DUP5 LT OR PUSH2 0xE5 JUMPI DUP1 DUP5 SWAP3 PUSH1 0x20 SWAP5 PUSH1 0x40 MSTORE DUP4 CODECOPY DUP2 ADD SUB SLT PUSH2 0xE0 JUMPI MLOAD PUSH1 0x1 PUSH1 0x1 PUSH1 0xA0 SHL SUB SWAP1 DUP2 DUP2 AND SWAP1 DUP2 SWAP1 SUB PUSH2 0xE0 JUMPI PUSH1 0x1 PUSH1 0x0 SSTORE CALLER ISZERO PUSH2 0xC7 JUMPI PUSH1 0x1 DUP1 SLOAD CALLER PUSH1 0x1 PUSH1 0x1 PUSH1 0xA0 SHL SUB NOT DUP1 DUP4 AND DUP3 OR SWAP1 SWAP4 SSTORE PUSH1 0x40 MLOAD SWAP5 SWAP1 SWAP2 AND PUSH32 0x8BE0079C531659141344CD1FD0A4F28419497F9722A3DAAFE3B4186F6B6457E0 PUSH1 0x0 DUP1 LOG3 PUSH3 0x15180 PUSH1 0x3 SSTORE PUSH1 0x1 PUSH1 0x4 SSTORE PUSH1 0x1 PUSH1 0x5 SSTORE PUSH1 0x2 SLOAD AND OR PUSH1 0x2 SSTORE PUSH2 0x29C3 SWAP1 DUP2 PUSH3 0xFC DUP3 CODECOPY RETURN JUMPDEST PUSH1 0x40 MLOAD PUSH4 0x1E4FBDF7 PUSH1 0xE0 SHL DUP2 MSTORE PUSH1 0x0 PUSH1 0x4 DUP3 ADD MSTORE PUSH1 0x24 SWAP1 REVERT JUMPDEST PUSH1 0x0 DUP1 REVERT JUMPDEST PUSH4 0x4E487B71 PUSH1 0xE0 SHL PUSH1 0x0 MSTORE PUSH1 0x41 PUSH1 0x4 MSTORE PUSH1 0x24 PUSH1 0x0 REVERT INVALID PUSH1 0x80 DUP1 PUSH1 0x40 MSTORE PUSH1 0x4 CALLDATASIZE LT ISZERO PUSH2 0x13 JUMPI PUSH1 0x0 DUP1 REVERT JUMPDEST PUSH1 0x0 CALLDATALOAD PUSH1 0xE0 SHR SWAP1 DUP2 PUSH4 0xC4F321F EQ PUSH2 0x246D JUMPI POP DUP1 PUSH4 0x1DFFA3DC EQ PUSH2 0x237E JUMPI DUP1 PUSH4 0x3013CE29 EQ PUSH2 0x2355 JUMPI DUP1 PUSH4 0x34B25EE2 EQ PUSH2 0x21E3 JUMPI DUP1 PUSH4 0x3D44645C EQ PUSH2 0x1AD9 JUMPI DUP1 PUSH4 0x486FBD79 EQ PUSH2 0x1A8F JUMPI DUP1 PUSH4 0x4AFEDCD6 EQ PUSH2 0x1A3B JUMPI DUP1 PUSH4 0x4B9D4BAB EQ PUSH2 0x19E1 JUMPI DUP1 PUSH4 0x52A662A3 EQ PUSH2 0x1432 JUMPI DUP1 PUSH4 0x53E215F4 EQ PUSH2 0x1253 JUMPI DUP1 PUSH4 0x560D52D4 EQ PUSH2 0x1237 JUMPI DUP1 PUSH4 0x5AEF573C EQ PUSH2 0xF61 JUMPI DUP1 PUSH4 0x715018A6 EQ PUSH2 0xF04 JUMPI DUP1 PUSH4 0x72143F41 EQ PUSH2 0xDF3 JUMPI DUP1 PUSH4 0x7E4DCC06 EQ PUSH2 0xDD5 JUMPI DUP1 PUSH4 0x7F4497D8 EQ PUSH2 0xB85 JUMPI DUP1 PUSH4 0x88685CD9 EQ PUSH2 0x9C0 JUMPI DUP1 PUSH4 0x8DA5CB5B EQ PUSH2 0x997 JUMPI DUP1 PUSH4 0x8DF32711 EQ PUSH2 0x7FC JUMPI DUP1 PUSH4 0x8FACD859 EQ PUSH2 0x7A4 JUMPI DUP1 PUSH4 0x95CCEA67 EQ PUSH2 0x765 JUMPI DUP1 PUSH4 0xA3590E4B EQ PUSH2 0x739 JUMPI DUP1 PUSH4 0xAA0B5988 EQ PUSH2 0x6DF JUMPI DUP1 PUSH4 0xBE452E04 EQ PUSH2 0x667 JUMPI DUP1 PUSH4 0xCF2646C2 EQ PUSH2 0x5E3 JUMPI DUP1 PUSH4 0xE13242DD EQ PUSH2 0x5C2 JUMPI DUP1 PUSH4 0xE1F1C4A7 EQ PUSH2 0x5A5 JUMPI DUP1 PUSH4 0xEB1140AA EQ PUSH2 0x464 JUMPI DUP1 PUSH4 0xEB96E659 EQ PUSH2 0x32E JUMPI DUP1 PUSH4 0xF2FDE38B EQ PUSH2 0x2A5 JUMPI PUSH4 0xF72D3A7E EQ PUSH2 0x174 JUMPI PUSH1 0x0 DUP1 REVERT JUMPDEST CALLVALUE PUSH2 0x2A0 JUMPI PUSH1 0x20 DUP1 PUSH1 0x3 NOT CALLDATASIZE ADD SLT PUSH2 0x2A0 JUMPI PUSH1 0x4 CALLDATALOAD PUSH1 0x0 DUP2 DUP2 MSTORE PUSH1 0x7 DUP4 MSTORE PUSH1 0x40 SWAP1 KECCAK256 PUSH1 0x2 DUP2 ADD SLOAD SWAP1 SWAP3 SWAP1 PUSH1 0x1 PUSH1 0x1 PUSH1 0xA0 SHL SUB AND CALLER SUB PUSH2 0x269 JUMPI PUSH1 0x7 DUP4 ADD SWAP3 DUP4 SLOAD SWAP4 PUSH1 0xFF DUP6 AND PUSH1 0x6 DUP2 LT ISZERO PUSH2 0x253 JUMPI PUSH1 0x1 SUB PUSH2 0x21D JUMPI PUSH1 0x2 PUSH32 0xE3AFE40BF62AF5D61E451CE5AC1A16BAA282148052EE6BD241DEB3CD0242D21A SWAP5 SWAP6 TIMESTAMP PUSH1 0x5 DUP6 ADD SSTORE PUSH1 0xFF NOT AND OR SWAP1 SSTORE SLOAD PUSH1 0x0 MSTORE PUSH1 0xA DUP2 MSTORE PUSH1 0x40 PUSH1 0x0 KECCAK256 PUSH2 0x212 DUP2 SLOAD PUSH2 0x2761 JUMP JUMPDEST SWAP1 SSTORE PUSH1 0x40 MLOAD TIMESTAMP DUP2 MSTORE LOG2 STOP JUMPDEST PUSH1 0x40 MLOAD PUSH3 0x461BCD PUSH1 0xE5 SHL DUP2 MSTORE PUSH1 0x4 DUP2 ADD DUP5 SWAP1 MSTORE PUSH1 0xE PUSH1 0x24 DUP3 ADD MSTORE PUSH14 0x129BD8881B9BDD08199D5B991959 PUSH1 0x92 SHL PUSH1 0x44 DUP3 ADD MSTORE PUSH1 0x64 SWAP1 REVERT JUMPDEST PUSH4 0x4E487B71 PUSH1 0xE0 SHL PUSH1 0x0 MSTORE PUSH1 0x21 PUSH1 0x4 MSTORE PUSH1 0x24 PUSH1 0x0 REVERT JUMPDEST PUSH1 0x64 SWAP1 PUSH1 0x40 MLOAD SWAP1 PUSH3 0x461BCD PUSH1 0xE5 SHL DUP3 MSTORE PUSH1 0x4 DUP3 ADD MSTORE PUSH1 0x10 PUSH1 0x24 DUP3 ADD MSTORE PUSH16 0x2737BA103537B110383937BB34B232B9 PUSH1 0x81 SHL PUSH1 0x44 DUP3 ADD MSTORE REVERT JUMPDEST PUSH1 0x0 DUP1 REVERT JUMPDEST CALLVALUE PUSH2 0x2A0 JUMPI PUSH1 0x20 CALLDATASIZE PUSH1 0x3 NOT ADD SLT PUSH2 0x2A0 JUMPI PUSH2 0x2BE PUSH2 0x2563 JUMP JUMPDEST PUSH2 0x2C6 PUSH2 0x26E9 JUMP JUMPDEST PUSH1 0x1 PUSH1 0x1 PUSH1 0xA0 SHL SUB SWAP1 DUP2 AND SWAP1 DUP2 ISZERO PUSH2 0x315 JUMPI PUSH1 0x1 SLOAD DUP3 PUSH1 0x1 PUSH1 0x1 PUSH1 0x60 SHL SUB PUSH1 0xA0 SHL DUP3 AND OR PUSH1 0x1 SSTORE AND PUSH32 0x8BE0079C531659141344CD1FD0A4F28419497F9722A3DAAFE3B4186F6B6457E0 PUSH1 0x0 DUP1 LOG3 STOP JUMPDEST PUSH1 0x40 MLOAD PUSH4 0x1E4FBDF7 PUSH1 0xE0 SHL DUP2 MSTORE PUSH1 0x0 PUSH1 0x4 DUP3 ADD MSTORE PUSH1 0x24 SWAP1 REVERT JUMPDEST CALLVALUE PUSH2 0x2A0 JUMPI PUSH1 0x20 DUP1 PUSH1 0x3 NOT CALLDATASIZE ADD SLT PUSH2 0x2A0 JUMPI PUSH1 0x4 CALLDATALOAD SWAP1 DUP2 PUSH1 0x0 MSTORE PUSH1 0x7 DUP2 MSTORE PUSH1 0x40 PUSH1 0x0 KECCAK256 SWAP1 PUSH2 0x373 PUSH1 0x1 DUP1 PUSH1 0xA0 SHL SUB DUP1 PUSH1 0x1 DUP6 ADD SLOAD AND CALLER EQ SWAP1 DUP2 ISZERO PUSH2 0x454 JUMPI JUMPDEST POP PUSH2 0x285C JUMP JUMPDEST PUSH1 0x7 DUP3 ADD DUP1 SLOAD PUSH1 0xFF DUP2 AND PUSH1 0x6 DUP2 LT ISZERO PUSH2 0x253 JUMPI PUSH1 0x2 SUB PUSH2 0x41D JUMPI PUSH1 0x3 SWAP1 TIMESTAMP PUSH1 0x6 DUP7 ADD SSTORE PUSH1 0xFF NOT AND OR SWAP1 SSTORE DUP2 SLOAD PUSH1 0x0 MSTORE PUSH1 0xA DUP2 MSTORE PUSH1 0x40 PUSH1 0x0 KECCAK256 SWAP2 DUP3 SLOAD SWAP3 DUP4 ISZERO PUSH2 0x407 JUMPI PUSH32 0x41930F16E103C5D76D3AB5A14C0201A0ADAB06354E8E99241F5B2AD02566525E SWAP4 PUSH1 0x0 NOT ADD SWAP1 SSTORE SLOAD PUSH1 0x0 MSTORE PUSH1 0x6 DUP2 MSTORE PUSH1 0x9 PUSH1 0x40 PUSH1 0x0 KECCAK256 PUSH1 0x8 DUP2 ADD PUSH2 0x3FA DUP2 SLOAD PUSH2 0x2761 JUMP JUMPDEST SWAP1 SSTORE ADD PUSH2 0x212 DUP2 SLOAD PUSH2 0x2761 JUMP JUMPDEST PUSH4 0x4E487B71 PUSH1 0xE0 SHL PUSH1 0x0 MSTORE PUSH1 0x11 PUSH1 0x4 MSTORE PUSH1 0x24 PUSH1 0x0 REVERT JUMPDEST PUSH1 0x40 MLOAD PUSH3 0x461BCD PUSH1 0xE5 SHL DUP2 MSTORE PUSH1 0x4 DUP2 ADD DUP5 SWAP1 MSTORE PUSH1 0xF PUSH1 0x24 DUP3 ADD MSTORE PUSH15 0x129BD8881B9BDD081CDD185C9D1959 PUSH1 0x8A SHL PUSH1 0x44 DUP3 ADD MSTORE PUSH1 0x64 SWAP1 REVERT JUMPDEST PUSH1 0x2 DUP6 ADD SLOAD AND CALLER EQ SWAP1 POP DUP6 PUSH2 0x36D JUMP JUMPDEST CALLVALUE PUSH2 0x2A0 JUMPI PUSH1 0x20 CALLDATASIZE PUSH1 0x3 NOT ADD SLT PUSH2 0x2A0 JUMPI PUSH1 0x4 CALLDATALOAD PUSH1 0x0 MSTORE PUSH1 0x7 PUSH1 0x20 MSTORE PUSH1 0x40 PUSH1 0x0 KECCAK256 DUP1 SLOAD PUSH1 0x1 PUSH1 0xA0 SHL PUSH1 0x1 SWAP1 SUB SWAP2 DUP3 PUSH1 0x1 DUP3 ADD SLOAD AND SWAP3 DUP1 PUSH1 0x2 DUP4 ADD SLOAD AND SWAP1 PUSH1 0x3 DUP4 ADD SLOAD PUSH1 0x4 DUP5 ADD SLOAD PUSH1 0x5 DUP6 ADD SLOAD PUSH1 0x6 DUP7 ADD SLOAD PUSH1 0x7 DUP8 ADD SLOAD PUSH1 0xFF AND SWAP2 PUSH1 0x40 MLOAD SWAP4 DUP5 DUP1 PUSH1 0x8 DUP12 ADD SWAP1 PUSH2 0x4D2 SWAP2 PUSH2 0x260B JUMP JUMPDEST SUB PUSH2 0x4DD SWAP1 DUP7 PUSH2 0x24EC JUMP JUMPDEST PUSH1 0x40 MLOAD SWAP6 DUP7 PUSH2 0x4EF DUP2 PUSH1 0x9 DUP14 ADD PUSH2 0x260B JUMP JUMPDEST SUB PUSH2 0x4FA SWAP1 DUP9 PUSH2 0x24EC JUMP JUMPDEST PUSH1 0xA DUP11 ADD SLOAD SWAP9 PUSH1 0x40 MLOAD DUP1 PUSH1 0xB DUP2 SWAP14 ADD SWAP1 PUSH2 0x513 SWAP2 PUSH2 0x260B JUMP JUMPDEST SUB PUSH2 0x51E SWAP1 DUP13 PUSH2 0x24EC JUMP JUMPDEST PUSH1 0x40 MLOAD SWAP13 DUP14 SWAP13 DUP14 MSTORE PUSH1 0x20 DUP14 ADD MSTORE PUSH1 0x40 DUP13 ADD MSTORE PUSH1 0x60 DUP12 ADD MSTORE PUSH1 0x80 DUP11 ADD MSTORE PUSH1 0xA0 DUP10 ADD MSTORE PUSH1 0xC0 DUP9 ADD MSTORE PUSH1 0xE0 DUP8 ADD PUSH2 0x551 SWAP2 PUSH2 0x26A1 JUMP JUMPDEST PUSH2 0x1A0 DUP1 PUSH2 0x100 DUP9 ADD MSTORE DUP7 ADD PUSH2 0x566 SWAP2 PUSH2 0x2591 JUMP JUMPDEST DUP6 DUP2 SUB PUSH2 0x120 DUP8 ADD MSTORE PUSH2 0x578 SWAP2 PUSH2 0x2591 JUMP JUMPDEST SWAP2 PUSH1 0xFF DUP2 AND ISZERO ISZERO PUSH2 0x140 DUP7 ADD MSTORE PUSH1 0x8 SHR AND PUSH2 0x160 DUP5 ADD MSTORE DUP3 DUP2 SUB PUSH2 0x180 DUP5 ADD MSTORE PUSH2 0x5A1 SWAP2 PUSH2 0x2591 JUMP JUMPDEST SUB SWAP1 RETURN JUMPDEST CALLVALUE PUSH2 0x2A0 JUMPI PUSH1 0x0 CALLDATASIZE PUSH1 0x3 NOT ADD SLT PUSH2 0x2A0 JUMPI PUSH1 0x20 PUSH1 0x40 MLOAD PUSH2 0x2710 DUP2 MSTORE RETURN JUMPDEST CALLVALUE PUSH2 0x2A0 JUMPI PUSH1 0x20 CALLDATASIZE PUSH1 0x3 NOT ADD SLT PUSH2 0x2A0 JUMPI PUSH2 0x5DB PUSH2 0x26E9 JUMP JUMPDEST PUSH1 0x4 CALLDATALOAD PUSH1 0x3 SSTORE STOP JUMPDEST CALLVALUE PUSH2 0x2A0 JUMPI PUSH1 0x20 DUP1 PUSH1 0x3 NOT CALLDATASIZE ADD SLT PUSH2 0x2A0 JUMPI PUSH1 0x1 PUSH1 0x1 PUSH1 0xA0 SHL SUB PUSH2 0x605 PUSH2 0x2563 JUMP JUMPDEST AND PUSH1 0x0 MSTORE PUSH1 0x9 DUP2 MSTORE PUSH1 0x40 PUSH1 0x0 KECCAK256 SWAP1 PUSH1 0x40 MLOAD SWAP1 DUP2 DUP2 DUP5 SLOAD SWAP2 DUP3 DUP2 MSTORE ADD SWAP4 PUSH1 0x0 MSTORE DUP2 PUSH1 0x0 KECCAK256 SWAP2 PUSH1 0x0 SWAP1 JUMPDEST DUP3 DUP3 LT PUSH2 0x650 JUMPI PUSH2 0x5A1 DUP6 PUSH2 0x644 DUP2 DUP10 SUB DUP3 PUSH2 0x24EC JUMP JUMPDEST PUSH1 0x40 MLOAD SWAP2 DUP3 SWAP2 DUP3 PUSH2 0x26AE JUMP JUMPDEST DUP4 SLOAD DUP7 MSTORE SWAP5 DUP6 ADD SWAP5 PUSH1 0x1 SWAP4 DUP5 ADD SWAP4 SWAP1 SWAP2 ADD SWAP1 PUSH2 0x62D JUMP JUMPDEST CALLVALUE PUSH2 0x2A0 JUMPI PUSH1 0x20 DUP1 PUSH1 0x3 NOT CALLDATASIZE ADD SLT PUSH2 0x2A0 JUMPI PUSH1 0x1 PUSH1 0x1 PUSH1 0xA0 SHL SUB PUSH2 0x689 PUSH2 0x2563 JUMP JUMPDEST AND PUSH1 0x0 MSTORE PUSH1 0x8 DUP2 MSTORE PUSH1 0x40 PUSH1 0x0 KECCAK256 SWAP1 PUSH1 0x40 MLOAD SWAP1 DUP2 DUP2 DUP5 SLOAD SWAP2 DUP3 DUP2 MSTORE ADD SWAP4 PUSH1 0x0 MSTORE DUP2 PUSH1 0x0 KECCAK256 SWAP2 PUSH1 0x0 SWAP1 JUMPDEST DUP3 DUP3 LT PUSH2 0x6C8 JUMPI PUSH2 0x5A1 DUP6 PUSH2 0x644 DUP2 DUP10 SUB DUP3 PUSH2 0x24EC JUMP JUMPDEST DUP4 SLOAD DUP7 MSTORE SWAP5 DUP6 ADD SWAP5 PUSH1 0x1 SWAP4 DUP5 ADD SWAP4 SWAP1 SWAP2 ADD SWAP1 PUSH2 0x6B1 JUMP JUMPDEST CALLVALUE PUSH2 0x2A0 JUMPI PUSH1 0x20 CALLDATASIZE PUSH1 0x3 NOT ADD SLT PUSH2 0x2A0 JUMPI PUSH2 0x6F8 PUSH2 0x26E9 JUMP JUMPDEST PUSH2 0x3E8 PUSH1 0x4 CALLDATALOAD GT PUSH2 0x705 JUMPI STOP JUMPDEST PUSH1 0x40 MLOAD PUSH3 0x461BCD PUSH1 0xE5 SHL DUP2 MSTORE PUSH1 0x20 PUSH1 0x4 DUP3 ADD MSTORE PUSH1 0xC PUSH1 0x24 DUP3 ADD MSTORE PUSH12 0x8CCACA40E8DEDE40D0D2CED PUSH1 0xA3 SHL PUSH1 0x44 DUP3 ADD MSTORE PUSH1 0x64 SWAP1 REVERT JUMPDEST CALLVALUE PUSH2 0x2A0 JUMPI PUSH1 0x20 CALLDATASIZE PUSH1 0x3 NOT ADD SLT PUSH2 0x2A0 JUMPI PUSH1 0x4 CALLDATALOAD PUSH1 0x0 MSTORE PUSH1 0xA PUSH1 0x20 MSTORE PUSH1 0x20 PUSH1 0x40 PUSH1 0x0 KECCAK256 SLOAD PUSH1 0x40 MLOAD SWAP1 DUP2 MSTORE RETURN JUMPDEST CALLVALUE PUSH2 0x2A0 JUMPI PUSH1 0x40 CALLDATASIZE PUSH1 0x3 NOT ADD SLT PUSH2 0x2A0 JUMPI PUSH2 0x7A2 PUSH2 0x781 PUSH2 0x2563 JUMP JUMPDEST PUSH2 0x789 PUSH2 0x26E9 JUMP JUMPDEST PUSH1 0x1 SLOAD PUSH1 0x24 CALLDATALOAD SWAP2 PUSH1 0x1 PUSH1 0x1 PUSH1 0xA0 SHL SUB SWAP2 DUP3 AND SWAP2 AND PUSH2 0x2925 JUMP JUMPDEST STOP JUMPDEST CALLVALUE PUSH2 0x2A0 JUMPI PUSH1 0x40 CALLDATASIZE PUSH1 0x3 NOT ADD SLT PUSH2 0x2A0 JUMPI PUSH2 0x7BD PUSH2 0x2563 JUMP JUMPDEST PUSH1 0x1 PUSH1 0x1 PUSH1 0xA0 SHL SUB AND PUSH1 0x0 SWAP1 DUP2 MSTORE PUSH1 0x9 PUSH1 0x20 MSTORE PUSH1 0x40 SWAP1 KECCAK256 DUP1 SLOAD PUSH1 0x24 CALLDATALOAD SWAP2 SWAP1 DUP3 LT ISZERO PUSH2 0x2A0 JUMPI PUSH1 0x20 SWAP2 PUSH2 0x7EE SWAP2 PUSH2 0x2579 JUMP JUMPDEST SWAP1 SLOAD PUSH1 0x40 MLOAD SWAP2 PUSH1 0x3 SHL SHR DUP2 MSTORE RETURN JUMPDEST CALLVALUE PUSH2 0x2A0 JUMPI PUSH1 0x20 DUP1 PUSH1 0x3 NOT CALLDATASIZE ADD SLT PUSH2 0x2A0 JUMPI PUSH1 0x4 CALLDATALOAD PUSH1 0x1 PUSH1 0x1 PUSH1 0x40 SHL SUB DUP2 GT PUSH2 0x2A0 JUMPI PUSH2 0x82D SWAP1 CALLDATASIZE SWAP1 PUSH1 0x4 ADD PUSH2 0x250D JUMP JUMPDEST PUSH1 0x0 SWAP2 PUSH1 0x1 SWAP2 PUSH1 0x4 SLOAD SWAP3 JUMPDEST DUP4 DUP2 LT PUSH2 0x927 JUMPI POP PUSH2 0x849 DUP5 PUSH2 0x2976 JUMP JUMPDEST SWAP4 PUSH2 0x857 PUSH1 0x40 MLOAD SWAP6 DUP7 PUSH2 0x24EC JUMP JUMPDEST DUP1 DUP6 MSTORE PUSH2 0x866 PUSH1 0x1F NOT SWAP2 PUSH2 0x2976 JUMP JUMPDEST ADD CALLDATASIZE DUP4 DUP7 ADD CALLDATACOPY PUSH1 0x0 SWAP1 PUSH1 0x1 JUMPDEST DUP5 DUP2 LT PUSH2 0x887 JUMPI PUSH1 0x40 MLOAD DUP1 PUSH2 0x5A1 DUP9 DUP3 PUSH2 0x26AE JUMP JUMPDEST DUP1 PUSH1 0x0 MSTORE PUSH1 0x6 DUP5 MSTORE PUSH1 0x40 PUSH1 0x0 KECCAK256 PUSH1 0xFF PUSH1 0x7 DUP3 ADD SLOAD AND SWAP1 DUP2 PUSH2 0x8F5 JUMPI JUMPDEST POP PUSH2 0x8B7 JUMPI JUMPDEST PUSH2 0x8B2 SWAP1 PUSH2 0x2761 JUMP JUMPDEST PUSH2 0x872 JUMP JUMPDEST SWAP2 DUP6 MLOAD DUP2 LT ISZERO PUSH2 0x8DF JUMPI PUSH2 0x8D7 DUP2 DUP5 DUP7 PUSH2 0x8B2 SWAP5 PUSH1 0x5 SHL DUP11 ADD ADD MSTORE PUSH2 0x2761 JUMP JUMPDEST SWAP3 SWAP1 POP PUSH2 0x8A9 JUMP JUMPDEST PUSH4 0x4E487B71 PUSH1 0xE0 SHL PUSH1 0x0 MSTORE PUSH1 0x32 PUSH1 0x4 MSTORE PUSH1 0x24 PUSH1 0x0 REVERT JUMPDEST PUSH1 0x1 SWAP2 POP PUSH2 0x914 SWAP1 PUSH2 0x90D PUSH1 0x40 MLOAD DUP1 SWAP5 DUP2 SWAP4 ADD PUSH2 0x260B JUMP JUMPDEST SUB DUP3 PUSH2 0x24EC JUMP JUMPDEST DUP5 DUP2 MLOAD SWAP2 ADD KECCAK256 DUP3 MLOAD DUP6 DUP5 ADD KECCAK256 EQ DUP8 PUSH2 0x8A3 JUMP JUMPDEST DUP1 PUSH1 0x0 MSTORE PUSH1 0x6 DUP4 MSTORE PUSH1 0x40 PUSH1 0x0 KECCAK256 PUSH1 0xFF PUSH1 0x7 DUP3 ADD SLOAD AND SWAP1 DUP2 PUSH2 0x96C JUMPI JUMPDEST POP PUSH2 0x957 JUMPI JUMPDEST PUSH2 0x952 SWAP1 PUSH2 0x2761 JUMP JUMPDEST PUSH2 0x838 JUMP JUMPDEST SWAP4 PUSH2 0x964 PUSH2 0x952 SWAP2 PUSH2 0x2761 JUMP JUMPDEST SWAP5 SWAP1 POP PUSH2 0x949 JUMP JUMPDEST PUSH1 0x1 SWAP2 POP PUSH2 0x984 SWAP1 PUSH2 0x90D PUSH1 0x40 MLOAD DUP1 SWAP5 DUP2 SWAP4 ADD PUSH2 0x260B JUMP JUMPDEST DUP4 DUP2 MLOAD SWAP2 ADD KECCAK256 DUP3 MLOAD DUP5 DUP5 ADD KECCAK256 EQ DUP7 PUSH2 0x943 JUMP JUMPDEST CALLVALUE PUSH2 0x2A0 JUMPI PUSH1 0x0 CALLDATASIZE PUSH1 0x3 NOT ADD SLT PUSH2 0x2A0 JUMPI PUSH1 0x1 SLOAD PUSH1 0x40 MLOAD PUSH1 0x1 PUSH1 0x1 PUSH1 0xA0 SHL SUB SWAP1 SWAP2 AND DUP2 MSTORE PUSH1 0x20 SWAP1 RETURN JUMPDEST CALLVALUE PUSH2 0x2A0 JUMPI PUSH1 0x20 DUP1 PUSH1 0x3 NOT CALLDATASIZE ADD SLT PUSH2 0x2A0 JUMPI PUSH1 0x4 CALLDATALOAD PUSH1 0x2 PUSH1 0x0 SLOAD EQ PUSH2 0xB73 JUMPI PUSH1 0x2 PUSH1 0x0 SSTORE DUP1 PUSH1 0x0 MSTORE PUSH1 0x7 DUP3 MSTORE PUSH1 0x40 PUSH1 0x0 KECCAK256 PUSH1 0xFF PUSH1 0x7 DUP3 ADD SLOAD AND PUSH1 0x6 DUP2 LT ISZERO PUSH2 0x253 JUMPI PUSH1 0x3 PUSH2 0xA0E SWAP2 EQ PUSH2 0x2899 JUMP JUMPDEST PUSH1 0xFF PUSH1 0xA DUP3 ADD SLOAD AND PUSH2 0xB3F JUMPI PUSH2 0xA2B PUSH1 0x6 DUP3 ADD SLOAD PUSH1 0x3 SLOAD SWAP1 PUSH2 0x27E7 JUMP JUMPDEST TIMESTAMP LT DUP1 ISZERO SWAP1 PUSH2 0xB29 JUMPI JUMPDEST ISZERO PUSH2 0xAE4 JUMPI DUP2 PUSH1 0x0 MSTORE PUSH1 0xB DUP4 MSTORE PUSH2 0xA52 PUSH1 0x40 PUSH1 0x0 KECCAK256 SLOAD ISZERO ISZERO PUSH2 0x28D9 JUMP JUMPDEST DUP2 PUSH1 0x0 MSTORE PUSH1 0xB DUP4 MSTORE PUSH1 0x0 PUSH1 0x40 DUP2 KECCAK256 SSTORE PUSH1 0x4 DUP2 ADD SLOAD SWAP3 PUSH1 0xFA DUP5 MUL DUP5 DUP2 DIV PUSH1 0xFA EQ DUP6 ISZERO OR ISZERO PUSH2 0x407 JUMPI PUSH32 0x21D71DB5BE59BB9FA133895586B7404307DD33FB93B16DB09DC6F1D9D7D231B0 SWAP3 PUSH2 0xAD3 PUSH1 0x1 DUP1 PUSH1 0xA0 SHL SUB SWAP3 PUSH2 0xABD DUP9 PUSH1 0x2 DUP7 DUP2 SLOAD AND SWAP6 ADD SWAP5 DUP7 DUP7 SLOAD AND SWAP1 PUSH2 0x2925 JUMP JUMPDEST PUSH2 0x2710 DUP5 PUSH1 0x2 SLOAD AND SWAP2 DIV SWAP1 DUP5 PUSH1 0x1 SLOAD AND SWAP1 PUSH2 0x2925 JUMP JUMPDEST SLOAD AND SWAP4 PUSH1 0x40 MLOAD SWAP1 DUP2 MSTORE LOG3 PUSH1 0x1 PUSH1 0x0 SSTORE STOP JUMPDEST PUSH1 0x40 MLOAD PUSH3 0x461BCD PUSH1 0xE5 SHL DUP2 MSTORE PUSH1 0x4 DUP2 ADD DUP5 SWAP1 MSTORE PUSH1 0x19 PUSH1 0x24 DUP3 ADD MSTORE PUSH32 0x446973707574652077696E646F77206E6F742070617373656400000000000000 PUSH1 0x44 DUP3 ADD MSTORE PUSH1 0x64 SWAP1 REVERT JUMPDEST POP PUSH1 0x1 DUP2 ADD SLOAD PUSH1 0x1 PUSH1 0x1 PUSH1 0xA0 SHL SUB AND CALLER EQ PUSH2 0xA35 JUMP JUMPDEST PUSH1 0x40 MLOAD PUSH3 0x461BCD PUSH1 0xE5 SHL DUP2 MSTORE PUSH1 0x4 DUP2 ADD DUP5 SWAP1 MSTORE PUSH1 0xC PUSH1 0x24 DUP3 ADD MSTORE PUSH12 0x129BD888191A5CDC1D5D1959 PUSH1 0xA2 SHL PUSH1 0x44 DUP3 ADD MSTORE PUSH1 0x64 SWAP1 REVERT JUMPDEST PUSH1 0x40 MLOAD PUSH4 0x3EE5AEB5 PUSH1 0xE0 SHL DUP2 MSTORE PUSH1 0x4 SWAP1 REVERT JUMPDEST CALLVALUE PUSH2 0x2A0 JUMPI PUSH1 0x20 CALLDATASIZE PUSH1 0x3 NOT ADD SLT PUSH2 0x2A0 JUMPI PUSH1 0x60 PUSH2 0x180 PUSH1 0x40 MLOAD PUSH2 0xBA7 DUP2 PUSH2 0x24B4 JUMP JUMPDEST PUSH1 0x0 DUP2 MSTORE PUSH1 0x0 PUSH1 0x20 DUP3 ADD MSTORE PUSH1 0x0 PUSH1 0x40 DUP3 ADD MSTORE PUSH1 0x0 DUP4 DUP3 ADD MSTORE PUSH1 0x0 PUSH1 0x80 DUP3 ADD MSTORE PUSH1 0x0 PUSH1 0xA0 DUP3 ADD MSTORE PUSH1 0x0 PUSH1 0xC0 DUP3 ADD MSTORE PUSH1 0x0 PUSH1 0xE0 DUP3 ADD MSTORE DUP3 PUSH2 0x100 DUP3 ADD MSTORE DUP3 PUSH2 0x120 DUP3 ADD MSTORE PUSH1 0x0 PUSH2 0x140 DUP3 ADD MSTORE PUSH1 0x0 PUSH2 0x160 DUP3 ADD MSTORE ADD MSTORE PUSH1 0x4 CALLDATALOAD PUSH1 0x0 MSTORE PUSH1 0x7 PUSH1 0x20 MSTORE PUSH1 0x40 PUSH1 0x0 KECCAK256 PUSH1 0x40 MLOAD PUSH2 0xC17 DUP2 PUSH2 0x24B4 JUMP JUMPDEST DUP2 SLOAD DUP2 MSTORE PUSH1 0x1 DUP3 ADD SLOAD PUSH1 0x1 PUSH1 0x1 PUSH1 0xA0 SHL SUB SWAP1 DUP2 AND PUSH1 0x20 DUP4 ADD MSTORE PUSH1 0x2 DUP4 ADD SLOAD AND PUSH1 0x40 DUP3 ADD MSTORE PUSH1 0x3 DUP3 ADD SLOAD PUSH1 0x60 DUP3 ADD MSTORE PUSH1 0x4 DUP3 ADD SLOAD PUSH1 0x80 DUP3 ADD MSTORE PUSH1 0x5 DUP3 ADD SLOAD PUSH1 0xA0 DUP3 ADD MSTORE PUSH1 0x6 DUP1 DUP4 ADD SLOAD PUSH1 0xC0 DUP4 ADD MSTORE PUSH1 0x7 DUP4 ADD SLOAD PUSH1 0xFF AND SWAP3 SWAP1 DUP4 LT ISZERO PUSH2 0x253 JUMPI PUSH2 0xCED PUSH1 0xB SWAP2 PUSH2 0x5A1 SWAP5 PUSH1 0xE0 DUP6 ADD MSTORE PUSH1 0x40 MLOAD PUSH2 0xC98 DUP2 PUSH2 0x90D DUP2 PUSH1 0x8 DUP7 ADD PUSH2 0x260B JUMP JUMPDEST PUSH2 0x100 DUP6 ADD MSTORE PUSH1 0x40 MLOAD PUSH2 0xCB2 DUP2 PUSH2 0x90D DUP2 PUSH1 0x9 DUP7 ADD PUSH2 0x260B JUMP JUMPDEST PUSH2 0x120 DUP6 ADD MSTORE PUSH1 0xA DUP2 ADD SLOAD PUSH1 0xFF DUP2 AND ISZERO ISZERO PUSH2 0x140 DUP7 ADD MSTORE PUSH1 0x8 SHR PUSH1 0x1 PUSH1 0x1 PUSH1 0xA0 SHL SUB AND PUSH2 0x160 DUP6 ADD MSTORE PUSH1 0x40 MLOAD SWAP3 DUP4 SWAP2 PUSH2 0x90D SWAP2 DUP4 SWAP2 ADD PUSH2 0x260B JUMP JUMPDEST PUSH2 0x180 DUP3 ADD MSTORE PUSH1 0x40 MLOAD SWAP2 DUP3 SWAP2 PUSH1 0x20 DUP4 MSTORE DUP1 MLOAD PUSH1 0x20 DUP5 ADD MSTORE PUSH1 0x1 DUP1 PUSH1 0xA0 SHL SUB PUSH1 0x20 DUP3 ADD MLOAD AND PUSH1 0x40 DUP5 ADD MSTORE PUSH1 0x1 DUP1 PUSH1 0xA0 SHL SUB PUSH1 0x40 DUP3 ADD MLOAD AND PUSH1 0x60 DUP5 ADD MSTORE PUSH1 0x60 DUP2 ADD MLOAD PUSH1 0x80 DUP5 ADD MSTORE PUSH1 0x80 DUP2 ADD MLOAD PUSH1 0xA0 DUP5 ADD MSTORE PUSH1 0xA0 DUP2 ADD MLOAD PUSH1 0xC0 DUP5 ADD MSTORE PUSH1 0xC0 DUP2 ADD MLOAD PUSH1 0xE0 DUP5 ADD MSTORE PUSH2 0xD63 PUSH1 0xE0 DUP3 ADD MLOAD PUSH2 0x100 DUP6 ADD SWAP1 PUSH2 0x26A1 JUMP JUMPDEST PUSH2 0x100 DUP2 ADD MLOAD PUSH2 0xD82 PUSH2 0x1A0 SWAP2 DUP3 PUSH2 0x120 DUP8 ADD MSTORE PUSH2 0x1C0 DUP7 ADD SWAP1 PUSH2 0x2591 JUMP JUMPDEST SWAP1 PUSH2 0x180 PUSH2 0xDA4 PUSH2 0x120 DUP6 ADD MLOAD SWAP4 PUSH1 0x1F NOT SWAP5 DUP6 DUP10 DUP4 SUB ADD PUSH2 0x140 DUP11 ADD MSTORE PUSH2 0x2591 JUMP JUMPDEST SWAP4 PUSH2 0x140 DUP2 ADD MLOAD ISZERO ISZERO PUSH2 0x160 DUP9 ADD MSTORE PUSH1 0x1 DUP1 PUSH1 0xA0 SHL SUB PUSH2 0x160 DUP3 ADD MLOAD AND DUP3 DUP9 ADD MSTORE ADD MLOAD SWAP2 DUP6 DUP5 SUB ADD SWAP1 DUP6 ADD MSTORE PUSH2 0x2591 JUMP JUMPDEST CALLVALUE PUSH2 0x2A0 JUMPI PUSH1 0x0 CALLDATASIZE PUSH1 0x3 NOT ADD SLT PUSH2 0x2A0 JUMPI PUSH1 0x20 PUSH1 0x3 SLOAD PUSH1 0x40 MLOAD SWAP1 DUP2 MSTORE RETURN JUMPDEST CALLVALUE PUSH2 0x2A0 JUMPI PUSH1 0x20 CALLDATASIZE PUSH1 0x3 NOT ADD SLT PUSH2 0x2A0 JUMPI PUSH1 0x4 CALLDATALOAD PUSH1 0x0 MSTORE PUSH1 0x6 PUSH1 0x20 MSTORE PUSH1 0x40 PUSH1 0x0 KECCAK256 PUSH1 0x1 DUP1 PUSH1 0xA0 SHL SUB DUP2 SLOAD AND PUSH2 0x5A1 PUSH1 0x40 MLOAD SWAP3 PUSH2 0xE3D DUP5 PUSH2 0xE36 DUP2 PUSH1 0x1 DUP6 ADD PUSH2 0x260B JUMP JUMPDEST SUB DUP6 PUSH2 0x24EC JUMP JUMPDEST PUSH1 0xA PUSH1 0x2 DUP3 ADD SLOAD SWAP2 PUSH1 0x3 DUP2 ADD SLOAD PUSH1 0x4 DUP3 ADD SLOAD PUSH2 0xEDD PUSH1 0x40 MLOAD SWAP6 PUSH2 0xE6E DUP8 PUSH2 0xE67 DUP2 PUSH1 0x5 DUP10 ADD PUSH2 0x260B JUMP JUMPDEST SUB DUP9 PUSH2 0x24EC JUMP JUMPDEST PUSH1 0x6 DUP6 ADD SLOAD SWAP7 PUSH1 0xFF PUSH1 0x7 DUP8 ADD SLOAD AND SWAP4 PUSH1 0x8 DUP8 ADD SLOAD SWAP6 PUSH2 0xEA3 PUSH1 0x9 DUP10 ADD SLOAD SWAP9 PUSH2 0xE9C PUSH1 0x40 MLOAD DUP1 SWAP13 DUP2 SWAP4 ADD PUSH2 0x260B JUMP JUMPDEST SUB DUP11 PUSH2 0x24EC JUMP JUMPDEST PUSH2 0xEC0 PUSH1 0x40 MLOAD SWAP14 DUP15 SWAP14 DUP15 MSTORE DUP14 PUSH2 0x160 SWAP1 DUP2 PUSH1 0x20 DUP3 ADD MSTORE ADD SWAP1 PUSH2 0x2591 JUMP JUMPDEST SWAP4 PUSH1 0x40 DUP14 ADD MSTORE PUSH1 0x60 DUP13 ADD MSTORE PUSH1 0x80 DUP12 ADD MSTORE DUP10 DUP3 SUB PUSH1 0xA0 DUP12 ADD MSTORE PUSH2 0x2591 JUMP JUMPDEST SWAP5 PUSH1 0xC0 DUP9 ADD MSTORE ISZERO ISZERO PUSH1 0xE0 DUP8 ADD MSTORE PUSH2 0x100 DUP7 ADD MSTORE PUSH2 0x120 DUP6 ADD MSTORE DUP4 DUP3 SUB PUSH2 0x140 DUP6 ADD MSTORE PUSH2 0x2591 JUMP JUMPDEST CALLVALUE PUSH2 0x2A0 JUMPI PUSH1 0x0 CALLDATASIZE PUSH1 0x3 NOT ADD SLT PUSH2 0x2A0 JUMPI PUSH2 0xF1D PUSH2 0x26E9 JUMP JUMPDEST PUSH1 0x1 DUP1 SLOAD PUSH1 0x1 PUSH1 0x1 PUSH1 0xA0 SHL SUB NOT DUP2 AND SWAP1 SWAP2 SSTORE PUSH1 0x0 SWAP1 PUSH1 0x1 PUSH1 0x1 PUSH1 0xA0 SHL SUB AND PUSH32 0x8BE0079C531659141344CD1FD0A4F28419497F9722A3DAAFE3B4186F6B6457E0 DUP3 DUP1 LOG3 STOP JUMPDEST CALLVALUE PUSH2 0x2A0 JUMPI PUSH1 0x40 CALLDATASIZE PUSH1 0x3 NOT ADD SLT PUSH2 0x2A0 JUMPI PUSH1 0x1 PUSH1 0x1 PUSH1 0x40 SHL SUB PUSH1 0x4 CALLDATALOAD PUSH1 0x24 CALLDATALOAD DUP3 DUP2 GT PUSH2 0x2A0 JUMPI PUSH2 0xF95 SWAP1 CALLDATASIZE SWAP1 PUSH1 0x4 ADD PUSH2 0x250D JUMP JUMPDEST DUP2 PUSH1 0x0 MSTORE PUSH1 0x20 SWAP3 PUSH1 0x7 DUP5 MSTORE PUSH1 0x40 PUSH1 0x0 KECCAK256 SWAP1 PUSH1 0x1 DUP1 PUSH1 0xA0 SHL SUB SWAP2 PUSH2 0xFC9 PUSH1 0x1 SWAP4 DUP1 DUP6 DUP5 ADD SLOAD AND CALLER EQ SWAP1 DUP2 ISZERO PUSH2 0x1227 JUMPI POP PUSH2 0x285C JUMP JUMPDEST PUSH1 0xFF PUSH1 0x7 DUP3 ADD SLOAD AND PUSH1 0x6 DUP2 LT ISZERO PUSH2 0x253 JUMPI PUSH1 0x3 PUSH2 0xFE6 SWAP2 EQ PUSH2 0x2899 JUMP JUMPDEST PUSH1 0xA DUP2 ADD DUP1 SLOAD PUSH1 0xFF DUP2 AND PUSH2 0x11EF JUMPI PUSH2 0x1005 PUSH1 0x6 DUP5 ADD SLOAD PUSH1 0x3 SLOAD SWAP1 PUSH2 0x27E7 JUMP JUMPDEST TIMESTAMP GT PUSH2 0x11B2 JUMPI PUSH2 0x100 PUSH1 0x1 PUSH1 0xA8 SHL SUB NOT DUP6 AND PUSH1 0x1 PUSH1 0x1 PUSH1 0xA8 SHL SUB NOT SWAP1 SWAP2 AND OR CALLER PUSH1 0x8 SHL PUSH2 0x100 PUSH1 0x1 PUSH1 0xA8 SHL SUB AND OR SWAP1 SSTORE PUSH1 0xB ADD SWAP2 DUP4 MLOAD SWAP2 DUP3 GT PUSH2 0x119C JUMPI PUSH2 0x104C DUP4 SLOAD PUSH2 0x25D1 JUMP JUMPDEST PUSH1 0x1F DUP2 GT PUSH2 0x1153 JUMPI JUMPDEST POP DUP6 PUSH1 0x1F DUP4 GT PUSH1 0x1 EQ PUSH2 0x10C9 JUMPI SWAP2 DUP1 DUP1 PUSH2 0x10B9 SWAP6 SWAP4 PUSH32 0x1B84372106D77C6DAEA0DDA35BBC0229D10A83F58EC899092884925193682341 SWAP8 SWAP6 PUSH1 0x0 SWAP4 PUSH2 0x10BE JUMPI JUMPDEST POP SHL SWAP2 PUSH1 0x0 NOT SWAP1 PUSH1 0x3 SHL SHR NOT AND OR SWAP1 SSTORE JUMPDEST PUSH1 0x40 MLOAD SWAP2 DUP3 SWAP2 DUP7 DUP4 MSTORE CALLER SWAP7 DUP4 ADD SWAP1 PUSH2 0x2591 JUMP JUMPDEST SUB SWAP1 LOG3 STOP JUMPDEST DUP7 ADD MLOAD SWAP3 POP DUP11 PUSH2 0x1095 JUMP JUMPDEST PUSH1 0x1F SWAP3 SWAP2 SWAP3 NOT DUP3 AND SWAP1 DUP5 PUSH1 0x0 MSTORE DUP8 PUSH1 0x0 KECCAK256 SWAP2 PUSH1 0x0 JUMPDEST DUP10 DUP3 DUP3 LT PUSH2 0x113F JUMPI POP POP SWAP2 DUP4 SWAP2 PUSH2 0x10B9 SWAP7 SWAP5 PUSH32 0x1B84372106D77C6DAEA0DDA35BBC0229D10A83F58EC899092884925193682341 SWAP9 SWAP7 SWAP5 LT PUSH2 0x1126 JUMPI JUMPDEST POP POP DUP2 SHL ADD SWAP1 SSTORE PUSH2 0x10A6 JUMP JUMPDEST DUP6 ADD MLOAD PUSH1 0x0 NOT PUSH1 0xF8 DUP5 PUSH1 0x3 SHL AND SHR NOT AND SWAP1 SSTORE DUP9 DUP1 PUSH2 0x111A JUMP JUMPDEST DUP9 DUP5 ADD MLOAD DUP6 SSTORE SWAP4 DUP7 ADD SWAP4 SWAP3 DUP4 ADD SWAP3 ADD PUSH2 0x10DE JUMP JUMPDEST DUP4 PUSH1 0x0 MSTORE DUP7 PUSH1 0x0 KECCAK256 PUSH1 0x1F DUP5 ADD PUSH1 0x5 SHR DUP2 ADD SWAP2 DUP9 DUP6 LT PUSH2 0x1192 JUMPI JUMPDEST PUSH1 0x1F ADD PUSH1 0x5 SHR ADD SWAP1 DUP3 SWAP1 JUMPDEST DUP3 DUP2 LT PUSH2 0x1186 JUMPI POP POP PUSH2 0x1055 JUMP JUMPDEST PUSH1 0x0 DUP2 SSTORE ADD DUP3 SWAP1 PUSH2 0x1178 JUMP JUMPDEST SWAP1 SWAP2 POP DUP2 SWAP1 PUSH2 0x116D JUMP JUMPDEST PUSH4 0x4E487B71 PUSH1 0xE0 SHL PUSH1 0x0 MSTORE PUSH1 0x41 PUSH1 0x4 MSTORE PUSH1 0x24 PUSH1 0x0 REVERT JUMPDEST PUSH1 0x40 MLOAD PUSH3 0x461BCD PUSH1 0xE5 SHL DUP2 MSTORE PUSH1 0x4 DUP2 ADD DUP10 SWAP1 MSTORE PUSH1 0x15 PUSH1 0x24 DUP3 ADD MSTORE PUSH21 0x111A5CDC1D5D19481DDA5B991BDDC81C185CDCD959 PUSH1 0x5A SHL PUSH1 0x44 DUP3 ADD MSTORE PUSH1 0x64 SWAP1 REVERT JUMPDEST PUSH1 0x40 MLOAD PUSH3 0x461BCD PUSH1 0xE5 SHL DUP2 MSTORE PUSH1 0x4 DUP2 ADD DUP10 SWAP1 MSTORE PUSH1 0x10 PUSH1 0x24 DUP3 ADD MSTORE PUSH16 0x105B1C9958591E48191A5CDC1D5D1959 PUSH1 0x82 SHL PUSH1 0x44 DUP3 ADD MSTORE PUSH1 0x64 SWAP1 REVERT JUMPDEST PUSH1 0x2 DUP5 ADD SLOAD AND CALLER EQ SWAP1 POP DUP9 PUSH2 0x36D JUMP JUMPDEST CALLVALUE PUSH2 0x2A0 JUMPI PUSH1 0x0 CALLDATASIZE PUSH1 0x3 NOT ADD SLT PUSH2 0x2A0 JUMPI PUSH1 0x20 PUSH1 0x40 MLOAD PUSH1 0xFA DUP2 MSTORE RETURN JUMPDEST CALLVALUE PUSH2 0x2A0 JUMPI PUSH1 0x20 CALLDATASIZE PUSH1 0x3 NOT ADD SLT PUSH2 0x2A0 JUMPI PUSH1 0x60 PUSH2 0x140 PUSH1 0x40 MLOAD PUSH2 0x1275 DUP2 PUSH2 0x24D0 JUMP JUMPDEST PUSH1 0x0 DUP2 MSTORE DUP3 PUSH1 0x20 DUP3 ADD MSTORE PUSH1 0x0 PUSH1 0x40 DUP3 ADD MSTORE PUSH1 0x0 DUP4 DUP3 ADD MSTORE PUSH1 0x0 PUSH1 0x80 DUP3 ADD MSTORE DUP3 PUSH1 0xA0 DUP3 ADD MSTORE PUSH1 0x0 PUSH1 0xC0 DUP3 ADD MSTORE PUSH1 0x0 PUSH1 0xE0 DUP3 ADD MSTORE PUSH1 0x0 PUSH2 0x100 DUP3 ADD MSTORE PUSH1 0x0 PUSH2 0x120 DUP3 ADD MSTORE ADD MSTORE PUSH1 0x4 CALLDATALOAD PUSH1 0x0 MSTORE PUSH1 0x6 PUSH1 0x20 MSTORE PUSH2 0x5A1 PUSH1 0x40 PUSH1 0x0 KECCAK256 PUSH1 0xA PUSH2 0x137A PUSH1 0x40 MLOAD SWAP3 PUSH2 0x12DE DUP5 PUSH2 0x24D0 JUMP JUMPDEST DUP1 SLOAD PUSH1 0x1 PUSH1 0x1 PUSH1 0xA0 SHL SUB AND DUP5 MSTORE PUSH1 0x40 MLOAD PUSH2 0x12FF DUP2 PUSH2 0x90D DUP2 PUSH1 0x1 DUP7 ADD PUSH2 0x260B JUMP JUMPDEST PUSH1 0x20 DUP6 ADD MSTORE PUSH1 0x2 DUP2 ADD SLOAD PUSH1 0x40 DUP6 ADD MSTORE PUSH1 0x3 DUP2 ADD SLOAD PUSH1 0x60 DUP6 ADD MSTORE PUSH1 0x4 DUP2 ADD SLOAD PUSH1 0x80 DUP6 ADD MSTORE PUSH1 0x40 MLOAD PUSH2 0x1336 DUP2 PUSH2 0x90D DUP2 PUSH1 0x5 DUP7 ADD PUSH2 0x260B JUMP JUMPDEST PUSH1 0xA0 DUP6 ADD MSTORE PUSH1 0x6 DUP2 ADD SLOAD PUSH1 0xC0 DUP6 ADD MSTORE PUSH1 0xFF PUSH1 0x7 DUP3 ADD SLOAD AND ISZERO ISZERO PUSH1 0xE0 DUP6 ADD MSTORE PUSH1 0x8 DUP2 ADD SLOAD PUSH2 0x100 DUP6 ADD MSTORE PUSH1 0x9 DUP2 ADD SLOAD PUSH2 0x120 DUP6 ADD MSTORE PUSH2 0x90D PUSH1 0x40 MLOAD DUP1 SWAP5 DUP2 SWAP4 ADD PUSH2 0x260B JUMP JUMPDEST PUSH2 0x140 DUP3 ADD MSTORE PUSH1 0x40 MLOAD SWAP2 DUP3 SWAP2 PUSH1 0x20 DUP4 MSTORE PUSH1 0x1 DUP1 PUSH1 0xA0 SHL SUB DUP2 MLOAD AND PUSH1 0x20 DUP5 ADD MSTORE PUSH1 0x20 DUP2 ADD MLOAD PUSH2 0x13B6 PUSH2 0x160 SWAP2 DUP3 PUSH1 0x40 DUP8 ADD MSTORE PUSH2 0x180 DUP7 ADD SWAP1 PUSH2 0x2591 JUMP JUMPDEST SWAP1 PUSH1 0x40 DUP4 ADD MLOAD PUSH1 0x60 DUP7 ADD MSTORE PUSH1 0x60 DUP4 ADD MLOAD PUSH1 0x80 DUP7 ADD MSTORE PUSH1 0x80 DUP4 ADD MLOAD PUSH1 0xA0 DUP7 ADD MSTORE PUSH2 0x140 PUSH2 0x13F4 PUSH1 0xA0 DUP6 ADD MLOAD SWAP4 PUSH1 0x1F NOT SWAP5 DUP6 DUP10 DUP4 SUB ADD PUSH1 0xC0 DUP11 ADD MSTORE PUSH2 0x2591 JUMP JUMPDEST SWAP4 PUSH1 0xC0 DUP2 ADD MLOAD PUSH1 0xE0 DUP9 ADD MSTORE PUSH1 0xE0 DUP2 ADD MLOAD ISZERO ISZERO PUSH2 0x100 DUP9 ADD MSTORE PUSH2 0x100 DUP2 ADD MLOAD PUSH2 0x120 DUP9 ADD MSTORE PUSH2 0x120 DUP2 ADD MLOAD DUP3 DUP9 ADD MSTORE ADD MLOAD SWAP2 DUP6 DUP5 SUB ADD SWAP1 DUP6 ADD MSTORE PUSH2 0x2591 JUMP JUMPDEST CALLVALUE PUSH2 0x2A0 JUMPI PUSH1 0xE0 CALLDATASIZE PUSH1 0x3 NOT ADD SLT PUSH2 0x2A0 JUMPI PUSH1 0x4 CALLDATALOAD PUSH1 0x1 PUSH1 0x1 PUSH1 0x40 SHL SUB DUP2 GT PUSH2 0x2A0 JUMPI PUSH2 0x1462 SWAP1 CALLDATASIZE SWAP1 PUSH1 0x4 ADD PUSH2 0x250D JUMP JUMPDEST PUSH1 0x84 CALLDATALOAD PUSH1 0x1 PUSH1 0x1 PUSH1 0x40 SHL SUB DUP2 GT PUSH2 0x2A0 JUMPI PUSH2 0x1481 SWAP1 CALLDATASIZE SWAP1 PUSH1 0x4 ADD PUSH2 0x250D JUMP JUMPDEST SWAP1 PUSH1 0xC4 CALLDATALOAD PUSH1 0x1 PUSH1 0x1 PUSH1 0x40 SHL SUB DUP2 GT PUSH2 0x2A0 JUMPI PUSH2 0x14A1 SWAP1 CALLDATASIZE SWAP1 PUSH1 0x4 ADD PUSH2 0x250D JUMP JUMPDEST PUSH2 0x14AE PUSH1 0xA4 CALLDATALOAD ISZERO ISZERO PUSH2 0x2715 JUMP JUMPDEST PUSH1 0x24 CALLDATALOAD ISZERO PUSH2 0x199D JUMPI PUSH1 0x44 CALLDATALOAD ISZERO PUSH2 0x1958 JUMPI PUSH1 0x4 SLOAD SWAP3 PUSH2 0x14CB DUP5 PUSH2 0x2761 JUMP JUMPDEST PUSH1 0x4 SSTORE PUSH1 0x40 MLOAD SWAP3 PUSH2 0x14DB DUP5 PUSH2 0x24D0 JUMP JUMPDEST CALLER DUP5 MSTORE PUSH1 0x20 DUP5 ADD MSTORE PUSH1 0x24 CALLDATALOAD PUSH1 0x40 DUP5 ADD MSTORE PUSH1 0x44 CALLDATALOAD PUSH1 0x60 DUP5 ADD MSTORE PUSH1 0x64 CALLDATALOAD PUSH1 0x80 DUP5 ADD MSTORE PUSH1 0xA0 DUP4 ADD MSTORE PUSH1 0xA4 CALLDATALOAD PUSH1 0xC0 DUP4 ADD MSTORE PUSH1 0x1 PUSH1 0xE0 DUP4 ADD MSTORE PUSH1 0x0 PUSH2 0x100 DUP4 ADD MSTORE PUSH1 0x0 PUSH2 0x120 DUP4 ADD MSTORE PUSH2 0x140 DUP3 ADD MSTORE DUP2 PUSH1 0x0 MSTORE PUSH1 0x6 PUSH1 0x20 MSTORE PUSH1 0x40 PUSH1 0x0 KECCAK256 SWAP2 PUSH1 0x1 DUP1 PUSH1 0xA0 SHL SUB DUP3 MLOAD AND PUSH1 0x1 PUSH1 0x1 PUSH1 0x60 SHL SUB PUSH1 0xA0 SHL DUP5 SLOAD AND OR DUP4 SSTORE PUSH1 0x20 DUP3 ADD MLOAD SWAP3 DUP4 MLOAD PUSH1 0x1 PUSH1 0x1 PUSH1 0x40 SHL SUB DUP2 GT PUSH2 0x119C JUMPI PUSH2 0x1572 PUSH1 0x1 DUP4 ADD SLOAD PUSH2 0x25D1 JUMP JUMPDEST PUSH1 0x1F DUP2 GT PUSH2 0x1911 JUMPI JUMPDEST POP PUSH1 0x20 PUSH1 0x1F DUP3 GT PUSH1 0x1 EQ PUSH2 0x18A2 JUMPI DUP2 SWAP3 SWAP4 SWAP5 SWAP6 PUSH1 0x0 SWAP3 PUSH2 0x1897 JUMPI JUMPDEST POP POP DUP2 PUSH1 0x1 SHL SWAP2 PUSH1 0x0 NOT SWAP1 PUSH1 0x3 SHL SHR NOT AND OR PUSH1 0x1 DUP3 ADD SSTORE JUMPDEST PUSH1 0x40 DUP4 ADD MLOAD PUSH1 0x2 DUP3 ADD SSTORE PUSH1 0x60 DUP4 ADD MLOAD PUSH1 0x3 DUP3 ADD SSTORE PUSH1 0x80 DUP4 ADD MLOAD PUSH1 0x4 DUP3 ADD SSTORE PUSH1 0xA0 DUP4 ADD MLOAD DUP1 MLOAD SWAP1 PUSH1 0x1 PUSH1 0x1 PUSH1 0x40 SHL SUB DUP3 GT PUSH2 0x119C JUMPI PUSH2 0x15EF PUSH1 0x5 DUP5 ADD SLOAD PUSH2 0x25D1 JUMP JUMPDEST PUSH1 0x1F DUP2 GT PUSH2 0x1850 JUMPI JUMPDEST POP PUSH1 0x20 SWAP1 PUSH1 0x1F DUP4 GT PUSH1 0x1 EQ PUSH2 0x17DA JUMPI SWAP2 DUP1 PUSH2 0x140 SWAP5 SWAP3 PUSH1 0xA SWAP5 PUSH1 0x0 SWAP3 PUSH2 0x17CF JUMPI JUMPDEST POP POP DUP2 PUSH1 0x1 SHL SWAP2 PUSH1 0x0 NOT SWAP1 PUSH1 0x3 SHL SHR NOT AND OR PUSH1 0x5 DUP3 ADD SSTORE JUMPDEST PUSH1 0xC0 DUP6 ADD MLOAD PUSH1 0x6 DUP3 ADD SSTORE PUSH2 0x165A PUSH1 0xE0 DUP7 ADD MLOAD ISZERO ISZERO PUSH1 0x7 DUP4 ADD SWAP1 PUSH1 0xFF DUP1 NOT DUP4 SLOAD AND SWAP2 ISZERO ISZERO AND OR SWAP1 SSTORE JUMP JUMPDEST PUSH2 0x100 DUP6 ADD MLOAD PUSH1 0x8 DUP3 ADD SSTORE PUSH2 0x120 DUP6 ADD MLOAD PUSH1 0x9 DUP3 ADD SSTORE ADD SWAP3 ADD MLOAD SWAP1 DUP2 MLOAD SWAP3 PUSH1 0x1 PUSH1 0x1 PUSH1 0x40 SHL SUB DUP5 GT PUSH2 0x119C JUMPI PUSH2 0x1690 DUP2 SLOAD PUSH2 0x25D1 JUMP JUMPDEST SWAP4 PUSH1 0x1F DUP6 GT PUSH2 0x1787 JUMPI JUMPDEST PUSH1 0x20 SWAP5 POP DUP5 SWAP4 PUSH1 0x1F DUP3 GT PUSH1 0x1 EQ PUSH2 0x1724 JUMPI SWAP4 DUP2 SWAP3 SWAP4 SWAP5 PUSH1 0x0 SWAP3 PUSH2 0x1719 JUMPI JUMPDEST POP POP DUP2 PUSH1 0x1 SHL SWAP2 PUSH1 0x0 NOT SWAP1 PUSH1 0x3 SHL SHR NOT AND OR SWAP1 SSTORE JUMPDEST CALLER PUSH1 0x0 MSTORE PUSH1 0x8 DUP3 MSTORE PUSH2 0x16E3 DUP2 PUSH1 0x40 PUSH1 0x0 KECCAK256 PUSH2 0x2770 JUMP JUMPDEST DUP1 PUSH1 0x40 MLOAD PUSH1 0xA4 CALLDATALOAD DUP2 MSTORE PUSH32 0x9AE856703585C6656A94DE0B9FA016AE1DAB239FF224E877E311FA47D796E341 DUP5 CALLER SWAP3 LOG3 PUSH1 0x40 MLOAD SWAP1 DUP2 MSTORE RETURN JUMPDEST ADD MLOAD SWAP1 POP DUP6 DUP1 PUSH2 0x16B8 JUMP JUMPDEST PUSH1 0x1F NOT DUP3 AND SWAP5 DUP4 PUSH1 0x0 MSTORE DUP7 PUSH1 0x0 KECCAK256 SWAP2 PUSH1 0x0 JUMPDEST DUP8 DUP2 LT PUSH2 0x1770 JUMPI POP DUP4 PUSH1 0x1 SWAP6 SWAP7 SWAP8 LT PUSH2 0x1757 JUMPI JUMPDEST POP POP POP DUP2 SHL ADD SWAP1 SSTORE PUSH2 0x16CD JUMP JUMPDEST ADD MLOAD PUSH1 0x0 NOT PUSH1 0xF8 DUP5 PUSH1 0x3 SHL AND SHR NOT AND SWAP1 SSTORE DUP6 DUP1 DUP1 PUSH2 0x174A JUMP JUMPDEST SWAP2 SWAP3 DUP9 PUSH1 0x1 DUP2 SWAP3 DUP7 DUP6 ADD MLOAD DUP2 SSTORE ADD SWAP5 ADD SWAP3 ADD PUSH2 0x1736 JUMP JUMPDEST DUP2 PUSH1 0x0 MSTORE PUSH1 0x20 PUSH1 0x0 KECCAK256 PUSH1 0x1F DUP3 ADD PUSH1 0x5 SHR DUP2 ADD SWAP6 PUSH1 0x20 DUP4 LT PUSH2 0x17C5 JUMPI JUMPDEST PUSH1 0x1F ADD PUSH1 0x5 SHR ADD SWAP5 JUMPDEST DUP6 DUP2 LT PUSH2 0x17B9 JUMPI POP PUSH2 0x169A JUMP JUMPDEST PUSH1 0x0 DUP2 SSTORE PUSH1 0x1 ADD PUSH2 0x17AC JUMP JUMPDEST SWAP1 SWAP6 POP DUP6 SWAP1 PUSH2 0x17A3 JUMP JUMPDEST ADD MLOAD SWAP1 POP DUP8 DUP1 PUSH2 0x1619 JUMP JUMPDEST SWAP1 PUSH1 0x5 DUP5 ADD PUSH1 0x0 MSTORE PUSH1 0x20 PUSH1 0x0 KECCAK256 SWAP2 PUSH1 0x0 JUMPDEST PUSH1 0x1F NOT DUP6 AND DUP2 LT PUSH2 0x1838 JUMPI POP SWAP3 PUSH2 0x140 SWAP5 SWAP3 PUSH1 0x1 SWAP3 PUSH1 0xA SWAP6 DUP4 PUSH1 0x1F NOT DUP2 AND LT PUSH2 0x181F JUMPI JUMPDEST POP POP POP DUP2 SHL ADD PUSH1 0x5 DUP3 ADD SSTORE PUSH2 0x1631 JUMP JUMPDEST ADD MLOAD PUSH1 0x0 NOT PUSH1 0xF8 DUP5 PUSH1 0x3 SHL AND SHR NOT AND SWAP1 SSTORE DUP8 DUP1 DUP1 PUSH2 0x180F JUMP JUMPDEST SWAP2 SWAP3 PUSH1 0x20 PUSH1 0x1 DUP2 SWAP3 DUP7 DUP6 ADD MLOAD DUP2 SSTORE ADD SWAP5 ADD SWAP3 ADD PUSH2 0x17EB JUMP JUMPDEST PUSH1 0x5 DUP5 ADD PUSH1 0x0 MSTORE PUSH1 0x20 PUSH1 0x0 KECCAK256 PUSH1 0x1F DUP5 ADD PUSH1 0x5 SHR DUP2 ADD PUSH1 0x20 DUP6 LT PUSH2 0x1890 JUMPI JUMPDEST PUSH1 0x1F DUP4 ADD PUSH1 0x5 SHR DUP3 ADD DUP2 LT PUSH2 0x1884 JUMPI POP POP PUSH2 0x15F8 JUMP JUMPDEST PUSH1 0x0 DUP2 SSTORE PUSH1 0x1 ADD PUSH2 0x186E JUMP JUMPDEST POP DUP1 PUSH2 0x186E JUMP JUMPDEST ADD MLOAD SWAP1 POP DUP6 DUP1 PUSH2 0x1596 JUMP JUMPDEST PUSH1 0x1 DUP4 ADD PUSH1 0x0 MSTORE PUSH1 0x20 PUSH1 0x0 KECCAK256 SWAP1 PUSH1 0x0 JUMPDEST PUSH1 0x1F NOT DUP5 AND DUP2 LT PUSH2 0x18F9 JUMPI POP PUSH1 0x1 SWAP4 SWAP5 SWAP6 SWAP7 DUP4 PUSH1 0x1F NOT DUP2 AND LT PUSH2 0x18E0 JUMPI JUMPDEST POP POP POP DUP2 SHL ADD PUSH1 0x1 DUP3 ADD SSTORE PUSH2 0x15AE JUMP JUMPDEST ADD MLOAD PUSH1 0x0 NOT PUSH1 0xF8 DUP5 PUSH1 0x3 SHL AND SHR NOT AND SWAP1 SSTORE DUP6 DUP1 DUP1 PUSH2 0x18D0 JUMP JUMPDEST SWAP1 SWAP2 PUSH1 0x20 PUSH1 0x1 DUP2 SWAP3 DUP6 DUP12 ADD MLOAD DUP2 SSTORE ADD SWAP4 ADD SWAP2 ADD PUSH2 0x18B2 JUMP JUMPDEST PUSH1 0x1 DUP4 ADD PUSH1 0x0 MSTORE PUSH1 0x20 PUSH1 0x0 KECCAK256 PUSH1 0x1F DUP4 ADD PUSH1 0x5 SHR DUP2 ADD PUSH1 0x20 DUP5 LT PUSH2 0x1951 JUMPI JUMPDEST PUSH1 0x1F DUP4 ADD PUSH1 0x5 SHR DUP3 ADD DUP2 LT PUSH2 0x1945 JUMPI POP POP PUSH2 0x157B JUMP JUMPDEST PUSH1 0x0 DUP2 SSTORE PUSH1 0x1 ADD PUSH2 0x192F JUMP JUMPDEST POP DUP1 PUSH2 0x192F JUMP JUMPDEST PUSH1 0x40 MLOAD PUSH3 0x461BCD PUSH1 0xE5 SHL DUP2 MSTORE PUSH1 0x20 PUSH1 0x4 DUP3 ADD MSTORE PUSH1 0x1D PUSH1 0x24 DUP3 ADD MSTORE PUSH32 0x4D656D6F7279206D7573742062652067726561746572207468616E2030000000 PUSH1 0x44 DUP3 ADD MSTORE PUSH1 0x64 SWAP1 REVERT JUMPDEST PUSH1 0x64 PUSH1 0x40 MLOAD PUSH3 0x461BCD PUSH1 0xE5 SHL DUP2 MSTORE PUSH1 0x20 PUSH1 0x4 DUP3 ADD MSTORE PUSH1 0x20 PUSH1 0x24 DUP3 ADD MSTORE PUSH32 0x43505520636F726573206D7573742062652067726561746572207468616E2030 PUSH1 0x44 DUP3 ADD MSTORE REVERT JUMPDEST CALLVALUE PUSH2 0x2A0 JUMPI PUSH1 0x40 CALLDATASIZE PUSH1 0x3 NOT ADD SLT PUSH2 0x2A0 JUMPI PUSH1 0x4 CALLDATALOAD PUSH1 0x24 CALLDATALOAD SWAP1 DUP1 PUSH1 0x0 MSTORE PUSH1 0x6 PUSH1 0x20 MSTORE PUSH2 0x1A1A PUSH1 0x1 DUP1 PUSH1 0xA0 SHL SUB PUSH1 0x40 PUSH1 0x0 KECCAK256 SLOAD AND CALLER EQ PUSH2 0x27AA JUMP JUMPDEST PUSH2 0x1A25 DUP3 ISZERO ISZERO PUSH2 0x2715 JUMP JUMPDEST PUSH1 0x0 MSTORE PUSH1 0x6 PUSH1 0x20 MSTORE PUSH1 0x6 PUSH1 0x40 PUSH1 0x0 KECCAK256 ADD SSTORE PUSH1 0x0 DUP1 RETURN JUMPDEST CALLVALUE PUSH2 0x2A0 JUMPI PUSH2 0x7A2 PUSH2 0x1A4C CALLDATASIZE PUSH2 0x2495 JUMP JUMPDEST SWAP1 DUP1 PUSH1 0x0 MSTORE PUSH1 0x6 PUSH1 0x20 MSTORE PUSH2 0x1A6E PUSH1 0x1 DUP1 PUSH1 0xA0 SHL SUB PUSH1 0x40 PUSH1 0x0 KECCAK256 SLOAD AND CALLER EQ PUSH2 0x27AA JUMP JUMPDEST PUSH1 0x0 MSTORE PUSH1 0x6 PUSH1 0x20 MSTORE PUSH1 0x7 PUSH1 0x40 PUSH1 0x0 KECCAK256 ADD SWAP1 PUSH1 0xFF DUP1 NOT DUP4 SLOAD AND SWAP2 ISZERO ISZERO AND OR SWAP1 SSTORE JUMP JUMPDEST CALLVALUE PUSH2 0x2A0 JUMPI PUSH1 0x40 CALLDATASIZE PUSH1 0x3 NOT ADD SLT PUSH2 0x2A0 JUMPI PUSH2 0x1AA8 PUSH2 0x2563 JUMP JUMPDEST PUSH1 0x1 PUSH1 0x1 PUSH1 0xA0 SHL SUB AND PUSH1 0x0 SWAP1 DUP2 MSTORE PUSH1 0x8 PUSH1 0x20 MSTORE PUSH1 0x40 SWAP1 KECCAK256 DUP1 SLOAD PUSH1 0x24 CALLDATALOAD SWAP2 SWAP1 DUP3 LT ISZERO PUSH2 0x2A0 JUMPI PUSH1 0x20 SWAP2 PUSH2 0x7EE SWAP2 PUSH2 0x2579 JUMP JUMPDEST CALLVALUE PUSH2 0x2A0 JUMPI PUSH1 0x80 CALLDATASIZE PUSH1 0x3 NOT ADD SLT PUSH2 0x2A0 JUMPI PUSH1 0x44 CALLDATALOAD PUSH1 0x1 PUSH1 0x1 PUSH1 0x40 SHL SUB DUP2 GT PUSH2 0x2A0 JUMPI PUSH2 0x1B09 SWAP1 CALLDATASIZE SWAP1 PUSH1 0x4 ADD PUSH2 0x250D JUMP JUMPDEST PUSH1 0x64 CALLDATALOAD PUSH1 0x1 PUSH1 0x1 PUSH1 0x40 SHL SUB DUP2 GT PUSH2 0x2A0 JUMPI PUSH2 0x1B28 SWAP1 CALLDATASIZE SWAP1 PUSH1 0x4 ADD PUSH2 0x250D JUMP JUMPDEST PUSH1 0x4 CALLDATALOAD PUSH1 0x0 MSTORE PUSH1 0x6 PUSH1 0x20 MSTORE PUSH1 0xFF PUSH1 0x7 PUSH1 0x40 PUSH1 0x0 KECCAK256 ADD SLOAD AND ISZERO PUSH2 0x21A9 JUMPI PUSH1 0x24 CALLDATALOAD ISZERO PUSH2 0x2164 JUMPI PUSH1 0x4 CALLDATALOAD PUSH1 0x0 MSTORE PUSH1 0x6 PUSH1 0x20 MSTORE PUSH1 0x40 PUSH1 0x0 KECCAK256 SWAP1 PUSH1 0x6 DUP3 ADD SLOAD SWAP1 PUSH1 0x24 CALLDATALOAD DUP3 MUL SWAP2 DUP1 DUP4 DIV PUSH1 0x24 CALLDATALOAD EQ SWAP1 ISZERO OR ISZERO PUSH2 0x407 JUMPI PUSH1 0xFA DUP3 MUL DUP3 DUP2 DIV PUSH1 0xFA EQ DUP4 ISZERO OR ISZERO PUSH2 0x407 JUMPI PUSH2 0x2710 PUSH2 0x1B98 SWAP2 DIV DUP4 PUSH2 0x27E7 JUMP JUMPDEST SWAP4 PUSH1 0x5 SLOAD SWAP4 PUSH2 0x1BA6 DUP6 PUSH2 0x2761 JUMP JUMPDEST PUSH1 0x5 SSTORE SLOAD PUSH1 0x40 MLOAD SWAP4 SWAP1 PUSH1 0x1 PUSH1 0x1 PUSH1 0xA0 SHL SUB AND PUSH2 0x1BC1 DUP6 PUSH2 0x24B4 JUMP JUMPDEST PUSH1 0x4 CALLDATALOAD DUP6 MSTORE CALLER PUSH1 0x20 DUP7 ADD MSTORE PUSH1 0x40 DUP6 ADD MSTORE PUSH1 0x24 CALLDATALOAD PUSH1 0x60 DUP6 ADD MSTORE PUSH1 0x80 DUP5 ADD MSTORE PUSH1 0x0 PUSH1 0xA0 DUP5 ADD MSTORE PUSH1 0x0 PUSH1 0xC0 DUP5 ADD MSTORE PUSH1 0x0 PUSH1 0xE0 DUP5 ADD MSTORE PUSH2 0x100 DUP4 ADD MSTORE PUSH2 0x120 DUP3 ADD MSTORE PUSH1 0x0 PUSH2 0x140 DUP3 ADD MSTORE PUSH1 0x0 PUSH2 0x160 DUP3 ADD MSTORE PUSH1 0x40 MLOAD DUP1 PUSH1 0x20 DUP2 ADD LT PUSH1 0x1 PUSH1 0x1 PUSH1 0x40 SHL SUB PUSH1 0x20 DUP4 ADD GT OR PUSH2 0x119C JUMPI PUSH1 0x20 DUP2 ADD PUSH1 0x40 MSTORE PUSH1 0x0 DUP2 MSTORE PUSH2 0x180 DUP3 ADD MSTORE DUP2 PUSH1 0x0 MSTORE PUSH1 0x7 PUSH1 0x20 MSTORE PUSH1 0x40 PUSH1 0x0 KECCAK256 SWAP1 DUP1 MLOAD DUP3 SSTORE PUSH1 0x1 DUP3 ADD PUSH1 0x1 DUP1 PUSH1 0xA0 SHL SUB PUSH1 0x20 DUP4 ADD MLOAD AND SWAP1 PUSH1 0x1 PUSH1 0x1 PUSH1 0x60 SHL SUB PUSH1 0xA0 SHL SWAP2 DUP3 DUP3 SLOAD AND OR SWAP1 SSTORE PUSH1 0x2 DUP4 ADD SWAP1 PUSH1 0x1 DUP1 PUSH1 0xA0 SHL SUB PUSH1 0x40 DUP5 ADD MLOAD AND SWAP1 DUP3 SLOAD AND OR SWAP1 SSTORE PUSH1 0x60 DUP2 ADD MLOAD PUSH1 0x3 DUP4 ADD SSTORE PUSH1 0x80 DUP2 ADD MLOAD PUSH1 0x4 DUP4 ADD SSTORE PUSH1 0xA0 DUP2 ADD MLOAD PUSH1 0x5 DUP4 ADD SSTORE PUSH1 0xC0 DUP2 ADD MLOAD PUSH1 0x6 DUP4 ADD SSTORE PUSH1 0xE0 DUP2 ADD MLOAD PUSH1 0x6 DUP2 LT ISZERO PUSH2 0x253 JUMPI PUSH1 0xFF DUP1 NOT PUSH1 0x7 DUP6 ADD SLOAD AND SWAP2 AND OR PUSH1 0x7 DUP4 ADD SSTORE PUSH2 0x100 DUP2 ADD MLOAD DUP1 MLOAD SWAP1 PUSH1 0x1 PUSH1 0x1 PUSH1 0x40 SHL SUB DUP3 GT PUSH2 0x119C JUMPI DUP2 SWAP1 PUSH2 0x1CFA PUSH1 0x8 DUP7 ADD SLOAD PUSH2 0x25D1 JUMP JUMPDEST PUSH1 0x1F DUP2 GT PUSH2 0x2111 JUMPI JUMPDEST POP PUSH1 0x20 SWAP1 PUSH1 0x1F DUP4 GT PUSH1 0x1 EQ PUSH2 0x209F JUMPI PUSH1 0x0 SWAP3 PUSH2 0x2094 JUMPI JUMPDEST POP POP DUP2 PUSH1 0x1 SHL SWAP2 PUSH1 0x0 NOT SWAP1 PUSH1 0x3 SHL SHR NOT AND OR PUSH1 0x8 DUP4 ADD SSTORE JUMPDEST PUSH2 0x120 DUP2 ADD MLOAD DUP1 MLOAD SWAP1 PUSH1 0x1 PUSH1 0x1 PUSH1 0x40 SHL SUB DUP3 GT PUSH2 0x119C JUMPI PUSH2 0x1D56 PUSH1 0x9 DUP6 ADD SLOAD PUSH2 0x25D1 JUMP JUMPDEST PUSH1 0x1F DUP2 GT PUSH2 0x204D JUMPI JUMPDEST POP PUSH1 0x20 SWAP1 PUSH1 0x1F DUP4 GT PUSH1 0x1 EQ PUSH2 0x1FD9 JUMPI PUSH2 0x180 SWAP4 SWAP3 SWAP2 PUSH1 0x0 SWAP2 DUP4 PUSH2 0x1FCE JUMPI JUMPDEST POP POP DUP2 PUSH1 0x1 SHL SWAP2 PUSH1 0x0 NOT SWAP1 PUSH1 0x3 SHL SHR NOT AND OR PUSH1 0x9 DUP5 ADD SSTORE JUMPDEST PUSH2 0x1DE1 PUSH1 0xA DUP5 ADD PUSH2 0x1DB9 PUSH2 0x140 DUP5 ADD MLOAD ISZERO ISZERO DUP3 SWAP1 PUSH1 0xFF DUP1 NOT DUP4 SLOAD AND SWAP2 ISZERO ISZERO AND OR SWAP1 SSTORE JUMP JUMPDEST PUSH2 0x160 DUP4 ADD MLOAD DUP2 SLOAD PUSH2 0x100 PUSH1 0x1 PUSH1 0xA8 SHL SUB NOT AND PUSH1 0x8 SWAP2 SWAP1 SWAP2 SHL PUSH2 0x100 PUSH1 0x1 PUSH1 0xA8 SHL SUB AND OR SWAP1 SSTORE JUMP JUMPDEST ADD MLOAD DUP1 MLOAD SWAP1 PUSH1 0x1 PUSH1 0x1 PUSH1 0x40 SHL SUB DUP3 GT PUSH2 0x119C JUMPI PUSH2 0x1E01 PUSH1 0xB DUP5 ADD SLOAD PUSH2 0x25D1 JUMP JUMPDEST PUSH1 0x1F DUP2 GT PUSH2 0x1F87 JUMPI JUMPDEST POP PUSH1 0x20 SWAP1 PUSH1 0x1F DUP4 GT PUSH1 0x1 EQ PUSH2 0x1F19 JUMPI PUSH1 0xB SWAP3 SWAP2 PUSH1 0x0 SWAP2 DUP4 PUSH2 0x1F0E JUMPI JUMPDEST POP POP DUP2 PUSH1 0x1 SHL SWAP2 PUSH1 0x0 NOT SWAP1 PUSH1 0x3 SHL SHR NOT AND OR SWAP2 ADD SSTORE JUMPDEST CALLER PUSH1 0x0 MSTORE PUSH1 0x9 PUSH1 0x20 MSTORE PUSH2 0x1E53 DUP2 PUSH1 0x40 PUSH1 0x0 KECCAK256 PUSH2 0x2770 JUMP JUMPDEST PUSH1 0x2 SLOAD PUSH1 0x40 MLOAD PUSH4 0x23B872DD PUSH1 0xE0 SHL PUSH1 0x20 DUP3 ADD MSTORE CALLER PUSH1 0x24 DUP3 ADD MSTORE ADDRESS PUSH1 0x44 DUP3 ADD MSTORE PUSH1 0x64 DUP1 DUP3 ADD DUP6 SWAP1 MSTORE DUP2 MSTORE PUSH1 0x1 PUSH1 0x1 PUSH1 0xA0 SHL SUB SWAP1 SWAP2 AND SWAP3 SWAP1 PUSH1 0xA0 DUP2 ADD SWAP1 DUP1 DUP3 LT PUSH1 0x1 PUSH1 0x1 PUSH1 0x40 SHL SUB DUP4 GT OR PUSH2 0x119C JUMPI PUSH1 0x20 SWAP5 PUSH2 0x1EAF SWAP3 PUSH1 0x40 MSTORE PUSH2 0x27F4 JUMP JUMPDEST DUP2 PUSH1 0x0 MSTORE PUSH1 0xB DUP4 MSTORE PUSH1 0x40 PUSH1 0x0 KECCAK256 SSTORE PUSH1 0x7 DUP3 MSTORE PUSH1 0x7 PUSH1 0x40 PUSH1 0x0 KECCAK256 ADD PUSH1 0x1 PUSH1 0xFF NOT DUP3 SLOAD AND OR SWAP1 SSTORE PUSH1 0x40 MLOAD PUSH1 0x24 CALLDATALOAD DUP2 MSTORE PUSH1 0x4 CALLDATALOAD SWAP1 DUP3 PUSH32 0x7AEDEAAA47605DAC1FB02ECEA3128D244EEA577D97E042A68813B0DDCDCFA35 DUP6 CALLER SWAP4 LOG4 PUSH1 0x40 MLOAD SWAP1 DUP2 MSTORE RETURN JUMPDEST ADD MLOAD SWAP1 POP DUP7 DUP1 PUSH2 0x1E26 JUMP JUMPDEST SWAP1 PUSH1 0x1F NOT DUP4 AND SWAP2 PUSH1 0xB DUP6 ADD PUSH1 0x0 MSTORE PUSH1 0x20 PUSH1 0x0 KECCAK256 SWAP3 PUSH1 0x0 JUMPDEST DUP2 DUP2 LT PUSH2 0x1F6F JUMPI POP SWAP2 PUSH1 0x1 SWAP4 SWAP2 DUP6 PUSH1 0xB SWAP7 SWAP5 LT PUSH2 0x1F56 JUMPI JUMPDEST POP POP POP DUP2 SHL ADD SWAP2 ADD SSTORE PUSH2 0x1E3C JUMP JUMPDEST ADD MLOAD PUSH1 0x0 NOT PUSH1 0xF8 DUP5 PUSH1 0x3 SHL AND SHR NOT AND SWAP1 SSTORE DUP7 DUP1 DUP1 PUSH2 0x1F48 JUMP JUMPDEST SWAP3 SWAP4 PUSH1 0x20 PUSH1 0x1 DUP2 SWAP3 DUP8 DUP7 ADD MLOAD DUP2 SSTORE ADD SWAP6 ADD SWAP4 ADD PUSH2 0x1F30 JUMP JUMPDEST PUSH1 0xB DUP5 ADD PUSH1 0x0 MSTORE PUSH1 0x20 PUSH1 0x0 KECCAK256 PUSH1 0x1F DUP5 ADD PUSH1 0x5 SHR DUP2 ADD PUSH1 0x20 DUP6 LT PUSH2 0x1FC7 JUMPI JUMPDEST PUSH1 0x1F DUP4 ADD PUSH1 0x5 SHR DUP3 ADD DUP2 LT PUSH2 0x1FBB JUMPI POP POP PUSH2 0x1E0A JUMP JUMPDEST PUSH1 0x0 DUP2 SSTORE PUSH1 0x1 ADD PUSH2 0x1FA5 JUMP JUMPDEST POP DUP1 PUSH2 0x1FA5 JUMP JUMPDEST ADD MLOAD SWAP1 POP DUP8 DUP1 PUSH2 0x1D7D JUMP JUMPDEST SWAP1 PUSH1 0x9 DUP6 ADD PUSH1 0x0 MSTORE PUSH1 0x20 PUSH1 0x0 KECCAK256 SWAP2 PUSH1 0x0 JUMPDEST PUSH1 0x1F NOT DUP6 AND DUP2 LT PUSH2 0x2035 JUMPI POP SWAP2 DUP4 SWAP2 PUSH1 0x1 SWAP4 PUSH2 0x180 SWAP7 SWAP6 PUSH1 0x1F NOT DUP2 AND LT PUSH2 0x201C JUMPI JUMPDEST POP POP POP DUP2 SHL ADD PUSH1 0x9 DUP5 ADD SSTORE PUSH2 0x1D95 JUMP JUMPDEST ADD MLOAD PUSH1 0x0 NOT PUSH1 0xF8 DUP5 PUSH1 0x3 SHL AND SHR NOT AND SWAP1 SSTORE DUP8 DUP1 DUP1 PUSH2 0x200C JUMP JUMPDEST SWAP2 SWAP3 PUSH1 0x20 PUSH1 0x1 DUP2 SWAP3 DUP7 DUP6 ADD MLOAD DUP2 SSTORE ADD SWAP5 ADD SWAP3 ADD PUSH2 0x1FEA JUMP JUMPDEST PUSH1 0x9 DUP6 ADD PUSH1 0x0 MSTORE PUSH1 0x20 PUSH1 0x0 KECCAK256 PUSH1 0x1F DUP5 ADD PUSH1 0x5 SHR DUP2 ADD PUSH1 0x20 DUP6 LT PUSH2 0x208D JUMPI JUMPDEST PUSH1 0x1F DUP4 ADD PUSH1 0x5 SHR DUP3 ADD DUP2 LT PUSH2 0x2081 JUMPI POP POP PUSH2 0x1D5F JUMP JUMPDEST PUSH1 0x0 DUP2 SSTORE PUSH1 0x1 ADD PUSH2 0x206B JUMP JUMPDEST POP DUP1 PUSH2 0x206B JUMP JUMPDEST ADD MLOAD SWAP1 POP DUP7 DUP1 PUSH2 0x1D1A JUMP JUMPDEST SWAP3 POP PUSH1 0x8 DUP6 ADD PUSH1 0x0 MSTORE PUSH1 0x20 PUSH1 0x0 KECCAK256 SWAP1 PUSH1 0x0 SWAP4 JUMPDEST PUSH1 0x1F NOT DUP5 AND DUP6 LT PUSH2 0x20F6 JUMPI PUSH1 0x1 SWAP5 POP DUP4 PUSH1 0x1F NOT DUP2 AND LT PUSH2 0x20DD JUMPI JUMPDEST POP POP POP DUP2 SHL ADD PUSH1 0x8 DUP4 ADD SSTORE PUSH2 0x1D32 JUMP JUMPDEST ADD MLOAD PUSH1 0x0 NOT PUSH1 0xF8 DUP5 PUSH1 0x3 SHL AND SHR NOT AND SWAP1 SSTORE DUP7 DUP1 DUP1 PUSH2 0x20CD JUMP JUMPDEST DUP2 DUP2 ADD MLOAD DUP4 SSTORE PUSH1 0x20 SWAP5 DUP6 ADD SWAP5 PUSH1 0x1 SWAP1 SWAP4 ADD SWAP3 SWAP1 SWAP2 ADD SWAP1 PUSH2 0x20B2 JUMP JUMPDEST SWAP1 SWAP2 POP PUSH1 0x8 DUP6 ADD PUSH1 0x0 MSTORE PUSH1 0x20 PUSH1 0x0 KECCAK256 PUSH1 0x1F DUP5 ADD PUSH1 0x5 SHR DUP2 ADD PUSH1 0x20 DUP6 LT PUSH2 0x215D JUMPI JUMPDEST SWAP1 DUP5 SWAP4 SWAP3 SWAP2 JUMPDEST PUSH1 0x1F DUP4 ADD PUSH1 0x5 SHR DUP3 ADD DUP2 LT PUSH2 0x214E JUMPI POP POP PUSH2 0x1D03 JUMP JUMPDEST PUSH1 0x0 DUP2 SSTORE DUP6 SWAP5 POP PUSH1 0x1 ADD PUSH2 0x2138 JUMP JUMPDEST POP DUP1 PUSH2 0x2132 JUMP JUMPDEST PUSH1 0x40 MLOAD PUSH3 0x461BCD PUSH1 0xE5 SHL DUP2 MSTORE PUSH1 0x20 PUSH1 0x4 DUP3 ADD MSTORE PUSH1 0x1F PUSH1 0x24 DUP3 ADD MSTORE PUSH32 0x4475726174696F6E206D7573742062652067726561746572207468616E203000 PUSH1 0x44 DUP3 ADD MSTORE PUSH1 0x64 SWAP1 REVERT JUMPDEST PUSH1 0x40 MLOAD PUSH3 0x461BCD PUSH1 0xE5 SHL DUP2 MSTORE PUSH1 0x20 PUSH1 0x4 DUP3 ADD MSTORE PUSH1 0x12 PUSH1 0x24 DUP3 ADD MSTORE PUSH18 0x4E6F6465206E6F7420617661696C61626C65 PUSH1 0x70 SHL PUSH1 0x44 DUP3 ADD MSTORE PUSH1 0x64 SWAP1 REVERT JUMPDEST CALLVALUE PUSH2 0x2A0 JUMPI PUSH2 0x21F1 CALLDATASIZE PUSH2 0x2495 JUMP JUMPDEST PUSH2 0x21F9 PUSH2 0x26E9 JUMP JUMPDEST DUP2 PUSH1 0x0 MSTORE PUSH1 0x20 PUSH1 0x7 DUP2 MSTORE PUSH1 0x40 PUSH1 0x0 KECCAK256 SWAP2 PUSH1 0xFF PUSH1 0xA DUP5 ADD SLOAD AND ISZERO PUSH2 0x2323 JUMPI DUP4 PUSH1 0x0 MSTORE PUSH1 0xB DUP3 MSTORE PUSH1 0x40 PUSH1 0x0 KECCAK256 SLOAD PUSH2 0x222F DUP2 ISZERO ISZERO PUSH2 0x28D9 JUMP JUMPDEST PUSH1 0x0 DUP6 DUP2 MSTORE PUSH1 0xB DUP5 MSTORE PUSH1 0x40 DUP2 KECCAK256 SSTORE DUP2 ISZERO PUSH2 0x22DC JUMPI POP PUSH1 0x4 DUP4 ADD SLOAD SWAP3 PUSH1 0xFA DUP5 MUL DUP5 DUP2 DIV PUSH1 0xFA EQ DUP6 ISZERO OR ISZERO PUSH2 0x407 JUMPI PUSH32 0x5A87909BFF68CAAAAF0B3FD9C74EECCC928832F879315E5C6FB7A73612F26C0C SWAP5 PUSH2 0x22B4 SWAP2 PUSH2 0x229F PUSH1 0x1 DUP1 PUSH1 0xA0 SHL SUB SWAP3 DUP4 PUSH1 0x2 SLOAD AND DUP5 PUSH1 0x2 DUP9 ADD SLOAD AND SWAP1 PUSH2 0x2925 JUMP JUMPDEST PUSH2 0x2710 DUP3 PUSH1 0x2 SLOAD AND SWAP2 DIV SWAP2 PUSH1 0x1 SLOAD AND SWAP1 PUSH2 0x2925 JUMP JUMPDEST SLOAD PUSH1 0x0 MSTORE PUSH1 0x6 DUP3 MSTORE PUSH1 0x9 PUSH1 0x40 PUSH1 0x0 KECCAK256 ADD PUSH2 0x22CE DUP2 SLOAD PUSH2 0x2761 JUMP JUMPDEST SWAP1 SSTORE JUMPDEST PUSH1 0x40 MLOAD SWAP1 ISZERO ISZERO DUP2 MSTORE LOG2 STOP JUMPDEST PUSH1 0x2 SLOAD PUSH1 0x1 SWAP1 SWAP5 ADD SLOAD PUSH32 0x5A87909BFF68CAAAAF0B3FD9C74EECCC928832F879315E5C6FB7A73612F26C0C SWAP5 PUSH2 0x231E SWAP3 SWAP2 PUSH1 0x1 PUSH1 0x1 PUSH1 0xA0 SHL SUB SWAP1 DUP2 AND SWAP2 AND PUSH2 0x2925 JUMP JUMPDEST PUSH2 0x22D1 JUMP JUMPDEST PUSH1 0x40 MLOAD PUSH3 0x461BCD PUSH1 0xE5 SHL DUP2 MSTORE PUSH1 0x4 DUP2 ADD DUP4 SWAP1 MSTORE PUSH1 0xA PUSH1 0x24 DUP3 ADD MSTORE PUSH10 0x4E6F2064697370757465 PUSH1 0xB0 SHL PUSH1 0x44 DUP3 ADD MSTORE PUSH1 0x64 SWAP1 REVERT JUMPDEST CALLVALUE PUSH2 0x2A0 JUMPI PUSH1 0x0 CALLDATASIZE PUSH1 0x3 NOT ADD SLT PUSH2 0x2A0 JUMPI PUSH1 0x2 SLOAD PUSH1 0x40 MLOAD PUSH1 0x1 PUSH1 0x1 PUSH1 0xA0 SHL SUB SWAP1 SWAP2 AND DUP2 MSTORE PUSH1 0x20 SWAP1 RETURN JUMPDEST CALLVALUE PUSH2 0x2A0 JUMPI PUSH1 0x20 CALLDATASIZE PUSH1 0x3 NOT ADD SLT PUSH2 0x2A0 JUMPI PUSH1 0x4 CALLDATALOAD PUSH1 0x0 DUP2 DUP2 MSTORE PUSH1 0x7 PUSH1 0x20 MSTORE PUSH1 0x40 SWAP1 KECCAK256 PUSH1 0x1 DUP2 ADD DUP1 SLOAD PUSH1 0x1 PUSH1 0x1 PUSH1 0xA0 SHL SUB SWAP3 SWAP1 DUP4 AND CALLER SUB PUSH2 0x2437 JUMPI PUSH1 0x7 ADD SWAP3 DUP4 SLOAD SWAP4 PUSH1 0xFF DUP6 AND PUSH1 0x6 DUP2 LT ISZERO PUSH2 0x253 JUMPI PUSH1 0x1 SUB PUSH2 0x2402 JUMPI PUSH1 0x4 PUSH2 0x7A2 SWAP6 PUSH1 0xFF NOT AND OR SWAP1 SSTORE PUSH1 0x0 MSTORE PUSH1 0xB PUSH1 0x20 MSTORE PUSH1 0x40 PUSH1 0x0 KECCAK256 SWAP2 PUSH1 0x0 DUP4 SLOAD SWAP4 SSTORE DUP1 PUSH1 0x2 SLOAD AND SWAP2 SLOAD AND SWAP1 PUSH2 0x2925 JUMP JUMPDEST PUSH1 0x40 MLOAD PUSH3 0x461BCD PUSH1 0xE5 SHL DUP2 MSTORE PUSH1 0x20 PUSH1 0x4 DUP3 ADD MSTORE PUSH1 0xD PUSH1 0x24 DUP3 ADD MSTORE PUSH13 0x10D85B9B9BDD0818D85B98D95B PUSH1 0x9A SHL PUSH1 0x44 DUP3 ADD MSTORE PUSH1 0x64 SWAP1 REVERT JUMPDEST PUSH1 0x40 MLOAD PUSH3 0x461BCD PUSH1 0xE5 SHL DUP2 MSTORE PUSH1 0x20 PUSH1 0x4 DUP3 ADD MSTORE PUSH1 0xE PUSH1 0x24 DUP3 ADD MSTORE PUSH14 0x139BDD081A9BD88818DB1A595B9D PUSH1 0x92 SHL PUSH1 0x44 DUP3 ADD MSTORE PUSH1 0x64 SWAP1 REVERT JUMPDEST CALLVALUE PUSH2 0x2A0 JUMPI PUSH1 0x20 CALLDATASIZE PUSH1 0x3 NOT ADD SLT PUSH2 0x2A0 JUMPI PUSH1 0x20 SWAP1 PUSH1 0x4 CALLDATALOAD PUSH1 0x0 MSTORE PUSH1 0xB DUP3 MSTORE PUSH1 0x40 PUSH1 0x0 KECCAK256 SLOAD DUP2 MSTORE RETURN JUMPDEST PUSH1 0x40 SWAP1 PUSH1 0x3 NOT ADD SLT PUSH2 0x2A0 JUMPI PUSH1 0x4 CALLDATALOAD SWAP1 PUSH1 0x24 CALLDATALOAD DUP1 ISZERO ISZERO DUP2 SUB PUSH2 0x2A0 JUMPI SWAP1 JUMP JUMPDEST PUSH2 0x1A0 DUP2 ADD SWAP1 DUP2 LT PUSH1 0x1 PUSH1 0x1 PUSH1 0x40 SHL SUB DUP3 GT OR PUSH2 0x119C JUMPI PUSH1 0x40 MSTORE JUMP JUMPDEST PUSH2 0x160 DUP2 ADD SWAP1 DUP2 LT PUSH1 0x1 PUSH1 0x1 PUSH1 0x40 SHL SUB DUP3 GT OR PUSH2 0x119C JUMPI PUSH1 0x40 MSTORE JUMP JUMPDEST SWAP1 PUSH1 0x1F DUP1 NOT SWAP2 ADD AND DUP2 ADD SWAP1 DUP2 LT PUSH1 0x1 PUSH1 0x1 PUSH1 0x40 SHL SUB DUP3 GT OR PUSH2 0x119C JUMPI PUSH1 0x40 MSTORE JUMP JUMPDEST DUP2 PUSH1 0x1F DUP3 ADD SLT ISZERO PUSH2 0x2A0 JUMPI DUP1 CALLDATALOAD SWAP1 PUSH1 0x1 PUSH1 0x1 PUSH1 0x40 SHL SUB DUP3 GT PUSH2 0x119C JUMPI PUSH1 0x40 MLOAD SWAP3 PUSH2 0x2541 PUSH1 0x1F DUP5 ADD PUSH1 0x1F NOT AND PUSH1 0x20 ADD DUP6 PUSH2 0x24EC JUMP JUMPDEST DUP3 DUP5 MSTORE PUSH1 0x20 DUP4 DUP4 ADD ADD GT PUSH2 0x2A0 JUMPI DUP2 PUSH1 0x0 SWAP3 PUSH1 0x20 DUP1 SWAP4 ADD DUP4 DUP7 ADD CALLDATACOPY DUP4 ADD ADD MSTORE SWAP1 JUMP JUMPDEST PUSH1 0x4 CALLDATALOAD SWAP1 PUSH1 0x1 PUSH1 0x1 PUSH1 0xA0 SHL SUB DUP3 AND DUP3 SUB PUSH2 0x2A0 JUMPI JUMP JUMPDEST DUP1 SLOAD DUP3 LT ISZERO PUSH2 0x8DF JUMPI PUSH1 0x0 MSTORE PUSH1 0x20 PUSH1 0x0 KECCAK256 ADD SWAP1 PUSH1 0x0 SWAP1 JUMP JUMPDEST SWAP2 SWAP1 DUP3 MLOAD SWAP3 DUP4 DUP3 MSTORE PUSH1 0x0 JUMPDEST DUP5 DUP2 LT PUSH2 0x25BD JUMPI POP POP DUP3 PUSH1 0x0 PUSH1 0x20 DUP1 SWAP5 SWAP6 DUP5 ADD ADD MSTORE PUSH1 0x1F DUP1 NOT SWAP2 ADD AND ADD ADD SWAP1 JUMP JUMPDEST PUSH1 0x20 DUP2 DUP4 ADD DUP2 ADD MLOAD DUP5 DUP4 ADD DUP3 ADD MSTORE ADD PUSH2 0x259C JUMP JUMPDEST SWAP1 PUSH1 0x1 DUP3 DUP2 SHR SWAP3 AND DUP1 ISZERO PUSH2 0x2601 JUMPI JUMPDEST PUSH1 0x20 DUP4 LT EQ PUSH2 0x25EB JUMPI JUMP JUMPDEST PUSH4 0x4E487B71 PUSH1 0xE0 SHL PUSH1 0x0 MSTORE PUSH1 0x22 PUSH1 0x4 MSTORE PUSH1 0x24 PUSH1 0x0 REVERT JUMPDEST SWAP2 PUSH1 0x7F AND SWAP2 PUSH2 0x25E0 JUMP JUMPDEST SWAP1 PUSH1 0x0 SWAP3 SWAP2 DUP1 SLOAD SWAP2 PUSH2 0x261C DUP4 PUSH2 0x25D1 JUMP JUMPDEST SWAP2 DUP3 DUP3 MSTORE PUSH1 0x1 SWAP4 DUP5 DUP2 AND SWAP1 DUP2 PUSH1 0x0 EQ PUSH2 0x267E JUMPI POP PUSH1 0x1 EQ PUSH2 0x263E JUMPI JUMPDEST POP POP POP POP JUMP JUMPDEST SWAP1 SWAP2 SWAP4 SWAP5 POP PUSH1 0x0 MSTORE PUSH1 0x20 SWAP3 DUP4 PUSH1 0x0 KECCAK256 SWAP3 DUP5 PUSH1 0x0 SWAP5 JUMPDEST DUP4 DUP7 LT PUSH2 0x266A JUMPI POP POP POP POP ADD ADD SWAP1 CODESIZE DUP1 DUP1 DUP1 PUSH2 0x2638 JUMP JUMPDEST DUP1 SLOAD DUP6 DUP8 ADD DUP4 ADD MSTORE SWAP5 ADD SWAP4 DUP6 SWAP1 DUP3 ADD PUSH2 0x2653 JUMP JUMPDEST SWAP3 SWAP5 POP POP POP PUSH1 0x20 SWAP4 SWAP5 POP PUSH1 0xFF NOT AND DUP4 DUP4 ADD MSTORE ISZERO ISZERO PUSH1 0x5 SHL ADD ADD SWAP1 CODESIZE DUP1 DUP1 DUP1 PUSH2 0x2638 JUMP JUMPDEST SWAP1 PUSH1 0x6 DUP3 LT ISZERO PUSH2 0x253 JUMPI MSTORE JUMP JUMPDEST PUSH1 0x20 SWAP1 DUP2 PUSH1 0x40 DUP2 DUP4 ADD SWAP3 DUP3 DUP2 MSTORE DUP6 MLOAD DUP1 SWAP5 MSTORE ADD SWAP4 ADD SWAP2 PUSH1 0x0 JUMPDEST DUP3 DUP2 LT PUSH2 0x26D5 JUMPI POP POP POP POP SWAP1 JUMP JUMPDEST DUP4 MLOAD DUP6 MSTORE SWAP4 DUP2 ADD SWAP4 SWAP3 DUP2 ADD SWAP3 PUSH1 0x1 ADD PUSH2 0x26C7 JUMP JUMPDEST PUSH1 0x1 SLOAD PUSH1 0x1 PUSH1 0x1 PUSH1 0xA0 SHL SUB AND CALLER SUB PUSH2 0x26FD JUMPI JUMP JUMPDEST PUSH1 0x40 MLOAD PUSH4 0x118CDAA7 PUSH1 0xE0 SHL DUP2 MSTORE CALLER PUSH1 0x4 DUP3 ADD MSTORE PUSH1 0x24 SWAP1 REVERT JUMPDEST ISZERO PUSH2 0x271C JUMPI JUMP JUMPDEST PUSH1 0x40 MLOAD PUSH3 0x461BCD PUSH1 0xE5 SHL DUP2 MSTORE PUSH1 0x20 PUSH1 0x4 DUP3 ADD MSTORE PUSH1 0x1C PUSH1 0x24 DUP3 ADD MSTORE PUSH32 0x5072696365206D7573742062652067726561746572207468616E203000000000 PUSH1 0x44 DUP3 ADD MSTORE PUSH1 0x64 SWAP1 REVERT JUMPDEST PUSH1 0x0 NOT DUP2 EQ PUSH2 0x407 JUMPI PUSH1 0x1 ADD SWAP1 JUMP JUMPDEST DUP1 SLOAD PUSH9 0x10000000000000000 DUP2 LT ISZERO PUSH2 0x119C JUMPI PUSH2 0x2792 SWAP2 PUSH1 0x1 DUP3 ADD DUP2 SSTORE PUSH2 0x2579 JUMP JUMPDEST DUP2 SWAP3 SWAP2 SLOAD SWAP1 PUSH1 0x3 SHL SWAP2 DUP3 SHL SWAP2 PUSH1 0x0 NOT SWAP1 SHL NOT AND OR SWAP1 SSTORE JUMP JUMPDEST ISZERO PUSH2 0x27B1 JUMPI JUMP JUMPDEST PUSH1 0x40 MLOAD PUSH3 0x461BCD PUSH1 0xE5 SHL DUP2 MSTORE PUSH1 0x20 PUSH1 0x4 DUP3 ADD MSTORE PUSH1 0xE PUSH1 0x24 DUP3 ADD MSTORE PUSH14 0x2737BA103737B2329037BBB732B9 PUSH1 0x91 SHL PUSH1 0x44 DUP3 ADD MSTORE PUSH1 0x64 SWAP1 REVERT JUMPDEST SWAP2 SWAP1 DUP3 ADD DUP1 SWAP3 GT PUSH2 0x407 JUMPI JUMP JUMPDEST SWAP1 PUSH1 0x0 PUSH1 0x20 SWAP2 DUP3 DUP2 MLOAD SWAP2 ADD DUP3 DUP6 GAS CALL ISZERO PUSH2 0x2850 JUMPI PUSH1 0x0 MLOAD RETURNDATASIZE PUSH2 0x2847 JUMPI POP PUSH1 0x1 PUSH1 0x1 PUSH1 0xA0 SHL SUB DUP2 AND EXTCODESIZE ISZERO JUMPDEST PUSH2 0x2825 JUMPI POP JUMP JUMPDEST PUSH1 0x40 MLOAD PUSH4 0x5274AFE7 PUSH1 0xE0 SHL DUP2 MSTORE PUSH1 0x1 PUSH1 0x1 PUSH1 0xA0 SHL SUB SWAP1 SWAP2 AND PUSH1 0x4 DUP3 ADD MSTORE PUSH1 0x24 SWAP1 REVERT JUMPDEST PUSH1 0x1 EQ ISZERO PUSH2 0x281E JUMP JUMPDEST PUSH1 0x40 MLOAD RETURNDATASIZE PUSH1 0x0 DUP3 RETURNDATACOPY RETURNDATASIZE SWAP1 REVERT JUMPDEST ISZERO PUSH2 0x2863 JUMPI JUMP JUMPDEST PUSH1 0x40 MLOAD PUSH3 0x461BCD PUSH1 0xE5 SHL DUP2 MSTORE PUSH1 0x20 PUSH1 0x4 DUP3 ADD MSTORE PUSH1 0xE PUSH1 0x24 DUP3 ADD MSTORE PUSH14 0x139BDD08185D5D1A1BDC9A5E9959 PUSH1 0x92 SHL PUSH1 0x44 DUP3 ADD MSTORE PUSH1 0x64 SWAP1 REVERT JUMPDEST ISZERO PUSH2 0x28A0 JUMPI JUMP JUMPDEST PUSH1 0x40 MLOAD PUSH3 0x461BCD PUSH1 0xE5 SHL DUP2 MSTORE PUSH1 0x20 PUSH1 0x4 DUP3 ADD MSTORE PUSH1 0x11 PUSH1 0x24 DUP3 ADD MSTORE PUSH17 0x129BD8881B9BDD0818DBDB5C1B195D1959 PUSH1 0x7A SHL PUSH1 0x44 DUP3 ADD MSTORE PUSH1 0x64 SWAP1 REVERT JUMPDEST ISZERO PUSH2 0x28E0 JUMPI JUMP JUMPDEST PUSH1 0x40 MLOAD PUSH3 0x461BCD PUSH1 0xE5 SHL DUP2 MSTORE PUSH1 0x20 PUSH1 0x4 DUP3 ADD MSTORE PUSH1 0x18 PUSH1 0x24 DUP3 ADD MSTORE PUSH32 0x5061796D656E7420616C72656164792072656C65617365640000000000000000 PUSH1 0x44 DUP3 ADD MSTORE PUSH1 0x64 SWAP1 REVERT JUMPDEST PUSH1 0x40 MLOAD PUSH4 0xA9059CBB PUSH1 0xE0 SHL PUSH1 0x20 DUP3 ADD MSTORE PUSH1 0x1 PUSH1 0x1 PUSH1 0xA0 SHL SUB SWAP1 SWAP3 AND PUSH1 0x24 DUP4 ADD MSTORE PUSH1 0x44 DUP1 DUP4 ADD SWAP4 SWAP1 SWAP4 MSTORE SWAP2 DUP2 MSTORE PUSH1 0x80 DUP2 ADD SWAP2 PUSH1 0x1 PUSH1 0x1 PUSH1 0x40 SHL SUB DUP4 GT DUP3 DUP5 LT OR PUSH2 0x119C JUMPI PUSH2 0x2974 SWAP3 PUSH1 0x40 MSTORE PUSH2 0x27F4 JUMP JUMPDEST JUMP JUMPDEST PUSH1 0x1 PUSH1 0x1 PUSH1 0x40 SHL SUB DUP2 GT PUSH2 0x119C JUMPI PUSH1 0x5 SHL PUSH1 0x20 ADD SWAP1 JUMP INVALID LOG2 PUSH5 0x6970667358 0x22 SLT KECCAK256 0xED SWAP4 GASLIMIT ADD 0xBC PUSH21 0xED6CA1CA553509CB6DB94397DD47A569704EF8323A RETURNDATACOPY MSTORE8 KECCAK256 0xC9 SAR PUSH5 0x736F6C6343 STOP ADDMOD EQ STOP CALLER "},"gasEstimates":{"creation":{"codeDepositCost":"2138200","executionCost":"infinite","totalCost":"infinite"},"external":{"BASIS_POINTS()":"727","PLATFORM_FEE_PERCENT()":"375","cancelJob(uint256)":"infinite","clientJobs(address,uint256)":"7197","completeComputeJob(uint256)":"infinite","computeJobs(uint256)":"infinite","computeNodes(uint256)":"infinite","createComputeJob(uint256,uint256,string,string)":"infinite","disputeTimeWindow()":"2566","emergencyWithdraw(address,uint256)":"infinite","getAvailableNodes(string)":"infinite","getClientJobs(address)":"infinite","getJobInfo(uint256)":"infinite","getNodeInfo(uint256)":"infinite","getProviderNodes(address)":"infinite","jobEscrow(uint256)":"2316","nodeActiveJobs(uint256)":"2786","owner()":"2656","paymentToken()":"2326","providerNodes(address,uint256)":"6889","raiseDispute(uint256,string)":"infinite","registerComputeNode(string,uint256,uint256,uint256,string,uint256,string)":"infinite","releasePayment(uint256)":"infinite","renounceOwnership()":"28327","resolveDispute(uint256,bool)":"infinite","startComputeJob(uint256)":"77257","transferOwnership(address)":"28802","updateDisputeTimeWindow(uint256)":"24953","updateNodeAvailability(uint256,bool)":"26885","updateNodePrice(uint256,uint256)":"24753","updatePlatformFee(uint256)":"2897"},"internal":{"_schedulePaymentRelease(uint256)":"infinite"}},"methodIdentifiers":{"BASIS_POINTS()":"e1f1c4a7","PLATFORM_FEE_PERCENT()":"560d52d4","cancelJob(uint256)":"1dffa3dc","clientJobs(address,uint256)":"8facd859","completeComputeJob(uint256)":"eb96e659","computeJobs(uint256)":"eb1140aa","computeNodes(uint256)":"72143f41","createComputeJob(uint256,uint256,string,string)":"3d44645c","disputeTimeWindow()":"7e4dcc06","emergencyWithdraw(address,uint256)":"95ccea67","getAvailableNodes(string)":"8df32711","getClientJobs(address)":"cf2646c2","getJobInfo(uint256)":"7f4497d8","getNodeInfo(uint256)":"53e215f4","getProviderNodes(address)":"be452e04","jobEscrow(uint256)":"0c4f321f","nodeActiveJobs(uint256)":"a3590e4b","owner()":"8da5cb5b","paymentToken()":"3013ce29","providerNodes(address,uint256)":"486fbd79","raiseDispute(uint256,string)":"5aef573c","registerComputeNode(string,uint256,uint256,uint256,string,uint256,string)":"52a662a3","releasePayment(uint256)":"88685cd9","renounceOwnership()":"715018a6","resolveDispute(uint256,bool)":"34b25ee2","startComputeJob(uint256)":"f72d3a7e","transferOwnership(address)":"f2fde38b","updateDisputeTimeWindow(uint256)":"e13242dd","updateNodeAvailability(uint256,bool)":"4afedcd6","updateNodePrice(uint256,uint256)":"4b9d4bab","updatePlatformFee(uint256)":"aa0b5988"}},"storageLayout":{"storage":[{"astId":1606,"contract":"blockchain/contracts/EryzaComputeMarketplace.sol:EryzaComputeMarketplace","label":"_status","offset":0,"slot":"0","type":"t_uint256"},{"astId":8,"contract":"blockchain/contracts/EryzaComputeMarketplace.sol:EryzaComputeMarketplace","label":"_owner","offset":0,"slot":"1","type":"t_address"},{"astId":1804,"contract":"blockchain/contracts/EryzaComputeMarketplace.sol:EryzaComputeMarketplace","label":"paymentToken","offset":0,"slot":"2","type":"t_contract(IERC20)967"},{"astId":1813,"contract":"blockchain/contracts/EryzaComputeMarketplace.sol:EryzaComputeMarketplace","label":"disputeTimeWindow","offset":0,"slot":"3","type":"t_uint256"},{"astId":1816,"contract":"blockchain/contracts/EryzaComputeMarketplace.sol:EryzaComputeMarketplace","label":"nextNodeId","offset":0,"slot":"4","type":"t_uint256"},{"astId":1819,"contract":"blockchain/contracts/EryzaComputeMarketplace.sol:EryzaComputeMarketplace","label":"nextJobId","offset":0,"slot":"5","type":"t_uint256"},{"astId":1824,"contract":"blockchain/contracts/EryzaComputeMarketplace.sol:EryzaComputeMarketplace","label":"computeNodes","offset":0,"slot":"6","type":"t_mapping(t_uint256,t_struct(ComputeNode)1766_storage)"},{"astId":1829,"contract":"blockchain/contracts/EryzaComputeMarketplace.sol:EryzaComputeMarketplace","label":"computeJobs","offset":0,"slot":"7","type":"t_mapping(t_uint256,t_struct(ComputeJob)1794_storage)"},{"astId":1834,"contract":"blockchain/contracts/EryzaComputeMarketplace.sol:EryzaComputeMarketplace","label":"providerNodes","offset":0,"slot":"8","type":"t_mapping(t_address,t_array(t_uint256)dyn_storage)"},{"astId":1839,"contract":"blockchain/contracts/EryzaComputeMarketplace.sol:EryzaComputeMarketplace","label":"clientJobs","offset":0,"slot":"9","type":"t_mapping(t_address,t_array(t_uint256)dyn_storage)"},{"astId":1843,"contract":"blockchain/contracts/EryzaComputeMarketplace.sol:EryzaComputeMarketplace","label":"nodeActiveJobs","offset":0,"slot":"10","type":"t_mapping(t_uint256,t_uint256)"},{"astId":1847,"contract":"blockchain/contracts/EryzaComputeMarketplace.sol:EryzaComputeMarketplace","label":"jobEscrow","offset":0,"slot":"11","type":"t_mapping(t_uint256,t_uint256)"}],"types":{"t_address":{"encoding":"inplace","label":"address","numberOfBytes":"20"},"t_array(t_uint256)dyn_storage":{"base":"t_uint256","encoding":"dynamic_array","label":"uint256[]","numberOfBytes":"32"},"t_bool":{"encoding":"inplace","label":"bool","numberOfBytes":"1"},"t_contract(IERC20)967":{"encoding":"inplace","label":"contract IERC20","numberOfBytes":"20"},"t_enum(JobStatus)1801":{"encoding":"inplace","label":"enum EryzaComputeMarketplace.JobStatus","numberOfBytes":"1"},"t_mapping(t_address,t_array(t_uint256)dyn_storage)":{"encoding":"mapping","key":"t_address","label":"mapping(address => uint256[])","numberOfBytes":"32","value":"t_array(t_uint256)dyn_storage"},"t_mapping(t_uint256,t_struct(ComputeJob)1794_storage)":{"encoding":"mapping","key":"t_uint256","label":"mapping(uint256 => struct EryzaComputeMarketplace.ComputeJob)","numberOfBytes":"32","value":"t_struct(ComputeJob)1794_storage"},"t_mapping(t_uint256,t_struct(ComputeNode)1766_storage)":{"encoding":"mapping","key":"t_uint256","label":"mapping(uint256 => struct EryzaComputeMarketplace.ComputeNode)","numberOfBytes":"32","value":"t_struct(ComputeNode)1766_storage"},"t_mapping(t_uint256,t_uint256)":{"encoding":"mapping","key":"t_uint256","label":"mapping(uint256 => uint256)","numberOfBytes":"32","value":"t_uint256"},"t_string_storage":{"encoding":"bytes","label":"string","numberOfBytes":"32"},"t_struct(ComputeJob)1794_storage":{"encoding":"inplace","label":"struct EryzaComputeMarketplace.ComputeJob","members":[{"astId":1768,"contract":"blockchain/contracts/EryzaComputeMarketplace.sol:EryzaComputeMarketplace","label":"nodeId","offset":0,"slot":"0","type":"t_uint256"},{"astId":1770,"contract":"blockchain/contracts/EryzaComputeMarketplace.sol:EryzaComputeMarketplace","label":"client","offset":0,"slot":"1","type":"t_address"},{"astId":1772,"contract":"blockchain/contracts/EryzaComputeMarketplace.sol:EryzaComputeMarketplace","label":"provider","offset":0,"slot":"2","type":"t_address"},{"astId":1774,"contract":"blockchain/contracts/EryzaComputeMarketplace.sol:EryzaComputeMarketplace","label":"duration","offset":0,"slot":"3","type":"t_uint256"},{"astId":1776,"contract":"blockchain/contracts/EryzaComputeMarketplace.sol:EryzaComputeMarketplace","label":"totalCost","offset":0,"slot":"4","type":"t_uint256"},{"astId":1778,"contract":"blockchain/contracts/EryzaComputeMarketplace.sol:EryzaComputeMarketplace","label":"startTime","offset":0,"slot":"5","type":"t_uint256"},{"astId":1780,"contract":"blockchain/contracts/EryzaComputeMarketplace.sol:EryzaComputeMarketplace","label":"endTime","offset":0,"slot":"6","type":"t_uint256"},{"astId":1783,"contract":"blockchain/contracts/EryzaComputeMarketplace.sol:EryzaComputeMarketplace","label":"status","offset":0,"slot":"7","type":"t_enum(JobStatus)1801"},{"astId":1785,"contract":"blockchain/contracts/EryzaComputeMarketplace.sol:EryzaComputeMarketplace","label":"jobType","offset":0,"slot":"8","type":"t_string_storage"},{"astId":1787,"contract":"blockchain/contracts/EryzaComputeMarketplace.sol:EryzaComputeMarketplace","label":"jobConfig","offset":0,"slot":"9","type":"t_string_storage"},{"astId":1789,"contract":"blockchain/contracts/EryzaComputeMarketplace.sol:EryzaComputeMarketplace","label":"disputed","offset":0,"slot":"10","type":"t_bool"},{"astId":1791,"contract":"blockchain/contracts/EryzaComputeMarketplace.sol:EryzaComputeMarketplace","label":"disputer","offset":1,"slot":"10","type":"t_address"},{"astId":1793,"contract":"blockchain/contracts/EryzaComputeMarketplace.sol:EryzaComputeMarketplace","label":"disputeReason","offset":0,"slot":"11","type":"t_string_storage"}],"numberOfBytes":"384"},"t_struct(ComputeNode)1766_storage":{"encoding":"inplace","label":"struct EryzaComputeMarketplace.ComputeNode","members":[{"astId":1745,"contract":"blockchain/contracts/EryzaComputeMarketplace.sol:EryzaComputeMarketplace","label":"provider","offset":0,"slot":"0","type":"t_address"},{"astId":1747,"contract":"blockchain/contracts/EryzaComputeMarketplace.sol:EryzaComputeMarketplace","label":"nodeType","offset":0,"slot":"1","type":"t_string_storage"},{"astId":1749,"contract":"blockchain/contracts/EryzaComputeMarketplace.sol:EryzaComputeMarketplace","label":"cpuCores","offset":0,"slot":"2","type":"t_uint256"},{"astId":1751,"contract":"blockchain/contracts/EryzaComputeMarketplace.sol:EryzaComputeMarketplace","label":"memoryGB","offset":0,"slot":"3","type":"t_uint256"},{"astId":1753,"contract":"blockchain/contracts/EryzaComputeMarketplace.sol:EryzaComputeMarketplace","label":"gpuCount","offset":0,"slot":"4","type":"t_uint256"},{"astId":1755,"contract":"blockchain/contracts/EryzaComputeMarketplace.sol:EryzaComputeMarketplace","label":"gpuType","offset":0,"slot":"5","type":"t_string_storage"},{"astId":1757,"contract":"blockchain/contracts/EryzaComputeMarketplace.sol:EryzaComputeMarketplace","label":"pricePerHour","offset":0,"slot":"6","type":"t_uint256"},{"astId":1759,"contract":"blockchain/contracts/EryzaComputeMarketplace.sol:EryzaComputeMarketplace","label":"available","offset":0,"slot":"7","type":"t_bool"},{"astId":1761,"contract":"blockchain/contracts/EryzaComputeMarketplace.sol:EryzaComputeMarketplace","label":"totalJobs","offset":0,"slot":"8","type":"t_uint256"},{"astId":1763,"contract":"blockchain/contracts/EryzaComputeMarketplace.sol:EryzaComputeMarketplace","label":"successfulJobs","offset":0,"slot":"9","type":"t_uint256"},{"astId":1765,"contract":"blockchain/contracts/EryzaComputeMarketplace.sol:EryzaComputeMarketplace","label":"endpoint","offset":0,"slot":"10","type":"t_string_storage"}],"numberOfBytes":"352"},"t_uint256":{"encoding":"inplace","label":"uint256","numberOfBytes":"32"}}},"userdoc":{"kind":"user","methods":{},"version":1}}}}