{"blockchain/contracts/EryzaJobsLedger.sol":{"EryzaJobsLedger":{"abi":[{"inputs":[{"internalType":"address","name":"_eryzeToken","type":"address"}],"stateMutability":"nonpayable","type":"constructor"},{"inputs":[{"internalType":"address","name":"owner","type":"address"}],"name":"OwnableInvalidOwner","type":"error"},{"inputs":[{"internalType":"address","name":"account","type":"address"}],"name":"OwnableUnauthorizedAccount","type":"error"},{"inputs":[],"name":"ReentrancyGuardReentrantCall","type":"error"},{"anonymous":false,"inputs":[{"indexed":true,"internalType":"uint256","name":"jobId","type":"uint256"},{"indexed":true,"internalType":"address","name":"provider","type":"address"},{"indexed":true,"internalType":"uint256","name":"nodeId","type":"uint256"},{"indexed":false,"internalType":"uint256","name":"assignedTime","type":"uint256"}],"name":"JobAssigned","type":"event"},{"anonymous":false,"inputs":[{"indexed":true,"internalType":"uint256","name":"jobId","type":"uint256"},{"indexed":false,"internalType":"enum EryzaJobsLedger.ExecutionResult","name":"result","type":"uint8"},{"indexed":false,"internalType":"uint256","name":"actualDuration","type":"uint256"},{"indexed":false,"internalType":"uint8","name":"qualityScore","type":"uint8"}],"name":"JobCompleted","type":"event"},{"anonymous":false,"inputs":[{"indexed":true,"internalType":"uint256","name":"jobId","type":"uint256"},{"indexed":false,"internalType":"uint256","name":"startTime","type":"uint256"}],"name":"JobExecutionStarted","type":"event"},{"anonymous":false,"inputs":[{"indexed":true,"internalType":"uint256","name":"jobId","type":"uint256"},{"indexed":false,"internalType":"enum EryzaJobsLedger.JobPhase","name":"oldPhase","type":"uint8"},{"indexed":false,"internalType":"enum EryzaJobsLedger.JobPhase","name":"newPhase","type":"uint8"},{"indexed":false,"internalType":"uint256","name":"timestamp","type":"uint256"}],"name":"JobPhaseChanged","type":"event"},{"anonymous":false,"inputs":[{"indexed":true,"internalType":"uint256","name":"jobId","type":"uint256"},{"indexed":true,"internalType":"address","name":"client","type":"address"},{"indexed":false,"internalType":"string","name":"jobType","type":"string"},{"indexed":false,"internalType":"enum EryzaJobsLedger.Priority","name":"priority","type":"uint8"},{"indexed":false,"internalType":"uint256","name":"estimatedDuration","type":"uint256"}],"name":"JobSubmitted","type":"event"},{"anonymous":false,"inputs":[{"indexed":true,"internalType":"uint256","name":"jobId","type":"uint256"},{"indexed":false,"internalType":"uint256","name":"cpuUsage","type":"uint256"},{"indexed":false,"internalType":"uint256","name":"memoryUsage","type":"uint256"},{"indexed":false,"internalType":"uint256","name":"gpuUsage","type":"uint256"}],"name":"MetricsRecorded","type":"event"},{"anonymous":false,"inputs":[{"indexed":true,"internalType":"address","name":"previousOwner","type":"address"},{"indexed":true,"internalType":"address","name":"newOwner","type":"address"}],"name":"OwnershipTransferred","type":"event"},{"anonymous":false,"inputs":[{"indexed":true,"internalType":"uint256","name":"jobId","type":"uint256"},{"indexed":false,"internalType":"uint8","name":"oldScore","type":"uint8"},{"indexed":false,"internalType":"uint8","name":"newScore","type":"uint8"},{"indexed":false,"internalType":"address","name":"scorer","type":"address"}],"name":"QualityScoreUpdated","type":"event"},{"inputs":[{"internalType":"uint256","name":"jobId","type":"uint256"},{"internalType":"address","name":"validator","type":"address"}],"name":"addJobValidator","outputs":[],"stateMutability":"nonpayable","type":"function"},{"inputs":[{"internalType":"uint256","name":"jobId","type":"uint256"},{"internalType":"address","name":"provider","type":"address"},{"internalType":"uint256","name":"nodeId","type":"uint256"}],"name":"assignJob","outputs":[],"stateMutability":"nonpayable","type":"function"},{"inputs":[{"internalType":"address","name":"","type":"address"}],"name":"clientAnalytics","outputs":[{"internalType":"uint256","name":"totalJobsSubmitted","type":"uint256"},{"internalType":"uint256","name":"totalSpent","type":"uint256"},{"internalType":"uint256","name":"totalExecutionTime","type":"uint256"},{"internalType":"uint256","name":"averageJobDuration","type":"uint256"},{"internalType":"uint256","name":"successfulJobs","type":"uint256"},{"internalType":"uint256","name":"lastActivity","type":"uint256"},{"internalType":"uint8","name":"reputationScore","type":"uint8"}],"stateMutability":"view","type":"function"},{"inputs":[{"internalType":"address","name":"","type":"address"},{"internalType":"uint256","name":"","type":"uint256"}],"name":"clientJobHistory","outputs":[{"internalType":"uint256","name":"","type":"uint256"}],"stateMutability":"view","type":"function"},{"inputs":[{"internalType":"address","name":"","type":"address"}],"name":"clientReputation","outputs":[{"internalType":"uint8","name":"","type":"uint8"}],"stateMutability":"view","type":"function"},{"inputs":[{"internalType":"uint256","name":"jobId","type":"uint256"},{"internalType":"enum EryzaJobsLedger.ExecutionResult","name":"result","type":"uint8"},{"internalType":"string","name":"outputDataHash","type":"string"},{"internalType":"uint8","name":"qualityScore","type":"uint8"}],"name":"completeJob","outputs":[],"stateMutability":"nonpayable","type":"function"},{"inputs":[],"name":"eryzeToken","outputs":[{"internalType":"contract IERC20","name":"","type":"address"}],"stateMutability":"view","type":"function"},{"inputs":[{"internalType":"uint256","name":"","type":"uint256"}],"name":"executionMetrics","outputs":[{"internalType":"uint256","name":"cpuUsage","type":"uint256"},{"internalType":"uint256","name":"memoryUsage","type":"uint256"},{"internalType":"uint256","name":"gpuUsage","type":"uint256"},{"internalType":"uint256","name":"networkIO","type":"uint256"},{"internalType":"uint256","name":"diskIO","type":"uint256"},{"internalType":"uint256","name":"energyConsumed","type":"uint256"},{"internalType":"string","name":"performanceData","type":"string"}],"stateMutability":"view","type":"function"},{"inputs":[{"internalType":"address","name":"client","type":"address"}],"name":"getClientAnalytics","outputs":[{"components":[{"internalType":"uint256","name":"totalJobsSubmitted","type":"uint256"},{"internalType":"uint256","name":"totalSpent","type":"uint256"},{"internalType":"uint256","name":"totalExecutionTime","type":"uint256"},{"internalType":"uint256","name":"averageJobDuration","type":"uint256"},{"internalType":"uint256","name":"successfulJobs","type":"uint256"},{"internalType":"uint256","name":"lastActivity","type":"uint256"},{"internalType":"uint8","name":"reputationScore","type":"uint8"}],"internalType":"struct EryzaJobsLedger.ClientAnalytics","name":"","type":"tuple"}],"stateMutability":"view","type":"function"},{"inputs":[{"internalType":"address","name":"client","type":"address"}],"name":"getClientJobHistory","outputs":[{"internalType":"uint256[]","name":"","type":"uint256[]"}],"stateMutability":"view","type":"function"},{"inputs":[{"internalType":"uint256","name":"jobId","type":"uint256"}],"name":"getJob","outputs":[{"components":[{"internalType":"uint256","name":"jobId","type":"uint256"},{"internalType":"address","name":"client","type":"address"},{"internalType":"address","name":"provider","type":"address"},{"internalType":"uint256","name":"nodeId","type":"uint256"},{"internalType":"string","name":"jobType","type":"string"},{"internalType":"string","name":"jobDescription","type":"string"},{"internalType":"string","name":"inputDataHash","type":"string"},{"internalType":"string","name":"outputDataHash","type":"string"},{"internalType":"string","name":"configHash","type":"string"},{"internalType":"uint256","name":"estimatedDuration","type":"uint256"},{"internalType":"uint256","name":"actualDuration","type":"uint256"},{"internalType":"uint256","name":"totalCost","type":"uint256"},{"internalType":"uint256","name":"submitTime","type":"uint256"},{"internalType":"uint256","name":"startTime","type":"uint256"},{"internalType":"uint256","name":"endTime","type":"uint256"},{"internalType":"enum EryzaJobsLedger.JobPhase","name":"currentPhase","type":"uint8"},{"internalType":"enum EryzaJobsLedger.Priority","name":"priority","type":"uint8"},{"internalType":"enum EryzaJobsLedger.ExecutionResult","name":"result","type":"uint8"},{"internalType":"uint8","name":"qualityScore","type":"uint8"},{"internalType":"bool","name":"isPrivate","type":"bool"},{"internalType":"string","name":"metadata","type":"string"}],"internalType":"struct EryzaJobsLedger.JobRecord","name":"","type":"tuple"}],"stateMutability":"view","type":"function"},{"inputs":[{"internalType":"uint256","name":"jobId","type":"uint256"}],"name":"getJobMetrics","outputs":[{"components":[{"internalType":"uint256","name":"cpuUsage","type":"uint256"},{"internalType":"uint256","name":"memoryUsage","type":"uint256"},{"internalType":"uint256","name":"gpuUsage","type":"uint256"},{"internalType":"uint256","name":"networkIO","type":"uint256"},{"internalType":"uint256","name":"diskIO","type":"uint256"},{"internalType":"uint256","name":"energyConsumed","type":"uint256"},{"internalType":"string","name":"performanceData","type":"string"}],"internalType":"struct EryzaJobsLedger.ExecutionMetrics","name":"","type":"tuple"}],"stateMutability":"view","type":"function"},{"inputs":[{"internalType":"uint256","name":"jobId","type":"uint256"}],"name":"getJobPhaseHistory","outputs":[{"internalType":"enum EryzaJobsLedger.JobPhase[]","name":"phases","type":"uint8[]"},{"internalType":"uint256[]","name":"timestamps","type":"uint256[]"}],"stateMutability":"view","type":"function"},{"inputs":[{"internalType":"enum EryzaJobsLedger.JobPhase","name":"phase","type":"uint8"}],"name":"getJobsByPhase","outputs":[{"internalType":"uint256[]","name":"","type":"uint256[]"}],"stateMutability":"view","type":"function"},{"inputs":[{"internalType":"uint256","name":"nodeId","type":"uint256"}],"name":"getNodeJobHistory","outputs":[{"internalType":"uint256[]","name":"","type":"uint256[]"}],"stateMutability":"view","type":"function"},{"inputs":[{"internalType":"address","name":"provider","type":"address"}],"name":"getNodePerformance","outputs":[{"components":[{"internalType":"uint256","name":"totalJobs","type":"uint256"},{"internalType":"uint256","name":"successfulJobs","type":"uint256"},{"internalType":"uint256","name":"failedJobs","type":"uint256"},{"internalType":"uint256","name":"totalRevenue","type":"uint256"},{"internalType":"uint256","name":"totalExecutionTime","type":"uint256"},{"internalType":"uint256","name":"averageQualityScore","type":"uint256"},{"internalType":"uint256","name":"uptime","type":"uint256"},{"internalType":"uint256","name":"lastActiveTime","type":"uint256"},{"internalType":"uint8","name":"reliabilityScore","type":"uint8"}],"internalType":"struct EryzaJobsLedger.NodePerformance","name":"","type":"tuple"}],"stateMutability":"view","type":"function"},{"inputs":[],"name":"getPlatformAnalytics","outputs":[{"internalType":"uint256","name":"totalJobs","type":"uint256"},{"internalType":"uint256","name":"completedJobs","type":"uint256"},{"internalType":"uint256","name":"failedJobs","type":"uint256"},{"internalType":"uint256","name":"totalRevenue","type":"uint256"},{"internalType":"uint256","name":"averageJobDuration","type":"uint256"}],"stateMutability":"view","type":"function"},{"inputs":[{"internalType":"address","name":"provider","type":"address"}],"name":"getProviderJobHistory","outputs":[{"internalType":"uint256[]","name":"","type":"uint256[]"}],"stateMutability":"view","type":"function"},{"inputs":[{"internalType":"uint256","name":"","type":"uint256"},{"internalType":"uint256","name":"","type":"uint256"}],"name":"jobPhaseHistory","outputs":[{"internalType":"enum EryzaJobsLedger.JobPhase","name":"","type":"uint8"}],"stateMutability":"view","type":"function"},{"inputs":[{"internalType":"uint256","name":"","type":"uint256"},{"internalType":"uint256","name":"","type":"uint256"}],"name":"jobPhaseTimestamps","outputs":[{"internalType":"uint256","name":"","type":"uint256"}],"stateMutability":"view","type":"function"},{"inputs":[{"internalType":"uint256","name":"","type":"uint256"},{"internalType":"address","name":"","type":"address"}],"name":"jobRatings","outputs":[{"internalType":"uint8","name":"","type":"uint8"}],"stateMutability":"view","type":"function"},{"inputs":[{"internalType":"uint256","name":"","type":"uint256"},{"internalType":"uint256","name":"","type":"uint256"}],"name":"jobValidators","outputs":[{"internalType":"address","name":"","type":"address"}],"stateMutability":"view","type":"function"},{"inputs":[{"internalType":"uint256","name":"","type":"uint256"}],"name":"jobs","outputs":[{"internalType":"uint256","name":"jobId","type":"uint256"},{"internalType":"address","name":"client","type":"address"},{"internalType":"address","name":"provider","type":"address"},{"internalType":"uint256","name":"nodeId","type":"uint256"},{"internalType":"string","name":"jobType","type":"string"},{"internalType":"string","name":"jobDescription","type":"string"},{"internalType":"string","name":"inputDataHash","type":"string"},{"internalType":"string","name":"outputDataHash","type":"string"},{"internalType":"string","name":"configHash","type":"string"},{"internalType":"uint256","name":"estimatedDuration","type":"uint256"},{"internalType":"uint256","name":"actualDuration","type":"uint256"},{"internalType":"uint256","name":"totalCost","type":"uint256"},{"internalType":"uint256","name":"submitTime","type":"uint256"},{"internalType":"uint256","name":"startTime","type":"uint256"},{"internalType":"uint256","name":"endTime","type":"uint256"},{"internalType":"enum EryzaJobsLedger.JobPhase","name":"currentPhase","type":"uint8"},{"internalType":"enum EryzaJobsLedger.Priority","name":"priority","type":"uint8"},{"internalType":"enum EryzaJobsLedger.ExecutionResult","name":"result","type":"uint8"},{"internalType":"uint8","name":"qualityScore","type":"uint8"},{"internalType":"bool","name":"isPrivate","type":"bool"},{"internalType":"string","name":"metadata","type":"string"}],"stateMutability":"view","type":"function"},{"inputs":[],"name":"marketplaceContract","outputs":[{"internalType":"address","name":"","type":"address"}],"stateMutability":"view","type":"function"},{"inputs":[],"name":"nextJobId","outputs":[{"internalType":"uint256","name":"","type":"uint256"}],"stateMutability":"view","type":"function"},{"inputs":[{"internalType":"uint256","name":"","type":"uint256"},{"internalType":"uint256","name":"","type":"uint256"}],"name":"nodeJobHistory","outputs":[{"internalType":"uint256","name":"","type":"uint256"}],"stateMutability":"view","type":"function"},{"inputs":[{"internalType":"address","name":"","type":"address"}],"name":"nodePerformance","outputs":[{"internalType":"uint256","name":"totalJobs","type":"uint256"},{"internalType":"uint256","name":"successfulJobs","type":"uint256"},{"internalType":"uint256","name":"failedJobs","type":"uint256"},{"internalType":"uint256","name":"totalRevenue","type":"uint256"},{"internalType":"uint256","name":"totalExecutionTime","type":"uint256"},{"internalType":"uint256","name":"averageQualityScore","type":"uint256"},{"internalType":"uint256","name":"uptime","type":"uint256"},{"internalType":"uint256","name":"lastActiveTime","type":"uint256"},{"internalType":"uint8","name":"reliabilityScore","type":"uint8"}],"stateMutability":"view","type":"function"},{"inputs":[],"name":"owner","outputs":[{"internalType":"address","name":"","type":"address"}],"stateMutability":"view","type":"function"},{"inputs":[],"name":"pause","outputs":[],"stateMutability":"nonpayable","type":"function"},{"inputs":[{"internalType":"address","name":"","type":"address"},{"internalType":"uint256","name":"","type":"uint256"}],"name":"providerJobHistory","outputs":[{"internalType":"uint256","name":"","type":"uint256"}],"stateMutability":"view","type":"function"},{"inputs":[{"internalType":"address","name":"","type":"address"}],"name":"providerReputation","outputs":[{"internalType":"uint8","name":"","type":"uint8"}],"stateMutability":"view","type":"function"},{"inputs":[{"internalType":"uint256","name":"jobId","type":"uint256"},{"internalType":"uint8","name":"rating","type":"uint8"}],"name":"rateJobQuality","outputs":[],"stateMutability":"nonpayable","type":"function"},{"inputs":[{"internalType":"uint256","name":"jobId","type":"uint256"},{"internalType":"uint256","name":"cpuUsage","type":"uint256"},{"internalType":"uint256","name":"memoryUsage","type":"uint256"},{"internalType":"uint256","name":"gpuUsage","type":"uint256"},{"internalType":"uint256","name":"networkIO","type":"uint256"},{"internalType":"uint256","name":"diskIO","type":"uint256"},{"internalType":"uint256","name":"energyConsumed","type":"uint256"},{"internalType":"string","name":"performanceData","type":"string"}],"name":"recordExecutionMetrics","outputs":[],"stateMutability":"nonpayable","type":"function"},{"inputs":[],"name":"renounceOwnership","outputs":[],"stateMutability":"nonpayable","type":"function"},{"inputs":[{"internalType":"address","name":"_marketplace","type":"address"}],"name":"setMarketplaceContract","outputs":[],"stateMutability":"nonpayable","type":"function"},{"inputs":[{"internalType":"uint256","name":"jobId","type":"uint256"}],"name":"startJobExecution","outputs":[],"stateMutability":"nonpayable","type":"function"},{"inputs":[{"internalType":"address","name":"client","type":"address"},{"internalType":"string","name":"jobType","type":"string"},{"internalType":"string","name":"description","type":"string"},{"internalType":"string","name":"inputDataHash","type":"string"},{"internalType":"string","name":"configHash","type":"string"},{"internalType":"uint256","name":"estimatedDuration","type":"uint256"},{"internalType":"uint256","name":"totalCost","type":"uint256"},{"internalType":"enum EryzaJobsLedger.Priority","name":"priority","type":"uint8"},{"internalType":"bool","name":"isPrivate","type":"bool"},{"internalType":"string","name":"metadata","type":"string"}],"name":"submitJob","outputs":[{"internalType":"uint256","name":"","type":"uint256"}],"stateMutability":"nonpayable","type":"function"},{"inputs":[{"internalType":"address","name":"newOwner","type":"address"}],"name":"transferOwnership","outputs":[],"stateMutability":"nonpayable","type":"function"},{"inputs":[{"internalType":"address","name":"client","type":"address"},{"internalType":"uint8","name":"newScore","type":"uint8"}],"name":"updateClientReputation","outputs":[],"stateMutability":"nonpayable","type":"function"},{"inputs":[{"internalType":"uint256","name":"jobId","type":"uint256"},{"internalType":"enum EryzaJobsLedger.JobPhase","name":"newPhase","type":"uint8"}],"name":"updateJobPhase","outputs":[],"stateMutability":"nonpayable","type":"function"},{"inputs":[{"internalType":"address","name":"provider","type":"address"},{"internalType":"uint8","name":"newScore","type":"uint8"}],"name":"updateProviderReputation","outputs":[],"stateMutability":"nonpayable","type":"function"}],"devdoc":{"author":"Eryza Team","details":"Comprehensive job tracking and analytics ledger for Eryza platform","errors":{"OwnableInvalidOwner(address)":[{"details":"The owner is not a valid owner account. (eg. `address(0)`)"}],"OwnableUnauthorizedAccount(address)":[{"details":"The caller account is not authorized to perform an operation."}],"ReentrancyGuardReentrantCall()":[{"details":"Unauthorized reentrant call."}]},"kind":"dev","methods":{"addJobValidator(uint256,address)":{"details":"Add validator for job quality assessment"},"assignJob(uint256,address,uint256)":{"details":"Assign job to a provider and node"},"completeJob(uint256,uint8,string,uint8)":{"details":"Complete job execution"},"getClientAnalytics(address)":{"details":"Get client analytics"},"getClientJobHistory(address)":{"details":"Get client's job history"},"getJob(uint256)":{"details":"Get job details"},"getJobMetrics(uint256)":{"details":"Get job execution metrics"},"getJobPhaseHistory(uint256)":{"details":"Get job phase history"},"getJobsByPhase(uint8)":{"details":"Get jobs by status"},"getNodeJobHistory(uint256)":{"details":"Get node's job history"},"getNodePerformance(address)":{"details":"Get node performance analytics"},"getPlatformAnalytics()":{"details":"Get platform analytics"},"getProviderJobHistory(address)":{"details":"Get provider's job history"},"owner()":{"details":"Returns the address of the current owner."},"pause()":{"details":"Emergency pause functionality"},"rateJobQuality(uint256,uint8)":{"details":"Rate job quality (can be called by client or validators)"},"recordExecutionMetrics(uint256,uint256,uint256,uint256,uint256,uint256,uint256,string)":{"details":"Record execution metrics during job execution"},"renounceOwnership()":{"details":"Leaves the contract without owner. It will not be possible to call `onlyOwner` functions. Can only be called by the current owner. NOTE: Renouncing ownership will leave the contract without an owner, thereby disabling any functionality that is only available to the owner."},"setMarketplaceContract(address)":{"details":"Set the marketplace contract address"},"startJobExecution(uint256)":{"details":"Start job execution"},"submitJob(address,string,string,string,string,uint256,uint256,uint8,bool,string)":{"details":"Submit a new job to the ledger"},"transferOwnership(address)":{"details":"Transfers ownership of the contract to a new account (`newOwner`). Can only be called by the current owner."},"updateClientReputation(address,uint8)":{"details":"Update client reputation score"},"updateJobPhase(uint256,uint8)":{"details":"Update job phase"},"updateProviderReputation(address,uint8)":{"details":"Update provider reputation score"}},"title":"EryzaJobsLedger","version":1},"evm":{"bytecode":{"linkReferences":{},"object":"608034620000d657601f620043d138819003918201601f19168301916001600160401b03831184841017620000db57808492602094604052833981010312620000d657516001600160a01b039081811690819003620000d6573315620000bd5760005460018060a01b0319903382821617600055604051933391167f8be0079c531659141344cd1fd0a4f28419497f9722a3daafe3b4186f6b6457e0600080a360018055600160025560045416176004556142df9081620000f28239f35b604051631e4fbdf760e01b815260006004820152602490fd5b600080fd5b634e487b7160e01b600052604160045260246000fdfe610100604052600436101561001357600080fd5b60003560e01c80631102610e146138db578063133b946c1461350f57806317078d35146134c2578063180aedf3146132bf57806322ed45fe146132855780632dc07d471461320457806334b7a9e01461309d57806334bec04e1461306c57806340ecf68e146130405780634c69f6a714612f5057806354170d1b14612f0657806355e36aad14612bfb57806358de7297146129a85780635bd211431461295e578063600d97d414612900578063715018a6146128a75780638456cb591461288c57806388537d061461284f5780638da5cb5b1461282657806397d31da2146127f5578063986b609d146127a7578063a903bc07146126ac578063a9555e6c14612617578063adc5882b1461214f578063aed1f15714612022578063b0305eec14611fc4578063b0c2aa5e14611fa6578063b6ff673714611f28578063bb906f2d14611eff578063bbbacdfc14611eb4578063bf22c45714611b3e578063c25421c714611372578063c5fb57fb1461124a578063ca5642ea14611093578063d0edbee21461053b578063d1bb5cf114610512578063e642c885146104a3578063e97569f114610303578063f2fde38b1461027a578063f5bbb3211461023d5763fdd2fdc8146101e057600080fd5b34610238576040366003190112610238576101f961391e565b6001600160a01b03166000908152600d60205260409020805460243591908210156102385760209161022a91613bdb565b90546040519160031b1c8152f35b600080fd5b34610238576020366003190112610238576001600160a01b0361025e61391e565b166000526011602052602060ff60406000205416604051908152f35b346102385760203660031901126102385761029361391e565b61029b613c03565b6001600160a01b039081169081156102ea57600054826001600160601b0360a01b821617600055167f8be0079c531659141344cd1fd0a4f28419497f9722a3daafe3b4186f6b6457e0600080a3005b604051631e4fbdf760e01b815260006004820152602490fd5b346102385760603660031901126102385760043561031f613934565b6044359160018060a01b0361033981600354163314613c2f565b8160005260209060058252604060002090600f82019182549160ff8316600a81101561048d57600103610453576003828992600280969501991698896001600160601b0360a01b825416179055015560ff191617905582600052600d81526103a5826040600020613d25565b83600052600e81526103bb826040600020613d25565b81600052600a8152604060002090815491600160401b83101561043d57826104099160017fb4ec363d404aa17743b1d4b609e3894c1b2cdfd991468352894fca620116886395018155613a2a565b81549060031b9060ff6002831b921b191617905582600052600b815261043460406000204290613d25565b604051428152a4005b634e487b7160e01b600052604160045260246000fd5b60405162461bcd60e51b8152600481018690526012602482015271129bd8881b5d5cdd08189948199d5b99195960721b6044820152606490fd5b634e487b7160e01b600052602160045260246000fd5b34610238576040366003190112610238576104bc613934565b6104c4613c03565b600435600052600960205260406000208054600160401b81101561043d576104f191600182018155613bdb565b819291549060031b9160018060a01b03809116831b921b1916179055600080f35b34610238576000366003190112610238576003546040516001600160a01b039091168152602090f35b34610238576101403660031901126102385761055561391e565b6024356001600160401b038111610238576105749036906004016139be565b906044356001600160401b038111610238576105949036906004016139be565b906064356001600160401b038111610238576105b49036906004016139be565b916084356001600160401b038111610238576105d49036906004016139be565b600460e43510156102385761010435801515810361023857610124356001600160401b0381116102385761060c9036906004016139be565b9161062260018060a01b03600354163314613c2f565b6002549561062f87613c7b565b6002556040519461063f8661394a565b87865260018060a01b0387166020870152600060408701526000606087015288608087015260a086015260c08501526040518060208101106001600160401b0360208301111761043d57602081016040526000815260e085015261010084015260a435610120840152600061014084015260c4356101608401524261018084015260006101a084015260006101c084015260006101e08401526106e860e4356102008501613c96565b600061022084015260006102408401521515610260830152610280820152826000526005602052604060002090805182556001820160018060a01b03602083015116906001600160601b0360a01b9182825416179055600283019060018060a01b03604084015116908254161790556060810151600383015560808101518051906001600160401b03821161043d5781906107866004860154613a6d565b601f8111611040575b50602090601f8311600114610fce57600092610fc3575b50508160011b916000199060031b1c19161760048301555b60a08101518051906001600160401b03821161043d5781906107e36005860154613a6d565b601f8111610f70575b50602090601f8311600114610efe57600092610ef3575b50508160011b916000199060031b1c19161760058301555b60c08101518051906001600160401b03821161043d5781906108406006860154613a6d565b601f8111610ea0575b50602090601f8311600114610e2e57600092610e23575b50508160011b916000199060031b1c19161760068301555b60e08101518051906001600160401b03821161043d57819061089d6007860154613a6d565b601f8111610dd0575b50602090601f8311600114610d5e57600092610d53575b50508160011b916000199060031b1c19161760078301555b6101008101518051906001600160401b03821161043d5781906108fb6008860154613a6d565b601f8111610d00575b50602090601f8311600114610c8e57600092610c83575b50508160011b916000199060031b1c19161760088301555b6101208101516009830155610140810151600a830155610160810151600b830155610180810151600c8301556101a0810151600d8301556101c0810151600e8301556101e0810151600a81101561048d5761099190600f8401613cae565b610200810151600481101561048d5761ff00600f8401549160081b169061ff00191617600f83015561022081015190600782101561048d576109d961028092600f8501613cc6565b610a0360ff61024083015116600f85019063ff00000082549160181b169063ff0000001916179055565b610260810151151564ff00000000600f8501549160201b169064ff00000000191617600f84015501518051906001600160401b03821161043d57610a4a6010840154613a6d565b601f8111610c3c575b50602090601f8311600114610bcc576010929160009183610bc1575b50508160011b916000199060031b1c1916179101555b81600052600a602052604060002092835493600160401b85101561043d57610b958492610adb877fd79a0a8f7861c5be2c003c146f417ea1ce30845c59844f6e4931b1b73a4a600394600160209a018155613a2a565b60ff82549160031b1b1916905583600052600b8752610afe426040600020613d25565b60018060a01b038516600052600c8752610b1c846040600020613d25565b6001600160a01b038516600090815260088852604090208054610b3e90613c7b565b905560018060a01b038516600052600887526001604060002001610b6560c4358254613d5a565b905560018060a01b0385166000526008875242600560406000200155604051918291606083526060830190613b4d565b94610ba488830160e435613b8d565b60a43560408301526001600160a01b0316940390a3604051908152f35b015190508780610a6f565b906010840160005260206000209160005b601f1985168110610c245750918391600193601095601f19811610610c0b575b505050811b01910155610a85565b015160001960f88460031b161c19169055878080610bfd565b91926020600181928685015181550194019201610bdd565b601084016000526020600020601f840160051c810160208510610c7c575b601f830160051c82018110610c70575050610a53565b60008155600101610c5a565b5080610c5a565b01519050878061091b565b9250600885016000526020600020906000935b601f1984168510610ce5576001945083601f19811610610ccc575b505050811b016008830155610933565b015160001960f88460031b161c19169055878080610cbc565b81810151835560209485019460019093019290910190610ca1565b909150600885016000526020600020601f840160051c810160208510610d4c575b90849392915b601f830160051c82018110610d3d575050610904565b60008155859450600101610d27565b5080610d21565b0151905087806108bd565b9250600785016000526020600020906000935b601f1984168510610db5576001945083601f19811610610d9c575b505050811b0160078301556108d5565b015160001960f88460031b161c19169055878080610d8c565b81810151835560209485019460019093019290910190610d71565b909150600785016000526020600020601f840160051c810160208510610e1c575b90849392915b601f830160051c82018110610e0d5750506108a6565b60008155859450600101610df7565b5080610df1565b015190508780610860565b9250600685016000526020600020906000935b601f1984168510610e85576001945083601f19811610610e6c575b505050811b016006830155610878565b015160001960f88460031b161c19169055878080610e5c565b81810151835560209485019460019093019290910190610e41565b909150600685016000526020600020601f840160051c810160208510610eec575b90849392915b601f830160051c82018110610edd575050610849565b60008155859450600101610ec7565b5080610ec1565b015190508780610803565b9250600585016000526020600020906000935b601f1984168510610f55576001945083601f19811610610f3c575b505050811b01600583015561081b565b015160001960f88460031b161c19169055878080610f2c565b81810151835560209485019460019093019290910190610f11565b909150600585016000526020600020601f840160051c810160208510610fbc575b90849392915b601f830160051c82018110610fad5750506107ec565b60008155859450600101610f97565b5080610f91565b0151905087806107a6565b9250600485016000526020600020906000935b601f1984168510611025576001945083601f1981161061100c575b505050811b0160048301556107be565b015160001960f88460031b161c19169055878080610ffc565b81810151835560209485019460019093019290910190610fe1565b909150600485016000526020600020601f840160051c81016020851061108c575b90849392915b601f830160051c8201811061107d57505061078f565b60008155859450600101611067565b5080611061565b34610238576040366003190112610238576004356110af613bf3565b8160005260206005815260406000209160018060a01b036001840154163314801561123a575b156111fc5760ff1691606483116111c657600f0180549260ff8416600a81101561048d5760050361118d579160ff7f0b41a35c59b264282df26adb7e93080f2d9c51be2ef88c2960ca822a08550579949260609487600052600f84526040600020336000528452604060002090831982541617905561117061115688613fd3565b825463ff000000191660189190911b63ff00000016178255565b54816040519460181c16845260181c1690820152336040820152a2005b60405162461bcd60e51b8152600481018490526011602482015270129bd8881b9bdd0818dbdb5c1b195d1959607a1b6044820152606490fd5b60405162461bcd60e51b815260048101839052600e60248201526d496e76616c696420726174696e6760901b6044820152606490fd5b60405162461bcd60e51b81526004810183905260166024820152754e6f7420617574686f72697a656420746f207261746560501b6044820152606490fd5b506112453385613f2b565b6110d5565b346102385760208060031936011261023857600a90600435828110158061023857600093600191600254925b838110611326575061128786613e18565b95611295604051978861399d565b8087526112a4601f1991613e18565b01368688013760009160015b8481106112ce57604051878152806112ca818a018b613ba7565b0390f35b80600052600587528260ff600f60406000200154169061048d578281101561048d578614611305575b61130090613c7b565b6112b0565b9261131e8185611318611300948c613e2f565b52613c7b565b9390506112f7565b80600052600586528160ff600f60406000200154169061048d578381101561048d57851461135d575b61135890613c7b565b611276565b9561136a61135891613c7b565b96905061134f565b346102385760208060031936011261023857600435600052600a8152604060002090600b81526040600020908060405192838094838754918281520190819760005284600020906000915b81601f8401106118cc57916114df9493916114e497935491848282106118b2575b828210611895575b828210611878575b82821061185b575b82821061183f575b828210611822575b828210611805575b8282106117e8575b8282106117cb575b8282106117ae575b828210611791575b828210611774575b828210611757575b82821061173a575b82821061171d575b828210611700575b8282106116e3575b8282106116c6575b8282106116a9575b82821061168c575b82821061166f575b828210611652575b828210611635575b828210611618575b8282106115fb575b8282106115de575b8282106115c1575b8282106115a4575b828210611587575b82821061156a575b82821061154d575b5010611537575b509050038561399d565b613dc9565b90604051926040840190604085525180915260608401949060005b818110611519578587038487015285806112ca8988613ba7565b90919583808261152c6001948b51613a60565b0197019291016114ff565b816115449160f81c613a60565b018590896114d5565b846115616001939660ff8760f01c16613a60565b019301846114ce565b8461157e6001939660ff8760e81c16613a60565b019301846114c6565b8461159b6001939660ff8760e01c16613a60565b019301846114be565b846115b86001939660ff8760d81c16613a60565b019301846114b6565b846115d56001939660ff8760d01c16613a60565b019301846114ae565b846115f26001939660ff8760c81c16613a60565b019301846114a6565b8461160f6001939660ff8760c01c16613a60565b0193018461149e565b8461162c6001939660ff8760b81c16613a60565b01930184611496565b846116496001939660ff8760b01c16613a60565b0193018461148e565b846116666001939660ff8760a81c16613a60565b01930184611486565b846116836001939660ff8760a01c16613a60565b0193018461147e565b846116a06001939660ff8760981c16613a60565b01930184611476565b846116bd6001939660ff8760901c16613a60565b0193018461146e565b846116da6001939660ff8760881c16613a60565b01930184611466565b846116f76001939660ff8760801c16613a60565b0193018461145e565b846117146001939660ff8760781c16613a60565b01930184611456565b846117316001939660ff8760701c16613a60565b0193018461144e565b8461174e6001939660ff8760681c16613a60565b01930184611446565b8461176b6001939660ff8760601c16613a60565b0193018461143e565b846117886001939660ff8760581c16613a60565b01930184611436565b846117a56001939660ff8760501c16613a60565b0193018461142e565b846117c26001939660ff8760481c16613a60565b01930184611426565b846117df6001939660ff8760401c16613a60565b0193018461141e565b846117fc6001939660ff8760381c16613a60565b01930184611416565b846118196001939660ff8760301c16613a60565b0193018461140e565b846118366001939660ff8760281c16613a60565b01930184611406565b846118526001939660ff87851c16613a60565b019301846113fe565b8461186f6001939660ff8760181c16613a60565b019301846113f6565b8461188c6001939660ff8760101c16613a60565b019301846113ee565b846118a96001939660ff8760081c16613a60565b019301846113e6565b846118c36001939660ff8716613a60565b019301846113de565b949591935091610400600191611b2e8754611b2060ff6118ee85828516613a60565b6118ff888601828560081c16613a60565b61191160408601828560101c16613a60565b611ab185611a69606061192b818401868960181c16613a60565b611a218c611942608091888b848901921c16613a60565b6119d960a0936119598588018a8d60281c16613a60565b888b61018060c0996119728b8201858560301c16613a60565b61198460e08201858560381c16613a60565b6119976101008201858560401c16613a60565b6119aa6101208201858560481c16613a60565b6119bd6101408201858560501c16613a60565b6119d06101608201858560581c16613a60565b01921c16613a60565b6119ec6101a08c01888b60681c16613a60565b6119ff6101c08c01888b60701c16613a60565b611a126101e08c01888b60781c16613a60565b86896102008d01921c16613a60565b611a346102208a01868960881c16613a60565b611a476102408a01868960901c16613a60565b611a5a6102608a01868960981c16613a60565b84876102808b01921c16613a60565b611a7c6102a08801848760a81c16613a60565b611a8f6102c08801848760b01c16613a60565b611aa26102e08801848760b81c16613a60565b82856103008901921c16613a60565b611ac46103208601828560c81c16613a60565b611ad76103408601828560d01c16613a60565b611aea6103608601828560d81c16613a60565b611afd6103808601828560e01c16613a60565b611b106103a08601828560e81c16613a60565b6103c08501908360f01c16613a60565b6103e083019060f81c613a60565b01940192018594939187936113bd565b34610238576020366003190112610238576060610280604051611b608161394a565b6000815260006020820152600060408201526000838201528260808201528260a08201528260c08201528260e082015282610100820152600061012082015260006101408201526000610160820152600061018082015260006101a082015260006101c082015260006101e08201526000610200820152600061022082015260006102408201526000610260820152015260043560005260056020526112ca6040600020611d36601060405192611c168461394a565b8054845260018101546001600160a01b039081166020860152600282015416604085015260038101546060850152611c5060048201613aa7565b6080850152611c6160058201613aa7565b60a0850152611c7260068201613aa7565b60c0850152611c8360078201613aa7565b60e0850152611c9460088201613aa7565b6101008501526009810154610120850152600a810154610140850152600b810154610160850152600c810154610180850152600d8101546101a0850152600e8101546101c085015260ff600f820154611cf38282166101e08801613c8a565b611d06828260081c166102008801613c96565b611d188282861c166102208801613ca2565b818160181c1661024087015260201c16151561026085015201613aa7565b610280820152604051918291602083528051602084015260018060a01b03602082015116604084015260018060a01b03604082015116606084015260608101516080840152610280611e00611de8611dd1611dbb611da560808701516102a060a08b01526102c08a0190613b4d565b60a0870151898203601f190160c08b0152613b4d565b60c0860151888203601f190160e08a0152613b4d565b60e0850151878203601f1901610100890152613b4d565b610100840151868203601f1901610120880152613b4d565b916101208101516101408601526101408101516101608601526101608101516101808601526101808101516101a08601526101a08101516101c08601526101c08101516101e0860152611e5d6101e0820151610200870190613a60565b611e71610200820151610220870190613b8d565b611e85610220820151610240870190613b9a565b60ff610240820151166102608601526102608101511515828601520151601f19848303016102a0850152613b4d565b3461023857604036600319011261023857611ecd613934565b600435600052600f60205260406000209060018060a01b0316600052602052602060ff60406000205416604051908152f35b34610238576000366003190112610238576004546040516001600160a01b039091168152602090f35b34610238576020366003190112610238576001600160a01b03611f4961391e565b16600052600860205260e060406000208054906001810154906002810154600382015460048301549160ff600660058601549501541694604051968752602087015260408601526060850152608084015260a083015260c0820152f35b34610238576000366003190112610238576020600254604051908152f35b3461023857604036600319011261023857611fdd61391e565b60ff611fe7613bf3565b611fef613c03565b1690611ffe606483111561426d565b6001600160a01b03166000908152601160205260409020805460ff19169091179055005b346102385760203660031901126102385761012061203e61391e565b6040519061204b82613981565b6000825260006020830152600060408301526000606083015260006080830152600060a0830152600060c0830152600060e083015260006101008093015260018060a01b0316600052600760205260406000209060ff6040516120ad81613981565b8354938482526001810154602083019081526002820154604084019081526003830154606085019081526004840154906080860191825260058501549260a0870193845260068601549460c088019586528989600860078a01549960e08c019a8b5201541698019788526040519a8b525160208b01525160408a01525160608901525160808801525160a08701525160c08601525160e0850152511690820152f35b346102385760803660031901126102385760076024351015610238576001600160401b036044358181116102385761218b9036906004016139be565b9060ff606435166064350361023857600435600052600560205260406000209160018060a01b0360028401541633036125d25760ff600f84015416600a81101561048d5760036121db9114613d67565b606460ff813516116125955742600e840155600d830154420342811161247057600a84015561220f602435600f8501613cc6565b805191821161043d5781906122276007850154613a6d565b601f8111612542575b50602090601f83116001146124d0576000926124c5575b50508160011b916000199060031b1c19161760078201555b600f8101805463ff000000191660643560181b63ff0000001617905560243560010361248657600f8101805460ff1916600517905560028101546001600160a01b0316600090815260076020526040902060010180546122be90613c7b565b905560018101546001600160a01b0316600090815260086020526040902060040180546122ea90613c7b565b90555b60018060a01b0360028201541660005260076020526040600020906123128254613c7b565b91828155600a82015461232a60048301918254613d5a565b9055600b82015461234060038301918254613d5a565b90554260078201558261242b575b50600a915060018060a01b03600182015416600052600860205260406000208282015461238060028301918254613d5a565b80915581549081612414575b505050600435600052816020526123af604060002060ff600f8401541690613ce7565b600435600052600b6020526123c8426040600020613d25565b0154604051906123da82602435613b9a565b602082015260ff6064351660408201527f8ec98ceedcf96d04341ccc1b5323e399e63982f64a3b317a6a31ee84046bafb8606060043592a2005b60039161242091613da9565b91015582808061238c565b60050180546000198401908482116124705781810291818304149015171561247057600a936124636124689260ff6064351690613d5a565b613da9565b90558261234e565b634e487b7160e01b600052601160045260246000fd5b600f8101805460ff191660061790556002808201546001600160a01b031660009081526007602052604090200180546124be90613c7b565b90556122ed565b015190508380612247565b9250600784016000526020600020906000935b601f1984168510612527576001945083601f1981161061250e575b505050811b01600782015561225f565b015160001960f88460031b161c191690558380806124fe565b818101518355602094850194600190930192909101906124e3565b909150600784016000526020600020601f840160051c81016020851061258e575b90849392915b601f830160051c8201811061257f575050612230565b60008155859450600101612569565b5080612563565b60405162461bcd60e51b8152602060048201526015602482015274496e76616c6964207175616c6974792073636f726560581b6044820152606490fd5b60405162461bcd60e51b815260206004820152601a60248201527f4f6e6c792070726f76696465722063616e20636f6d706c6574650000000000006044820152606490fd5b34610238576020366003190112610238576001600160a01b0361263861391e565b166000526007602052610120604060002080549060018101549060028101546003820154600483015460058401549160068501549360ff600860078801549701541696604051988952602089015260408801526060870152608086015260a085015260c084015260e0830152610100820152f35b346102385760208060031936011261023857606060c06040516126ce81613966565b600081526000848201526000604082015260008382015260006080820152600060a082015201526004356000526006815260406000206112ca6040519161271483613966565b8054835260018101549084840191825260028101546040850190815260038201546060860190815260048301549160808701928352612761600660058601549560a08a0196875201613aa7565b9460c08801958652604051988998818a5251908901525160408801525160608701525160808601525160a08501525160c08401525160e080840152610100830190613b4d565b34610238576020366003190112610238576001600160a01b036127c861391e565b16600052600c6020526112ca6127e16040600020613dc9565b604051918291602083526020830190613ba7565b346102385761280336613a14565b90600052600b602052604060002080548210156102385760209161022a91613bdb565b34610238576000366003190112610238576000546040516001600160a01b039091168152602090f35b34610238576020366003190112610238576001600160a01b0361287061391e565b166000526010602052602060ff60406000205416604051908152f35b34610238576000366003190112610238576128a5613c03565b005b34610238576000366003190112610238576128c0613c03565b600080546001600160a01b0319811682556001600160a01b03167f8be0079c531659141344cd1fd0a4f28419497f9722a3daafe3b4186f6b6457e08280a3005b346102385760403660031901126102385761291961391e565b60ff612923613bf3565b61292b613c03565b169061293a606483111561426d565b6001600160a01b03166000908152601060205260409020805460ff19169091179055005b346102385761296c36613a14565b906000526009602052604060002080548210156102385760209161298f91613bdb565b905460405160039290921b1c6001600160a01b03168152f35b34610238576000366003190112610238576000806000806002549283600019810111612470576001949060005b858710612a1b5760a0965081612a07575b50604051946000190185526020850152604084015260608301526080820152f35b81945090612a1491613da9565b92866129e6565b91959283600052600560205260406000209160405192612a3a8461394a565b8054845260018101546001600160a01b039081166020860152600282015416604085015260038101546060850152612a7460048201613aa7565b6080850152612a8560058201613aa7565b60a0850152612a9660068201613aa7565b60c0850152612aa760078201613aa7565b60e0850152612ab860088201613aa7565b6101008501526009810154610120850152600a810154610140850152600b810154610160850152600c810154610180850152600d8101546101a0850152600e8101546101c0850152612b62600f8201546101e086019260ff612b1c81841686613c8a565b612b2f818460081c166102008a01613c96565b601092612b448282861c166102208b01613ca2565b818160181c166102408a015260201c16151561026088015201613aa7565b6102808501528051600a81101561048d57600503612bb65750612bae91610160612b9e612b91612ba894613c7b565b9661014087015190613d5a565b945b015190613d5a565b93613c7b565b9591906129d5565b9392909351600a81101561048d57600614612bdc575b612bae91610160612ba892612ba0565b96612bae91610160612bf0612ba893613c7b565b999250509150612bcc565b3461023857604036600319011261023857600435602435600a811015610238578160005260209060058252604060002091604051612c388161394a565b8354815260018401546001600160a01b0390811683830190815260028601548216604084019081526003870154606085015292829190612c7a60048901613aa7565b6080820152612c8b60058901613aa7565b60a0820152612c9c60068901613aa7565b60c0820152612cad60078901613aa7565b60e0820152612cbe60088901613aa7565b6101008201526009880154610120820152600a880154610140820152600b880154610160820152600c880154610180820152600d8801546101a0820152600e8801546101c0820152610280612d6a6010600f8b01549a60ff8c612d28829e83166101e08901613c8a565b612d3b828260081c166102008901613c96565b612d4d8282861c166102208901613ca2565b818160181c166102408801528b1c16151561026086015201613aa7565b91015251163314918215612ef8575b508115612eea575b5015612eb5578360005260058152600f6040600020019283541692600a84101561048d57828414612e7e57612db68385613e43565b15612e3957827f8a8ba0d624a05ee4e83f3118cddb0056fca393d3bde8f27021e1332ae3aa4c379492612dee606095612e3094613cae565b86600052600a8152612e04826040600020613ce7565b86600052600b8152612e1b60406000204290613d25565b612e286040518095613a60565b830190613a60565b426040820152a2005b60405162461bcd60e51b815260048101839052601860248201527f496e76616c6964207068617365207472616e736974696f6e00000000000000006044820152606490fd5b60405162461bcd60e51b815260048101839052600f60248201526e141a185cd9481d5b98da185b99d959608a1b6044820152606490fd5b6064906040519062461bcd60e51b82526004820152600e60248201526d139bdd08185d5d1a1bdc9a5e995960921b6044820152fd5b905060035416331485612d81565b819250511633149086612d79565b3461023857604036600319011261023857612f1f61391e565b6001600160a01b03166000908152600c60205260409020805460243591908210156102385760209161022a91613bdb565b3461023857602036600319011261023857612f6961391e565b600060c0604051612f7981613966565b8281528260208201528260408201528260608201528260808201528260a0820152015260018060a01b0316600052600860205260e0604060002060ff604051612fc181613966565b825492838252600181015460208301908152600282015460408401908152600383015490606085019182526004840154926080860193845260c087600660058801549760a08a0198895201541696019586526040519788525160208801525160408701525160608601525160808501525160a0840152511660c0820152f35b3461023857602036600319011261023857600435600052600e6020526112ca6127e16040600020613dc9565b346102385761307a36613a14565b90600052600e602052604060002080548210156102385760209161022a91613bdb565b3461023857602080600319360112610238576004356000818152600583526040902060028101549192916001600160a01b031633036131bf57600f81019081549060ff8216600a81101561048d576002036131835742600d9091015560ff191660031790556000828152600a82526040902080549190600160401b83101561043d57826131509160017f5000fe9d0593710f21466e31ea482c295733609494bc1dae2b7ccd4850a0c02495018155613a2a565b81549060031b9060ff6003831b921b191617905582600052600b815261317a426040600020613d25565b604051428152a2005b60405162461bcd60e51b8152600481018590526014602482015273129bd8881b5d5cdd08189948185cdcda59db995960621b6044820152606490fd5b60405162461bcd60e51b815260048101839052601760248201527f4f6e6c792070726f76696465722063616e2073746172740000000000000000006044820152606490fd5b34610238576020366003190112610238576004356000526006602052604060002080546112ca6001830154926002810154906003810154600482015490613252600660058501549401613aa7565b936040519788978852602088015260408701526060860152608085015260a084015260e060c084015260e0830190613b4d565b34610238576020366003190112610238576001600160a01b036132a661391e565b16600052600d6020526112ca6127e16040600020613dc9565b34610238576020366003190112610238576004803560009081526005602052604090208054600182015460028301546001600160a01b0390811660a052600384015460e0521692613311908301613aa7565b9261331e60058401613aa7565b9361332b60068501613aa7565b9461333860078601613aa7565b9561334560088701613aa7565b600987015497600a88015492600b89015494600c8a015496600d8b015498600e8c01549a600f8d01549c60100161337b90613aa7565b60c05260405180608052526080516020015260a0516080516040015260e051608051606001526102a08060805160800152608051016133b991613b4d565b6080518082039060a001526133cd91613b4d565b6080518082039060c001526133e191613b4d565b6080518082039060e001526133f591613b4d565b60805180820390610100015261340a91613b4d565b9660805161012001526080516101400152608051610160015260805161018001526080516101a001526080516101c001526080516101e00160ff82169061345091613a60565b608051610200018160081c60ff169061346891613b8d565b608051610220018160101c60ff169061348091613b9a565b8060181c60ff16608051610240015260201c60ff16151560805161026001526080518082039061028001526080519060c051906134bc91613b4d565b03608051f35b34610238576134d036613a14565b90600052600a6020526040600020908154811015610238576134f761350d91602093613a2a565b9190549160ff60405193849260031b1c16613a60565bf35b3461023857610100806003193601126102385760043590602435906044356064359160e4356001600160401b0390818111610238576135529036906004016139be565b9086600052602092600584526040600020604051916135708361394a565b815483526001808301546001600160a01b0390811688860152600284015481166040860190815260038501546060870152919490926135b160048601613aa7565b60808301526135c260058601613aa7565b60a08301526135d360068601613aa7565b60c08301526135e460078601613aa7565b60e08301526135f560088601613aa7565b908201526009840154610120820152600a840154610140820152600b840154610160820152600c840154610180820152600d8401546101a0820152600e8401546101c082015261028061369f6010600f8701549660ff6101e086019861365d8282168b613c8a565b613670828260081c166102008901613c96565b6136828282861c166102208901613ca2565b818160181c166102408801528d1c16151561026086015201613aa7565b910152511633036138985751600a81101561048d5760036136c09114613d67565b60066040516136ce81613966565b88815289868201888152604083018a815260608401906084358252608085019260a435845260a086019460c435865260c087019a8b52600052868b526040600020955186555187860155516002850155516003840155516004830155516005820155019251805192831161043d576137468454613a6d565b601f811161384f575b508490601f84116001146137c15792807f44c48f0a2a98711f39960a2386fdf3bc0e178616ba194122b51407ed02d4469a99979593819360609a98966000946137b6575b50501b916000199060031b1c19161790555b6040519384528301526040820152a2005b015192508c80613793565b90601f9392931983169185600052866000209260005b81811061383a57509160609997959391857f44c48f0a2a98711f39960a2386fdf3bc0e178616ba194122b51407ed02d4469a9c9a98969410613821575b505050811b0190556137a5565b015160001960f88460031b161c191690558a8080613814565b828401518555938601939288019288016137d7565b8460005285600020601f850160051c81019187861061388e575b601f0160051c019083905b82811061388257505061374f565b60008155018390613874565b9091508190613869565b6064856040519062461bcd60e51b825280600483015260248201527f4f6e6c792070726f76696465722063616e207265636f7264206d6574726963736044820152fd5b34610238576020366003190112610238576138f461391e565b6138fc613c03565b600380546001600160a01b0319166001600160a01b0392909216919091179055005b600435906001600160a01b038216820361023857565b602435906001600160a01b038216820361023857565b6102a081019081106001600160401b0382111761043d57604052565b60e081019081106001600160401b0382111761043d57604052565b61012081019081106001600160401b0382111761043d57604052565b90601f801991011681019081106001600160401b0382111761043d57604052565b81601f82011215610238578035906001600160401b03821161043d57604051926139f2601f8401601f19166020018561399d565b8284526020838301011161023857816000926020809301838601378301015290565b6040906003190112610238576004359060243590565b9190918054831015613a4a57600052601f60206000208360051c01921690565b634e487b7160e01b600052603260045260246000fd5b90600a82101561048d5752565b90600182811c92168015613a9d575b6020831014613a8757565b634e487b7160e01b600052602260045260246000fd5b91607f1691613a7c565b9060405191826000825492613abb84613a6d565b908184526001948581169081600014613b2a5750600114613ae7575b5050613ae59250038361399d565b565b9093915060005260209081600020936000915b818310613b12575050613ae593508201013880613ad7565b85548884018501529485019487945091830191613afa565b915050613ae594506020925060ff191682840152151560051b8201013880613ad7565b919082519283825260005b848110613b79575050826000602080949584010152601f8019910116010190565b602081830181015184830182015201613b58565b90600482101561048d5752565b90600782101561048d5752565b90815180825260208080930193019160005b828110613bc7575050505090565b835185529381019392810192600101613bb9565b8054821015613a4a5760005260206000200190600090565b6024359060ff8216820361023857565b6000546001600160a01b03163303613c1757565b60405163118cdaa760e01b8152336004820152602490fd5b15613c3657565b60405162461bcd60e51b815260206004820152601960248201527f4f6e6c79206d61726b6574706c6163652063616e2063616c6c000000000000006044820152606490fd5b60001981146124705760010190565b600a82101561048d5752565b600482101561048d5752565b600782101561048d5752565b90600a81101561048d5760ff80198354169116179055565b90600781101561048d5762ff000082549160101b169062ff00001916179055565b8054600160401b81101561043d57613d0491600182018155613a2a565b600a839293101561048d5760ff8084549260031b9316831b921b1916179055565b8054600160401b81101561043d57613d4291600182018155613bdb565b819291549060031b91821b91600019901b1916179055565b9190820180921161247057565b15613d6e57565b60405162461bcd60e51b81526020600482015260136024820152724a6f62206d7573742062652072756e6e696e6760681b6044820152606490fd5b8115613db3570490565b634e487b7160e01b600052601260045260246000fd5b9060405191828154918282526020928383019160005283600020936000905b828210613dfe57505050613ae59250038361399d565b855484526001958601958895509381019390910190613de8565b6001600160401b03811161043d5760051b60200190565b8051821015613a4a5760209160051b010190565b600a908181101561048d578015613f145760018114613efd5760028114613ede5760038114613ebf5760048114613ea057600714613e82575050600090565b81101561048d5760058114908115613e98575090565b600991501490565b5081101561048d5760058114908115613eb7575090565b600791501490565b5081101561048d5760048114908115613ed6575090565b600691501490565b5081101561048d5760038114908115613ef5575090565b600891501490565b5081101561048d5760028114908115613e98575090565b5081101561048d5760018114908115613ef5575090565b90600091825260206009815260408320906040518092839183825491828152019187528387209387905b828210613fb057505050613f6b9250038261399d565b825b8151811015613faa576001600160a01b0380613f898385613e2f565b511690841614613fa157613f9c90613c7b565b613f6d565b50505050600190565b50505090565b85546001600160a01b031684526001958601958795509381019390910190613f55565b60009080825260209060058252604091828420928051613ff28161394a565b845481526001808601546001600160a01b039081168584019081526002880154821685850152600388015460608501529591939061403260048901613aa7565b608085015261404360058901613aa7565b60a085015261405460068901613aa7565b60c085015261406560078901613aa7565b60e085015261407660088901613aa7565b6101008501526009880154610120850152600a880154610140850152600b880154610160850152600c880154610180850152600d8801546101a0850152600e8801546101c0850152600f936102806141246010878c01549b60ff8d6140e2829f83166101e08901613c8a565b6140f5828260081c166102008901613c96565b6141078282861c166102208901613ca2565b818160181c166102408801528c1c16151561026086015201613aa7565b91015288958997848b52858252838b20838251168c52825289848c205416614248575b50838a5260098152828a20918a8451809485918582549182815201918452858420935b8b8783831061423157505050506141839250038461399d565b8a875b6141a8575b50505050505050508115613faa576141a4929350613da9565b1690565b835181101561422c57858c52868352848c20826141c58387613e2f565b51168d5283528a8c8187822054166141e9575b50506141e390613c7b565b87614186565b829b9a6142229288836141e3968c61421c96528d8a528861420d848420928d613e2f565b51168252895220541690613d5a565b99613c7b565b9990508a8c6141d8565b61418b565b86548816855295810195899550909301920161416a565b919650965082895283875285828a209151168952865286818920541694849638614147565b1561427457565b60405162461bcd60e51b815260206004820152600d60248201526c496e76616c69642073636f726560981b6044820152606490fdfea264697066735822122086d03886539e65bf3d44112918d1ea3a1fa0a0db3a4fe74b520e495b84fe564764736f6c63430008140033","opcodes":"PUSH1 0x80 CALLVALUE PUSH3 0xD6 JUMPI PUSH1 0x1F PUSH3 0x43D1 CODESIZE DUP2 SWAP1 SUB SWAP2 DUP3 ADD PUSH1 0x1F NOT AND DUP4 ADD SWAP2 PUSH1 0x1 PUSH1 0x1 PUSH1 0x40 SHL SUB DUP4 GT DUP5 DUP5 LT OR PUSH3 0xDB JUMPI DUP1 DUP5 SWAP3 PUSH1 0x20 SWAP5 PUSH1 0x40 MSTORE DUP4 CODECOPY DUP2 ADD SUB SLT PUSH3 0xD6 JUMPI MLOAD PUSH1 0x1 PUSH1 0x1 PUSH1 0xA0 SHL SUB SWAP1 DUP2 DUP2 AND SWAP1 DUP2 SWAP1 SUB PUSH3 0xD6 JUMPI CALLER ISZERO PUSH3 0xBD JUMPI PUSH1 0x0 SLOAD PUSH1 0x1 DUP1 PUSH1 0xA0 SHL SUB NOT SWAP1 CALLER DUP3 DUP3 AND OR PUSH1 0x0 SSTORE PUSH1 0x40 MLOAD SWAP4 CALLER SWAP2 AND PUSH32 0x8BE0079C531659141344CD1FD0A4F28419497F9722A3DAAFE3B4186F6B6457E0 PUSH1 0x0 DUP1 LOG3 PUSH1 0x1 DUP1 SSTORE PUSH1 0x1 PUSH1 0x2 SSTORE PUSH1 0x4 SLOAD AND OR PUSH1 0x4 SSTORE PUSH2 0x42DF SWAP1 DUP2 PUSH3 0xF2 DUP3 CODECOPY RETURN JUMPDEST PUSH1 0x40 MLOAD PUSH4 0x1E4FBDF7 PUSH1 0xE0 SHL DUP2 MSTORE PUSH1 0x0 PUSH1 0x4 DUP3 ADD MSTORE PUSH1 0x24 SWAP1 REVERT JUMPDEST PUSH1 0x0 DUP1 REVERT JUMPDEST PUSH4 0x4E487B71 PUSH1 0xE0 SHL PUSH1 0x0 MSTORE PUSH1 0x41 PUSH1 0x4 MSTORE PUSH1 0x24 PUSH1 0x0 REVERT INVALID PUSH2 0x100 PUSH1 0x40 MSTORE PUSH1 0x4 CALLDATASIZE LT ISZERO PUSH2 0x13 JUMPI PUSH1 0x0 DUP1 REVERT JUMPDEST PUSH1 0x0 CALLDATALOAD PUSH1 0xE0 SHR DUP1 PUSH4 0x1102610E EQ PUSH2 0x38DB JUMPI DUP1 PUSH4 0x133B946C EQ PUSH2 0x350F JUMPI DUP1 PUSH4 0x17078D35 EQ PUSH2 0x34C2 JUMPI DUP1 PUSH4 0x180AEDF3 EQ PUSH2 0x32BF JUMPI DUP1 PUSH4 0x22ED45FE EQ PUSH2 0x3285 JUMPI DUP1 PUSH4 0x2DC07D47 EQ PUSH2 0x3204 JUMPI DUP1 PUSH4 0x34B7A9E0 EQ PUSH2 0x309D JUMPI DUP1 PUSH4 0x34BEC04E EQ PUSH2 0x306C JUMPI DUP1 PUSH4 0x40ECF68E EQ PUSH2 0x3040 JUMPI DUP1 PUSH4 0x4C69F6A7 EQ PUSH2 0x2F50 JUMPI DUP1 PUSH4 0x54170D1B EQ PUSH2 0x2F06 JUMPI DUP1 PUSH4 0x55E36AAD EQ PUSH2 0x2BFB JUMPI DUP1 PUSH4 0x58DE7297 EQ PUSH2 0x29A8 JUMPI DUP1 PUSH4 0x5BD21143 EQ PUSH2 0x295E JUMPI DUP1 PUSH4 0x600D97D4 EQ PUSH2 0x2900 JUMPI DUP1 PUSH4 0x715018A6 EQ PUSH2 0x28A7 JUMPI DUP1 PUSH4 0x8456CB59 EQ PUSH2 0x288C JUMPI DUP1 PUSH4 0x88537D06 EQ PUSH2 0x284F JUMPI DUP1 PUSH4 0x8DA5CB5B EQ PUSH2 0x2826 JUMPI DUP1 PUSH4 0x97D31DA2 EQ PUSH2 0x27F5 JUMPI DUP1 PUSH4 0x986B609D EQ PUSH2 0x27A7 JUMPI DUP1 PUSH4 0xA903BC07 EQ PUSH2 0x26AC JUMPI DUP1 PUSH4 0xA9555E6C EQ PUSH2 0x2617 JUMPI DUP1 PUSH4 0xADC5882B EQ PUSH2 0x214F JUMPI DUP1 PUSH4 0xAED1F157 EQ PUSH2 0x2022 JUMPI DUP1 PUSH4 0xB0305EEC EQ PUSH2 0x1FC4 JUMPI DUP1 PUSH4 0xB0C2AA5E EQ PUSH2 0x1FA6 JUMPI DUP1 PUSH4 0xB6FF6737 EQ PUSH2 0x1F28 JUMPI DUP1 PUSH4 0xBB906F2D EQ PUSH2 0x1EFF JUMPI DUP1 PUSH4 0xBBBACDFC EQ PUSH2 0x1EB4 JUMPI DUP1 PUSH4 0xBF22C457 EQ PUSH2 0x1B3E JUMPI DUP1 PUSH4 0xC25421C7 EQ PUSH2 0x1372 JUMPI DUP1 PUSH4 0xC5FB57FB EQ PUSH2 0x124A JUMPI DUP1 PUSH4 0xCA5642EA EQ PUSH2 0x1093 JUMPI DUP1 PUSH4 0xD0EDBEE2 EQ PUSH2 0x53B JUMPI DUP1 PUSH4 0xD1BB5CF1 EQ PUSH2 0x512 JUMPI DUP1 PUSH4 0xE642C885 EQ PUSH2 0x4A3 JUMPI DUP1 PUSH4 0xE97569F1 EQ PUSH2 0x303 JUMPI DUP1 PUSH4 0xF2FDE38B EQ PUSH2 0x27A JUMPI DUP1 PUSH4 0xF5BBB321 EQ PUSH2 0x23D JUMPI PUSH4 0xFDD2FDC8 EQ PUSH2 0x1E0 JUMPI PUSH1 0x0 DUP1 REVERT JUMPDEST CALLVALUE PUSH2 0x238 JUMPI PUSH1 0x40 CALLDATASIZE PUSH1 0x3 NOT ADD SLT PUSH2 0x238 JUMPI PUSH2 0x1F9 PUSH2 0x391E JUMP JUMPDEST PUSH1 0x1 PUSH1 0x1 PUSH1 0xA0 SHL SUB AND PUSH1 0x0 SWAP1 DUP2 MSTORE PUSH1 0xD PUSH1 0x20 MSTORE PUSH1 0x40 SWAP1 KECCAK256 DUP1 SLOAD PUSH1 0x24 CALLDATALOAD SWAP2 SWAP1 DUP3 LT ISZERO PUSH2 0x238 JUMPI PUSH1 0x20 SWAP2 PUSH2 0x22A SWAP2 PUSH2 0x3BDB JUMP JUMPDEST SWAP1 SLOAD PUSH1 0x40 MLOAD SWAP2 PUSH1 0x3 SHL SHR DUP2 MSTORE RETURN JUMPDEST PUSH1 0x0 DUP1 REVERT JUMPDEST CALLVALUE PUSH2 0x238 JUMPI PUSH1 0x20 CALLDATASIZE PUSH1 0x3 NOT ADD SLT PUSH2 0x238 JUMPI PUSH1 0x1 PUSH1 0x1 PUSH1 0xA0 SHL SUB PUSH2 0x25E PUSH2 0x391E JUMP JUMPDEST AND PUSH1 0x0 MSTORE PUSH1 0x11 PUSH1 0x20 MSTORE PUSH1 0x20 PUSH1 0xFF PUSH1 0x40 PUSH1 0x0 KECCAK256 SLOAD AND PUSH1 0x40 MLOAD SWAP1 DUP2 MSTORE RETURN JUMPDEST CALLVALUE PUSH2 0x238 JUMPI PUSH1 0x20 CALLDATASIZE PUSH1 0x3 NOT ADD SLT PUSH2 0x238 JUMPI PUSH2 0x293 PUSH2 0x391E JUMP JUMPDEST PUSH2 0x29B PUSH2 0x3C03 JUMP JUMPDEST PUSH1 0x1 PUSH1 0x1 PUSH1 0xA0 SHL SUB SWAP1 DUP2 AND SWAP1 DUP2 ISZERO PUSH2 0x2EA JUMPI PUSH1 0x0 SLOAD DUP3 PUSH1 0x1 PUSH1 0x1 PUSH1 0x60 SHL SUB PUSH1 0xA0 SHL DUP3 AND OR PUSH1 0x0 SSTORE AND PUSH32 0x8BE0079C531659141344CD1FD0A4F28419497F9722A3DAAFE3B4186F6B6457E0 PUSH1 0x0 DUP1 LOG3 STOP JUMPDEST PUSH1 0x40 MLOAD PUSH4 0x1E4FBDF7 PUSH1 0xE0 SHL DUP2 MSTORE PUSH1 0x0 PUSH1 0x4 DUP3 ADD MSTORE PUSH1 0x24 SWAP1 REVERT JUMPDEST CALLVALUE PUSH2 0x238 JUMPI PUSH1 0x60 CALLDATASIZE PUSH1 0x3 NOT ADD SLT PUSH2 0x238 JUMPI PUSH1 0x4 CALLDATALOAD PUSH2 0x31F PUSH2 0x3934 JUMP JUMPDEST PUSH1 0x44 CALLDATALOAD SWAP2 PUSH1 0x1 DUP1 PUSH1 0xA0 SHL SUB PUSH2 0x339 DUP2 PUSH1 0x3 SLOAD AND CALLER EQ PUSH2 0x3C2F JUMP JUMPDEST DUP2 PUSH1 0x0 MSTORE PUSH1 0x20 SWAP1 PUSH1 0x5 DUP3 MSTORE PUSH1 0x40 PUSH1 0x0 KECCAK256 SWAP1 PUSH1 0xF DUP3 ADD SWAP2 DUP3 SLOAD SWAP2 PUSH1 0xFF DUP4 AND PUSH1 0xA DUP2 LT ISZERO PUSH2 0x48D JUMPI PUSH1 0x1 SUB PUSH2 0x453 JUMPI PUSH1 0x3 DUP3 DUP10 SWAP3 PUSH1 0x2 DUP1 SWAP7 SWAP6 ADD SWAP10 AND SWAP9 DUP10 PUSH1 0x1 PUSH1 0x1 PUSH1 0x60 SHL SUB PUSH1 0xA0 SHL DUP3 SLOAD AND OR SWAP1 SSTORE ADD SSTORE PUSH1 0xFF NOT AND OR SWAP1 SSTORE DUP3 PUSH1 0x0 MSTORE PUSH1 0xD DUP2 MSTORE PUSH2 0x3A5 DUP3 PUSH1 0x40 PUSH1 0x0 KECCAK256 PUSH2 0x3D25 JUMP JUMPDEST DUP4 PUSH1 0x0 MSTORE PUSH1 0xE DUP2 MSTORE PUSH2 0x3BB DUP3 PUSH1 0x40 PUSH1 0x0 KECCAK256 PUSH2 0x3D25 JUMP JUMPDEST DUP2 PUSH1 0x0 MSTORE PUSH1 0xA DUP2 MSTORE PUSH1 0x40 PUSH1 0x0 KECCAK256 SWAP1 DUP2 SLOAD SWAP2 PUSH1 0x1 PUSH1 0x40 SHL DUP4 LT ISZERO PUSH2 0x43D JUMPI DUP3 PUSH2 0x409 SWAP2 PUSH1 0x1 PUSH32 0xB4EC363D404AA17743B1D4B609E3894C1B2CDFD991468352894FCA6201168863 SWAP6 ADD DUP2 SSTORE PUSH2 0x3A2A JUMP JUMPDEST DUP2 SLOAD SWAP1 PUSH1 0x3 SHL SWAP1 PUSH1 0xFF PUSH1 0x2 DUP4 SHL SWAP3 SHL NOT AND OR SWAP1 SSTORE DUP3 PUSH1 0x0 MSTORE PUSH1 0xB DUP2 MSTORE PUSH2 0x434 PUSH1 0x40 PUSH1 0x0 KECCAK256 TIMESTAMP SWAP1 PUSH2 0x3D25 JUMP JUMPDEST PUSH1 0x40 MLOAD TIMESTAMP DUP2 MSTORE LOG4 STOP JUMPDEST PUSH4 0x4E487B71 PUSH1 0xE0 SHL PUSH1 0x0 MSTORE PUSH1 0x41 PUSH1 0x4 MSTORE PUSH1 0x24 PUSH1 0x0 REVERT JUMPDEST PUSH1 0x40 MLOAD PUSH3 0x461BCD PUSH1 0xE5 SHL DUP2 MSTORE PUSH1 0x4 DUP2 ADD DUP7 SWAP1 MSTORE PUSH1 0x12 PUSH1 0x24 DUP3 ADD MSTORE PUSH18 0x129BD8881B5D5CDD08189948199D5B991959 PUSH1 0x72 SHL PUSH1 0x44 DUP3 ADD MSTORE PUSH1 0x64 SWAP1 REVERT JUMPDEST PUSH4 0x4E487B71 PUSH1 0xE0 SHL PUSH1 0x0 MSTORE PUSH1 0x21 PUSH1 0x4 MSTORE PUSH1 0x24 PUSH1 0x0 REVERT JUMPDEST CALLVALUE PUSH2 0x238 JUMPI PUSH1 0x40 CALLDATASIZE PUSH1 0x3 NOT ADD SLT PUSH2 0x238 JUMPI PUSH2 0x4BC PUSH2 0x3934 JUMP JUMPDEST PUSH2 0x4C4 PUSH2 0x3C03 JUMP JUMPDEST PUSH1 0x4 CALLDATALOAD PUSH1 0x0 MSTORE PUSH1 0x9 PUSH1 0x20 MSTORE PUSH1 0x40 PUSH1 0x0 KECCAK256 DUP1 SLOAD PUSH1 0x1 PUSH1 0x40 SHL DUP2 LT ISZERO PUSH2 0x43D JUMPI PUSH2 0x4F1 SWAP2 PUSH1 0x1 DUP3 ADD DUP2 SSTORE PUSH2 0x3BDB JUMP JUMPDEST DUP2 SWAP3 SWAP2 SLOAD SWAP1 PUSH1 0x3 SHL SWAP2 PUSH1 0x1 DUP1 PUSH1 0xA0 SHL SUB DUP1 SWAP2 AND DUP4 SHL SWAP3 SHL NOT AND OR SWAP1 SSTORE PUSH1 0x0 DUP1 RETURN JUMPDEST CALLVALUE PUSH2 0x238 JUMPI PUSH1 0x0 CALLDATASIZE PUSH1 0x3 NOT ADD SLT PUSH2 0x238 JUMPI PUSH1 0x3 SLOAD PUSH1 0x40 MLOAD PUSH1 0x1 PUSH1 0x1 PUSH1 0xA0 SHL SUB SWAP1 SWAP2 AND DUP2 MSTORE PUSH1 0x20 SWAP1 RETURN JUMPDEST CALLVALUE PUSH2 0x238 JUMPI PUSH2 0x140 CALLDATASIZE PUSH1 0x3 NOT ADD SLT PUSH2 0x238 JUMPI PUSH2 0x555 PUSH2 0x391E JUMP JUMPDEST PUSH1 0x24 CALLDATALOAD PUSH1 0x1 PUSH1 0x1 PUSH1 0x40 SHL SUB DUP2 GT PUSH2 0x238 JUMPI PUSH2 0x574 SWAP1 CALLDATASIZE SWAP1 PUSH1 0x4 ADD PUSH2 0x39BE JUMP JUMPDEST SWAP1 PUSH1 0x44 CALLDATALOAD PUSH1 0x1 PUSH1 0x1 PUSH1 0x40 SHL SUB DUP2 GT PUSH2 0x238 JUMPI PUSH2 0x594 SWAP1 CALLDATASIZE SWAP1 PUSH1 0x4 ADD PUSH2 0x39BE JUMP JUMPDEST SWAP1 PUSH1 0x64 CALLDATALOAD PUSH1 0x1 PUSH1 0x1 PUSH1 0x40 SHL SUB DUP2 GT PUSH2 0x238 JUMPI PUSH2 0x5B4 SWAP1 CALLDATASIZE SWAP1 PUSH1 0x4 ADD PUSH2 0x39BE JUMP JUMPDEST SWAP2 PUSH1 0x84 CALLDATALOAD PUSH1 0x1 PUSH1 0x1 PUSH1 0x40 SHL SUB DUP2 GT PUSH2 0x238 JUMPI PUSH2 0x5D4 SWAP1 CALLDATASIZE SWAP1 PUSH1 0x4 ADD PUSH2 0x39BE JUMP JUMPDEST PUSH1 0x4 PUSH1 0xE4 CALLDATALOAD LT ISZERO PUSH2 0x238 JUMPI PUSH2 0x104 CALLDATALOAD DUP1 ISZERO ISZERO DUP2 SUB PUSH2 0x238 JUMPI PUSH2 0x124 CALLDATALOAD PUSH1 0x1 PUSH1 0x1 PUSH1 0x40 SHL SUB DUP2 GT PUSH2 0x238 JUMPI PUSH2 0x60C SWAP1 CALLDATASIZE SWAP1 PUSH1 0x4 ADD PUSH2 0x39BE JUMP JUMPDEST SWAP2 PUSH2 0x622 PUSH1 0x1 DUP1 PUSH1 0xA0 SHL SUB PUSH1 0x3 SLOAD AND CALLER EQ PUSH2 0x3C2F JUMP JUMPDEST PUSH1 0x2 SLOAD SWAP6 PUSH2 0x62F DUP8 PUSH2 0x3C7B JUMP JUMPDEST PUSH1 0x2 SSTORE PUSH1 0x40 MLOAD SWAP5 PUSH2 0x63F DUP7 PUSH2 0x394A JUMP JUMPDEST DUP8 DUP7 MSTORE PUSH1 0x1 DUP1 PUSH1 0xA0 SHL SUB DUP8 AND PUSH1 0x20 DUP8 ADD MSTORE PUSH1 0x0 PUSH1 0x40 DUP8 ADD MSTORE PUSH1 0x0 PUSH1 0x60 DUP8 ADD MSTORE DUP9 PUSH1 0x80 DUP8 ADD MSTORE PUSH1 0xA0 DUP7 ADD MSTORE PUSH1 0xC0 DUP6 ADD MSTORE PUSH1 0x40 MLOAD DUP1 PUSH1 0x20 DUP2 ADD LT PUSH1 0x1 PUSH1 0x1 PUSH1 0x40 SHL SUB PUSH1 0x20 DUP4 ADD GT OR PUSH2 0x43D JUMPI PUSH1 0x20 DUP2 ADD PUSH1 0x40 MSTORE PUSH1 0x0 DUP2 MSTORE PUSH1 0xE0 DUP6 ADD MSTORE PUSH2 0x100 DUP5 ADD MSTORE PUSH1 0xA4 CALLDATALOAD PUSH2 0x120 DUP5 ADD MSTORE PUSH1 0x0 PUSH2 0x140 DUP5 ADD MSTORE PUSH1 0xC4 CALLDATALOAD PUSH2 0x160 DUP5 ADD MSTORE TIMESTAMP PUSH2 0x180 DUP5 ADD MSTORE PUSH1 0x0 PUSH2 0x1A0 DUP5 ADD MSTORE PUSH1 0x0 PUSH2 0x1C0 DUP5 ADD MSTORE PUSH1 0x0 PUSH2 0x1E0 DUP5 ADD MSTORE PUSH2 0x6E8 PUSH1 0xE4 CALLDATALOAD PUSH2 0x200 DUP6 ADD PUSH2 0x3C96 JUMP JUMPDEST PUSH1 0x0 PUSH2 0x220 DUP5 ADD MSTORE PUSH1 0x0 PUSH2 0x240 DUP5 ADD MSTORE ISZERO ISZERO PUSH2 0x260 DUP4 ADD MSTORE PUSH2 0x280 DUP3 ADD MSTORE DUP3 PUSH1 0x0 MSTORE PUSH1 0x5 PUSH1 0x20 MSTORE PUSH1 0x40 PUSH1 0x0 KECCAK256 SWAP1 DUP1 MLOAD DUP3 SSTORE PUSH1 0x1 DUP3 ADD PUSH1 0x1 DUP1 PUSH1 0xA0 SHL SUB PUSH1 0x20 DUP4 ADD MLOAD AND SWAP1 PUSH1 0x1 PUSH1 0x1 PUSH1 0x60 SHL SUB PUSH1 0xA0 SHL SWAP2 DUP3 DUP3 SLOAD AND OR SWAP1 SSTORE PUSH1 0x2 DUP4 ADD SWAP1 PUSH1 0x1 DUP1 PUSH1 0xA0 SHL SUB PUSH1 0x40 DUP5 ADD MLOAD AND SWAP1 DUP3 SLOAD AND OR SWAP1 SSTORE PUSH1 0x60 DUP2 ADD MLOAD PUSH1 0x3 DUP4 ADD SSTORE PUSH1 0x80 DUP2 ADD MLOAD DUP1 MLOAD SWAP1 PUSH1 0x1 PUSH1 0x1 PUSH1 0x40 SHL SUB DUP3 GT PUSH2 0x43D JUMPI DUP2 SWAP1 PUSH2 0x786 PUSH1 0x4 DUP7 ADD SLOAD PUSH2 0x3A6D JUMP JUMPDEST PUSH1 0x1F DUP2 GT PUSH2 0x1040 JUMPI JUMPDEST POP PUSH1 0x20 SWAP1 PUSH1 0x1F DUP4 GT PUSH1 0x1 EQ PUSH2 0xFCE JUMPI PUSH1 0x0 SWAP3 PUSH2 0xFC3 JUMPI JUMPDEST POP POP DUP2 PUSH1 0x1 SHL SWAP2 PUSH1 0x0 NOT SWAP1 PUSH1 0x3 SHL SHR NOT AND OR PUSH1 0x4 DUP4 ADD SSTORE JUMPDEST PUSH1 0xA0 DUP2 ADD MLOAD DUP1 MLOAD SWAP1 PUSH1 0x1 PUSH1 0x1 PUSH1 0x40 SHL SUB DUP3 GT PUSH2 0x43D JUMPI DUP2 SWAP1 PUSH2 0x7E3 PUSH1 0x5 DUP7 ADD SLOAD PUSH2 0x3A6D JUMP JUMPDEST PUSH1 0x1F DUP2 GT PUSH2 0xF70 JUMPI JUMPDEST POP PUSH1 0x20 SWAP1 PUSH1 0x1F DUP4 GT PUSH1 0x1 EQ PUSH2 0xEFE JUMPI PUSH1 0x0 SWAP3 PUSH2 0xEF3 JUMPI JUMPDEST POP POP DUP2 PUSH1 0x1 SHL SWAP2 PUSH1 0x0 NOT SWAP1 PUSH1 0x3 SHL SHR NOT AND OR PUSH1 0x5 DUP4 ADD SSTORE JUMPDEST PUSH1 0xC0 DUP2 ADD MLOAD DUP1 MLOAD SWAP1 PUSH1 0x1 PUSH1 0x1 PUSH1 0x40 SHL SUB DUP3 GT PUSH2 0x43D JUMPI DUP2 SWAP1 PUSH2 0x840 PUSH1 0x6 DUP7 ADD SLOAD PUSH2 0x3A6D JUMP JUMPDEST PUSH1 0x1F DUP2 GT PUSH2 0xEA0 JUMPI JUMPDEST POP PUSH1 0x20 SWAP1 PUSH1 0x1F DUP4 GT PUSH1 0x1 EQ PUSH2 0xE2E JUMPI PUSH1 0x0 SWAP3 PUSH2 0xE23 JUMPI JUMPDEST POP POP DUP2 PUSH1 0x1 SHL SWAP2 PUSH1 0x0 NOT SWAP1 PUSH1 0x3 SHL SHR NOT AND OR PUSH1 0x6 DUP4 ADD SSTORE JUMPDEST PUSH1 0xE0 DUP2 ADD MLOAD DUP1 MLOAD SWAP1 PUSH1 0x1 PUSH1 0x1 PUSH1 0x40 SHL SUB DUP3 GT PUSH2 0x43D JUMPI DUP2 SWAP1 PUSH2 0x89D PUSH1 0x7 DUP7 ADD SLOAD PUSH2 0x3A6D JUMP JUMPDEST PUSH1 0x1F DUP2 GT PUSH2 0xDD0 JUMPI JUMPDEST POP PUSH1 0x20 SWAP1 PUSH1 0x1F DUP4 GT PUSH1 0x1 EQ PUSH2 0xD5E JUMPI PUSH1 0x0 SWAP3 PUSH2 0xD53 JUMPI JUMPDEST POP POP DUP2 PUSH1 0x1 SHL SWAP2 PUSH1 0x0 NOT SWAP1 PUSH1 0x3 SHL SHR NOT AND OR PUSH1 0x7 DUP4 ADD SSTORE JUMPDEST PUSH2 0x100 DUP2 ADD MLOAD DUP1 MLOAD SWAP1 PUSH1 0x1 PUSH1 0x1 PUSH1 0x40 SHL SUB DUP3 GT PUSH2 0x43D JUMPI DUP2 SWAP1 PUSH2 0x8FB PUSH1 0x8 DUP7 ADD SLOAD PUSH2 0x3A6D JUMP JUMPDEST PUSH1 0x1F DUP2 GT PUSH2 0xD00 JUMPI JUMPDEST POP PUSH1 0x20 SWAP1 PUSH1 0x1F DUP4 GT PUSH1 0x1 EQ PUSH2 0xC8E JUMPI PUSH1 0x0 SWAP3 PUSH2 0xC83 JUMPI JUMPDEST POP POP DUP2 PUSH1 0x1 SHL SWAP2 PUSH1 0x0 NOT SWAP1 PUSH1 0x3 SHL SHR NOT AND OR PUSH1 0x8 DUP4 ADD SSTORE JUMPDEST PUSH2 0x120 DUP2 ADD MLOAD PUSH1 0x9 DUP4 ADD SSTORE PUSH2 0x140 DUP2 ADD MLOAD PUSH1 0xA DUP4 ADD SSTORE PUSH2 0x160 DUP2 ADD MLOAD PUSH1 0xB DUP4 ADD SSTORE PUSH2 0x180 DUP2 ADD MLOAD PUSH1 0xC DUP4 ADD SSTORE PUSH2 0x1A0 DUP2 ADD MLOAD PUSH1 0xD DUP4 ADD SSTORE PUSH2 0x1C0 DUP2 ADD MLOAD PUSH1 0xE DUP4 ADD SSTORE PUSH2 0x1E0 DUP2 ADD MLOAD PUSH1 0xA DUP2 LT ISZERO PUSH2 0x48D JUMPI PUSH2 0x991 SWAP1 PUSH1 0xF DUP5 ADD PUSH2 0x3CAE JUMP JUMPDEST PUSH2 0x200 DUP2 ADD MLOAD PUSH1 0x4 DUP2 LT ISZERO PUSH2 0x48D JUMPI PUSH2 0xFF00 PUSH1 0xF DUP5 ADD SLOAD SWAP2 PUSH1 0x8 SHL AND SWAP1 PUSH2 0xFF00 NOT AND OR PUSH1 0xF DUP4 ADD SSTORE PUSH2 0x220 DUP2 ADD MLOAD SWAP1 PUSH1 0x7 DUP3 LT ISZERO PUSH2 0x48D JUMPI PUSH2 0x9D9 PUSH2 0x280 SWAP3 PUSH1 0xF DUP6 ADD PUSH2 0x3CC6 JUMP JUMPDEST PUSH2 0xA03 PUSH1 0xFF PUSH2 0x240 DUP4 ADD MLOAD AND PUSH1 0xF DUP6 ADD SWAP1 PUSH4 0xFF000000 DUP3 SLOAD SWAP2 PUSH1 0x18 SHL AND SWAP1 PUSH4 0xFF000000 NOT AND OR SWAP1 SSTORE JUMP JUMPDEST PUSH2 0x260 DUP2 ADD MLOAD ISZERO ISZERO PUSH5 0xFF00000000 PUSH1 0xF DUP6 ADD SLOAD SWAP2 PUSH1 0x20 SHL AND SWAP1 PUSH5 0xFF00000000 NOT AND OR PUSH1 0xF DUP5 ADD SSTORE ADD MLOAD DUP1 MLOAD SWAP1 PUSH1 0x1 PUSH1 0x1 PUSH1 0x40 SHL SUB DUP3 GT PUSH2 0x43D JUMPI PUSH2 0xA4A PUSH1 0x10 DUP5 ADD SLOAD PUSH2 0x3A6D JUMP JUMPDEST PUSH1 0x1F DUP2 GT PUSH2 0xC3C JUMPI JUMPDEST POP PUSH1 0x20 SWAP1 PUSH1 0x1F DUP4 GT PUSH1 0x1 EQ PUSH2 0xBCC JUMPI PUSH1 0x10 SWAP3 SWAP2 PUSH1 0x0 SWAP2 DUP4 PUSH2 0xBC1 JUMPI JUMPDEST POP POP DUP2 PUSH1 0x1 SHL SWAP2 PUSH1 0x0 NOT SWAP1 PUSH1 0x3 SHL SHR NOT AND OR SWAP2 ADD SSTORE JUMPDEST DUP2 PUSH1 0x0 MSTORE PUSH1 0xA PUSH1 0x20 MSTORE PUSH1 0x40 PUSH1 0x0 KECCAK256 SWAP3 DUP4 SLOAD SWAP4 PUSH1 0x1 PUSH1 0x40 SHL DUP6 LT ISZERO PUSH2 0x43D JUMPI PUSH2 0xB95 DUP5 SWAP3 PUSH2 0xADB DUP8 PUSH32 0xD79A0A8F7861C5BE2C003C146F417EA1CE30845C59844F6E4931B1B73A4A6003 SWAP5 PUSH1 0x1 PUSH1 0x20 SWAP11 ADD DUP2 SSTORE PUSH2 0x3A2A JUMP JUMPDEST PUSH1 0xFF DUP3 SLOAD SWAP2 PUSH1 0x3 SHL SHL NOT AND SWAP1 SSTORE DUP4 PUSH1 0x0 MSTORE PUSH1 0xB DUP8 MSTORE PUSH2 0xAFE TIMESTAMP PUSH1 0x40 PUSH1 0x0 KECCAK256 PUSH2 0x3D25 JUMP JUMPDEST PUSH1 0x1 DUP1 PUSH1 0xA0 SHL SUB DUP6 AND PUSH1 0x0 MSTORE PUSH1 0xC DUP8 MSTORE PUSH2 0xB1C DUP5 PUSH1 0x40 PUSH1 0x0 KECCAK256 PUSH2 0x3D25 JUMP JUMPDEST PUSH1 0x1 PUSH1 0x1 PUSH1 0xA0 SHL SUB DUP6 AND PUSH1 0x0 SWAP1 DUP2 MSTORE PUSH1 0x8 DUP9 MSTORE PUSH1 0x40 SWAP1 KECCAK256 DUP1 SLOAD PUSH2 0xB3E SWAP1 PUSH2 0x3C7B JUMP JUMPDEST SWAP1 SSTORE PUSH1 0x1 DUP1 PUSH1 0xA0 SHL SUB DUP6 AND PUSH1 0x0 MSTORE PUSH1 0x8 DUP8 MSTORE PUSH1 0x1 PUSH1 0x40 PUSH1 0x0 KECCAK256 ADD PUSH2 0xB65 PUSH1 0xC4 CALLDATALOAD DUP3 SLOAD PUSH2 0x3D5A JUMP JUMPDEST SWAP1 SSTORE PUSH1 0x1 DUP1 PUSH1 0xA0 SHL SUB DUP6 AND PUSH1 0x0 MSTORE PUSH1 0x8 DUP8 MSTORE TIMESTAMP PUSH1 0x5 PUSH1 0x40 PUSH1 0x0 KECCAK256 ADD SSTORE PUSH1 0x40 MLOAD SWAP2 DUP3 SWAP2 PUSH1 0x60 DUP4 MSTORE PUSH1 0x60 DUP4 ADD SWAP1 PUSH2 0x3B4D JUMP JUMPDEST SWAP5 PUSH2 0xBA4 DUP9 DUP4 ADD PUSH1 0xE4 CALLDATALOAD PUSH2 0x3B8D JUMP JUMPDEST PUSH1 0xA4 CALLDATALOAD PUSH1 0x40 DUP4 ADD MSTORE PUSH1 0x1 PUSH1 0x1 PUSH1 0xA0 SHL SUB AND SWAP5 SUB SWAP1 LOG3 PUSH1 0x40 MLOAD SWAP1 DUP2 MSTORE RETURN JUMPDEST ADD MLOAD SWAP1 POP DUP8 DUP1 PUSH2 0xA6F JUMP JUMPDEST SWAP1 PUSH1 0x10 DUP5 ADD PUSH1 0x0 MSTORE PUSH1 0x20 PUSH1 0x0 KECCAK256 SWAP2 PUSH1 0x0 JUMPDEST PUSH1 0x1F NOT DUP6 AND DUP2 LT PUSH2 0xC24 JUMPI POP SWAP2 DUP4 SWAP2 PUSH1 0x1 SWAP4 PUSH1 0x10 SWAP6 PUSH1 0x1F NOT DUP2 AND LT PUSH2 0xC0B JUMPI JUMPDEST POP POP POP DUP2 SHL ADD SWAP2 ADD SSTORE PUSH2 0xA85 JUMP JUMPDEST ADD MLOAD PUSH1 0x0 NOT PUSH1 0xF8 DUP5 PUSH1 0x3 SHL AND SHR NOT AND SWAP1 SSTORE DUP8 DUP1 DUP1 PUSH2 0xBFD JUMP JUMPDEST SWAP2 SWAP3 PUSH1 0x20 PUSH1 0x1 DUP2 SWAP3 DUP7 DUP6 ADD MLOAD DUP2 SSTORE ADD SWAP5 ADD SWAP3 ADD PUSH2 0xBDD JUMP JUMPDEST PUSH1 0x10 DUP5 ADD PUSH1 0x0 MSTORE PUSH1 0x20 PUSH1 0x0 KECCAK256 PUSH1 0x1F DUP5 ADD PUSH1 0x5 SHR DUP2 ADD PUSH1 0x20 DUP6 LT PUSH2 0xC7C JUMPI JUMPDEST PUSH1 0x1F DUP4 ADD PUSH1 0x5 SHR DUP3 ADD DUP2 LT PUSH2 0xC70 JUMPI POP POP PUSH2 0xA53 JUMP JUMPDEST PUSH1 0x0 DUP2 SSTORE PUSH1 0x1 ADD PUSH2 0xC5A JUMP JUMPDEST POP DUP1 PUSH2 0xC5A JUMP JUMPDEST ADD MLOAD SWAP1 POP DUP8 DUP1 PUSH2 0x91B JUMP JUMPDEST SWAP3 POP PUSH1 0x8 DUP6 ADD PUSH1 0x0 MSTORE PUSH1 0x20 PUSH1 0x0 KECCAK256 SWAP1 PUSH1 0x0 SWAP4 JUMPDEST PUSH1 0x1F NOT DUP5 AND DUP6 LT PUSH2 0xCE5 JUMPI PUSH1 0x1 SWAP5 POP DUP4 PUSH1 0x1F NOT DUP2 AND LT PUSH2 0xCCC JUMPI JUMPDEST POP POP POP DUP2 SHL ADD PUSH1 0x8 DUP4 ADD SSTORE PUSH2 0x933 JUMP JUMPDEST ADD MLOAD PUSH1 0x0 NOT PUSH1 0xF8 DUP5 PUSH1 0x3 SHL AND SHR NOT AND SWAP1 SSTORE DUP8 DUP1 DUP1 PUSH2 0xCBC JUMP JUMPDEST DUP2 DUP2 ADD MLOAD DUP4 SSTORE PUSH1 0x20 SWAP5 DUP6 ADD SWAP5 PUSH1 0x1 SWAP1 SWAP4 ADD SWAP3 SWAP1 SWAP2 ADD SWAP1 PUSH2 0xCA1 JUMP JUMPDEST SWAP1 SWAP2 POP PUSH1 0x8 DUP6 ADD PUSH1 0x0 MSTORE PUSH1 0x20 PUSH1 0x0 KECCAK256 PUSH1 0x1F DUP5 ADD PUSH1 0x5 SHR DUP2 ADD PUSH1 0x20 DUP6 LT PUSH2 0xD4C JUMPI JUMPDEST SWAP1 DUP5 SWAP4 SWAP3 SWAP2 JUMPDEST PUSH1 0x1F DUP4 ADD PUSH1 0x5 SHR DUP3 ADD DUP2 LT PUSH2 0xD3D JUMPI POP POP PUSH2 0x904 JUMP JUMPDEST PUSH1 0x0 DUP2 SSTORE DUP6 SWAP5 POP PUSH1 0x1 ADD PUSH2 0xD27 JUMP JUMPDEST POP DUP1 PUSH2 0xD21 JUMP JUMPDEST ADD MLOAD SWAP1 POP DUP8 DUP1 PUSH2 0x8BD JUMP JUMPDEST SWAP3 POP PUSH1 0x7 DUP6 ADD PUSH1 0x0 MSTORE PUSH1 0x20 PUSH1 0x0 KECCAK256 SWAP1 PUSH1 0x0 SWAP4 JUMPDEST PUSH1 0x1F NOT DUP5 AND DUP6 LT PUSH2 0xDB5 JUMPI PUSH1 0x1 SWAP5 POP DUP4 PUSH1 0x1F NOT DUP2 AND LT PUSH2 0xD9C JUMPI JUMPDEST POP POP POP DUP2 SHL ADD PUSH1 0x7 DUP4 ADD SSTORE PUSH2 0x8D5 JUMP JUMPDEST ADD MLOAD PUSH1 0x0 NOT PUSH1 0xF8 DUP5 PUSH1 0x3 SHL AND SHR NOT AND SWAP1 SSTORE DUP8 DUP1 DUP1 PUSH2 0xD8C JUMP JUMPDEST DUP2 DUP2 ADD MLOAD DUP4 SSTORE PUSH1 0x20 SWAP5 DUP6 ADD SWAP5 PUSH1 0x1 SWAP1 SWAP4 ADD SWAP3 SWAP1 SWAP2 ADD SWAP1 PUSH2 0xD71 JUMP JUMPDEST SWAP1 SWAP2 POP PUSH1 0x7 DUP6 ADD PUSH1 0x0 MSTORE PUSH1 0x20 PUSH1 0x0 KECCAK256 PUSH1 0x1F DUP5 ADD PUSH1 0x5 SHR DUP2 ADD PUSH1 0x20 DUP6 LT PUSH2 0xE1C JUMPI JUMPDEST SWAP1 DUP5 SWAP4 SWAP3 SWAP2 JUMPDEST PUSH1 0x1F DUP4 ADD PUSH1 0x5 SHR DUP3 ADD DUP2 LT PUSH2 0xE0D JUMPI POP POP PUSH2 0x8A6 JUMP JUMPDEST PUSH1 0x0 DUP2 SSTORE DUP6 SWAP5 POP PUSH1 0x1 ADD PUSH2 0xDF7 JUMP JUMPDEST POP DUP1 PUSH2 0xDF1 JUMP JUMPDEST ADD MLOAD SWAP1 POP DUP8 DUP1 PUSH2 0x860 JUMP JUMPDEST SWAP3 POP PUSH1 0x6 DUP6 ADD PUSH1 0x0 MSTORE PUSH1 0x20 PUSH1 0x0 KECCAK256 SWAP1 PUSH1 0x0 SWAP4 JUMPDEST PUSH1 0x1F NOT DUP5 AND DUP6 LT PUSH2 0xE85 JUMPI PUSH1 0x1 SWAP5 POP DUP4 PUSH1 0x1F NOT DUP2 AND LT PUSH2 0xE6C JUMPI JUMPDEST POP POP POP DUP2 SHL ADD PUSH1 0x6 DUP4 ADD SSTORE PUSH2 0x878 JUMP JUMPDEST ADD MLOAD PUSH1 0x0 NOT PUSH1 0xF8 DUP5 PUSH1 0x3 SHL AND SHR NOT AND SWAP1 SSTORE DUP8 DUP1 DUP1 PUSH2 0xE5C JUMP JUMPDEST DUP2 DUP2 ADD MLOAD DUP4 SSTORE PUSH1 0x20 SWAP5 DUP6 ADD SWAP5 PUSH1 0x1 SWAP1 SWAP4 ADD SWAP3 SWAP1 SWAP2 ADD SWAP1 PUSH2 0xE41 JUMP JUMPDEST SWAP1 SWAP2 POP PUSH1 0x6 DUP6 ADD PUSH1 0x0 MSTORE PUSH1 0x20 PUSH1 0x0 KECCAK256 PUSH1 0x1F DUP5 ADD PUSH1 0x5 SHR DUP2 ADD PUSH1 0x20 DUP6 LT PUSH2 0xEEC JUMPI JUMPDEST SWAP1 DUP5 SWAP4 SWAP3 SWAP2 JUMPDEST PUSH1 0x1F DUP4 ADD PUSH1 0x5 SHR DUP3 ADD DUP2 LT PUSH2 0xEDD JUMPI POP POP PUSH2 0x849 JUMP JUMPDEST PUSH1 0x0 DUP2 SSTORE DUP6 SWAP5 POP PUSH1 0x1 ADD PUSH2 0xEC7 JUMP JUMPDEST POP DUP1 PUSH2 0xEC1 JUMP JUMPDEST ADD MLOAD SWAP1 POP DUP8 DUP1 PUSH2 0x803 JUMP JUMPDEST SWAP3 POP PUSH1 0x5 DUP6 ADD PUSH1 0x0 MSTORE PUSH1 0x20 PUSH1 0x0 KECCAK256 SWAP1 PUSH1 0x0 SWAP4 JUMPDEST PUSH1 0x1F NOT DUP5 AND DUP6 LT PUSH2 0xF55 JUMPI PUSH1 0x1 SWAP5 POP DUP4 PUSH1 0x1F NOT DUP2 AND LT PUSH2 0xF3C JUMPI JUMPDEST POP POP POP DUP2 SHL ADD PUSH1 0x5 DUP4 ADD SSTORE PUSH2 0x81B JUMP JUMPDEST ADD MLOAD PUSH1 0x0 NOT PUSH1 0xF8 DUP5 PUSH1 0x3 SHL AND SHR NOT AND SWAP1 SSTORE DUP8 DUP1 DUP1 PUSH2 0xF2C JUMP JUMPDEST DUP2 DUP2 ADD MLOAD DUP4 SSTORE PUSH1 0x20 SWAP5 DUP6 ADD SWAP5 PUSH1 0x1 SWAP1 SWAP4 ADD SWAP3 SWAP1 SWAP2 ADD SWAP1 PUSH2 0xF11 JUMP JUMPDEST SWAP1 SWAP2 POP PUSH1 0x5 DUP6 ADD PUSH1 0x0 MSTORE PUSH1 0x20 PUSH1 0x0 KECCAK256 PUSH1 0x1F DUP5 ADD PUSH1 0x5 SHR DUP2 ADD PUSH1 0x20 DUP6 LT PUSH2 0xFBC JUMPI JUMPDEST SWAP1 DUP5 SWAP4 SWAP3 SWAP2 JUMPDEST PUSH1 0x1F DUP4 ADD PUSH1 0x5 SHR DUP3 ADD DUP2 LT PUSH2 0xFAD JUMPI POP POP PUSH2 0x7EC JUMP JUMPDEST PUSH1 0x0 DUP2 SSTORE DUP6 SWAP5 POP PUSH1 0x1 ADD PUSH2 0xF97 JUMP JUMPDEST POP DUP1 PUSH2 0xF91 JUMP JUMPDEST ADD MLOAD SWAP1 POP DUP8 DUP1 PUSH2 0x7A6 JUMP JUMPDEST SWAP3 POP PUSH1 0x4 DUP6 ADD PUSH1 0x0 MSTORE PUSH1 0x20 PUSH1 0x0 KECCAK256 SWAP1 PUSH1 0x0 SWAP4 JUMPDEST PUSH1 0x1F NOT DUP5 AND DUP6 LT PUSH2 0x1025 JUMPI PUSH1 0x1 SWAP5 POP DUP4 PUSH1 0x1F NOT DUP2 AND LT PUSH2 0x100C JUMPI JUMPDEST POP POP POP DUP2 SHL ADD PUSH1 0x4 DUP4 ADD SSTORE PUSH2 0x7BE JUMP JUMPDEST ADD MLOAD PUSH1 0x0 NOT PUSH1 0xF8 DUP5 PUSH1 0x3 SHL AND SHR NOT AND SWAP1 SSTORE DUP8 DUP1 DUP1 PUSH2 0xFFC JUMP JUMPDEST DUP2 DUP2 ADD MLOAD DUP4 SSTORE PUSH1 0x20 SWAP5 DUP6 ADD SWAP5 PUSH1 0x1 SWAP1 SWAP4 ADD SWAP3 SWAP1 SWAP2 ADD SWAP1 PUSH2 0xFE1 JUMP JUMPDEST SWAP1 SWAP2 POP PUSH1 0x4 DUP6 ADD PUSH1 0x0 MSTORE PUSH1 0x20 PUSH1 0x0 KECCAK256 PUSH1 0x1F DUP5 ADD PUSH1 0x5 SHR DUP2 ADD PUSH1 0x20 DUP6 LT PUSH2 0x108C JUMPI JUMPDEST SWAP1 DUP5 SWAP4 SWAP3 SWAP2 JUMPDEST PUSH1 0x1F DUP4 ADD PUSH1 0x5 SHR DUP3 ADD DUP2 LT PUSH2 0x107D JUMPI POP POP PUSH2 0x78F JUMP JUMPDEST PUSH1 0x0 DUP2 SSTORE DUP6 SWAP5 POP PUSH1 0x1 ADD PUSH2 0x1067 JUMP JUMPDEST POP DUP1 PUSH2 0x1061 JUMP JUMPDEST CALLVALUE PUSH2 0x238 JUMPI PUSH1 0x40 CALLDATASIZE PUSH1 0x3 NOT ADD SLT PUSH2 0x238 JUMPI PUSH1 0x4 CALLDATALOAD PUSH2 0x10AF PUSH2 0x3BF3 JUMP JUMPDEST DUP2 PUSH1 0x0 MSTORE PUSH1 0x20 PUSH1 0x5 DUP2 MSTORE PUSH1 0x40 PUSH1 0x0 KECCAK256 SWAP2 PUSH1 0x1 DUP1 PUSH1 0xA0 SHL SUB PUSH1 0x1 DUP5 ADD SLOAD AND CALLER EQ DUP1 ISZERO PUSH2 0x123A JUMPI JUMPDEST ISZERO PUSH2 0x11FC JUMPI PUSH1 0xFF AND SWAP2 PUSH1 0x64 DUP4 GT PUSH2 0x11C6 JUMPI PUSH1 0xF ADD DUP1 SLOAD SWAP3 PUSH1 0xFF DUP5 AND PUSH1 0xA DUP2 LT ISZERO PUSH2 0x48D JUMPI PUSH1 0x5 SUB PUSH2 0x118D JUMPI SWAP2 PUSH1 0xFF PUSH32 0xB41A35C59B264282DF26ADB7E93080F2D9C51BE2EF88C2960CA822A08550579 SWAP5 SWAP3 PUSH1 0x60 SWAP5 DUP8 PUSH1 0x0 MSTORE PUSH1 0xF DUP5 MSTORE PUSH1 0x40 PUSH1 0x0 KECCAK256 CALLER PUSH1 0x0 MSTORE DUP5 MSTORE PUSH1 0x40 PUSH1 0x0 KECCAK256 SWAP1 DUP4 NOT DUP3 SLOAD AND OR SWAP1 SSTORE PUSH2 0x1170 PUSH2 0x1156 DUP9 PUSH2 0x3FD3 JUMP JUMPDEST DUP3 SLOAD PUSH4 0xFF000000 NOT AND PUSH1 0x18 SWAP2 SWAP1 SWAP2 SHL PUSH4 0xFF000000 AND OR DUP3 SSTORE JUMP JUMPDEST SLOAD DUP2 PUSH1 0x40 MLOAD SWAP5 PUSH1 0x18 SHR AND DUP5 MSTORE PUSH1 0x18 SHR AND SWAP1 DUP3 ADD MSTORE CALLER PUSH1 0x40 DUP3 ADD MSTORE LOG2 STOP JUMPDEST PUSH1 0x40 MLOAD PUSH3 0x461BCD PUSH1 0xE5 SHL DUP2 MSTORE PUSH1 0x4 DUP2 ADD DUP5 SWAP1 MSTORE PUSH1 0x11 PUSH1 0x24 DUP3 ADD MSTORE PUSH17 0x129BD8881B9BDD0818DBDB5C1B195D1959 PUSH1 0x7A SHL PUSH1 0x44 DUP3 ADD MSTORE PUSH1 0x64 SWAP1 REVERT JUMPDEST PUSH1 0x40 MLOAD PUSH3 0x461BCD PUSH1 0xE5 SHL DUP2 MSTORE PUSH1 0x4 DUP2 ADD DUP4 SWAP1 MSTORE PUSH1 0xE PUSH1 0x24 DUP3 ADD MSTORE PUSH14 0x496E76616C696420726174696E67 PUSH1 0x90 SHL PUSH1 0x44 DUP3 ADD MSTORE PUSH1 0x64 SWAP1 REVERT JUMPDEST PUSH1 0x40 MLOAD PUSH3 0x461BCD PUSH1 0xE5 SHL DUP2 MSTORE PUSH1 0x4 DUP2 ADD DUP4 SWAP1 MSTORE PUSH1 0x16 PUSH1 0x24 DUP3 ADD MSTORE PUSH22 0x4E6F7420617574686F72697A656420746F2072617465 PUSH1 0x50 SHL PUSH1 0x44 DUP3 ADD MSTORE PUSH1 0x64 SWAP1 REVERT JUMPDEST POP PUSH2 0x1245 CALLER DUP6 PUSH2 0x3F2B JUMP JUMPDEST PUSH2 0x10D5 JUMP JUMPDEST CALLVALUE PUSH2 0x238 JUMPI PUSH1 0x20 DUP1 PUSH1 0x3 NOT CALLDATASIZE ADD SLT PUSH2 0x238 JUMPI PUSH1 0xA SWAP1 PUSH1 0x4 CALLDATALOAD DUP3 DUP2 LT ISZERO DUP1 PUSH2 0x238 JUMPI PUSH1 0x0 SWAP4 PUSH1 0x1 SWAP2 PUSH1 0x2 SLOAD SWAP3 JUMPDEST DUP4 DUP2 LT PUSH2 0x1326 JUMPI POP PUSH2 0x1287 DUP7 PUSH2 0x3E18 JUMP JUMPDEST SWAP6 PUSH2 0x1295 PUSH1 0x40 MLOAD SWAP8 DUP9 PUSH2 0x399D JUMP JUMPDEST DUP1 DUP8 MSTORE PUSH2 0x12A4 PUSH1 0x1F NOT SWAP2 PUSH2 0x3E18 JUMP JUMPDEST ADD CALLDATASIZE DUP7 DUP9 ADD CALLDATACOPY PUSH1 0x0 SWAP2 PUSH1 0x1 JUMPDEST DUP5 DUP2 LT PUSH2 0x12CE JUMPI PUSH1 0x40 MLOAD DUP8 DUP2 MSTORE DUP1 PUSH2 0x12CA DUP2 DUP11 ADD DUP12 PUSH2 0x3BA7 JUMP JUMPDEST SUB SWAP1 RETURN JUMPDEST DUP1 PUSH1 0x0 MSTORE PUSH1 0x5 DUP8 MSTORE DUP3 PUSH1 0xFF PUSH1 0xF PUSH1 0x40 PUSH1 0x0 KECCAK256 ADD SLOAD AND SWAP1 PUSH2 0x48D JUMPI DUP3 DUP2 LT ISZERO PUSH2 0x48D JUMPI DUP7 EQ PUSH2 0x1305 JUMPI JUMPDEST PUSH2 0x1300 SWAP1 PUSH2 0x3C7B JUMP JUMPDEST PUSH2 0x12B0 JUMP JUMPDEST SWAP3 PUSH2 0x131E DUP2 DUP6 PUSH2 0x1318 PUSH2 0x1300 SWAP5 DUP13 PUSH2 0x3E2F JUMP JUMPDEST MSTORE PUSH2 0x3C7B JUMP JUMPDEST SWAP4 SWAP1 POP PUSH2 0x12F7 JUMP JUMPDEST DUP1 PUSH1 0x0 MSTORE PUSH1 0x5 DUP7 MSTORE DUP2 PUSH1 0xFF PUSH1 0xF PUSH1 0x40 PUSH1 0x0 KECCAK256 ADD SLOAD AND SWAP1 PUSH2 0x48D JUMPI DUP4 DUP2 LT ISZERO PUSH2 0x48D JUMPI DUP6 EQ PUSH2 0x135D JUMPI JUMPDEST PUSH2 0x1358 SWAP1 PUSH2 0x3C7B JUMP JUMPDEST PUSH2 0x1276 JUMP JUMPDEST SWAP6 PUSH2 0x136A PUSH2 0x1358 SWAP2 PUSH2 0x3C7B JUMP JUMPDEST SWAP7 SWAP1 POP PUSH2 0x134F JUMP JUMPDEST CALLVALUE PUSH2 0x238 JUMPI PUSH1 0x20 DUP1 PUSH1 0x3 NOT CALLDATASIZE ADD SLT PUSH2 0x238 JUMPI PUSH1 0x4 CALLDATALOAD PUSH1 0x0 MSTORE PUSH1 0xA DUP2 MSTORE PUSH1 0x40 PUSH1 0x0 KECCAK256 SWAP1 PUSH1 0xB DUP2 MSTORE PUSH1 0x40 PUSH1 0x0 KECCAK256 SWAP1 DUP1 PUSH1 0x40 MLOAD SWAP3 DUP4 DUP1 SWAP5 DUP4 DUP8 SLOAD SWAP2 DUP3 DUP2 MSTORE ADD SWAP1 DUP2 SWAP8 PUSH1 0x0 MSTORE DUP5 PUSH1 0x0 KECCAK256 SWAP1 PUSH1 0x0 SWAP2 JUMPDEST DUP2 PUSH1 0x1F DUP5 ADD LT PUSH2 0x18CC JUMPI SWAP2 PUSH2 0x14DF SWAP5 SWAP4 SWAP2 PUSH2 0x14E4 SWAP8 SWAP4 SLOAD SWAP2 DUP5 DUP3 DUP3 LT PUSH2 0x18B2 JUMPI JUMPDEST DUP3 DUP3 LT PUSH2 0x1895 JUMPI JUMPDEST DUP3 DUP3 LT PUSH2 0x1878 JUMPI JUMPDEST DUP3 DUP3 LT PUSH2 0x185B JUMPI JUMPDEST DUP3 DUP3 LT PUSH2 0x183F JUMPI JUMPDEST DUP3 DUP3 LT PUSH2 0x1822 JUMPI JUMPDEST DUP3 DUP3 LT PUSH2 0x1805 JUMPI JUMPDEST DUP3 DUP3 LT PUSH2 0x17E8 JUMPI JUMPDEST DUP3 DUP3 LT PUSH2 0x17CB JUMPI JUMPDEST DUP3 DUP3 LT PUSH2 0x17AE JUMPI JUMPDEST DUP3 DUP3 LT PUSH2 0x1791 JUMPI JUMPDEST DUP3 DUP3 LT PUSH2 0x1774 JUMPI JUMPDEST DUP3 DUP3 LT PUSH2 0x1757 JUMPI JUMPDEST DUP3 DUP3 LT PUSH2 0x173A JUMPI JUMPDEST DUP3 DUP3 LT PUSH2 0x171D JUMPI JUMPDEST DUP3 DUP3 LT PUSH2 0x1700 JUMPI JUMPDEST DUP3 DUP3 LT PUSH2 0x16E3 JUMPI JUMPDEST DUP3 DUP3 LT PUSH2 0x16C6 JUMPI JUMPDEST DUP3 DUP3 LT PUSH2 0x16A9 JUMPI JUMPDEST DUP3 DUP3 LT PUSH2 0x168C JUMPI JUMPDEST DUP3 DUP3 LT PUSH2 0x166F JUMPI JUMPDEST DUP3 DUP3 LT PUSH2 0x1652 JUMPI JUMPDEST DUP3 DUP3 LT PUSH2 0x1635 JUMPI JUMPDEST DUP3 DUP3 LT PUSH2 0x1618 JUMPI JUMPDEST DUP3 DUP3 LT PUSH2 0x15FB JUMPI JUMPDEST DUP3 DUP3 LT PUSH2 0x15DE JUMPI JUMPDEST DUP3 DUP3 LT PUSH2 0x15C1 JUMPI JUMPDEST DUP3 DUP3 LT PUSH2 0x15A4 JUMPI JUMPDEST DUP3 DUP3 LT PUSH2 0x1587 JUMPI JUMPDEST DUP3 DUP3 LT PUSH2 0x156A JUMPI JUMPDEST DUP3 DUP3 LT PUSH2 0x154D JUMPI JUMPDEST POP LT PUSH2 0x1537 JUMPI JUMPDEST POP SWAP1 POP SUB DUP6 PUSH2 0x399D JUMP JUMPDEST PUSH2 0x3DC9 JUMP JUMPDEST SWAP1 PUSH1 0x40 MLOAD SWAP3 PUSH1 0x40 DUP5 ADD SWAP1 PUSH1 0x40 DUP6 MSTORE MLOAD DUP1 SWAP2 MSTORE PUSH1 0x60 DUP5 ADD SWAP5 SWAP1 PUSH1 0x0 JUMPDEST DUP2 DUP2 LT PUSH2 0x1519 JUMPI DUP6 DUP8 SUB DUP5 DUP8 ADD MSTORE DUP6 DUP1 PUSH2 0x12CA DUP10 DUP9 PUSH2 0x3BA7 JUMP JUMPDEST SWAP1 SWAP2 SWAP6 DUP4 DUP1 DUP3 PUSH2 0x152C PUSH1 0x1 SWAP5 DUP12 MLOAD PUSH2 0x3A60 JUMP JUMPDEST ADD SWAP8 ADD SWAP3 SWAP2 ADD PUSH2 0x14FF JUMP JUMPDEST DUP2 PUSH2 0x1544 SWAP2 PUSH1 0xF8 SHR PUSH2 0x3A60 JUMP JUMPDEST ADD DUP6 SWAP1 DUP10 PUSH2 0x14D5 JUMP JUMPDEST DUP5 PUSH2 0x1561 PUSH1 0x1 SWAP4 SWAP7 PUSH1 0xFF DUP8 PUSH1 0xF0 SHR AND PUSH2 0x3A60 JUMP JUMPDEST ADD SWAP4 ADD DUP5 PUSH2 0x14CE JUMP JUMPDEST DUP5 PUSH2 0x157E PUSH1 0x1 SWAP4 SWAP7 PUSH1 0xFF DUP8 PUSH1 0xE8 SHR AND PUSH2 0x3A60 JUMP JUMPDEST ADD SWAP4 ADD DUP5 PUSH2 0x14C6 JUMP JUMPDEST DUP5 PUSH2 0x159B PUSH1 0x1 SWAP4 SWAP7 PUSH1 0xFF DUP8 PUSH1 0xE0 SHR AND PUSH2 0x3A60 JUMP JUMPDEST ADD SWAP4 ADD DUP5 PUSH2 0x14BE JUMP JUMPDEST DUP5 PUSH2 0x15B8 PUSH1 0x1 SWAP4 SWAP7 PUSH1 0xFF DUP8 PUSH1 0xD8 SHR AND PUSH2 0x3A60 JUMP JUMPDEST ADD SWAP4 ADD DUP5 PUSH2 0x14B6 JUMP JUMPDEST DUP5 PUSH2 0x15D5 PUSH1 0x1 SWAP4 SWAP7 PUSH1 0xFF DUP8 PUSH1 0xD0 SHR AND PUSH2 0x3A60 JUMP JUMPDEST ADD SWAP4 ADD DUP5 PUSH2 0x14AE JUMP JUMPDEST DUP5 PUSH2 0x15F2 PUSH1 0x1 SWAP4 SWAP7 PUSH1 0xFF DUP8 PUSH1 0xC8 SHR AND PUSH2 0x3A60 JUMP JUMPDEST ADD SWAP4 ADD DUP5 PUSH2 0x14A6 JUMP JUMPDEST DUP5 PUSH2 0x160F PUSH1 0x1 SWAP4 SWAP7 PUSH1 0xFF DUP8 PUSH1 0xC0 SHR AND PUSH2 0x3A60 JUMP JUMPDEST ADD SWAP4 ADD DUP5 PUSH2 0x149E JUMP JUMPDEST DUP5 PUSH2 0x162C PUSH1 0x1 SWAP4 SWAP7 PUSH1 0xFF DUP8 PUSH1 0xB8 SHR AND PUSH2 0x3A60 JUMP JUMPDEST ADD SWAP4 ADD DUP5 PUSH2 0x1496 JUMP JUMPDEST DUP5 PUSH2 0x1649 PUSH1 0x1 SWAP4 SWAP7 PUSH1 0xFF DUP8 PUSH1 0xB0 SHR AND PUSH2 0x3A60 JUMP JUMPDEST ADD SWAP4 ADD DUP5 PUSH2 0x148E JUMP JUMPDEST DUP5 PUSH2 0x1666 PUSH1 0x1 SWAP4 SWAP7 PUSH1 0xFF DUP8 PUSH1 0xA8 SHR AND PUSH2 0x3A60 JUMP JUMPDEST ADD SWAP4 ADD DUP5 PUSH2 0x1486 JUMP JUMPDEST DUP5 PUSH2 0x1683 PUSH1 0x1 SWAP4 SWAP7 PUSH1 0xFF DUP8 PUSH1 0xA0 SHR AND PUSH2 0x3A60 JUMP JUMPDEST ADD SWAP4 ADD DUP5 PUSH2 0x147E JUMP JUMPDEST DUP5 PUSH2 0x16A0 PUSH1 0x1 SWAP4 SWAP7 PUSH1 0xFF DUP8 PUSH1 0x98 SHR AND PUSH2 0x3A60 JUMP JUMPDEST ADD SWAP4 ADD DUP5 PUSH2 0x1476 JUMP JUMPDEST DUP5 PUSH2 0x16BD PUSH1 0x1 SWAP4 SWAP7 PUSH1 0xFF DUP8 PUSH1 0x90 SHR AND PUSH2 0x3A60 JUMP JUMPDEST ADD SWAP4 ADD DUP5 PUSH2 0x146E JUMP JUMPDEST DUP5 PUSH2 0x16DA PUSH1 0x1 SWAP4 SWAP7 PUSH1 0xFF DUP8 PUSH1 0x88 SHR AND PUSH2 0x3A60 JUMP JUMPDEST ADD SWAP4 ADD DUP5 PUSH2 0x1466 JUMP JUMPDEST DUP5 PUSH2 0x16F7 PUSH1 0x1 SWAP4 SWAP7 PUSH1 0xFF DUP8 PUSH1 0x80 SHR AND PUSH2 0x3A60 JUMP JUMPDEST ADD SWAP4 ADD DUP5 PUSH2 0x145E JUMP JUMPDEST DUP5 PUSH2 0x1714 PUSH1 0x1 SWAP4 SWAP7 PUSH1 0xFF DUP8 PUSH1 0x78 SHR AND PUSH2 0x3A60 JUMP JUMPDEST ADD SWAP4 ADD DUP5 PUSH2 0x1456 JUMP JUMPDEST DUP5 PUSH2 0x1731 PUSH1 0x1 SWAP4 SWAP7 PUSH1 0xFF DUP8 PUSH1 0x70 SHR AND PUSH2 0x3A60 JUMP JUMPDEST ADD SWAP4 ADD DUP5 PUSH2 0x144E JUMP JUMPDEST DUP5 PUSH2 0x174E PUSH1 0x1 SWAP4 SWAP7 PUSH1 0xFF DUP8 PUSH1 0x68 SHR AND PUSH2 0x3A60 JUMP JUMPDEST ADD SWAP4 ADD DUP5 PUSH2 0x1446 JUMP JUMPDEST DUP5 PUSH2 0x176B PUSH1 0x1 SWAP4 SWAP7 PUSH1 0xFF DUP8 PUSH1 0x60 SHR AND PUSH2 0x3A60 JUMP JUMPDEST ADD SWAP4 ADD DUP5 PUSH2 0x143E JUMP JUMPDEST DUP5 PUSH2 0x1788 PUSH1 0x1 SWAP4 SWAP7 PUSH1 0xFF DUP8 PUSH1 0x58 SHR AND PUSH2 0x3A60 JUMP JUMPDEST ADD SWAP4 ADD DUP5 PUSH2 0x1436 JUMP JUMPDEST DUP5 PUSH2 0x17A5 PUSH1 0x1 SWAP4 SWAP7 PUSH1 0xFF DUP8 PUSH1 0x50 SHR AND PUSH2 0x3A60 JUMP JUMPDEST ADD SWAP4 ADD DUP5 PUSH2 0x142E JUMP JUMPDEST DUP5 PUSH2 0x17C2 PUSH1 0x1 SWAP4 SWAP7 PUSH1 0xFF DUP8 PUSH1 0x48 SHR AND PUSH2 0x3A60 JUMP JUMPDEST ADD SWAP4 ADD DUP5 PUSH2 0x1426 JUMP JUMPDEST DUP5 PUSH2 0x17DF PUSH1 0x1 SWAP4 SWAP7 PUSH1 0xFF DUP8 PUSH1 0x40 SHR AND PUSH2 0x3A60 JUMP JUMPDEST ADD SWAP4 ADD DUP5 PUSH2 0x141E JUMP JUMPDEST DUP5 PUSH2 0x17FC PUSH1 0x1 SWAP4 SWAP7 PUSH1 0xFF DUP8 PUSH1 0x38 SHR AND PUSH2 0x3A60 JUMP JUMPDEST ADD SWAP4 ADD DUP5 PUSH2 0x1416 JUMP JUMPDEST DUP5 PUSH2 0x1819 PUSH1 0x1 SWAP4 SWAP7 PUSH1 0xFF DUP8 PUSH1 0x30 SHR AND PUSH2 0x3A60 JUMP JUMPDEST ADD SWAP4 ADD DUP5 PUSH2 0x140E JUMP JUMPDEST DUP5 PUSH2 0x1836 PUSH1 0x1 SWAP4 SWAP7 PUSH1 0xFF DUP8 PUSH1 0x28 SHR AND PUSH2 0x3A60 JUMP JUMPDEST ADD SWAP4 ADD DUP5 PUSH2 0x1406 JUMP JUMPDEST DUP5 PUSH2 0x1852 PUSH1 0x1 SWAP4 SWAP7 PUSH1 0xFF DUP8 DUP6 SHR AND PUSH2 0x3A60 JUMP JUMPDEST ADD SWAP4 ADD DUP5 PUSH2 0x13FE JUMP JUMPDEST DUP5 PUSH2 0x186F PUSH1 0x1 SWAP4 SWAP7 PUSH1 0xFF DUP8 PUSH1 0x18 SHR AND PUSH2 0x3A60 JUMP JUMPDEST ADD SWAP4 ADD DUP5 PUSH2 0x13F6 JUMP JUMPDEST DUP5 PUSH2 0x188C PUSH1 0x1 SWAP4 SWAP7 PUSH1 0xFF DUP8 PUSH1 0x10 SHR AND PUSH2 0x3A60 JUMP JUMPDEST ADD SWAP4 ADD DUP5 PUSH2 0x13EE JUMP JUMPDEST DUP5 PUSH2 0x18A9 PUSH1 0x1 SWAP4 SWAP7 PUSH1 0xFF DUP8 PUSH1 0x8 SHR AND PUSH2 0x3A60 JUMP JUMPDEST ADD SWAP4 ADD DUP5 PUSH2 0x13E6 JUMP JUMPDEST DUP5 PUSH2 0x18C3 PUSH1 0x1 SWAP4 SWAP7 PUSH1 0xFF DUP8 AND PUSH2 0x3A60 JUMP JUMPDEST ADD SWAP4 ADD DUP5 PUSH2 0x13DE JUMP JUMPDEST SWAP5 SWAP6 SWAP2 SWAP4 POP SWAP2 PUSH2 0x400 PUSH1 0x1 SWAP2 PUSH2 0x1B2E DUP8 SLOAD PUSH2 0x1B20 PUSH1 0xFF PUSH2 0x18EE DUP6 DUP3 DUP6 AND PUSH2 0x3A60 JUMP JUMPDEST PUSH2 0x18FF DUP9 DUP7 ADD DUP3 DUP6 PUSH1 0x8 SHR AND PUSH2 0x3A60 JUMP JUMPDEST PUSH2 0x1911 PUSH1 0x40 DUP7 ADD DUP3 DUP6 PUSH1 0x10 SHR AND PUSH2 0x3A60 JUMP JUMPDEST PUSH2 0x1AB1 DUP6 PUSH2 0x1A69 PUSH1 0x60 PUSH2 0x192B DUP2 DUP5 ADD DUP7 DUP10 PUSH1 0x18 SHR AND PUSH2 0x3A60 JUMP JUMPDEST PUSH2 0x1A21 DUP13 PUSH2 0x1942 PUSH1 0x80 SWAP2 DUP9 DUP12 DUP5 DUP10 ADD SWAP3 SHR AND PUSH2 0x3A60 JUMP JUMPDEST PUSH2 0x19D9 PUSH1 0xA0 SWAP4 PUSH2 0x1959 DUP6 DUP9 ADD DUP11 DUP14 PUSH1 0x28 SHR AND PUSH2 0x3A60 JUMP JUMPDEST DUP9 DUP12 PUSH2 0x180 PUSH1 0xC0 SWAP10 PUSH2 0x1972 DUP12 DUP3 ADD DUP6 DUP6 PUSH1 0x30 SHR AND PUSH2 0x3A60 JUMP JUMPDEST PUSH2 0x1984 PUSH1 0xE0 DUP3 ADD DUP6 DUP6 PUSH1 0x38 SHR AND PUSH2 0x3A60 JUMP JUMPDEST PUSH2 0x1997 PUSH2 0x100 DUP3 ADD DUP6 DUP6 PUSH1 0x40 SHR AND PUSH2 0x3A60 JUMP JUMPDEST PUSH2 0x19AA PUSH2 0x120 DUP3 ADD DUP6 DUP6 PUSH1 0x48 SHR AND PUSH2 0x3A60 JUMP JUMPDEST PUSH2 0x19BD PUSH2 0x140 DUP3 ADD DUP6 DUP6 PUSH1 0x50 SHR AND PUSH2 0x3A60 JUMP JUMPDEST PUSH2 0x19D0 PUSH2 0x160 DUP3 ADD DUP6 DUP6 PUSH1 0x58 SHR AND PUSH2 0x3A60 JUMP JUMPDEST ADD SWAP3 SHR AND PUSH2 0x3A60 JUMP JUMPDEST PUSH2 0x19EC PUSH2 0x1A0 DUP13 ADD DUP9 DUP12 PUSH1 0x68 SHR AND PUSH2 0x3A60 JUMP JUMPDEST PUSH2 0x19FF PUSH2 0x1C0 DUP13 ADD DUP9 DUP12 PUSH1 0x70 SHR AND PUSH2 0x3A60 JUMP JUMPDEST PUSH2 0x1A12 PUSH2 0x1E0 DUP13 ADD DUP9 DUP12 PUSH1 0x78 SHR AND PUSH2 0x3A60 JUMP JUMPDEST DUP7 DUP10 PUSH2 0x200 DUP14 ADD SWAP3 SHR AND PUSH2 0x3A60 JUMP JUMPDEST PUSH2 0x1A34 PUSH2 0x220 DUP11 ADD DUP7 DUP10 PUSH1 0x88 SHR AND PUSH2 0x3A60 JUMP JUMPDEST PUSH2 0x1A47 PUSH2 0x240 DUP11 ADD DUP7 DUP10 PUSH1 0x90 SHR AND PUSH2 0x3A60 JUMP JUMPDEST PUSH2 0x1A5A PUSH2 0x260 DUP11 ADD DUP7 DUP10 PUSH1 0x98 SHR AND PUSH2 0x3A60 JUMP JUMPDEST DUP5 DUP8 PUSH2 0x280 DUP12 ADD SWAP3 SHR AND PUSH2 0x3A60 JUMP JUMPDEST PUSH2 0x1A7C PUSH2 0x2A0 DUP9 ADD DUP5 DUP8 PUSH1 0xA8 SHR AND PUSH2 0x3A60 JUMP JUMPDEST PUSH2 0x1A8F PUSH2 0x2C0 DUP9 ADD DUP5 DUP8 PUSH1 0xB0 SHR AND PUSH2 0x3A60 JUMP JUMPDEST PUSH2 0x1AA2 PUSH2 0x2E0 DUP9 ADD DUP5 DUP8 PUSH1 0xB8 SHR AND PUSH2 0x3A60 JUMP JUMPDEST DUP3 DUP6 PUSH2 0x300 DUP10 ADD SWAP3 SHR AND PUSH2 0x3A60 JUMP JUMPDEST PUSH2 0x1AC4 PUSH2 0x320 DUP7 ADD DUP3 DUP6 PUSH1 0xC8 SHR AND PUSH2 0x3A60 JUMP JUMPDEST PUSH2 0x1AD7 PUSH2 0x340 DUP7 ADD DUP3 DUP6 PUSH1 0xD0 SHR AND PUSH2 0x3A60 JUMP JUMPDEST PUSH2 0x1AEA PUSH2 0x360 DUP7 ADD DUP3 DUP6 PUSH1 0xD8 SHR AND PUSH2 0x3A60 JUMP JUMPDEST PUSH2 0x1AFD PUSH2 0x380 DUP7 ADD DUP3 DUP6 PUSH1 0xE0 SHR AND PUSH2 0x3A60 JUMP JUMPDEST PUSH2 0x1B10 PUSH2 0x3A0 DUP7 ADD DUP3 DUP6 PUSH1 0xE8 SHR AND PUSH2 0x3A60 JUMP JUMPDEST PUSH2 0x3C0 DUP6 ADD SWAP1 DUP4 PUSH1 0xF0 SHR AND PUSH2 0x3A60 JUMP JUMPDEST PUSH2 0x3E0 DUP4 ADD SWAP1 PUSH1 0xF8 SHR PUSH2 0x3A60 JUMP JUMPDEST ADD SWAP5 ADD SWAP3 ADD DUP6 SWAP5 SWAP4 SWAP2 DUP8 SWAP4 PUSH2 0x13BD JUMP JUMPDEST CALLVALUE PUSH2 0x238 JUMPI PUSH1 0x20 CALLDATASIZE PUSH1 0x3 NOT ADD SLT PUSH2 0x238 JUMPI PUSH1 0x60 PUSH2 0x280 PUSH1 0x40 MLOAD PUSH2 0x1B60 DUP2 PUSH2 0x394A JUMP JUMPDEST PUSH1 0x0 DUP2 MSTORE PUSH1 0x0 PUSH1 0x20 DUP3 ADD MSTORE PUSH1 0x0 PUSH1 0x40 DUP3 ADD MSTORE PUSH1 0x0 DUP4 DUP3 ADD MSTORE DUP3 PUSH1 0x80 DUP3 ADD MSTORE DUP3 PUSH1 0xA0 DUP3 ADD MSTORE DUP3 PUSH1 0xC0 DUP3 ADD MSTORE DUP3 PUSH1 0xE0 DUP3 ADD MSTORE DUP3 PUSH2 0x100 DUP3 ADD MSTORE PUSH1 0x0 PUSH2 0x120 DUP3 ADD MSTORE PUSH1 0x0 PUSH2 0x140 DUP3 ADD MSTORE PUSH1 0x0 PUSH2 0x160 DUP3 ADD MSTORE PUSH1 0x0 PUSH2 0x180 DUP3 ADD MSTORE PUSH1 0x0 PUSH2 0x1A0 DUP3 ADD MSTORE PUSH1 0x0 PUSH2 0x1C0 DUP3 ADD MSTORE PUSH1 0x0 PUSH2 0x1E0 DUP3 ADD MSTORE PUSH1 0x0 PUSH2 0x200 DUP3 ADD MSTORE PUSH1 0x0 PUSH2 0x220 DUP3 ADD MSTORE PUSH1 0x0 PUSH2 0x240 DUP3 ADD MSTORE PUSH1 0x0 PUSH2 0x260 DUP3 ADD MSTORE ADD MSTORE PUSH1 0x4 CALLDATALOAD PUSH1 0x0 MSTORE PUSH1 0x5 PUSH1 0x20 MSTORE PUSH2 0x12CA PUSH1 0x40 PUSH1 0x0 KECCAK256 PUSH2 0x1D36 PUSH1 0x10 PUSH1 0x40 MLOAD SWAP3 PUSH2 0x1C16 DUP5 PUSH2 0x394A JUMP JUMPDEST DUP1 SLOAD DUP5 MSTORE PUSH1 0x1 DUP2 ADD SLOAD PUSH1 0x1 PUSH1 0x1 PUSH1 0xA0 SHL SUB SWAP1 DUP2 AND PUSH1 0x20 DUP7 ADD MSTORE PUSH1 0x2 DUP3 ADD SLOAD AND PUSH1 0x40 DUP6 ADD MSTORE PUSH1 0x3 DUP2 ADD SLOAD PUSH1 0x60 DUP6 ADD MSTORE PUSH2 0x1C50 PUSH1 0x4 DUP3 ADD PUSH2 0x3AA7 JUMP JUMPDEST PUSH1 0x80 DUP6 ADD MSTORE PUSH2 0x1C61 PUSH1 0x5 DUP3 ADD PUSH2 0x3AA7 JUMP JUMPDEST PUSH1 0xA0 DUP6 ADD MSTORE PUSH2 0x1C72 PUSH1 0x6 DUP3 ADD PUSH2 0x3AA7 JUMP JUMPDEST PUSH1 0xC0 DUP6 ADD MSTORE PUSH2 0x1C83 PUSH1 0x7 DUP3 ADD PUSH2 0x3AA7 JUMP JUMPDEST PUSH1 0xE0 DUP6 ADD MSTORE PUSH2 0x1C94 PUSH1 0x8 DUP3 ADD PUSH2 0x3AA7 JUMP JUMPDEST PUSH2 0x100 DUP6 ADD MSTORE PUSH1 0x9 DUP2 ADD SLOAD PUSH2 0x120 DUP6 ADD MSTORE PUSH1 0xA DUP2 ADD SLOAD PUSH2 0x140 DUP6 ADD MSTORE PUSH1 0xB DUP2 ADD SLOAD PUSH2 0x160 DUP6 ADD MSTORE PUSH1 0xC DUP2 ADD SLOAD PUSH2 0x180 DUP6 ADD MSTORE PUSH1 0xD DUP2 ADD SLOAD PUSH2 0x1A0 DUP6 ADD MSTORE PUSH1 0xE DUP2 ADD SLOAD PUSH2 0x1C0 DUP6 ADD MSTORE PUSH1 0xFF PUSH1 0xF DUP3 ADD SLOAD PUSH2 0x1CF3 DUP3 DUP3 AND PUSH2 0x1E0 DUP9 ADD PUSH2 0x3C8A JUMP JUMPDEST PUSH2 0x1D06 DUP3 DUP3 PUSH1 0x8 SHR AND PUSH2 0x200 DUP9 ADD PUSH2 0x3C96 JUMP JUMPDEST PUSH2 0x1D18 DUP3 DUP3 DUP7 SHR AND PUSH2 0x220 DUP9 ADD PUSH2 0x3CA2 JUMP JUMPDEST DUP2 DUP2 PUSH1 0x18 SHR AND PUSH2 0x240 DUP8 ADD MSTORE PUSH1 0x20 SHR AND ISZERO ISZERO PUSH2 0x260 DUP6 ADD MSTORE ADD PUSH2 0x3AA7 JUMP JUMPDEST PUSH2 0x280 DUP3 ADD MSTORE PUSH1 0x40 MLOAD SWAP2 DUP3 SWAP2 PUSH1 0x20 DUP4 MSTORE DUP1 MLOAD PUSH1 0x20 DUP5 ADD MSTORE PUSH1 0x1 DUP1 PUSH1 0xA0 SHL SUB PUSH1 0x20 DUP3 ADD MLOAD AND PUSH1 0x40 DUP5 ADD MSTORE PUSH1 0x1 DUP1 PUSH1 0xA0 SHL SUB PUSH1 0x40 DUP3 ADD MLOAD AND PUSH1 0x60 DUP5 ADD MSTORE PUSH1 0x60 DUP2 ADD MLOAD PUSH1 0x80 DUP5 ADD MSTORE PUSH2 0x280 PUSH2 0x1E00 PUSH2 0x1DE8 PUSH2 0x1DD1 PUSH2 0x1DBB PUSH2 0x1DA5 PUSH1 0x80 DUP8 ADD MLOAD PUSH2 0x2A0 PUSH1 0xA0 DUP12 ADD MSTORE PUSH2 0x2C0 DUP11 ADD SWAP1 PUSH2 0x3B4D JUMP JUMPDEST PUSH1 0xA0 DUP8 ADD MLOAD DUP10 DUP3 SUB PUSH1 0x1F NOT ADD PUSH1 0xC0 DUP12 ADD MSTORE PUSH2 0x3B4D JUMP JUMPDEST PUSH1 0xC0 DUP7 ADD MLOAD DUP9 DUP3 SUB PUSH1 0x1F NOT ADD PUSH1 0xE0 DUP11 ADD MSTORE PUSH2 0x3B4D JUMP JUMPDEST PUSH1 0xE0 DUP6 ADD MLOAD DUP8 DUP3 SUB PUSH1 0x1F NOT ADD PUSH2 0x100 DUP10 ADD MSTORE PUSH2 0x3B4D JUMP JUMPDEST PUSH2 0x100 DUP5 ADD MLOAD DUP7 DUP3 SUB PUSH1 0x1F NOT ADD PUSH2 0x120 DUP9 ADD MSTORE PUSH2 0x3B4D JUMP JUMPDEST SWAP2 PUSH2 0x120 DUP2 ADD MLOAD PUSH2 0x140 DUP7 ADD MSTORE PUSH2 0x140 DUP2 ADD MLOAD PUSH2 0x160 DUP7 ADD MSTORE PUSH2 0x160 DUP2 ADD MLOAD PUSH2 0x180 DUP7 ADD MSTORE PUSH2 0x180 DUP2 ADD MLOAD PUSH2 0x1A0 DUP7 ADD MSTORE PUSH2 0x1A0 DUP2 ADD MLOAD PUSH2 0x1C0 DUP7 ADD MSTORE PUSH2 0x1C0 DUP2 ADD MLOAD PUSH2 0x1E0 DUP7 ADD MSTORE PUSH2 0x1E5D PUSH2 0x1E0 DUP3 ADD MLOAD PUSH2 0x200 DUP8 ADD SWAP1 PUSH2 0x3A60 JUMP JUMPDEST PUSH2 0x1E71 PUSH2 0x200 DUP3 ADD MLOAD PUSH2 0x220 DUP8 ADD SWAP1 PUSH2 0x3B8D JUMP JUMPDEST PUSH2 0x1E85 PUSH2 0x220 DUP3 ADD MLOAD PUSH2 0x240 DUP8 ADD SWAP1 PUSH2 0x3B9A JUMP JUMPDEST PUSH1 0xFF PUSH2 0x240 DUP3 ADD MLOAD AND PUSH2 0x260 DUP7 ADD MSTORE PUSH2 0x260 DUP2 ADD MLOAD ISZERO ISZERO DUP3 DUP7 ADD MSTORE ADD MLOAD PUSH1 0x1F NOT DUP5 DUP4 SUB ADD PUSH2 0x2A0 DUP6 ADD MSTORE PUSH2 0x3B4D JUMP JUMPDEST CALLVALUE PUSH2 0x238 JUMPI PUSH1 0x40 CALLDATASIZE PUSH1 0x3 NOT ADD SLT PUSH2 0x238 JUMPI PUSH2 0x1ECD PUSH2 0x3934 JUMP JUMPDEST PUSH1 0x4 CALLDATALOAD PUSH1 0x0 MSTORE PUSH1 0xF PUSH1 0x20 MSTORE PUSH1 0x40 PUSH1 0x0 KECCAK256 SWAP1 PUSH1 0x1 DUP1 PUSH1 0xA0 SHL SUB AND PUSH1 0x0 MSTORE PUSH1 0x20 MSTORE PUSH1 0x20 PUSH1 0xFF PUSH1 0x40 PUSH1 0x0 KECCAK256 SLOAD AND PUSH1 0x40 MLOAD SWAP1 DUP2 MSTORE RETURN JUMPDEST CALLVALUE PUSH2 0x238 JUMPI PUSH1 0x0 CALLDATASIZE PUSH1 0x3 NOT ADD SLT PUSH2 0x238 JUMPI PUSH1 0x4 SLOAD PUSH1 0x40 MLOAD PUSH1 0x1 PUSH1 0x1 PUSH1 0xA0 SHL SUB SWAP1 SWAP2 AND DUP2 MSTORE PUSH1 0x20 SWAP1 RETURN JUMPDEST CALLVALUE PUSH2 0x238 JUMPI PUSH1 0x20 CALLDATASIZE PUSH1 0x3 NOT ADD SLT PUSH2 0x238 JUMPI PUSH1 0x1 PUSH1 0x1 PUSH1 0xA0 SHL SUB PUSH2 0x1F49 PUSH2 0x391E JUMP JUMPDEST AND PUSH1 0x0 MSTORE PUSH1 0x8 PUSH1 0x20 MSTORE PUSH1 0xE0 PUSH1 0x40 PUSH1 0x0 KECCAK256 DUP1 SLOAD SWAP1 PUSH1 0x1 DUP2 ADD SLOAD SWAP1 PUSH1 0x2 DUP2 ADD SLOAD PUSH1 0x3 DUP3 ADD SLOAD PUSH1 0x4 DUP4 ADD SLOAD SWAP2 PUSH1 0xFF PUSH1 0x6 PUSH1 0x5 DUP7 ADD SLOAD SWAP6 ADD SLOAD AND SWAP5 PUSH1 0x40 MLOAD SWAP7 DUP8 MSTORE PUSH1 0x20 DUP8 ADD MSTORE PUSH1 0x40 DUP7 ADD MSTORE PUSH1 0x60 DUP6 ADD MSTORE PUSH1 0x80 DUP5 ADD MSTORE PUSH1 0xA0 DUP4 ADD MSTORE PUSH1 0xC0 DUP3 ADD MSTORE RETURN JUMPDEST CALLVALUE PUSH2 0x238 JUMPI PUSH1 0x0 CALLDATASIZE PUSH1 0x3 NOT ADD SLT PUSH2 0x238 JUMPI PUSH1 0x20 PUSH1 0x2 SLOAD PUSH1 0x40 MLOAD SWAP1 DUP2 MSTORE RETURN JUMPDEST CALLVALUE PUSH2 0x238 JUMPI PUSH1 0x40 CALLDATASIZE PUSH1 0x3 NOT ADD SLT PUSH2 0x238 JUMPI PUSH2 0x1FDD PUSH2 0x391E JUMP JUMPDEST PUSH1 0xFF PUSH2 0x1FE7 PUSH2 0x3BF3 JUMP JUMPDEST PUSH2 0x1FEF PUSH2 0x3C03 JUMP JUMPDEST AND SWAP1 PUSH2 0x1FFE PUSH1 0x64 DUP4 GT ISZERO PUSH2 0x426D JUMP JUMPDEST PUSH1 0x1 PUSH1 0x1 PUSH1 0xA0 SHL SUB AND PUSH1 0x0 SWAP1 DUP2 MSTORE PUSH1 0x11 PUSH1 0x20 MSTORE PUSH1 0x40 SWAP1 KECCAK256 DUP1 SLOAD PUSH1 0xFF NOT AND SWAP1 SWAP2 OR SWAP1 SSTORE STOP JUMPDEST CALLVALUE PUSH2 0x238 JUMPI PUSH1 0x20 CALLDATASIZE PUSH1 0x3 NOT ADD SLT PUSH2 0x238 JUMPI PUSH2 0x120 PUSH2 0x203E PUSH2 0x391E JUMP JUMPDEST PUSH1 0x40 MLOAD SWAP1 PUSH2 0x204B DUP3 PUSH2 0x3981 JUMP JUMPDEST PUSH1 0x0 DUP3 MSTORE PUSH1 0x0 PUSH1 0x20 DUP4 ADD MSTORE PUSH1 0x0 PUSH1 0x40 DUP4 ADD MSTORE PUSH1 0x0 PUSH1 0x60 DUP4 ADD MSTORE PUSH1 0x0 PUSH1 0x80 DUP4 ADD MSTORE PUSH1 0x0 PUSH1 0xA0 DUP4 ADD MSTORE PUSH1 0x0 PUSH1 0xC0 DUP4 ADD MSTORE PUSH1 0x0 PUSH1 0xE0 DUP4 ADD MSTORE PUSH1 0x0 PUSH2 0x100 DUP1 SWAP4 ADD MSTORE PUSH1 0x1 DUP1 PUSH1 0xA0 SHL SUB AND PUSH1 0x0 MSTORE PUSH1 0x7 PUSH1 0x20 MSTORE PUSH1 0x40 PUSH1 0x0 KECCAK256 SWAP1 PUSH1 0xFF PUSH1 0x40 MLOAD PUSH2 0x20AD DUP2 PUSH2 0x3981 JUMP JUMPDEST DUP4 SLOAD SWAP4 DUP5 DUP3 MSTORE PUSH1 0x1 DUP2 ADD SLOAD PUSH1 0x20 DUP4 ADD SWAP1 DUP2 MSTORE PUSH1 0x2 DUP3 ADD SLOAD PUSH1 0x40 DUP5 ADD SWAP1 DUP2 MSTORE PUSH1 0x3 DUP4 ADD SLOAD PUSH1 0x60 DUP6 ADD SWAP1 DUP2 MSTORE PUSH1 0x4 DUP5 ADD SLOAD SWAP1 PUSH1 0x80 DUP7 ADD SWAP2 DUP3 MSTORE PUSH1 0x5 DUP6 ADD SLOAD SWAP3 PUSH1 0xA0 DUP8 ADD SWAP4 DUP5 MSTORE PUSH1 0x6 DUP7 ADD SLOAD SWAP5 PUSH1 0xC0 DUP9 ADD SWAP6 DUP7 MSTORE DUP10 DUP10 PUSH1 0x8 PUSH1 0x7 DUP11 ADD SLOAD SWAP10 PUSH1 0xE0 DUP13 ADD SWAP11 DUP12 MSTORE ADD SLOAD AND SWAP9 ADD SWAP8 DUP9 MSTORE PUSH1 0x40 MLOAD SWAP11 DUP12 MSTORE MLOAD PUSH1 0x20 DUP12 ADD MSTORE MLOAD PUSH1 0x40 DUP11 ADD MSTORE MLOAD PUSH1 0x60 DUP10 ADD MSTORE MLOAD PUSH1 0x80 DUP9 ADD MSTORE MLOAD PUSH1 0xA0 DUP8 ADD MSTORE MLOAD PUSH1 0xC0 DUP7 ADD MSTORE MLOAD PUSH1 0xE0 DUP6 ADD MSTORE MLOAD AND SWAP1 DUP3 ADD MSTORE RETURN JUMPDEST CALLVALUE PUSH2 0x238 JUMPI PUSH1 0x80 CALLDATASIZE PUSH1 0x3 NOT ADD SLT PUSH2 0x238 JUMPI PUSH1 0x7 PUSH1 0x24 CALLDATALOAD LT ISZERO PUSH2 0x238 JUMPI PUSH1 0x1 PUSH1 0x1 PUSH1 0x40 SHL SUB PUSH1 0x44 CALLDATALOAD DUP2 DUP2 GT PUSH2 0x238 JUMPI PUSH2 0x218B SWAP1 CALLDATASIZE SWAP1 PUSH1 0x4 ADD PUSH2 0x39BE JUMP JUMPDEST SWAP1 PUSH1 0xFF PUSH1 0x64 CALLDATALOAD AND PUSH1 0x64 CALLDATALOAD SUB PUSH2 0x238 JUMPI PUSH1 0x4 CALLDATALOAD PUSH1 0x0 MSTORE PUSH1 0x5 PUSH1 0x20 MSTORE PUSH1 0x40 PUSH1 0x0 KECCAK256 SWAP2 PUSH1 0x1 DUP1 PUSH1 0xA0 SHL SUB PUSH1 0x2 DUP5 ADD SLOAD AND CALLER SUB PUSH2 0x25D2 JUMPI PUSH1 0xFF PUSH1 0xF DUP5 ADD SLOAD AND PUSH1 0xA DUP2 LT ISZERO PUSH2 0x48D JUMPI PUSH1 0x3 PUSH2 0x21DB SWAP2 EQ PUSH2 0x3D67 JUMP JUMPDEST PUSH1 0x64 PUSH1 0xFF DUP2 CALLDATALOAD AND GT PUSH2 0x2595 JUMPI TIMESTAMP PUSH1 0xE DUP5 ADD SSTORE PUSH1 0xD DUP4 ADD SLOAD TIMESTAMP SUB TIMESTAMP DUP2 GT PUSH2 0x2470 JUMPI PUSH1 0xA DUP5 ADD SSTORE PUSH2 0x220F PUSH1 0x24 CALLDATALOAD PUSH1 0xF DUP6 ADD PUSH2 0x3CC6 JUMP JUMPDEST DUP1 MLOAD SWAP2 DUP3 GT PUSH2 0x43D JUMPI DUP2 SWAP1 PUSH2 0x2227 PUSH1 0x7 DUP6 ADD SLOAD PUSH2 0x3A6D JUMP JUMPDEST PUSH1 0x1F DUP2 GT PUSH2 0x2542 JUMPI JUMPDEST POP PUSH1 0x20 SWAP1 PUSH1 0x1F DUP4 GT PUSH1 0x1 EQ PUSH2 0x24D0 JUMPI PUSH1 0x0 SWAP3 PUSH2 0x24C5 JUMPI JUMPDEST POP POP DUP2 PUSH1 0x1 SHL SWAP2 PUSH1 0x0 NOT SWAP1 PUSH1 0x3 SHL SHR NOT AND OR PUSH1 0x7 DUP3 ADD SSTORE JUMPDEST PUSH1 0xF DUP2 ADD DUP1 SLOAD PUSH4 0xFF000000 NOT AND PUSH1 0x64 CALLDATALOAD PUSH1 0x18 SHL PUSH4 0xFF000000 AND OR SWAP1 SSTORE PUSH1 0x24 CALLDATALOAD PUSH1 0x1 SUB PUSH2 0x2486 JUMPI PUSH1 0xF DUP2 ADD DUP1 SLOAD PUSH1 0xFF NOT AND PUSH1 0x5 OR SWAP1 SSTORE PUSH1 0x2 DUP2 ADD SLOAD PUSH1 0x1 PUSH1 0x1 PUSH1 0xA0 SHL SUB AND PUSH1 0x0 SWAP1 DUP2 MSTORE PUSH1 0x7 PUSH1 0x20 MSTORE PUSH1 0x40 SWAP1 KECCAK256 PUSH1 0x1 ADD DUP1 SLOAD PUSH2 0x22BE SWAP1 PUSH2 0x3C7B JUMP JUMPDEST SWAP1 SSTORE PUSH1 0x1 DUP2 ADD SLOAD PUSH1 0x1 PUSH1 0x1 PUSH1 0xA0 SHL SUB AND PUSH1 0x0 SWAP1 DUP2 MSTORE PUSH1 0x8 PUSH1 0x20 MSTORE PUSH1 0x40 SWAP1 KECCAK256 PUSH1 0x4 ADD DUP1 SLOAD PUSH2 0x22EA SWAP1 PUSH2 0x3C7B JUMP JUMPDEST SWAP1 SSTORE JUMPDEST PUSH1 0x1 DUP1 PUSH1 0xA0 SHL SUB PUSH1 0x2 DUP3 ADD SLOAD AND PUSH1 0x0 MSTORE PUSH1 0x7 PUSH1 0x20 MSTORE PUSH1 0x40 PUSH1 0x0 KECCAK256 SWAP1 PUSH2 0x2312 DUP3 SLOAD PUSH2 0x3C7B JUMP JUMPDEST SWAP2 DUP3 DUP2 SSTORE PUSH1 0xA DUP3 ADD SLOAD PUSH2 0x232A PUSH1 0x4 DUP4 ADD SWAP2 DUP3 SLOAD PUSH2 0x3D5A JUMP JUMPDEST SWAP1 SSTORE PUSH1 0xB DUP3 ADD SLOAD PUSH2 0x2340 PUSH1 0x3 DUP4 ADD SWAP2 DUP3 SLOAD PUSH2 0x3D5A JUMP JUMPDEST SWAP1 SSTORE TIMESTAMP PUSH1 0x7 DUP3 ADD SSTORE DUP3 PUSH2 0x242B JUMPI JUMPDEST POP PUSH1 0xA SWAP2 POP PUSH1 0x1 DUP1 PUSH1 0xA0 SHL SUB PUSH1 0x1 DUP3 ADD SLOAD AND PUSH1 0x0 MSTORE PUSH1 0x8 PUSH1 0x20 MSTORE PUSH1 0x40 PUSH1 0x0 KECCAK256 DUP3 DUP3 ADD SLOAD PUSH2 0x2380 PUSH1 0x2 DUP4 ADD SWAP2 DUP3 SLOAD PUSH2 0x3D5A JUMP JUMPDEST DUP1 SWAP2 SSTORE DUP2 SLOAD SWAP1 DUP2 PUSH2 0x2414 JUMPI JUMPDEST POP POP POP PUSH1 0x4 CALLDATALOAD PUSH1 0x0 MSTORE DUP2 PUSH1 0x20 MSTORE PUSH2 0x23AF PUSH1 0x40 PUSH1 0x0 KECCAK256 PUSH1 0xFF PUSH1 0xF DUP5 ADD SLOAD AND SWAP1 PUSH2 0x3CE7 JUMP JUMPDEST PUSH1 0x4 CALLDATALOAD PUSH1 0x0 MSTORE PUSH1 0xB PUSH1 0x20 MSTORE PUSH2 0x23C8 TIMESTAMP PUSH1 0x40 PUSH1 0x0 KECCAK256 PUSH2 0x3D25 JUMP JUMPDEST ADD SLOAD PUSH1 0x40 MLOAD SWAP1 PUSH2 0x23DA DUP3 PUSH1 0x24 CALLDATALOAD PUSH2 0x3B9A JUMP JUMPDEST PUSH1 0x20 DUP3 ADD MSTORE PUSH1 0xFF PUSH1 0x64 CALLDATALOAD AND PUSH1 0x40 DUP3 ADD MSTORE PUSH32 0x8EC98CEEDCF96D04341CCC1B5323E399E63982F64A3B317A6A31EE84046BAFB8 PUSH1 0x60 PUSH1 0x4 CALLDATALOAD SWAP3 LOG2 STOP JUMPDEST PUSH1 0x3 SWAP2 PUSH2 0x2420 SWAP2 PUSH2 0x3DA9 JUMP JUMPDEST SWAP2 ADD SSTORE DUP3 DUP1 DUP1 PUSH2 0x238C JUMP JUMPDEST PUSH1 0x5 ADD DUP1 SLOAD PUSH1 0x0 NOT DUP5 ADD SWAP1 DUP5 DUP3 GT PUSH2 0x2470 JUMPI DUP2 DUP2 MUL SWAP2 DUP2 DUP4 DIV EQ SWAP1 ISZERO OR ISZERO PUSH2 0x2470 JUMPI PUSH1 0xA SWAP4 PUSH2 0x2463 PUSH2 0x2468 SWAP3 PUSH1 0xFF PUSH1 0x64 CALLDATALOAD AND SWAP1 PUSH2 0x3D5A JUMP JUMPDEST PUSH2 0x3DA9 JUMP JUMPDEST SWAP1 SSTORE DUP3 PUSH2 0x234E JUMP JUMPDEST PUSH4 0x4E487B71 PUSH1 0xE0 SHL PUSH1 0x0 MSTORE PUSH1 0x11 PUSH1 0x4 MSTORE PUSH1 0x24 PUSH1 0x0 REVERT JUMPDEST PUSH1 0xF DUP2 ADD DUP1 SLOAD PUSH1 0xFF NOT AND PUSH1 0x6 OR SWAP1 SSTORE PUSH1 0x2 DUP1 DUP3 ADD SLOAD PUSH1 0x1 PUSH1 0x1 PUSH1 0xA0 SHL SUB AND PUSH1 0x0 SWAP1 DUP2 MSTORE PUSH1 0x7 PUSH1 0x20 MSTORE PUSH1 0x40 SWAP1 KECCAK256 ADD DUP1 SLOAD PUSH2 0x24BE SWAP1 PUSH2 0x3C7B JUMP JUMPDEST SWAP1 SSTORE PUSH2 0x22ED JUMP JUMPDEST ADD MLOAD SWAP1 POP DUP4 DUP1 PUSH2 0x2247 JUMP JUMPDEST SWAP3 POP PUSH1 0x7 DUP5 ADD PUSH1 0x0 MSTORE PUSH1 0x20 PUSH1 0x0 KECCAK256 SWAP1 PUSH1 0x0 SWAP4 JUMPDEST PUSH1 0x1F NOT DUP5 AND DUP6 LT PUSH2 0x2527 JUMPI PUSH1 0x1 SWAP5 POP DUP4 PUSH1 0x1F NOT DUP2 AND LT PUSH2 0x250E JUMPI JUMPDEST POP POP POP DUP2 SHL ADD PUSH1 0x7 DUP3 ADD SSTORE PUSH2 0x225F JUMP JUMPDEST ADD MLOAD PUSH1 0x0 NOT PUSH1 0xF8 DUP5 PUSH1 0x3 SHL AND SHR NOT AND SWAP1 SSTORE DUP4 DUP1 DUP1 PUSH2 0x24FE JUMP JUMPDEST DUP2 DUP2 ADD MLOAD DUP4 SSTORE PUSH1 0x20 SWAP5 DUP6 ADD SWAP5 PUSH1 0x1 SWAP1 SWAP4 ADD SWAP3 SWAP1 SWAP2 ADD SWAP1 PUSH2 0x24E3 JUMP JUMPDEST SWAP1 SWAP2 POP PUSH1 0x7 DUP5 ADD PUSH1 0x0 MSTORE PUSH1 0x20 PUSH1 0x0 KECCAK256 PUSH1 0x1F DUP5 ADD PUSH1 0x5 SHR DUP2 ADD PUSH1 0x20 DUP6 LT PUSH2 0x258E JUMPI JUMPDEST SWAP1 DUP5 SWAP4 SWAP3 SWAP2 JUMPDEST PUSH1 0x1F DUP4 ADD PUSH1 0x5 SHR DUP3 ADD DUP2 LT PUSH2 0x257F JUMPI POP POP PUSH2 0x2230 JUMP JUMPDEST PUSH1 0x0 DUP2 SSTORE DUP6 SWAP5 POP PUSH1 0x1 ADD PUSH2 0x2569 JUMP JUMPDEST POP DUP1 PUSH2 0x2563 JUMP JUMPDEST PUSH1 0x40 MLOAD PUSH3 0x461BCD PUSH1 0xE5 SHL DUP2 MSTORE PUSH1 0x20 PUSH1 0x4 DUP3 ADD MSTORE PUSH1 0x15 PUSH1 0x24 DUP3 ADD MSTORE PUSH21 0x496E76616C6964207175616C6974792073636F7265 PUSH1 0x58 SHL PUSH1 0x44 DUP3 ADD MSTORE PUSH1 0x64 SWAP1 REVERT JUMPDEST PUSH1 0x40 MLOAD PUSH3 0x461BCD PUSH1 0xE5 SHL DUP2 MSTORE PUSH1 0x20 PUSH1 0x4 DUP3 ADD MSTORE PUSH1 0x1A PUSH1 0x24 DUP3 ADD MSTORE PUSH32 0x4F6E6C792070726F76696465722063616E20636F6D706C657465000000000000 PUSH1 0x44 DUP3 ADD MSTORE PUSH1 0x64 SWAP1 REVERT JUMPDEST CALLVALUE PUSH2 0x238 JUMPI PUSH1 0x20 CALLDATASIZE PUSH1 0x3 NOT ADD SLT PUSH2 0x238 JUMPI PUSH1 0x1 PUSH1 0x1 PUSH1 0xA0 SHL SUB PUSH2 0x2638 PUSH2 0x391E JUMP JUMPDEST AND PUSH1 0x0 MSTORE PUSH1 0x7 PUSH1 0x20 MSTORE PUSH2 0x120 PUSH1 0x40 PUSH1 0x0 KECCAK256 DUP1 SLOAD SWAP1 PUSH1 0x1 DUP2 ADD SLOAD SWAP1 PUSH1 0x2 DUP2 ADD SLOAD PUSH1 0x3 DUP3 ADD SLOAD PUSH1 0x4 DUP4 ADD SLOAD PUSH1 0x5 DUP5 ADD SLOAD SWAP2 PUSH1 0x6 DUP6 ADD SLOAD SWAP4 PUSH1 0xFF PUSH1 0x8 PUSH1 0x7 DUP9 ADD SLOAD SWAP8 ADD SLOAD AND SWAP7 PUSH1 0x40 MLOAD SWAP9 DUP10 MSTORE PUSH1 0x20 DUP10 ADD MSTORE PUSH1 0x40 DUP9 ADD MSTORE PUSH1 0x60 DUP8 ADD MSTORE PUSH1 0x80 DUP7 ADD MSTORE PUSH1 0xA0 DUP6 ADD MSTORE PUSH1 0xC0 DUP5 ADD MSTORE PUSH1 0xE0 DUP4 ADD MSTORE PUSH2 0x100 DUP3 ADD MSTORE RETURN JUMPDEST CALLVALUE PUSH2 0x238 JUMPI PUSH1 0x20 DUP1 PUSH1 0x3 NOT CALLDATASIZE ADD SLT PUSH2 0x238 JUMPI PUSH1 0x60 PUSH1 0xC0 PUSH1 0x40 MLOAD PUSH2 0x26CE DUP2 PUSH2 0x3966 JUMP JUMPDEST PUSH1 0x0 DUP2 MSTORE PUSH1 0x0 DUP5 DUP3 ADD MSTORE PUSH1 0x0 PUSH1 0x40 DUP3 ADD MSTORE PUSH1 0x0 DUP4 DUP3 ADD MSTORE PUSH1 0x0 PUSH1 0x80 DUP3 ADD MSTORE PUSH1 0x0 PUSH1 0xA0 DUP3 ADD MSTORE ADD MSTORE PUSH1 0x4 CALLDATALOAD PUSH1 0x0 MSTORE PUSH1 0x6 DUP2 MSTORE PUSH1 0x40 PUSH1 0x0 KECCAK256 PUSH2 0x12CA PUSH1 0x40 MLOAD SWAP2 PUSH2 0x2714 DUP4 PUSH2 0x3966 JUMP JUMPDEST DUP1 SLOAD DUP4 MSTORE PUSH1 0x1 DUP2 ADD SLOAD SWAP1 DUP5 DUP5 ADD SWAP2 DUP3 MSTORE PUSH1 0x2 DUP2 ADD SLOAD PUSH1 0x40 DUP6 ADD SWAP1 DUP2 MSTORE PUSH1 0x3 DUP3 ADD SLOAD PUSH1 0x60 DUP7 ADD SWAP1 DUP2 MSTORE PUSH1 0x4 DUP4 ADD SLOAD SWAP2 PUSH1 0x80 DUP8 ADD SWAP3 DUP4 MSTORE PUSH2 0x2761 PUSH1 0x6 PUSH1 0x5 DUP7 ADD SLOAD SWAP6 PUSH1 0xA0 DUP11 ADD SWAP7 DUP8 MSTORE ADD PUSH2 0x3AA7 JUMP JUMPDEST SWAP5 PUSH1 0xC0 DUP9 ADD SWAP6 DUP7 MSTORE PUSH1 0x40 MLOAD SWAP9 DUP10 SWAP9 DUP2 DUP11 MSTORE MLOAD SWAP1 DUP10 ADD MSTORE MLOAD PUSH1 0x40 DUP9 ADD MSTORE MLOAD PUSH1 0x60 DUP8 ADD MSTORE MLOAD PUSH1 0x80 DUP7 ADD MSTORE MLOAD PUSH1 0xA0 DUP6 ADD MSTORE MLOAD PUSH1 0xC0 DUP5 ADD MSTORE MLOAD PUSH1 0xE0 DUP1 DUP5 ADD MSTORE PUSH2 0x100 DUP4 ADD SWAP1 PUSH2 0x3B4D JUMP JUMPDEST CALLVALUE PUSH2 0x238 JUMPI PUSH1 0x20 CALLDATASIZE PUSH1 0x3 NOT ADD SLT PUSH2 0x238 JUMPI PUSH1 0x1 PUSH1 0x1 PUSH1 0xA0 SHL SUB PUSH2 0x27C8 PUSH2 0x391E JUMP JUMPDEST AND PUSH1 0x0 MSTORE PUSH1 0xC PUSH1 0x20 MSTORE PUSH2 0x12CA PUSH2 0x27E1 PUSH1 0x40 PUSH1 0x0 KECCAK256 PUSH2 0x3DC9 JUMP JUMPDEST PUSH1 0x40 MLOAD SWAP2 DUP3 SWAP2 PUSH1 0x20 DUP4 MSTORE PUSH1 0x20 DUP4 ADD SWAP1 PUSH2 0x3BA7 JUMP JUMPDEST CALLVALUE PUSH2 0x238 JUMPI PUSH2 0x2803 CALLDATASIZE PUSH2 0x3A14 JUMP JUMPDEST SWAP1 PUSH1 0x0 MSTORE PUSH1 0xB PUSH1 0x20 MSTORE PUSH1 0x40 PUSH1 0x0 KECCAK256 DUP1 SLOAD DUP3 LT ISZERO PUSH2 0x238 JUMPI PUSH1 0x20 SWAP2 PUSH2 0x22A SWAP2 PUSH2 0x3BDB JUMP JUMPDEST CALLVALUE PUSH2 0x238 JUMPI PUSH1 0x0 CALLDATASIZE PUSH1 0x3 NOT ADD SLT PUSH2 0x238 JUMPI PUSH1 0x0 SLOAD PUSH1 0x40 MLOAD PUSH1 0x1 PUSH1 0x1 PUSH1 0xA0 SHL SUB SWAP1 SWAP2 AND DUP2 MSTORE PUSH1 0x20 SWAP1 RETURN JUMPDEST CALLVALUE PUSH2 0x238 JUMPI PUSH1 0x20 CALLDATASIZE PUSH1 0x3 NOT ADD SLT PUSH2 0x238 JUMPI PUSH1 0x1 PUSH1 0x1 PUSH1 0xA0 SHL SUB PUSH2 0x2870 PUSH2 0x391E JUMP JUMPDEST AND PUSH1 0x0 MSTORE PUSH1 0x10 PUSH1 0x20 MSTORE PUSH1 0x20 PUSH1 0xFF PUSH1 0x40 PUSH1 0x0 KECCAK256 SLOAD AND PUSH1 0x40 MLOAD SWAP1 DUP2 MSTORE RETURN JUMPDEST CALLVALUE PUSH2 0x238 JUMPI PUSH1 0x0 CALLDATASIZE PUSH1 0x3 NOT ADD SLT PUSH2 0x238 JUMPI PUSH2 0x28A5 PUSH2 0x3C03 JUMP JUMPDEST STOP JUMPDEST CALLVALUE PUSH2 0x238 JUMPI PUSH1 0x0 CALLDATASIZE PUSH1 0x3 NOT ADD SLT PUSH2 0x238 JUMPI PUSH2 0x28C0 PUSH2 0x3C03 JUMP JUMPDEST PUSH1 0x0 DUP1 SLOAD PUSH1 0x1 PUSH1 0x1 PUSH1 0xA0 SHL SUB NOT DUP2 AND DUP3 SSTORE PUSH1 0x1 PUSH1 0x1 PUSH1 0xA0 SHL SUB AND PUSH32 0x8BE0079C531659141344CD1FD0A4F28419497F9722A3DAAFE3B4186F6B6457E0 DUP3 DUP1 LOG3 STOP JUMPDEST CALLVALUE PUSH2 0x238 JUMPI PUSH1 0x40 CALLDATASIZE PUSH1 0x3 NOT ADD SLT PUSH2 0x238 JUMPI PUSH2 0x2919 PUSH2 0x391E JUMP JUMPDEST PUSH1 0xFF PUSH2 0x2923 PUSH2 0x3BF3 JUMP JUMPDEST PUSH2 0x292B PUSH2 0x3C03 JUMP JUMPDEST AND SWAP1 PUSH2 0x293A PUSH1 0x64 DUP4 GT ISZERO PUSH2 0x426D JUMP JUMPDEST PUSH1 0x1 PUSH1 0x1 PUSH1 0xA0 SHL SUB AND PUSH1 0x0 SWAP1 DUP2 MSTORE PUSH1 0x10 PUSH1 0x20 MSTORE PUSH1 0x40 SWAP1 KECCAK256 DUP1 SLOAD PUSH1 0xFF NOT AND SWAP1 SWAP2 OR SWAP1 SSTORE STOP JUMPDEST CALLVALUE PUSH2 0x238 JUMPI PUSH2 0x296C CALLDATASIZE PUSH2 0x3A14 JUMP JUMPDEST SWAP1 PUSH1 0x0 MSTORE PUSH1 0x9 PUSH1 0x20 MSTORE PUSH1 0x40 PUSH1 0x0 KECCAK256 DUP1 SLOAD DUP3 LT ISZERO PUSH2 0x238 JUMPI PUSH1 0x20 SWAP2 PUSH2 0x298F SWAP2 PUSH2 0x3BDB JUMP JUMPDEST SWAP1 SLOAD PUSH1 0x40 MLOAD PUSH1 0x3 SWAP3 SWAP1 SWAP3 SHL SHR PUSH1 0x1 PUSH1 0x1 PUSH1 0xA0 SHL SUB AND DUP2 MSTORE RETURN JUMPDEST CALLVALUE PUSH2 0x238 JUMPI PUSH1 0x0 CALLDATASIZE PUSH1 0x3 NOT ADD SLT PUSH2 0x238 JUMPI PUSH1 0x0 DUP1 PUSH1 0x0 DUP1 PUSH1 0x2 SLOAD SWAP3 DUP4 PUSH1 0x0 NOT DUP2 ADD GT PUSH2 0x2470 JUMPI PUSH1 0x1 SWAP5 SWAP1 PUSH1 0x0 JUMPDEST DUP6 DUP8 LT PUSH2 0x2A1B JUMPI PUSH1 0xA0 SWAP7 POP DUP2 PUSH2 0x2A07 JUMPI JUMPDEST POP PUSH1 0x40 MLOAD SWAP5 PUSH1 0x0 NOT ADD DUP6 MSTORE PUSH1 0x20 DUP6 ADD MSTORE PUSH1 0x40 DUP5 ADD MSTORE PUSH1 0x60 DUP4 ADD MSTORE PUSH1 0x80 DUP3 ADD MSTORE RETURN JUMPDEST DUP2 SWAP5 POP SWAP1 PUSH2 0x2A14 SWAP2 PUSH2 0x3DA9 JUMP JUMPDEST SWAP3 DUP7 PUSH2 0x29E6 JUMP JUMPDEST SWAP2 SWAP6 SWAP3 DUP4 PUSH1 0x0 MSTORE PUSH1 0x5 PUSH1 0x20 MSTORE PUSH1 0x40 PUSH1 0x0 KECCAK256 SWAP2 PUSH1 0x40 MLOAD SWAP3 PUSH2 0x2A3A DUP5 PUSH2 0x394A JUMP JUMPDEST DUP1 SLOAD DUP5 MSTORE PUSH1 0x1 DUP2 ADD SLOAD PUSH1 0x1 PUSH1 0x1 PUSH1 0xA0 SHL SUB SWAP1 DUP2 AND PUSH1 0x20 DUP7 ADD MSTORE PUSH1 0x2 DUP3 ADD SLOAD AND PUSH1 0x40 DUP6 ADD MSTORE PUSH1 0x3 DUP2 ADD SLOAD PUSH1 0x60 DUP6 ADD MSTORE PUSH2 0x2A74 PUSH1 0x4 DUP3 ADD PUSH2 0x3AA7 JUMP JUMPDEST PUSH1 0x80 DUP6 ADD MSTORE PUSH2 0x2A85 PUSH1 0x5 DUP3 ADD PUSH2 0x3AA7 JUMP JUMPDEST PUSH1 0xA0 DUP6 ADD MSTORE PUSH2 0x2A96 PUSH1 0x6 DUP3 ADD PUSH2 0x3AA7 JUMP JUMPDEST PUSH1 0xC0 DUP6 ADD MSTORE PUSH2 0x2AA7 PUSH1 0x7 DUP3 ADD PUSH2 0x3AA7 JUMP JUMPDEST PUSH1 0xE0 DUP6 ADD MSTORE PUSH2 0x2AB8 PUSH1 0x8 DUP3 ADD PUSH2 0x3AA7 JUMP JUMPDEST PUSH2 0x100 DUP6 ADD MSTORE PUSH1 0x9 DUP2 ADD SLOAD PUSH2 0x120 DUP6 ADD MSTORE PUSH1 0xA DUP2 ADD SLOAD PUSH2 0x140 DUP6 ADD MSTORE PUSH1 0xB DUP2 ADD SLOAD PUSH2 0x160 DUP6 ADD MSTORE PUSH1 0xC DUP2 ADD SLOAD PUSH2 0x180 DUP6 ADD MSTORE PUSH1 0xD DUP2 ADD SLOAD PUSH2 0x1A0 DUP6 ADD MSTORE PUSH1 0xE DUP2 ADD SLOAD PUSH2 0x1C0 DUP6 ADD MSTORE PUSH2 0x2B62 PUSH1 0xF DUP3 ADD SLOAD PUSH2 0x1E0 DUP7 ADD SWAP3 PUSH1 0xFF PUSH2 0x2B1C DUP2 DUP5 AND DUP7 PUSH2 0x3C8A JUMP JUMPDEST PUSH2 0x2B2F DUP2 DUP5 PUSH1 0x8 SHR AND PUSH2 0x200 DUP11 ADD PUSH2 0x3C96 JUMP JUMPDEST PUSH1 0x10 SWAP3 PUSH2 0x2B44 DUP3 DUP3 DUP7 SHR AND PUSH2 0x220 DUP12 ADD PUSH2 0x3CA2 JUMP JUMPDEST DUP2 DUP2 PUSH1 0x18 SHR AND PUSH2 0x240 DUP11 ADD MSTORE PUSH1 0x20 SHR AND ISZERO ISZERO PUSH2 0x260 DUP9 ADD MSTORE ADD PUSH2 0x3AA7 JUMP JUMPDEST PUSH2 0x280 DUP6 ADD MSTORE DUP1 MLOAD PUSH1 0xA DUP2 LT ISZERO PUSH2 0x48D JUMPI PUSH1 0x5 SUB PUSH2 0x2BB6 JUMPI POP PUSH2 0x2BAE SWAP2 PUSH2 0x160 PUSH2 0x2B9E PUSH2 0x2B91 PUSH2 0x2BA8 SWAP5 PUSH2 0x3C7B JUMP JUMPDEST SWAP7 PUSH2 0x140 DUP8 ADD MLOAD SWAP1 PUSH2 0x3D5A JUMP JUMPDEST SWAP5 JUMPDEST ADD MLOAD SWAP1 PUSH2 0x3D5A JUMP JUMPDEST SWAP4 PUSH2 0x3C7B JUMP JUMPDEST SWAP6 SWAP2 SWAP1 PUSH2 0x29D5 JUMP JUMPDEST SWAP4 SWAP3 SWAP1 SWAP4 MLOAD PUSH1 0xA DUP2 LT ISZERO PUSH2 0x48D JUMPI PUSH1 0x6 EQ PUSH2 0x2BDC JUMPI JUMPDEST PUSH2 0x2BAE SWAP2 PUSH2 0x160 PUSH2 0x2BA8 SWAP3 PUSH2 0x2BA0 JUMP JUMPDEST SWAP7 PUSH2 0x2BAE SWAP2 PUSH2 0x160 PUSH2 0x2BF0 PUSH2 0x2BA8 SWAP4 PUSH2 0x3C7B JUMP JUMPDEST SWAP10 SWAP3 POP POP SWAP2 POP PUSH2 0x2BCC JUMP JUMPDEST CALLVALUE PUSH2 0x238 JUMPI PUSH1 0x40 CALLDATASIZE PUSH1 0x3 NOT ADD SLT PUSH2 0x238 JUMPI PUSH1 0x4 CALLDATALOAD PUSH1 0x24 CALLDATALOAD PUSH1 0xA DUP2 LT ISZERO PUSH2 0x238 JUMPI DUP2 PUSH1 0x0 MSTORE PUSH1 0x20 SWAP1 PUSH1 0x5 DUP3 MSTORE PUSH1 0x40 PUSH1 0x0 KECCAK256 SWAP2 PUSH1 0x40 MLOAD PUSH2 0x2C38 DUP2 PUSH2 0x394A JUMP JUMPDEST DUP4 SLOAD DUP2 MSTORE PUSH1 0x1 DUP5 ADD SLOAD PUSH1 0x1 PUSH1 0x1 PUSH1 0xA0 SHL SUB SWAP1 DUP2 AND DUP4 DUP4 ADD SWAP1 DUP2 MSTORE PUSH1 0x2 DUP7 ADD SLOAD DUP3 AND PUSH1 0x40 DUP5 ADD SWAP1 DUP2 MSTORE PUSH1 0x3 DUP8 ADD SLOAD PUSH1 0x60 DUP6 ADD MSTORE SWAP3 DUP3 SWAP2 SWAP1 PUSH2 0x2C7A PUSH1 0x4 DUP10 ADD PUSH2 0x3AA7 JUMP JUMPDEST PUSH1 0x80 DUP3 ADD MSTORE PUSH2 0x2C8B PUSH1 0x5 DUP10 ADD PUSH2 0x3AA7 JUMP JUMPDEST PUSH1 0xA0 DUP3 ADD MSTORE PUSH2 0x2C9C PUSH1 0x6 DUP10 ADD PUSH2 0x3AA7 JUMP JUMPDEST PUSH1 0xC0 DUP3 ADD MSTORE PUSH2 0x2CAD PUSH1 0x7 DUP10 ADD PUSH2 0x3AA7 JUMP JUMPDEST PUSH1 0xE0 DUP3 ADD MSTORE PUSH2 0x2CBE PUSH1 0x8 DUP10 ADD PUSH2 0x3AA7 JUMP JUMPDEST PUSH2 0x100 DUP3 ADD MSTORE PUSH1 0x9 DUP9 ADD SLOAD PUSH2 0x120 DUP3 ADD MSTORE PUSH1 0xA DUP9 ADD SLOAD PUSH2 0x140 DUP3 ADD MSTORE PUSH1 0xB DUP9 ADD SLOAD PUSH2 0x160 DUP3 ADD MSTORE PUSH1 0xC DUP9 ADD SLOAD PUSH2 0x180 DUP3 ADD MSTORE PUSH1 0xD DUP9 ADD SLOAD PUSH2 0x1A0 DUP3 ADD MSTORE PUSH1 0xE DUP9 ADD SLOAD PUSH2 0x1C0 DUP3 ADD MSTORE PUSH2 0x280 PUSH2 0x2D6A PUSH1 0x10 PUSH1 0xF DUP12 ADD SLOAD SWAP11 PUSH1 0xFF DUP13 PUSH2 0x2D28 DUP3 SWAP15 DUP4 AND PUSH2 0x1E0 DUP10 ADD PUSH2 0x3C8A JUMP JUMPDEST PUSH2 0x2D3B DUP3 DUP3 PUSH1 0x8 SHR AND PUSH2 0x200 DUP10 ADD PUSH2 0x3C96 JUMP JUMPDEST PUSH2 0x2D4D DUP3 DUP3 DUP7 SHR AND PUSH2 0x220 DUP10 ADD PUSH2 0x3CA2 JUMP JUMPDEST DUP2 DUP2 PUSH1 0x18 SHR AND PUSH2 0x240 DUP9 ADD MSTORE DUP12 SHR AND ISZERO ISZERO PUSH2 0x260 DUP7 ADD MSTORE ADD PUSH2 0x3AA7 JUMP JUMPDEST SWAP2 ADD MSTORE MLOAD AND CALLER EQ SWAP2 DUP3 ISZERO PUSH2 0x2EF8 JUMPI JUMPDEST POP DUP2 ISZERO PUSH2 0x2EEA JUMPI JUMPDEST POP ISZERO PUSH2 0x2EB5 JUMPI DUP4 PUSH1 0x0 MSTORE PUSH1 0x5 DUP2 MSTORE PUSH1 0xF PUSH1 0x40 PUSH1 0x0 KECCAK256 ADD SWAP3 DUP4 SLOAD AND SWAP3 PUSH1 0xA DUP5 LT ISZERO PUSH2 0x48D JUMPI DUP3 DUP5 EQ PUSH2 0x2E7E JUMPI PUSH2 0x2DB6 DUP4 DUP6 PUSH2 0x3E43 JUMP JUMPDEST ISZERO PUSH2 0x2E39 JUMPI DUP3 PUSH32 0x8A8BA0D624A05EE4E83F3118CDDB0056FCA393D3BDE8F27021E1332AE3AA4C37 SWAP5 SWAP3 PUSH2 0x2DEE PUSH1 0x60 SWAP6 PUSH2 0x2E30 SWAP5 PUSH2 0x3CAE JUMP JUMPDEST DUP7 PUSH1 0x0 MSTORE PUSH1 0xA DUP2 MSTORE PUSH2 0x2E04 DUP3 PUSH1 0x40 PUSH1 0x0 KECCAK256 PUSH2 0x3CE7 JUMP JUMPDEST DUP7 PUSH1 0x0 MSTORE PUSH1 0xB DUP2 MSTORE PUSH2 0x2E1B PUSH1 0x40 PUSH1 0x0 KECCAK256 TIMESTAMP SWAP1 PUSH2 0x3D25 JUMP JUMPDEST PUSH2 0x2E28 PUSH1 0x40 MLOAD DUP1 SWAP6 PUSH2 0x3A60 JUMP JUMPDEST DUP4 ADD SWAP1 PUSH2 0x3A60 JUMP JUMPDEST TIMESTAMP PUSH1 0x40 DUP3 ADD MSTORE LOG2 STOP JUMPDEST PUSH1 0x40 MLOAD PUSH3 0x461BCD PUSH1 0xE5 SHL DUP2 MSTORE PUSH1 0x4 DUP2 ADD DUP4 SWAP1 MSTORE PUSH1 0x18 PUSH1 0x24 DUP3 ADD MSTORE PUSH32 0x496E76616C6964207068617365207472616E736974696F6E0000000000000000 PUSH1 0x44 DUP3 ADD MSTORE PUSH1 0x64 SWAP1 REVERT JUMPDEST PUSH1 0x40 MLOAD PUSH3 0x461BCD PUSH1 0xE5 SHL DUP2 MSTORE PUSH1 0x4 DUP2 ADD DUP4 SWAP1 MSTORE PUSH1 0xF PUSH1 0x24 DUP3 ADD MSTORE PUSH15 0x141A185CD9481D5B98DA185B99D959 PUSH1 0x8A SHL PUSH1 0x44 DUP3 ADD MSTORE PUSH1 0x64 SWAP1 REVERT JUMPDEST PUSH1 0x64 SWAP1 PUSH1 0x40 MLOAD SWAP1 PUSH3 0x461BCD PUSH1 0xE5 SHL DUP3 MSTORE PUSH1 0x4 DUP3 ADD MSTORE PUSH1 0xE PUSH1 0x24 DUP3 ADD MSTORE PUSH14 0x139BDD08185D5D1A1BDC9A5E9959 PUSH1 0x92 SHL PUSH1 0x44 DUP3 ADD MSTORE REVERT JUMPDEST SWAP1 POP PUSH1 0x3 SLOAD AND CALLER EQ DUP6 PUSH2 0x2D81 JUMP JUMPDEST DUP2 SWAP3 POP MLOAD AND CALLER EQ SWAP1 DUP7 PUSH2 0x2D79 JUMP JUMPDEST CALLVALUE PUSH2 0x238 JUMPI PUSH1 0x40 CALLDATASIZE PUSH1 0x3 NOT ADD SLT PUSH2 0x238 JUMPI PUSH2 0x2F1F PUSH2 0x391E JUMP JUMPDEST PUSH1 0x1 PUSH1 0x1 PUSH1 0xA0 SHL SUB AND PUSH1 0x0 SWAP1 DUP2 MSTORE PUSH1 0xC PUSH1 0x20 MSTORE PUSH1 0x40 SWAP1 KECCAK256 DUP1 SLOAD PUSH1 0x24 CALLDATALOAD SWAP2 SWAP1 DUP3 LT ISZERO PUSH2 0x238 JUMPI PUSH1 0x20 SWAP2 PUSH2 0x22A SWAP2 PUSH2 0x3BDB JUMP JUMPDEST CALLVALUE PUSH2 0x238 JUMPI PUSH1 0x20 CALLDATASIZE PUSH1 0x3 NOT ADD SLT PUSH2 0x238 JUMPI PUSH2 0x2F69 PUSH2 0x391E JUMP JUMPDEST PUSH1 0x0 PUSH1 0xC0 PUSH1 0x40 MLOAD PUSH2 0x2F79 DUP2 PUSH2 0x3966 JUMP JUMPDEST DUP3 DUP2 MSTORE DUP3 PUSH1 0x20 DUP3 ADD MSTORE DUP3 PUSH1 0x40 DUP3 ADD MSTORE DUP3 PUSH1 0x60 DUP3 ADD MSTORE DUP3 PUSH1 0x80 DUP3 ADD MSTORE DUP3 PUSH1 0xA0 DUP3 ADD MSTORE ADD MSTORE PUSH1 0x1 DUP1 PUSH1 0xA0 SHL SUB AND PUSH1 0x0 MSTORE PUSH1 0x8 PUSH1 0x20 MSTORE PUSH1 0xE0 PUSH1 0x40 PUSH1 0x0 KECCAK256 PUSH1 0xFF PUSH1 0x40 MLOAD PUSH2 0x2FC1 DUP2 PUSH2 0x3966 JUMP JUMPDEST DUP3 SLOAD SWAP3 DUP4 DUP3 MSTORE PUSH1 0x1 DUP2 ADD SLOAD PUSH1 0x20 DUP4 ADD SWAP1 DUP2 MSTORE PUSH1 0x2 DUP3 ADD SLOAD PUSH1 0x40 DUP5 ADD SWAP1 DUP2 MSTORE PUSH1 0x3 DUP4 ADD SLOAD SWAP1 PUSH1 0x60 DUP6 ADD SWAP2 DUP3 MSTORE PUSH1 0x4 DUP5 ADD SLOAD SWAP3 PUSH1 0x80 DUP7 ADD SWAP4 DUP5 MSTORE PUSH1 0xC0 DUP8 PUSH1 0x6 PUSH1 0x5 DUP9 ADD SLOAD SWAP8 PUSH1 0xA0 DUP11 ADD SWAP9 DUP10 MSTORE ADD SLOAD AND SWAP7 ADD SWAP6 DUP7 MSTORE PUSH1 0x40 MLOAD SWAP8 DUP9 MSTORE MLOAD PUSH1 0x20 DUP9 ADD MSTORE MLOAD PUSH1 0x40 DUP8 ADD MSTORE MLOAD PUSH1 0x60 DUP7 ADD MSTORE MLOAD PUSH1 0x80 DUP6 ADD MSTORE MLOAD PUSH1 0xA0 DUP5 ADD MSTORE MLOAD AND PUSH1 0xC0 DUP3 ADD MSTORE RETURN JUMPDEST CALLVALUE PUSH2 0x238 JUMPI PUSH1 0x20 CALLDATASIZE PUSH1 0x3 NOT ADD SLT PUSH2 0x238 JUMPI PUSH1 0x4 CALLDATALOAD PUSH1 0x0 MSTORE PUSH1 0xE PUSH1 0x20 MSTORE PUSH2 0x12CA PUSH2 0x27E1 PUSH1 0x40 PUSH1 0x0 KECCAK256 PUSH2 0x3DC9 JUMP JUMPDEST CALLVALUE PUSH2 0x238 JUMPI PUSH2 0x307A CALLDATASIZE PUSH2 0x3A14 JUMP JUMPDEST SWAP1 PUSH1 0x0 MSTORE PUSH1 0xE PUSH1 0x20 MSTORE PUSH1 0x40 PUSH1 0x0 KECCAK256 DUP1 SLOAD DUP3 LT ISZERO PUSH2 0x238 JUMPI PUSH1 0x20 SWAP2 PUSH2 0x22A SWAP2 PUSH2 0x3BDB JUMP JUMPDEST CALLVALUE PUSH2 0x238 JUMPI PUSH1 0x20 DUP1 PUSH1 0x3 NOT CALLDATASIZE ADD SLT PUSH2 0x238 JUMPI PUSH1 0x4 CALLDATALOAD PUSH1 0x0 DUP2 DUP2 MSTORE PUSH1 0x5 DUP4 MSTORE PUSH1 0x40 SWAP1 KECCAK256 PUSH1 0x2 DUP2 ADD SLOAD SWAP2 SWAP3 SWAP2 PUSH1 0x1 PUSH1 0x1 PUSH1 0xA0 SHL SUB AND CALLER SUB PUSH2 0x31BF JUMPI PUSH1 0xF DUP2 ADD SWAP1 DUP2 SLOAD SWAP1 PUSH1 0xFF DUP3 AND PUSH1 0xA DUP2 LT ISZERO PUSH2 0x48D JUMPI PUSH1 0x2 SUB PUSH2 0x3183 JUMPI TIMESTAMP PUSH1 0xD SWAP1 SWAP2 ADD SSTORE PUSH1 0xFF NOT AND PUSH1 0x3 OR SWAP1 SSTORE PUSH1 0x0 DUP3 DUP2 MSTORE PUSH1 0xA DUP3 MSTORE PUSH1 0x40 SWAP1 KECCAK256 DUP1 SLOAD SWAP2 SWAP1 PUSH1 0x1 PUSH1 0x40 SHL DUP4 LT ISZERO PUSH2 0x43D JUMPI DUP3 PUSH2 0x3150 SWAP2 PUSH1 0x1 PUSH32 0x5000FE9D0593710F21466E31EA482C295733609494BC1DAE2B7CCD4850A0C024 SWAP6 ADD DUP2 SSTORE PUSH2 0x3A2A JUMP JUMPDEST DUP2 SLOAD SWAP1 PUSH1 0x3 SHL SWAP1 PUSH1 0xFF PUSH1 0x3 DUP4 SHL SWAP3 SHL NOT AND OR SWAP1 SSTORE DUP3 PUSH1 0x0 MSTORE PUSH1 0xB DUP2 MSTORE PUSH2 0x317A TIMESTAMP PUSH1 0x40 PUSH1 0x0 KECCAK256 PUSH2 0x3D25 JUMP JUMPDEST PUSH1 0x40 MLOAD TIMESTAMP DUP2 MSTORE LOG2 STOP JUMPDEST PUSH1 0x40 MLOAD PUSH3 0x461BCD PUSH1 0xE5 SHL DUP2 MSTORE PUSH1 0x4 DUP2 ADD DUP6 SWAP1 MSTORE PUSH1 0x14 PUSH1 0x24 DUP3 ADD MSTORE PUSH20 0x129BD8881B5D5CDD08189948185CDCDA59DB9959 PUSH1 0x62 SHL PUSH1 0x44 DUP3 ADD MSTORE PUSH1 0x64 SWAP1 REVERT JUMPDEST PUSH1 0x40 MLOAD PUSH3 0x461BCD PUSH1 0xE5 SHL DUP2 MSTORE PUSH1 0x4 DUP2 ADD DUP4 SWAP1 MSTORE PUSH1 0x17 PUSH1 0x24 DUP3 ADD MSTORE PUSH32 0x4F6E6C792070726F76696465722063616E207374617274000000000000000000 PUSH1 0x44 DUP3 ADD MSTORE PUSH1 0x64 SWAP1 REVERT JUMPDEST CALLVALUE PUSH2 0x238 JUMPI PUSH1 0x20 CALLDATASIZE PUSH1 0x3 NOT ADD SLT PUSH2 0x238 JUMPI PUSH1 0x4 CALLDATALOAD PUSH1 0x0 MSTORE PUSH1 0x6 PUSH1 0x20 MSTORE PUSH1 0x40 PUSH1 0x0 KECCAK256 DUP1 SLOAD PUSH2 0x12CA PUSH1 0x1 DUP4 ADD SLOAD SWAP3 PUSH1 0x2 DUP2 ADD SLOAD SWAP1 PUSH1 0x3 DUP2 ADD SLOAD PUSH1 0x4 DUP3 ADD SLOAD SWAP1 PUSH2 0x3252 PUSH1 0x6 PUSH1 0x5 DUP6 ADD SLOAD SWAP5 ADD PUSH2 0x3AA7 JUMP JUMPDEST SWAP4 PUSH1 0x40 MLOAD SWAP8 DUP9 SWAP8 DUP9 MSTORE PUSH1 0x20 DUP9 ADD MSTORE PUSH1 0x40 DUP8 ADD MSTORE PUSH1 0x60 DUP7 ADD MSTORE PUSH1 0x80 DUP6 ADD MSTORE PUSH1 0xA0 DUP5 ADD MSTORE PUSH1 0xE0 PUSH1 0xC0 DUP5 ADD MSTORE PUSH1 0xE0 DUP4 ADD SWAP1 PUSH2 0x3B4D JUMP JUMPDEST CALLVALUE PUSH2 0x238 JUMPI PUSH1 0x20 CALLDATASIZE PUSH1 0x3 NOT ADD SLT PUSH2 0x238 JUMPI PUSH1 0x1 PUSH1 0x1 PUSH1 0xA0 SHL SUB PUSH2 0x32A6 PUSH2 0x391E JUMP JUMPDEST AND PUSH1 0x0 MSTORE PUSH1 0xD PUSH1 0x20 MSTORE PUSH2 0x12CA PUSH2 0x27E1 PUSH1 0x40 PUSH1 0x0 KECCAK256 PUSH2 0x3DC9 JUMP JUMPDEST CALLVALUE PUSH2 0x238 JUMPI PUSH1 0x20 CALLDATASIZE PUSH1 0x3 NOT ADD SLT PUSH2 0x238 JUMPI PUSH1 0x4 DUP1 CALLDATALOAD PUSH1 0x0 SWAP1 DUP2 MSTORE PUSH1 0x5 PUSH1 0x20 MSTORE PUSH1 0x40 SWAP1 KECCAK256 DUP1 SLOAD PUSH1 0x1 DUP3 ADD SLOAD PUSH1 0x2 DUP4 ADD SLOAD PUSH1 0x1 PUSH1 0x1 PUSH1 0xA0 SHL SUB SWAP1 DUP2 AND PUSH1 0xA0 MSTORE PUSH1 0x3 DUP5 ADD SLOAD PUSH1 0xE0 MSTORE AND SWAP3 PUSH2 0x3311 SWAP1 DUP4 ADD PUSH2 0x3AA7 JUMP JUMPDEST SWAP3 PUSH2 0x331E PUSH1 0x5 DUP5 ADD PUSH2 0x3AA7 JUMP JUMPDEST SWAP4 PUSH2 0x332B PUSH1 0x6 DUP6 ADD PUSH2 0x3AA7 JUMP JUMPDEST SWAP5 PUSH2 0x3338 PUSH1 0x7 DUP7 ADD PUSH2 0x3AA7 JUMP JUMPDEST SWAP6 PUSH2 0x3345 PUSH1 0x8 DUP8 ADD PUSH2 0x3AA7 JUMP JUMPDEST PUSH1 0x9 DUP8 ADD SLOAD SWAP8 PUSH1 0xA DUP9 ADD SLOAD SWAP3 PUSH1 0xB DUP10 ADD SLOAD SWAP5 PUSH1 0xC DUP11 ADD SLOAD SWAP7 PUSH1 0xD DUP12 ADD SLOAD SWAP9 PUSH1 0xE DUP13 ADD SLOAD SWAP11 PUSH1 0xF DUP14 ADD SLOAD SWAP13 PUSH1 0x10 ADD PUSH2 0x337B SWAP1 PUSH2 0x3AA7 JUMP JUMPDEST PUSH1 0xC0 MSTORE PUSH1 0x40 MLOAD DUP1 PUSH1 0x80 MSTORE MSTORE PUSH1 0x80 MLOAD PUSH1 0x20 ADD MSTORE PUSH1 0xA0 MLOAD PUSH1 0x80 MLOAD PUSH1 0x40 ADD MSTORE PUSH1 0xE0 MLOAD PUSH1 0x80 MLOAD PUSH1 0x60 ADD MSTORE PUSH2 0x2A0 DUP1 PUSH1 0x80 MLOAD PUSH1 0x80 ADD MSTORE PUSH1 0x80 MLOAD ADD PUSH2 0x33B9 SWAP2 PUSH2 0x3B4D JUMP JUMPDEST PUSH1 0x80 MLOAD DUP1 DUP3 SUB SWAP1 PUSH1 0xA0 ADD MSTORE PUSH2 0x33CD SWAP2 PUSH2 0x3B4D JUMP JUMPDEST PUSH1 0x80 MLOAD DUP1 DUP3 SUB SWAP1 PUSH1 0xC0 ADD MSTORE PUSH2 0x33E1 SWAP2 PUSH2 0x3B4D JUMP JUMPDEST PUSH1 0x80 MLOAD DUP1 DUP3 SUB SWAP1 PUSH1 0xE0 ADD MSTORE PUSH2 0x33F5 SWAP2 PUSH2 0x3B4D JUMP JUMPDEST PUSH1 0x80 MLOAD DUP1 DUP3 SUB SWAP1 PUSH2 0x100 ADD MSTORE PUSH2 0x340A SWAP2 PUSH2 0x3B4D JUMP JUMPDEST SWAP7 PUSH1 0x80 MLOAD PUSH2 0x120 ADD MSTORE PUSH1 0x80 MLOAD PUSH2 0x140 ADD MSTORE PUSH1 0x80 MLOAD PUSH2 0x160 ADD MSTORE PUSH1 0x80 MLOAD PUSH2 0x180 ADD MSTORE PUSH1 0x80 MLOAD PUSH2 0x1A0 ADD MSTORE PUSH1 0x80 MLOAD PUSH2 0x1C0 ADD MSTORE PUSH1 0x80 MLOAD PUSH2 0x1E0 ADD PUSH1 0xFF DUP3 AND SWAP1 PUSH2 0x3450 SWAP2 PUSH2 0x3A60 JUMP JUMPDEST PUSH1 0x80 MLOAD PUSH2 0x200 ADD DUP2 PUSH1 0x8 SHR PUSH1 0xFF AND SWAP1 PUSH2 0x3468 SWAP2 PUSH2 0x3B8D JUMP JUMPDEST PUSH1 0x80 MLOAD PUSH2 0x220 ADD DUP2 PUSH1 0x10 SHR PUSH1 0xFF AND SWAP1 PUSH2 0x3480 SWAP2 PUSH2 0x3B9A JUMP JUMPDEST DUP1 PUSH1 0x18 SHR PUSH1 0xFF AND PUSH1 0x80 MLOAD PUSH2 0x240 ADD MSTORE PUSH1 0x20 SHR PUSH1 0xFF AND ISZERO ISZERO PUSH1 0x80 MLOAD PUSH2 0x260 ADD MSTORE PUSH1 0x80 MLOAD DUP1 DUP3 SUB SWAP1 PUSH2 0x280 ADD MSTORE PUSH1 0x80 MLOAD SWAP1 PUSH1 0xC0 MLOAD SWAP1 PUSH2 0x34BC SWAP2 PUSH2 0x3B4D JUMP JUMPDEST SUB PUSH1 0x80 MLOAD RETURN JUMPDEST CALLVALUE PUSH2 0x238 JUMPI PUSH2 0x34D0 CALLDATASIZE PUSH2 0x3A14 JUMP JUMPDEST SWAP1 PUSH1 0x0 MSTORE PUSH1 0xA PUSH1 0x20 MSTORE PUSH1 0x40 PUSH1 0x0 KECCAK256 SWAP1 DUP2 SLOAD DUP2 LT ISZERO PUSH2 0x238 JUMPI PUSH2 0x34F7 PUSH2 0x350D SWAP2 PUSH1 0x20 SWAP4 PUSH2 0x3A2A JUMP JUMPDEST SWAP2 SWAP1 SLOAD SWAP2 PUSH1 0xFF PUSH1 0x40 MLOAD SWAP4 DUP5 SWAP3 PUSH1 0x3 SHL SHR AND PUSH2 0x3A60 JUMP JUMPDEST RETURN JUMPDEST CALLVALUE PUSH2 0x238 JUMPI PUSH2 0x100 DUP1 PUSH1 0x3 NOT CALLDATASIZE ADD SLT PUSH2 0x238 JUMPI PUSH1 0x4 CALLDATALOAD SWAP1 PUSH1 0x24 CALLDATALOAD SWAP1 PUSH1 0x44 CALLDATALOAD PUSH1 0x64 CALLDATALOAD SWAP2 PUSH1 0xE4 CALLDATALOAD PUSH1 0x1 PUSH1 0x1 PUSH1 0x40 SHL SUB SWAP1 DUP2 DUP2 GT PUSH2 0x238 JUMPI PUSH2 0x3552 SWAP1 CALLDATASIZE SWAP1 PUSH1 0x4 ADD PUSH2 0x39BE JUMP JUMPDEST SWAP1 DUP7 PUSH1 0x0 MSTORE PUSH1 0x20 SWAP3 PUSH1 0x5 DUP5 MSTORE PUSH1 0x40 PUSH1 0x0 KECCAK256 PUSH1 0x40 MLOAD SWAP2 PUSH2 0x3570 DUP4 PUSH2 0x394A JUMP JUMPDEST DUP2 SLOAD DUP4 MSTORE PUSH1 0x1 DUP1 DUP4 ADD SLOAD PUSH1 0x1 PUSH1 0x1 PUSH1 0xA0 SHL SUB SWAP1 DUP2 AND DUP9 DUP7 ADD MSTORE PUSH1 0x2 DUP5 ADD SLOAD DUP2 AND PUSH1 0x40 DUP7 ADD SWAP1 DUP2 MSTORE PUSH1 0x3 DUP6 ADD SLOAD PUSH1 0x60 DUP8 ADD MSTORE SWAP2 SWAP5 SWAP1 SWAP3 PUSH2 0x35B1 PUSH1 0x4 DUP7 ADD PUSH2 0x3AA7 JUMP JUMPDEST PUSH1 0x80 DUP4 ADD MSTORE PUSH2 0x35C2 PUSH1 0x5 DUP7 ADD PUSH2 0x3AA7 JUMP JUMPDEST PUSH1 0xA0 DUP4 ADD MSTORE PUSH2 0x35D3 PUSH1 0x6 DUP7 ADD PUSH2 0x3AA7 JUMP JUMPDEST PUSH1 0xC0 DUP4 ADD MSTORE PUSH2 0x35E4 PUSH1 0x7 DUP7 ADD PUSH2 0x3AA7 JUMP JUMPDEST PUSH1 0xE0 DUP4 ADD MSTORE PUSH2 0x35F5 PUSH1 0x8 DUP7 ADD PUSH2 0x3AA7 JUMP JUMPDEST SWAP1 DUP3 ADD MSTORE PUSH1 0x9 DUP5 ADD SLOAD PUSH2 0x120 DUP3 ADD MSTORE PUSH1 0xA DUP5 ADD SLOAD PUSH2 0x140 DUP3 ADD MSTORE PUSH1 0xB DUP5 ADD SLOAD PUSH2 0x160 DUP3 ADD MSTORE PUSH1 0xC DUP5 ADD SLOAD PUSH2 0x180 DUP3 ADD MSTORE PUSH1 0xD DUP5 ADD SLOAD PUSH2 0x1A0 DUP3 ADD MSTORE PUSH1 0xE DUP5 ADD SLOAD PUSH2 0x1C0 DUP3 ADD MSTORE PUSH2 0x280 PUSH2 0x369F PUSH1 0x10 PUSH1 0xF DUP8 ADD SLOAD SWAP7 PUSH1 0xFF PUSH2 0x1E0 DUP7 ADD SWAP9 PUSH2 0x365D DUP3 DUP3 AND DUP12 PUSH2 0x3C8A JUMP JUMPDEST PUSH2 0x3670 DUP3 DUP3 PUSH1 0x8 SHR AND PUSH2 0x200 DUP10 ADD PUSH2 0x3C96 JUMP JUMPDEST PUSH2 0x3682 DUP3 DUP3 DUP7 SHR AND PUSH2 0x220 DUP10 ADD PUSH2 0x3CA2 JUMP JUMPDEST DUP2 DUP2 PUSH1 0x18 SHR AND PUSH2 0x240 DUP9 ADD MSTORE DUP14 SHR AND ISZERO ISZERO PUSH2 0x260 DUP7 ADD MSTORE ADD PUSH2 0x3AA7 JUMP JUMPDEST SWAP2 ADD MSTORE MLOAD AND CALLER SUB PUSH2 0x3898 JUMPI MLOAD PUSH1 0xA DUP2 LT ISZERO PUSH2 0x48D JUMPI PUSH1 0x3 PUSH2 0x36C0 SWAP2 EQ PUSH2 0x3D67 JUMP JUMPDEST PUSH1 0x6 PUSH1 0x40 MLOAD PUSH2 0x36CE DUP2 PUSH2 0x3966 JUMP JUMPDEST DUP9 DUP2 MSTORE DUP10 DUP7 DUP3 ADD DUP9 DUP2 MSTORE PUSH1 0x40 DUP4 ADD DUP11 DUP2 MSTORE PUSH1 0x60 DUP5 ADD SWAP1 PUSH1 0x84 CALLDATALOAD DUP3 MSTORE PUSH1 0x80 DUP6 ADD SWAP3 PUSH1 0xA4 CALLDATALOAD DUP5 MSTORE PUSH1 0xA0 DUP7 ADD SWAP5 PUSH1 0xC4 CALLDATALOAD DUP7 MSTORE PUSH1 0xC0 DUP8 ADD SWAP11 DUP12 MSTORE PUSH1 0x0 MSTORE DUP7 DUP12 MSTORE PUSH1 0x40 PUSH1 0x0 KECCAK256 SWAP6 MLOAD DUP7 SSTORE MLOAD DUP8 DUP7 ADD SSTORE MLOAD PUSH1 0x2 DUP6 ADD SSTORE MLOAD PUSH1 0x3 DUP5 ADD SSTORE MLOAD PUSH1 0x4 DUP4 ADD SSTORE MLOAD PUSH1 0x5 DUP3 ADD SSTORE ADD SWAP3 MLOAD DUP1 MLOAD SWAP3 DUP4 GT PUSH2 0x43D JUMPI PUSH2 0x3746 DUP5 SLOAD PUSH2 0x3A6D JUMP JUMPDEST PUSH1 0x1F DUP2 GT PUSH2 0x384F JUMPI JUMPDEST POP DUP5 SWAP1 PUSH1 0x1F DUP5 GT PUSH1 0x1 EQ PUSH2 0x37C1 JUMPI SWAP3 DUP1 PUSH32 0x44C48F0A2A98711F39960A2386FDF3BC0E178616BA194122B51407ED02D4469A SWAP10 SWAP8 SWAP6 SWAP4 DUP2 SWAP4 PUSH1 0x60 SWAP11 SWAP9 SWAP7 PUSH1 0x0 SWAP5 PUSH2 0x37B6 JUMPI JUMPDEST POP POP SHL SWAP2 PUSH1 0x0 NOT SWAP1 PUSH1 0x3 SHL SHR NOT AND OR SWAP1 SSTORE JUMPDEST PUSH1 0x40 MLOAD SWAP4 DUP5 MSTORE DUP4 ADD MSTORE PUSH1 0x40 DUP3 ADD MSTORE LOG2 STOP JUMPDEST ADD MLOAD SWAP3 POP DUP13 DUP1 PUSH2 0x3793 JUMP JUMPDEST SWAP1 PUSH1 0x1F SWAP4 SWAP3 SWAP4 NOT DUP4 AND SWAP2 DUP6 PUSH1 0x0 MSTORE DUP7 PUSH1 0x0 KECCAK256 SWAP3 PUSH1 0x0 JUMPDEST DUP2 DUP2 LT PUSH2 0x383A JUMPI POP SWAP2 PUSH1 0x60 SWAP10 SWAP8 SWAP6 SWAP4 SWAP2 DUP6 PUSH32 0x44C48F0A2A98711F39960A2386FDF3BC0E178616BA194122B51407ED02D4469A SWAP13 SWAP11 SWAP9 SWAP7 SWAP5 LT PUSH2 0x3821 JUMPI JUMPDEST POP POP POP DUP2 SHL ADD SWAP1 SSTORE PUSH2 0x37A5 JUMP JUMPDEST ADD MLOAD PUSH1 0x0 NOT PUSH1 0xF8 DUP5 PUSH1 0x3 SHL AND SHR NOT AND SWAP1 SSTORE DUP11 DUP1 DUP1 PUSH2 0x3814 JUMP JUMPDEST DUP3 DUP5 ADD MLOAD DUP6 SSTORE SWAP4 DUP7 ADD SWAP4 SWAP3 DUP9 ADD SWAP3 DUP9 ADD PUSH2 0x37D7 JUMP JUMPDEST DUP5 PUSH1 0x0 MSTORE DUP6 PUSH1 0x0 KECCAK256 PUSH1 0x1F DUP6 ADD PUSH1 0x5 SHR DUP2 ADD SWAP2 DUP8 DUP7 LT PUSH2 0x388E JUMPI JUMPDEST PUSH1 0x1F ADD PUSH1 0x5 SHR ADD SWAP1 DUP4 SWAP1 JUMPDEST DUP3 DUP2 LT PUSH2 0x3882 JUMPI POP POP PUSH2 0x374F JUMP JUMPDEST PUSH1 0x0 DUP2 SSTORE ADD DUP4 SWAP1 PUSH2 0x3874 JUMP JUMPDEST SWAP1 SWAP2 POP DUP2 SWAP1 PUSH2 0x3869 JUMP JUMPDEST PUSH1 0x64 DUP6 PUSH1 0x40 MLOAD SWAP1 PUSH3 0x461BCD PUSH1 0xE5 SHL DUP3 MSTORE DUP1 PUSH1 0x4 DUP4 ADD MSTORE PUSH1 0x24 DUP3 ADD MSTORE PUSH32 0x4F6E6C792070726F76696465722063616E207265636F7264206D657472696373 PUSH1 0x44 DUP3 ADD MSTORE REVERT JUMPDEST CALLVALUE PUSH2 0x238 JUMPI PUSH1 0x20 CALLDATASIZE PUSH1 0x3 NOT ADD SLT PUSH2 0x238 JUMPI PUSH2 0x38F4 PUSH2 0x391E JUMP JUMPDEST PUSH2 0x38FC PUSH2 0x3C03 JUMP JUMPDEST PUSH1 0x3 DUP1 SLOAD PUSH1 0x1 PUSH1 0x1 PUSH1 0xA0 SHL SUB NOT AND PUSH1 0x1 PUSH1 0x1 PUSH1 0xA0 SHL SUB SWAP3 SWAP1 SWAP3 AND SWAP2 SWAP1 SWAP2 OR SWAP1 SSTORE STOP JUMPDEST PUSH1 0x4 CALLDATALOAD SWAP1 PUSH1 0x1 PUSH1 0x1 PUSH1 0xA0 SHL SUB DUP3 AND DUP3 SUB PUSH2 0x238 JUMPI JUMP JUMPDEST PUSH1 0x24 CALLDATALOAD SWAP1 PUSH1 0x1 PUSH1 0x1 PUSH1 0xA0 SHL SUB DUP3 AND DUP3 SUB PUSH2 0x238 JUMPI JUMP JUMPDEST PUSH2 0x2A0 DUP2 ADD SWAP1 DUP2 LT PUSH1 0x1 PUSH1 0x1 PUSH1 0x40 SHL SUB DUP3 GT OR PUSH2 0x43D JUMPI PUSH1 0x40 MSTORE JUMP JUMPDEST PUSH1 0xE0 DUP2 ADD SWAP1 DUP2 LT PUSH1 0x1 PUSH1 0x1 PUSH1 0x40 SHL SUB DUP3 GT OR PUSH2 0x43D JUMPI PUSH1 0x40 MSTORE JUMP JUMPDEST PUSH2 0x120 DUP2 ADD SWAP1 DUP2 LT PUSH1 0x1 PUSH1 0x1 PUSH1 0x40 SHL SUB DUP3 GT OR PUSH2 0x43D JUMPI PUSH1 0x40 MSTORE JUMP JUMPDEST SWAP1 PUSH1 0x1F DUP1 NOT SWAP2 ADD AND DUP2 ADD SWAP1 DUP2 LT PUSH1 0x1 PUSH1 0x1 PUSH1 0x40 SHL SUB DUP3 GT OR PUSH2 0x43D JUMPI PUSH1 0x40 MSTORE JUMP JUMPDEST DUP2 PUSH1 0x1F DUP3 ADD SLT ISZERO PUSH2 0x238 JUMPI DUP1 CALLDATALOAD SWAP1 PUSH1 0x1 PUSH1 0x1 PUSH1 0x40 SHL SUB DUP3 GT PUSH2 0x43D JUMPI PUSH1 0x40 MLOAD SWAP3 PUSH2 0x39F2 PUSH1 0x1F DUP5 ADD PUSH1 0x1F NOT AND PUSH1 0x20 ADD DUP6 PUSH2 0x399D JUMP JUMPDEST DUP3 DUP5 MSTORE PUSH1 0x20 DUP4 DUP4 ADD ADD GT PUSH2 0x238 JUMPI DUP2 PUSH1 0x0 SWAP3 PUSH1 0x20 DUP1 SWAP4 ADD DUP4 DUP7 ADD CALLDATACOPY DUP4 ADD ADD MSTORE SWAP1 JUMP JUMPDEST PUSH1 0x40 SWAP1 PUSH1 0x3 NOT ADD SLT PUSH2 0x238 JUMPI PUSH1 0x4 CALLDATALOAD SWAP1 PUSH1 0x24 CALLDATALOAD SWAP1 JUMP JUMPDEST SWAP2 SWAP1 SWAP2 DUP1 SLOAD DUP4 LT ISZERO PUSH2 0x3A4A JUMPI PUSH1 0x0 MSTORE PUSH1 0x1F PUSH1 0x20 PUSH1 0x0 KECCAK256 DUP4 PUSH1 0x5 SHR ADD SWAP3 AND SWAP1 JUMP JUMPDEST PUSH4 0x4E487B71 PUSH1 0xE0 SHL PUSH1 0x0 MSTORE PUSH1 0x32 PUSH1 0x4 MSTORE PUSH1 0x24 PUSH1 0x0 REVERT JUMPDEST SWAP1 PUSH1 0xA DUP3 LT ISZERO PUSH2 0x48D JUMPI MSTORE JUMP JUMPDEST SWAP1 PUSH1 0x1 DUP3 DUP2 SHR SWAP3 AND DUP1 ISZERO PUSH2 0x3A9D JUMPI JUMPDEST PUSH1 0x20 DUP4 LT EQ PUSH2 0x3A87 JUMPI JUMP JUMPDEST PUSH4 0x4E487B71 PUSH1 0xE0 SHL PUSH1 0x0 MSTORE PUSH1 0x22 PUSH1 0x4 MSTORE PUSH1 0x24 PUSH1 0x0 REVERT JUMPDEST SWAP2 PUSH1 0x7F AND SWAP2 PUSH2 0x3A7C JUMP JUMPDEST SWAP1 PUSH1 0x40 MLOAD SWAP2 DUP3 PUSH1 0x0 DUP3 SLOAD SWAP3 PUSH2 0x3ABB DUP5 PUSH2 0x3A6D JUMP JUMPDEST SWAP1 DUP2 DUP5 MSTORE PUSH1 0x1 SWAP5 DUP6 DUP2 AND SWAP1 DUP2 PUSH1 0x0 EQ PUSH2 0x3B2A JUMPI POP PUSH1 0x1 EQ PUSH2 0x3AE7 JUMPI JUMPDEST POP POP PUSH2 0x3AE5 SWAP3 POP SUB DUP4 PUSH2 0x399D JUMP JUMPDEST JUMP JUMPDEST SWAP1 SWAP4 SWAP2 POP PUSH1 0x0 MSTORE PUSH1 0x20 SWAP1 DUP2 PUSH1 0x0 KECCAK256 SWAP4 PUSH1 0x0 SWAP2 JUMPDEST DUP2 DUP4 LT PUSH2 0x3B12 JUMPI POP POP PUSH2 0x3AE5 SWAP4 POP DUP3 ADD ADD CODESIZE DUP1 PUSH2 0x3AD7 JUMP JUMPDEST DUP6 SLOAD DUP9 DUP5 ADD DUP6 ADD MSTORE SWAP5 DUP6 ADD SWAP5 DUP8 SWAP5 POP SWAP2 DUP4 ADD SWAP2 PUSH2 0x3AFA JUMP JUMPDEST SWAP2 POP POP PUSH2 0x3AE5 SWAP5 POP PUSH1 0x20 SWAP3 POP PUSH1 0xFF NOT AND DUP3 DUP5 ADD MSTORE ISZERO ISZERO PUSH1 0x5 SHL DUP3 ADD ADD CODESIZE DUP1 PUSH2 0x3AD7 JUMP JUMPDEST SWAP2 SWAP1 DUP3 MLOAD SWAP3 DUP4 DUP3 MSTORE PUSH1 0x0 JUMPDEST DUP5 DUP2 LT PUSH2 0x3B79 JUMPI POP POP DUP3 PUSH1 0x0 PUSH1 0x20 DUP1 SWAP5 SWAP6 DUP5 ADD ADD MSTORE PUSH1 0x1F DUP1 NOT SWAP2 ADD AND ADD ADD SWAP1 JUMP JUMPDEST PUSH1 0x20 DUP2 DUP4 ADD DUP2 ADD MLOAD DUP5 DUP4 ADD DUP3 ADD MSTORE ADD PUSH2 0x3B58 JUMP JUMPDEST SWAP1 PUSH1 0x4 DUP3 LT ISZERO PUSH2 0x48D JUMPI MSTORE JUMP JUMPDEST SWAP1 PUSH1 0x7 DUP3 LT ISZERO PUSH2 0x48D JUMPI MSTORE JUMP JUMPDEST SWAP1 DUP2 MLOAD DUP1 DUP3 MSTORE PUSH1 0x20 DUP1 DUP1 SWAP4 ADD SWAP4 ADD SWAP2 PUSH1 0x0 JUMPDEST DUP3 DUP2 LT PUSH2 0x3BC7 JUMPI POP POP POP POP SWAP1 JUMP JUMPDEST DUP4 MLOAD DUP6 MSTORE SWAP4 DUP2 ADD SWAP4 SWAP3 DUP2 ADD SWAP3 PUSH1 0x1 ADD PUSH2 0x3BB9 JUMP JUMPDEST DUP1 SLOAD DUP3 LT ISZERO PUSH2 0x3A4A JUMPI PUSH1 0x0 MSTORE PUSH1 0x20 PUSH1 0x0 KECCAK256 ADD SWAP1 PUSH1 0x0 SWAP1 JUMP JUMPDEST PUSH1 0x24 CALLDATALOAD SWAP1 PUSH1 0xFF DUP3 AND DUP3 SUB PUSH2 0x238 JUMPI JUMP JUMPDEST PUSH1 0x0 SLOAD PUSH1 0x1 PUSH1 0x1 PUSH1 0xA0 SHL SUB AND CALLER SUB PUSH2 0x3C17 JUMPI JUMP JUMPDEST PUSH1 0x40 MLOAD PUSH4 0x118CDAA7 PUSH1 0xE0 SHL DUP2 MSTORE CALLER PUSH1 0x4 DUP3 ADD MSTORE PUSH1 0x24 SWAP1 REVERT JUMPDEST ISZERO PUSH2 0x3C36 JUMPI JUMP JUMPDEST PUSH1 0x40 MLOAD PUSH3 0x461BCD PUSH1 0xE5 SHL DUP2 MSTORE PUSH1 0x20 PUSH1 0x4 DUP3 ADD MSTORE PUSH1 0x19 PUSH1 0x24 DUP3 ADD MSTORE PUSH32 0x4F6E6C79206D61726B6574706C6163652063616E2063616C6C00000000000000 PUSH1 0x44 DUP3 ADD MSTORE PUSH1 0x64 SWAP1 REVERT JUMPDEST PUSH1 0x0 NOT DUP2 EQ PUSH2 0x2470 JUMPI PUSH1 0x1 ADD SWAP1 JUMP JUMPDEST PUSH1 0xA DUP3 LT ISZERO PUSH2 0x48D JUMPI MSTORE JUMP JUMPDEST PUSH1 0x4 DUP3 LT ISZERO PUSH2 0x48D JUMPI MSTORE JUMP JUMPDEST PUSH1 0x7 DUP3 LT ISZERO PUSH2 0x48D JUMPI MSTORE JUMP JUMPDEST SWAP1 PUSH1 0xA DUP2 LT ISZERO PUSH2 0x48D JUMPI PUSH1 0xFF DUP1 NOT DUP4 SLOAD AND SWAP2 AND OR SWAP1 SSTORE JUMP JUMPDEST SWAP1 PUSH1 0x7 DUP2 LT ISZERO PUSH2 0x48D JUMPI PUSH3 0xFF0000 DUP3 SLOAD SWAP2 PUSH1 0x10 SHL AND SWAP1 PUSH3 0xFF0000 NOT AND OR SWAP1 SSTORE JUMP JUMPDEST DUP1 SLOAD PUSH1 0x1 PUSH1 0x40 SHL DUP2 LT ISZERO PUSH2 0x43D JUMPI PUSH2 0x3D04 SWAP2 PUSH1 0x1 DUP3 ADD DUP2 SSTORE PUSH2 0x3A2A JUMP JUMPDEST PUSH1 0xA DUP4 SWAP3 SWAP4 LT ISZERO PUSH2 0x48D JUMPI PUSH1 0xFF DUP1 DUP5 SLOAD SWAP3 PUSH1 0x3 SHL SWAP4 AND DUP4 SHL SWAP3 SHL NOT AND OR SWAP1 SSTORE JUMP JUMPDEST DUP1 SLOAD PUSH1 0x1 PUSH1 0x40 SHL DUP2 LT ISZERO PUSH2 0x43D JUMPI PUSH2 0x3D42 SWAP2 PUSH1 0x1 DUP3 ADD DUP2 SSTORE PUSH2 0x3BDB JUMP JUMPDEST DUP2 SWAP3 SWAP2 SLOAD SWAP1 PUSH1 0x3 SHL SWAP2 DUP3 SHL SWAP2 PUSH1 0x0 NOT SWAP1 SHL NOT AND OR SWAP1 SSTORE JUMP JUMPDEST SWAP2 SWAP1 DUP3 ADD DUP1 SWAP3 GT PUSH2 0x2470 JUMPI JUMP JUMPDEST ISZERO PUSH2 0x3D6E JUMPI JUMP JUMPDEST PUSH1 0x40 MLOAD PUSH3 0x461BCD PUSH1 0xE5 SHL DUP2 MSTORE PUSH1 0x20 PUSH1 0x4 DUP3 ADD MSTORE PUSH1 0x13 PUSH1 0x24 DUP3 ADD MSTORE PUSH19 0x4A6F62206D7573742062652072756E6E696E67 PUSH1 0x68 SHL PUSH1 0x44 DUP3 ADD MSTORE PUSH1 0x64 SWAP1 REVERT JUMPDEST DUP2 ISZERO PUSH2 0x3DB3 JUMPI DIV SWAP1 JUMP JUMPDEST PUSH4 0x4E487B71 PUSH1 0xE0 SHL PUSH1 0x0 MSTORE PUSH1 0x12 PUSH1 0x4 MSTORE PUSH1 0x24 PUSH1 0x0 REVERT JUMPDEST SWAP1 PUSH1 0x40 MLOAD SWAP2 DUP3 DUP2 SLOAD SWAP2 DUP3 DUP3 MSTORE PUSH1 0x20 SWAP3 DUP4 DUP4 ADD SWAP2 PUSH1 0x0 MSTORE DUP4 PUSH1 0x0 KECCAK256 SWAP4 PUSH1 0x0 SWAP1 JUMPDEST DUP3 DUP3 LT PUSH2 0x3DFE JUMPI POP POP POP PUSH2 0x3AE5 SWAP3 POP SUB DUP4 PUSH2 0x399D JUMP JUMPDEST DUP6 SLOAD DUP5 MSTORE PUSH1 0x1 SWAP6 DUP7 ADD SWAP6 DUP9 SWAP6 POP SWAP4 DUP2 ADD SWAP4 SWAP1 SWAP2 ADD SWAP1 PUSH2 0x3DE8 JUMP JUMPDEST PUSH1 0x1 PUSH1 0x1 PUSH1 0x40 SHL SUB DUP2 GT PUSH2 0x43D JUMPI PUSH1 0x5 SHL PUSH1 0x20 ADD SWAP1 JUMP JUMPDEST DUP1 MLOAD DUP3 LT ISZERO PUSH2 0x3A4A JUMPI PUSH1 0x20 SWAP2 PUSH1 0x5 SHL ADD ADD SWAP1 JUMP JUMPDEST PUSH1 0xA SWAP1 DUP2 DUP2 LT ISZERO PUSH2 0x48D JUMPI DUP1 ISZERO PUSH2 0x3F14 JUMPI PUSH1 0x1 DUP2 EQ PUSH2 0x3EFD JUMPI PUSH1 0x2 DUP2 EQ PUSH2 0x3EDE JUMPI PUSH1 0x3 DUP2 EQ PUSH2 0x3EBF JUMPI PUSH1 0x4 DUP2 EQ PUSH2 0x3EA0 JUMPI PUSH1 0x7 EQ PUSH2 0x3E82 JUMPI POP POP PUSH1 0x0 SWAP1 JUMP JUMPDEST DUP2 LT ISZERO PUSH2 0x48D JUMPI PUSH1 0x5 DUP2 EQ SWAP1 DUP2 ISZERO PUSH2 0x3E98 JUMPI POP SWAP1 JUMP JUMPDEST PUSH1 0x9 SWAP2 POP EQ SWAP1 JUMP JUMPDEST POP DUP2 LT ISZERO PUSH2 0x48D JUMPI PUSH1 0x5 DUP2 EQ SWAP1 DUP2 ISZERO PUSH2 0x3EB7 JUMPI POP SWAP1 JUMP JUMPDEST PUSH1 0x7 SWAP2 POP EQ SWAP1 JUMP JUMPDEST POP DUP2 LT ISZERO PUSH2 0x48D JUMPI PUSH1 0x4 DUP2 EQ SWAP1 DUP2 ISZERO PUSH2 0x3ED6 JUMPI POP SWAP1 JUMP JUMPDEST PUSH1 0x6 SWAP2 POP EQ SWAP1 JUMP JUMPDEST POP DUP2 LT ISZERO PUSH2 0x48D JUMPI PUSH1 0x3 DUP2 EQ SWAP1 DUP2 ISZERO PUSH2 0x3EF5 JUMPI POP SWAP1 JUMP JUMPDEST PUSH1 0x8 SWAP2 POP EQ SWAP1 JUMP JUMPDEST POP DUP2 LT ISZERO PUSH2 0x48D JUMPI PUSH1 0x2 DUP2 EQ SWAP1 DUP2 ISZERO PUSH2 0x3E98 JUMPI POP SWAP1 JUMP JUMPDEST POP DUP2 LT ISZERO PUSH2 0x48D JUMPI PUSH1 0x1 DUP2 EQ SWAP1 DUP2 ISZERO PUSH2 0x3EF5 JUMPI POP SWAP1 JUMP JUMPDEST SWAP1 PUSH1 0x0 SWAP2 DUP3 MSTORE PUSH1 0x20 PUSH1 0x9 DUP2 MSTORE PUSH1 0x40 DUP4 KECCAK256 SWAP1 PUSH1 0x40 MLOAD DUP1 SWAP3 DUP4 SWAP2 DUP4 DUP3 SLOAD SWAP2 DUP3 DUP2 MSTORE ADD SWAP2 DUP8 MSTORE DUP4 DUP8 KECCAK256 SWAP4 DUP8 SWAP1 JUMPDEST DUP3 DUP3 LT PUSH2 0x3FB0 JUMPI POP POP POP PUSH2 0x3F6B SWAP3 POP SUB DUP3 PUSH2 0x399D JUMP JUMPDEST DUP3 JUMPDEST DUP2 MLOAD DUP2 LT ISZERO PUSH2 0x3FAA JUMPI PUSH1 0x1 PUSH1 0x1 PUSH1 0xA0 SHL SUB DUP1 PUSH2 0x3F89 DUP4 DUP6 PUSH2 0x3E2F JUMP JUMPDEST MLOAD AND SWAP1 DUP5 AND EQ PUSH2 0x3FA1 JUMPI PUSH2 0x3F9C SWAP1 PUSH2 0x3C7B JUMP JUMPDEST PUSH2 0x3F6D JUMP JUMPDEST POP POP POP POP PUSH1 0x1 SWAP1 JUMP JUMPDEST POP POP POP SWAP1 JUMP JUMPDEST DUP6 SLOAD PUSH1 0x1 PUSH1 0x1 PUSH1 0xA0 SHL SUB AND DUP5 MSTORE PUSH1 0x1 SWAP6 DUP7 ADD SWAP6 DUP8 SWAP6 POP SWAP4 DUP2 ADD SWAP4 SWAP1 SWAP2 ADD SWAP1 PUSH2 0x3F55 JUMP JUMPDEST PUSH1 0x0 SWAP1 DUP1 DUP3 MSTORE PUSH1 0x20 SWAP1 PUSH1 0x5 DUP3 MSTORE PUSH1 0x40 SWAP2 DUP3 DUP5 KECCAK256 SWAP3 DUP1 MLOAD PUSH2 0x3FF2 DUP2 PUSH2 0x394A JUMP JUMPDEST DUP5 SLOAD DUP2 MSTORE PUSH1 0x1 DUP1 DUP7 ADD SLOAD PUSH1 0x1 PUSH1 0x1 PUSH1 0xA0 SHL SUB SWAP1 DUP2 AND DUP6 DUP5 ADD SWAP1 DUP2 MSTORE PUSH1 0x2 DUP9 ADD SLOAD DUP3 AND DUP6 DUP6 ADD MSTORE PUSH1 0x3 DUP9 ADD SLOAD PUSH1 0x60 DUP6 ADD MSTORE SWAP6 SWAP2 SWAP4 SWAP1 PUSH2 0x4032 PUSH1 0x4 DUP10 ADD PUSH2 0x3AA7 JUMP JUMPDEST PUSH1 0x80 DUP6 ADD MSTORE PUSH2 0x4043 PUSH1 0x5 DUP10 ADD PUSH2 0x3AA7 JUMP JUMPDEST PUSH1 0xA0 DUP6 ADD MSTORE PUSH2 0x4054 PUSH1 0x6 DUP10 ADD PUSH2 0x3AA7 JUMP JUMPDEST PUSH1 0xC0 DUP6 ADD MSTORE PUSH2 0x4065 PUSH1 0x7 DUP10 ADD PUSH2 0x3AA7 JUMP JUMPDEST PUSH1 0xE0 DUP6 ADD MSTORE PUSH2 0x4076 PUSH1 0x8 DUP10 ADD PUSH2 0x3AA7 JUMP JUMPDEST PUSH2 0x100 DUP6 ADD MSTORE PUSH1 0x9 DUP9 ADD SLOAD PUSH2 0x120 DUP6 ADD MSTORE PUSH1 0xA DUP9 ADD SLOAD PUSH2 0x140 DUP6 ADD MSTORE PUSH1 0xB DUP9 ADD SLOAD PUSH2 0x160 DUP6 ADD MSTORE PUSH1 0xC DUP9 ADD SLOAD PUSH2 0x180 DUP6 ADD MSTORE PUSH1 0xD DUP9 ADD SLOAD PUSH2 0x1A0 DUP6 ADD MSTORE PUSH1 0xE DUP9 ADD SLOAD PUSH2 0x1C0 DUP6 ADD MSTORE PUSH1 0xF SWAP4 PUSH2 0x280 PUSH2 0x4124 PUSH1 0x10 DUP8 DUP13 ADD SLOAD SWAP12 PUSH1 0xFF DUP14 PUSH2 0x40E2 DUP3 SWAP16 DUP4 AND PUSH2 0x1E0 DUP10 ADD PUSH2 0x3C8A JUMP JUMPDEST PUSH2 0x40F5 DUP3 DUP3 PUSH1 0x8 SHR AND PUSH2 0x200 DUP10 ADD PUSH2 0x3C96 JUMP JUMPDEST PUSH2 0x4107 DUP3 DUP3 DUP7 SHR AND PUSH2 0x220 DUP10 ADD PUSH2 0x3CA2 JUMP JUMPDEST DUP2 DUP2 PUSH1 0x18 SHR AND PUSH2 0x240 DUP9 ADD MSTORE DUP13 SHR AND ISZERO ISZERO PUSH2 0x260 DUP7 ADD MSTORE ADD PUSH2 0x3AA7 JUMP JUMPDEST SWAP2 ADD MSTORE DUP9 SWAP6 DUP10 SWAP8 DUP5 DUP12 MSTORE DUP6 DUP3 MSTORE DUP4 DUP12 KECCAK256 DUP4 DUP3 MLOAD AND DUP13 MSTORE DUP3 MSTORE DUP10 DUP5 DUP13 KECCAK256 SLOAD AND PUSH2 0x4248 JUMPI JUMPDEST POP DUP4 DUP11 MSTORE PUSH1 0x9 DUP2 MSTORE DUP3 DUP11 KECCAK256 SWAP2 DUP11 DUP5 MLOAD DUP1 SWAP5 DUP6 SWAP2 DUP6 DUP3 SLOAD SWAP2 DUP3 DUP2 MSTORE ADD SWAP2 DUP5 MSTORE DUP6 DUP5 KECCAK256 SWAP4 JUMPDEST DUP12 DUP8 DUP4 DUP4 LT PUSH2 0x4231 JUMPI POP POP POP POP PUSH2 0x4183 SWAP3 POP SUB DUP5 PUSH2 0x399D JUMP JUMPDEST DUP11 DUP8 JUMPDEST PUSH2 0x41A8 JUMPI JUMPDEST POP POP POP POP POP POP POP POP DUP2 ISZERO PUSH2 0x3FAA JUMPI PUSH2 0x41A4 SWAP3 SWAP4 POP PUSH2 0x3DA9 JUMP JUMPDEST AND SWAP1 JUMP JUMPDEST DUP4 MLOAD DUP2 LT ISZERO PUSH2 0x422C JUMPI DUP6 DUP13 MSTORE DUP7 DUP4 MSTORE DUP5 DUP13 KECCAK256 DUP3 PUSH2 0x41C5 DUP4 DUP8 PUSH2 0x3E2F JUMP JUMPDEST MLOAD AND DUP14 MSTORE DUP4 MSTORE DUP11 DUP13 DUP2 DUP8 DUP3 KECCAK256 SLOAD AND PUSH2 0x41E9 JUMPI JUMPDEST POP POP PUSH2 0x41E3 SWAP1 PUSH2 0x3C7B JUMP JUMPDEST DUP8 PUSH2 0x4186 JUMP JUMPDEST DUP3 SWAP12 SWAP11 PUSH2 0x4222 SWAP3 DUP9 DUP4 PUSH2 0x41E3 SWAP7 DUP13 PUSH2 0x421C SWAP7 MSTORE DUP14 DUP11 MSTORE DUP9 PUSH2 0x420D DUP5 DUP5 KECCAK256 SWAP3 DUP14 PUSH2 0x3E2F JUMP JUMPDEST MLOAD AND DUP3 MSTORE DUP10 MSTORE KECCAK256 SLOAD AND SWAP1 PUSH2 0x3D5A JUMP JUMPDEST SWAP10 PUSH2 0x3C7B JUMP JUMPDEST SWAP10 SWAP1 POP DUP11 DUP13 PUSH2 0x41D8 JUMP JUMPDEST PUSH2 0x418B JUMP JUMPDEST DUP7 SLOAD DUP9 AND DUP6 MSTORE SWAP6 DUP2 ADD SWAP6 DUP10 SWAP6 POP SWAP1 SWAP4 ADD SWAP3 ADD PUSH2 0x416A JUMP JUMPDEST SWAP2 SWAP7 POP SWAP7 POP DUP3 DUP10 MSTORE DUP4 DUP8 MSTORE DUP6 DUP3 DUP11 KECCAK256 SWAP2 MLOAD AND DUP10 MSTORE DUP7 MSTORE DUP7 DUP2 DUP10 KECCAK256 SLOAD AND SWAP5 DUP5 SWAP7 CODESIZE PUSH2 0x4147 JUMP JUMPDEST ISZERO PUSH2 0x4274 JUMPI JUMP JUMPDEST PUSH1 0x40 MLOAD PUSH3 0x461BCD PUSH1 0xE5 SHL DUP2 MSTORE PUSH1 0x20 PUSH1 0x4 DUP3 ADD MSTORE PUSH1 0xD PUSH1 0x24 DUP3 ADD MSTORE PUSH13 0x496E76616C69642073636F7265 PUSH1 0x98 SHL PUSH1 0x44 DUP3 ADD MSTORE PUSH1 0x64 SWAP1 REVERT INVALID LOG2 PUSH5 0x6970667358 0x22 SLT KECCAK256 DUP7 0xD0 CODESIZE DUP7 MSTORE8 SWAP15 PUSH6 0xBF3D44112918 0xD1 0xEA GASPRICE 0x1F LOG0 LOG0 0xDB GASPRICE 0x4F 0xE7 0x4B MSTORE 0xE 0x49 JUMPDEST DUP5 INVALID JUMP SELFBALANCE PUSH5 0x736F6C6343 STOP ADDMOD EQ STOP CALLER "},"gasEstimates":{"creation":{"codeDepositCost":"3423800","executionCost":"infinite","totalCost":"infinite"},"external":{"addJobValidator(uint256,address)":"53953","assignJob(uint256,address,uint256)":"infinite","clientAnalytics(address)":"15772","clientJobHistory(address,uint256)":"7003","clientReputation(address)":"3277","completeJob(uint256,uint8,string,uint8)":"infinite","eryzeToken()":"2902","executionMetrics(uint256)":"infinite","getClientAnalytics(address)":"infinite","getClientJobHistory(address)":"infinite","getJob(uint256)":"infinite","getJobMetrics(uint256)":"infinite","getJobPhaseHistory(uint256)":"infinite","getJobsByPhase(uint8)":"infinite","getNodeJobHistory(uint256)":"infinite","getNodePerformance(address)":"infinite","getPlatformAnalytics()":"infinite","getProviderJobHistory(address)":"infinite","jobPhaseHistory(uint256,uint256)":"6858","jobPhaseTimestamps(uint256,uint256)":"7140","jobRatings(uint256,address)":"3126","jobValidators(uint256,uint256)":"7032","jobs(uint256)":"infinite","marketplaceContract()":"3056","nextJobId()":"2834","nodeJobHistory(uint256,uint256)":"6876","nodePerformance(address)":"19913","owner()":"2682","pause()":"2692","providerJobHistory(address,uint256)":"7660","providerReputation(address)":"2793","rateJobQuality(uint256,uint8)":"infinite","recordExecutionMetrics(uint256,uint256,uint256,uint256,uint256,uint256,uint256,string)":"infinite","renounceOwnership()":"28376","setMarketplaceContract(address)":"26628","startJobExecution(uint256)":"151912","submitJob(address,string,string,string,string,uint256,uint256,uint8,bool,string)":"infinite","transferOwnership(address)":"28992","updateClientReputation(address,uint8)":"27342","updateJobPhase(uint256,uint8)":"infinite","updateProviderReputation(address,uint8)":"27100"},"internal":{"_calculateAverageRating(uint256)":"infinite","_isValidPhaseTransition(enum EryzaJobsLedger.JobPhase,enum EryzaJobsLedger.JobPhase)":"235","_isValidator(uint256,address)":"infinite"}},"methodIdentifiers":{"addJobValidator(uint256,address)":"e642c885","assignJob(uint256,address,uint256)":"e97569f1","clientAnalytics(address)":"b6ff6737","clientJobHistory(address,uint256)":"54170d1b","clientReputation(address)":"f5bbb321","completeJob(uint256,uint8,string,uint8)":"adc5882b","eryzeToken()":"bb906f2d","executionMetrics(uint256)":"2dc07d47","getClientAnalytics(address)":"4c69f6a7","getClientJobHistory(address)":"986b609d","getJob(uint256)":"bf22c457","getJobMetrics(uint256)":"a903bc07","getJobPhaseHistory(uint256)":"c25421c7","getJobsByPhase(uint8)":"c5fb57fb","getNodeJobHistory(uint256)":"40ecf68e","getNodePerformance(address)":"aed1f157","getPlatformAnalytics()":"58de7297","getProviderJobHistory(address)":"22ed45fe","jobPhaseHistory(uint256,uint256)":"17078d35","jobPhaseTimestamps(uint256,uint256)":"97d31da2","jobRatings(uint256,address)":"bbbacdfc","jobValidators(uint256,uint256)":"5bd21143","jobs(uint256)":"180aedf3","marketplaceContract()":"d1bb5cf1","nextJobId()":"b0c2aa5e","nodeJobHistory(uint256,uint256)":"34bec04e","nodePerformance(address)":"a9555e6c","owner()":"8da5cb5b","pause()":"8456cb59","providerJobHistory(address,uint256)":"fdd2fdc8","providerReputation(address)":"88537d06","rateJobQuality(uint256,uint8)":"ca5642ea","recordExecutionMetrics(uint256,uint256,uint256,uint256,uint256,uint256,uint256,string)":"133b946c","renounceOwnership()":"715018a6","setMarketplaceContract(address)":"1102610e","startJobExecution(uint256)":"34b7a9e0","submitJob(address,string,string,string,string,uint256,uint256,uint8,bool,string)":"d0edbee2","transferOwnership(address)":"f2fde38b","updateClientReputation(address,uint8)":"b0305eec","updateJobPhase(uint256,uint8)":"55e36aad","updateProviderReputation(address,uint8)":"600d97d4"}},"storageLayout":{"storage":[{"astId":8,"contract":"blockchain/contracts/EryzaJobsLedger.sol:EryzaJobsLedger","label":"_owner","offset":0,"slot":"0","type":"t_address"},{"astId":266,"contract":"blockchain/contracts/EryzaJobsLedger.sol:EryzaJobsLedger","label":"_status","offset":0,"slot":"1","type":"t_uint256"},{"astId":528,"contract":"blockchain/contracts/EryzaJobsLedger.sol:EryzaJobsLedger","label":"nextJobId","offset":0,"slot":"2","type":"t_uint256"},{"astId":530,"contract":"blockchain/contracts/EryzaJobsLedger.sol:EryzaJobsLedger","label":"marketplaceContract","offset":0,"slot":"3","type":"t_address"},{"astId":533,"contract":"blockchain/contracts/EryzaJobsLedger.sol:EryzaJobsLedger","label":"eryzeToken","offset":0,"slot":"4","type":"t_contract(IERC20)225"},{"astId":538,"contract":"blockchain/contracts/EryzaJobsLedger.sol:EryzaJobsLedger","label":"jobs","offset":0,"slot":"5","type":"t_mapping(t_uint256,t_struct(JobRecord)404_storage)"},{"astId":543,"contract":"blockchain/contracts/EryzaJobsLedger.sol:EryzaJobsLedger","label":"executionMetrics","offset":0,"slot":"6","type":"t_mapping(t_uint256,t_struct(ExecutionMetrics)419_storage)"},{"astId":548,"contract":"blockchain/contracts/EryzaJobsLedger.sol:EryzaJobsLedger","label":"nodePerformance","offset":0,"slot":"7","type":"t_mapping(t_address,t_struct(NodePerformance)438_storage)"},{"astId":553,"contract":"blockchain/contracts/EryzaJobsLedger.sol:EryzaJobsLedger","label":"clientAnalytics","offset":0,"slot":"8","type":"t_mapping(t_address,t_struct(ClientAnalytics)453_storage)"},{"astId":558,"contract":"blockchain/contracts/EryzaJobsLedger.sol:EryzaJobsLedger","label":"jobValidators","offset":0,"slot":"9","type":"t_mapping(t_uint256,t_array(t_address)dyn_storage)"},{"astId":564,"contract":"blockchain/contracts/EryzaJobsLedger.sol:EryzaJobsLedger","label":"jobPhaseHistory","offset":0,"slot":"10","type":"t_mapping(t_uint256,t_array(t_enum(JobPhase)345)dyn_storage)"},{"astId":569,"contract":"blockchain/contracts/EryzaJobsLedger.sol:EryzaJobsLedger","label":"jobPhaseTimestamps","offset":0,"slot":"11","type":"t_mapping(t_uint256,t_array(t_uint256)dyn_storage)"},{"astId":574,"contract":"blockchain/contracts/EryzaJobsLedger.sol:EryzaJobsLedger","label":"clientJobHistory","offset":0,"slot":"12","type":"t_mapping(t_address,t_array(t_uint256)dyn_storage)"},{"astId":579,"contract":"blockchain/contracts/EryzaJobsLedger.sol:EryzaJobsLedger","label":"providerJobHistory","offset":0,"slot":"13","type":"t_mapping(t_address,t_array(t_uint256)dyn_storage)"},{"astId":584,"contract":"blockchain/contracts/EryzaJobsLedger.sol:EryzaJobsLedger","label":"nodeJobHistory","offset":0,"slot":"14","type":"t_mapping(t_uint256,t_array(t_uint256)dyn_storage)"},{"astId":590,"contract":"blockchain/contracts/EryzaJobsLedger.sol:EryzaJobsLedger","label":"jobRatings","offset":0,"slot":"15","type":"t_mapping(t_uint256,t_mapping(t_address,t_uint8))"},{"astId":594,"contract":"blockchain/contracts/EryzaJobsLedger.sol:EryzaJobsLedger","label":"providerReputation","offset":0,"slot":"16","type":"t_mapping(t_address,t_uint8)"},{"astId":598,"contract":"blockchain/contracts/EryzaJobsLedger.sol:EryzaJobsLedger","label":"clientReputation","offset":0,"slot":"17","type":"t_mapping(t_address,t_uint8)"}],"types":{"t_address":{"encoding":"inplace","label":"address","numberOfBytes":"20"},"t_array(t_address)dyn_storage":{"base":"t_address","encoding":"dynamic_array","label":"address[]","numberOfBytes":"32"},"t_array(t_enum(JobPhase)345)dyn_storage":{"base":"t_enum(JobPhase)345","encoding":"dynamic_array","label":"enum EryzaJobsLedger.JobPhase[]","numberOfBytes":"32"},"t_array(t_uint256)dyn_storage":{"base":"t_uint256","encoding":"dynamic_array","label":"uint256[]","numberOfBytes":"32"},"t_bool":{"encoding":"inplace","label":"bool","numberOfBytes":"1"},"t_contract(IERC20)225":{"encoding":"inplace","label":"contract IERC20","numberOfBytes":"20"},"t_enum(ExecutionResult)358":{"encoding":"inplace","label":"enum EryzaJobsLedger.ExecutionResult","numberOfBytes":"1"},"t_enum(JobPhase)345":{"encoding":"inplace","label":"enum EryzaJobsLedger.JobPhase","numberOfBytes":"1"},"t_enum(Priority)350":{"encoding":"inplace","label":"enum EryzaJobsLedger.Priority","numberOfBytes":"1"},"t_mapping(t_address,t_array(t_uint256)dyn_storage)":{"encoding":"mapping","key":"t_address","label":"mapping(address => uint256[])","numberOfBytes":"32","value":"t_array(t_uint256)dyn_storage"},"t_mapping(t_address,t_struct(ClientAnalytics)453_storage)":{"encoding":"mapping","key":"t_address","label":"mapping(address => struct EryzaJobsLedger.ClientAnalytics)","numberOfBytes":"32","value":"t_struct(ClientAnalytics)453_storage"},"t_mapping(t_address,t_struct(NodePerformance)438_storage)":{"encoding":"mapping","key":"t_address","label":"mapping(address => struct EryzaJobsLedger.NodePerformance)","numberOfBytes":"32","value":"t_struct(NodePerformance)438_storage"},"t_mapping(t_address,t_uint8)":{"encoding":"mapping","key":"t_address","label":"mapping(address => uint8)","numberOfBytes":"32","value":"t_uint8"},"t_mapping(t_uint256,t_array(t_address)dyn_storage)":{"encoding":"mapping","key":"t_uint256","label":"mapping(uint256 => address[])","numberOfBytes":"32","value":"t_array(t_address)dyn_storage"},"t_mapping(t_uint256,t_array(t_enum(JobPhase)345)dyn_storage)":{"encoding":"mapping","key":"t_uint256","label":"mapping(uint256 => enum EryzaJobsLedger.JobPhase[])","numberOfBytes":"32","value":"t_array(t_enum(JobPhase)345)dyn_storage"},"t_mapping(t_uint256,t_array(t_uint256)dyn_storage)":{"encoding":"mapping","key":"t_uint256","label":"mapping(uint256 => uint256[])","numberOfBytes":"32","value":"t_array(t_uint256)dyn_storage"},"t_mapping(t_uint256,t_mapping(t_address,t_uint8))":{"encoding":"mapping","key":"t_uint256","label":"mapping(uint256 => mapping(address => uint8))","numberOfBytes":"32","value":"t_mapping(t_address,t_uint8)"},"t_mapping(t_uint256,t_struct(ExecutionMetrics)419_storage)":{"encoding":"mapping","key":"t_uint256","label":"mapping(uint256 => struct EryzaJobsLedger.ExecutionMetrics)","numberOfBytes":"32","value":"t_struct(ExecutionMetrics)419_storage"},"t_mapping(t_uint256,t_struct(JobRecord)404_storage)":{"encoding":"mapping","key":"t_uint256","label":"mapping(uint256 => struct EryzaJobsLedger.JobRecord)","numberOfBytes":"32","value":"t_struct(JobRecord)404_storage"},"t_string_storage":{"encoding":"bytes","label":"string","numberOfBytes":"32"},"t_struct(ClientAnalytics)453_storage":{"encoding":"inplace","label":"struct EryzaJobsLedger.ClientAnalytics","members":[{"astId":440,"contract":"blockchain/contracts/EryzaJobsLedger.sol:EryzaJobsLedger","label":"totalJobsSubmitted","offset":0,"slot":"0","type":"t_uint256"},{"astId":442,"contract":"blockchain/contracts/EryzaJobsLedger.sol:EryzaJobsLedger","label":"totalSpent","offset":0,"slot":"1","type":"t_uint256"},{"astId":444,"contract":"blockchain/contracts/EryzaJobsLedger.sol:EryzaJobsLedger","label":"totalExecutionTime","offset":0,"slot":"2","type":"t_uint256"},{"astId":446,"contract":"blockchain/contracts/EryzaJobsLedger.sol:EryzaJobsLedger","label":"averageJobDuration","offset":0,"slot":"3","type":"t_uint256"},{"astId":448,"contract":"blockchain/contracts/EryzaJobsLedger.sol:EryzaJobsLedger","label":"successfulJobs","offset":0,"slot":"4","type":"t_uint256"},{"astId":450,"contract":"blockchain/contracts/EryzaJobsLedger.sol:EryzaJobsLedger","label":"lastActivity","offset":0,"slot":"5","type":"t_uint256"},{"astId":452,"contract":"blockchain/contracts/EryzaJobsLedger.sol:EryzaJobsLedger","label":"reputationScore","offset":0,"slot":"6","type":"t_uint8"}],"numberOfBytes":"224"},"t_struct(ExecutionMetrics)419_storage":{"encoding":"inplace","label":"struct EryzaJobsLedger.ExecutionMetrics","members":[{"astId":406,"contract":"blockchain/contracts/EryzaJobsLedger.sol:EryzaJobsLedger","label":"cpuUsage","offset":0,"slot":"0","type":"t_uint256"},{"astId":408,"contract":"blockchain/contracts/EryzaJobsLedger.sol:EryzaJobsLedger","label":"memoryUsage","offset":0,"slot":"1","type":"t_uint256"},{"astId":410,"contract":"blockchain/contracts/EryzaJobsLedger.sol:EryzaJobsLedger","label":"gpuUsage","offset":0,"slot":"2","type":"t_uint256"},{"astId":412,"contract":"blockchain/contracts/EryzaJobsLedger.sol:EryzaJobsLedger","label":"networkIO","offset":0,"slot":"3","type":"t_uint256"},{"astId":414,"contract":"blockchain/contracts/EryzaJobsLedger.sol:EryzaJobsLedger","label":"diskIO","offset":0,"slot":"4","type":"t_uint256"},{"astId":416,"contract":"blockchain/contracts/EryzaJobsLedger.sol:EryzaJobsLedger","label":"energyConsumed","offset":0,"slot":"5","type":"t_uint256"},{"astId":418,"contract":"blockchain/contracts/EryzaJobsLedger.sol:EryzaJobsLedger","label":"performanceData","offset":0,"slot":"6","type":"t_string_storage"}],"numberOfBytes":"224"},"t_struct(JobRecord)404_storage":{"encoding":"inplace","label":"struct EryzaJobsLedger.JobRecord","members":[{"astId":360,"contract":"blockchain/contracts/EryzaJobsLedger.sol:EryzaJobsLedger","label":"jobId","offset":0,"slot":"0","type":"t_uint256"},{"astId":362,"contract":"blockchain/contracts/EryzaJobsLedger.sol:EryzaJobsLedger","label":"client","offset":0,"slot":"1","type":"t_address"},{"astId":364,"contract":"blockchain/contracts/EryzaJobsLedger.sol:EryzaJobsLedger","label":"provider","offset":0,"slot":"2","type":"t_address"},{"astId":366,"contract":"blockchain/contracts/EryzaJobsLedger.sol:EryzaJobsLedger","label":"nodeId","offset":0,"slot":"3","type":"t_uint256"},{"astId":368,"contract":"blockchain/contracts/EryzaJobsLedger.sol:EryzaJobsLedger","label":"jobType","offset":0,"slot":"4","type":"t_string_storage"},{"astId":370,"contract":"blockchain/contracts/EryzaJobsLedger.sol:EryzaJobsLedger","label":"jobDescription","offset":0,"slot":"5","type":"t_string_storage"},{"astId":372,"contract":"blockchain/contracts/EryzaJobsLedger.sol:EryzaJobsLedger","label":"inputDataHash","offset":0,"slot":"6","type":"t_string_storage"},{"astId":374,"contract":"blockchain/contracts/EryzaJobsLedger.sol:EryzaJobsLedger","label":"outputDataHash","offset":0,"slot":"7","type":"t_string_storage"},{"astId":376,"contract":"blockchain/contracts/EryzaJobsLedger.sol:EryzaJobsLedger","label":"configHash","offset":0,"slot":"8","type":"t_string_storage"},{"astId":378,"contract":"blockchain/contracts/EryzaJobsLedger.sol:EryzaJobsLedger","label":"estimatedDuration","offset":0,"slot":"9","type":"t_uint256"},{"astId":380,"contract":"blockchain/contracts/EryzaJobsLedger.sol:EryzaJobsLedger","label":"actualDuration","offset":0,"slot":"10","type":"t_uint256"},{"astId":382,"contract":"blockchain/contracts/EryzaJobsLedger.sol:EryzaJobsLedger","label":"totalCost","offset":0,"slot":"11","type":"t_uint256"},{"astId":384,"contract":"blockchain/contracts/EryzaJobsLedger.sol:EryzaJobsLedger","label":"submitTime","offset":0,"slot":"12","type":"t_uint256"},{"astId":386,"contract":"blockchain/contracts/EryzaJobsLedger.sol:EryzaJobsLedger","label":"startTime","offset":0,"slot":"13","type":"t_uint256"},{"astId":388,"contract":"blockchain/contracts/EryzaJobsLedger.sol:EryzaJobsLedger","label":"endTime","offset":0,"slot":"14","type":"t_uint256"},{"astId":391,"contract":"blockchain/contracts/EryzaJobsLedger.sol:EryzaJobsLedger","label":"currentPhase","offset":0,"slot":"15","type":"t_enum(JobPhase)345"},{"astId":394,"contract":"blockchain/contracts/EryzaJobsLedger.sol:EryzaJobsLedger","label":"priority","offset":1,"slot":"15","type":"t_enum(Priority)350"},{"astId":397,"contract":"blockchain/contracts/EryzaJobsLedger.sol:EryzaJobsLedger","label":"result","offset":2,"slot":"15","type":"t_enum(ExecutionResult)358"},{"astId":399,"contract":"blockchain/contracts/EryzaJobsLedger.sol:EryzaJobsLedger","label":"qualityScore","offset":3,"slot":"15","type":"t_uint8"},{"astId":401,"contract":"blockchain/contracts/EryzaJobsLedger.sol:EryzaJobsLedger","label":"isPrivate","offset":4,"slot":"15","type":"t_bool"},{"astId":403,"contract":"blockchain/contracts/EryzaJobsLedger.sol:EryzaJobsLedger","label":"metadata","offset":0,"slot":"16","type":"t_string_storage"}],"numberOfBytes":"544"},"t_struct(NodePerformance)438_storage":{"encoding":"inplace","label":"struct EryzaJobsLedger.NodePerformance","members":[{"astId":421,"contract":"blockchain/contracts/EryzaJobsLedger.sol:EryzaJobsLedger","label":"totalJobs","offset":0,"slot":"0","type":"t_uint256"},{"astId":423,"contract":"blockchain/contracts/EryzaJobsLedger.sol:EryzaJobsLedger","label":"successfulJobs","offset":0,"slot":"1","type":"t_uint256"},{"astId":425,"contract":"blockchain/contracts/EryzaJobsLedger.sol:EryzaJobsLedger","label":"failedJobs","offset":0,"slot":"2","type":"t_uint256"},{"astId":427,"contract":"blockchain/contracts/EryzaJobsLedger.sol:EryzaJobsLedger","label":"totalRevenue","offset":0,"slot":"3","type":"t_uint256"},{"astId":429,"contract":"blockchain/contracts/EryzaJobsLedger.sol:EryzaJobsLedger","label":"totalExecutionTime","offset":0,"slot":"4","type":"t_uint256"},{"astId":431,"contract":"blockchain/contracts/EryzaJobsLedger.sol:EryzaJobsLedger","label":"averageQualityScore","offset":0,"slot":"5","type":"t_uint256"},{"astId":433,"contract":"blockchain/contracts/EryzaJobsLedger.sol:EryzaJobsLedger","label":"uptime","offset":0,"slot":"6","type":"t_uint256"},{"astId":435,"contract":"blockchain/contracts/EryzaJobsLedger.sol:EryzaJobsLedger","label":"lastActiveTime","offset":0,"slot":"7","type":"t_uint256"},{"astId":437,"contract":"blockchain/contracts/EryzaJobsLedger.sol:EryzaJobsLedger","label":"reliabilityScore","offset":0,"slot":"8","type":"t_uint8"}],"numberOfBytes":"288"},"t_uint256":{"encoding":"inplace","label":"uint256","numberOfBytes":"32"},"t_uint8":{"encoding":"inplace","label":"uint8","numberOfBytes":"1"}}},"userdoc":{"kind":"user","methods":{},"version":1}}}}