{
  "_format": "hh-sol-artifact-1",
  "contractName": "EryzaComputeMarketplace",
  "sourceName": "blockchain/contracts/EryzaComputeMarketplace.sol",
  "abi": [
    {
      "inputs": [
        {
          "internalType": "address",
          "name": "_paymentToken",
          "type": "address"
        }
      ],
      "stateMutability": "nonpayable",
      "type": "constructor"
    },
    {
      "inputs": [
        {
          "internalType": "address",
          "name": "owner",
          "type": "address"
        }
      ],
      "name": "OwnableInvalidOwner",
      "type": "error"
    },
    {
      "inputs": [
        {
          "internalType": "address",
          "name": "account",
          "type": "address"
        }
      ],
      "name": "OwnableUnauthorizedAccount",
      "type": "error"
    },
    {
      "inputs": [],
      "name": "ReentrancyGuardReentrantCall",
      "type": "error"
    },
    {
      "inputs": [
        {
          "internalType": "address",
          "name": "token",
          "type": "address"
        }
      ],
      "name": "SafeERC20FailedOperation",
      "type": "error"
    },
    {
      "anonymous": false,
      "inputs": [
        {
          "indexed": true,
          "internalType": "uint256",
          "name": "jobId",
          "type": "uint256"
        },
        {
          "indexed": false,
          "internalType": "uint256",
          "name": "endTime",
          "type": "uint256"
        }
      ],
      "name": "ComputeJobCompleted",
      "type": "event"
    },
    {
      "anonymous": false,
      "inputs": [
        {
          "indexed": true,
          "internalType": "uint256",
          "name": "jobId",
          "type": "uint256"
        },
        {
          "indexed": true,
          "internalType": "address",
          "name": "client",
          "type": "address"
        },
        {
          "indexed": true,
          "internalType": "uint256",
          "name": "nodeId",
          "type": "uint256"
        },
        {
          "indexed": false,
          "internalType": "uint256",
          "name": "duration",
          "type": "uint256"
        }
      ],
      "name": "ComputeJobCreated",
      "type": "event"
    },
    {
      "anonymous": false,
      "inputs": [
        {
          "indexed": true,
          "internalType": "uint256",
          "name": "jobId",
          "type": "uint256"
        },
        {
          "indexed": false,
          "internalType": "uint256",
          "name": "startTime",
          "type": "uint256"
        }
      ],
      "name": "ComputeJobStarted",
      "type": "event"
    },
    {
      "anonymous": false,
      "inputs": [
        {
          "indexed": true,
          "internalType": "address",
          "name": "provider",
          "type": "address"
        },
        {
          "indexed": true,
          "internalType": "uint256",
          "name": "nodeId",
          "type": "uint256"
        },
        {
          "indexed": false,
          "internalType": "uint256",
          "name": "pricePerHour",
          "type": "uint256"
        }
      ],
      "name": "ComputeNodeRegistered",
      "type": "event"
    },
    {
      "anonymous": false,
      "inputs": [
        {
          "indexed": true,
          "internalType": "uint256",
          "name": "jobId",
          "type": "uint256"
        },
        {
          "indexed": true,
          "internalType": "address",
          "name": "raiser",
          "type": "address"
        },
        {
          "indexed": false,
          "internalType": "string",
          "name": "reason",
          "type": "string"
        }
      ],
      "name": "DisputeRaised",
      "type": "event"
    },
    {
      "anonymous": false,
      "inputs": [
        {
          "indexed": true,
          "internalType": "uint256",
          "name": "jobId",
          "type": "uint256"
        },
        {
          "indexed": false,
          "internalType": "bool",
          "name": "favorProvider",
          "type": "bool"
        }
      ],
      "name": "DisputeResolved",
      "type": "event"
    },
    {
      "anonymous": false,
      "inputs": [
        {
          "indexed": true,
          "internalType": "address",
          "name": "previousOwner",
          "type": "address"
        },
        {
          "indexed": true,
          "internalType": "address",
          "name": "newOwner",
          "type": "address"
        }
      ],
      "name": "OwnershipTransferred",
      "type": "event"
    },
    {
      "anonymous": false,
      "inputs": [
        {
          "indexed": true,
          "internalType": "uint256",
          "name": "jobId",
          "type": "uint256"
        },
        {
          "indexed": true,
          "internalType": "address",
          "name": "provider",
          "type": "address"
        },
        {
          "indexed": false,
          "internalType": "uint256",
          "name": "amount",
          "type": "uint256"
        }
      ],
      "name": "PaymentReleased",
      "type": "event"
    },
    {
      "inputs": [],
      "name": "BASIS_POINTS",
      "outputs": [
        {
          "internalType": "uint256",
          "name": "",
          "type": "uint256"
        }
      ],
      "stateMutability": "view",
      "type": "function"
    },
    {
      "inputs": [],
      "name": "PLATFORM_FEE_PERCENT",
      "outputs": [
        {
          "internalType": "uint256",
          "name": "",
          "type": "uint256"
        }
      ],
      "stateMutability": "view",
      "type": "function"
    },
    {
      "inputs": [
        {
          "internalType": "uint256",
          "name": "jobId",
          "type": "uint256"
        }
      ],
      "name": "cancelJob",
      "outputs": [],
      "stateMutability": "nonpayable",
      "type": "function"
    },
    {
      "inputs": [
        {
          "internalType": "address",
          "name": "",
          "type": "address"
        },
        {
          "internalType": "uint256",
          "name": "",
          "type": "uint256"
        }
      ],
      "name": "clientJobs",
      "outputs": [
        {
          "internalType": "uint256",
          "name": "",
          "type": "uint256"
        }
      ],
      "stateMutability": "view",
      "type": "function"
    },
    {
      "inputs": [
        {
          "internalType": "uint256",
          "name": "jobId",
          "type": "uint256"
        }
      ],
      "name": "completeComputeJob",
      "outputs": [],
      "stateMutability": "nonpayable",
      "type": "function"
    },
    {
      "inputs": [
        {
          "internalType": "uint256",
          "name": "",
          "type": "uint256"
        }
      ],
      "name": "computeJobs",
      "outputs": [
        {
          "internalType": "uint256",
          "name": "nodeId",
          "type": "uint256"
        },
        {
          "internalType": "address",
          "name": "client",
          "type": "address"
        },
        {
          "internalType": "address",
          "name": "provider",
          "type": "address"
        },
        {
          "internalType": "uint256",
          "name": "duration",
          "type": "uint256"
        },
        {
          "internalType": "uint256",
          "name": "totalCost",
          "type": "uint256"
        },
        {
          "internalType": "uint256",
          "name": "startTime",
          "type": "uint256"
        },
        {
          "internalType": "uint256",
          "name": "endTime",
          "type": "uint256"
        },
        {
          "internalType": "enum EryzaComputeMarketplace.JobStatus",
          "name": "status",
          "type": "uint8"
        },
        {
          "internalType": "string",
          "name": "jobType",
          "type": "string"
        },
        {
          "internalType": "string",
          "name": "jobConfig",
          "type": "string"
        },
        {
          "internalType": "bool",
          "name": "disputed",
          "type": "bool"
        },
        {
          "internalType": "address",
          "name": "disputer",
          "type": "address"
        },
        {
          "internalType": "string",
          "name": "disputeReason",
          "type": "string"
        }
      ],
      "stateMutability": "view",
      "type": "function"
    },
    {
      "inputs": [
        {
          "internalType": "uint256",
          "name": "",
          "type": "uint256"
        }
      ],
      "name": "computeNodes",
      "outputs": [
        {
          "internalType": "address",
          "name": "provider",
          "type": "address"
        },
        {
          "internalType": "string",
          "name": "nodeType",
          "type": "string"
        },
        {
          "internalType": "uint256",
          "name": "cpuCores",
          "type": "uint256"
        },
        {
          "internalType": "uint256",
          "name": "memoryGB",
          "type": "uint256"
        },
        {
          "internalType": "uint256",
          "name": "gpuCount",
          "type": "uint256"
        },
        {
          "internalType": "string",
          "name": "gpuType",
          "type": "string"
        },
        {
          "internalType": "uint256",
          "name": "pricePerHour",
          "type": "uint256"
        },
        {
          "internalType": "bool",
          "name": "available",
          "type": "bool"
        },
        {
          "internalType": "uint256",
          "name": "totalJobs",
          "type": "uint256"
        },
        {
          "internalType": "uint256",
          "name": "successfulJobs",
          "type": "uint256"
        },
        {
          "internalType": "string",
          "name": "endpoint",
          "type": "string"
        }
      ],
      "stateMutability": "view",
      "type": "function"
    },
    {
      "inputs": [
        {
          "internalType": "uint256",
          "name": "nodeId",
          "type": "uint256"
        },
        {
          "internalType": "uint256",
          "name": "duration",
          "type": "uint256"
        },
        {
          "internalType": "string",
          "name": "jobType",
          "type": "string"
        },
        {
          "internalType": "string",
          "name": "jobConfig",
          "type": "string"
        }
      ],
      "name": "createComputeJob",
      "outputs": [
        {
          "internalType": "uint256",
          "name": "",
          "type": "uint256"
        }
      ],
      "stateMutability": "nonpayable",
      "type": "function"
    },
    {
      "inputs": [],
      "name": "disputeTimeWindow",
      "outputs": [
        {
          "internalType": "uint256",
          "name": "",
          "type": "uint256"
        }
      ],
      "stateMutability": "view",
      "type": "function"
    },
    {
      "inputs": [
        {
          "internalType": "address",
          "name": "token",
          "type": "address"
        },
        {
          "internalType": "uint256",
          "name": "amount",
          "type": "uint256"
        }
      ],
      "name": "emergencyWithdraw",
      "outputs": [],
      "stateMutability": "nonpayable",
      "type": "function"
    },
    {
      "inputs": [
        {
          "internalType": "string",
          "name": "nodeType",
          "type": "string"
        }
      ],
      "name": "getAvailableNodes",
      "outputs": [
        {
          "internalType": "uint256[]",
          "name": "",
          "type": "uint256[]"
        }
      ],
      "stateMutability": "view",
      "type": "function"
    },
    {
      "inputs": [
        {
          "internalType": "address",
          "name": "client",
          "type": "address"
        }
      ],
      "name": "getClientJobs",
      "outputs": [
        {
          "internalType": "uint256[]",
          "name": "",
          "type": "uint256[]"
        }
      ],
      "stateMutability": "view",
      "type": "function"
    },
    {
      "inputs": [
        {
          "internalType": "uint256",
          "name": "jobId",
          "type": "uint256"
        }
      ],
      "name": "getJobInfo",
      "outputs": [
        {
          "components": [
            {
              "internalType": "uint256",
              "name": "nodeId",
              "type": "uint256"
            },
            {
              "internalType": "address",
              "name": "client",
              "type": "address"
            },
            {
              "internalType": "address",
              "name": "provider",
              "type": "address"
            },
            {
              "internalType": "uint256",
              "name": "duration",
              "type": "uint256"
            },
            {
              "internalType": "uint256",
              "name": "totalCost",
              "type": "uint256"
            },
            {
              "internalType": "uint256",
              "name": "startTime",
              "type": "uint256"
            },
            {
              "internalType": "uint256",
              "name": "endTime",
              "type": "uint256"
            },
            {
              "internalType": "enum EryzaComputeMarketplace.JobStatus",
              "name": "status",
              "type": "uint8"
            },
            {
              "internalType": "string",
              "name": "jobType",
              "type": "string"
            },
            {
              "internalType": "string",
              "name": "jobConfig",
              "type": "string"
            },
            {
              "internalType": "bool",
              "name": "disputed",
              "type": "bool"
            },
            {
              "internalType": "address",
              "name": "disputer",
              "type": "address"
            },
            {
              "internalType": "string",
              "name": "disputeReason",
              "type": "string"
            }
          ],
          "internalType": "struct EryzaComputeMarketplace.ComputeJob",
          "name": "",
          "type": "tuple"
        }
      ],
      "stateMutability": "view",
      "type": "function"
    },
    {
      "inputs": [
        {
          "internalType": "uint256",
          "name": "nodeId",
          "type": "uint256"
        }
      ],
      "name": "getNodeInfo",
      "outputs": [
        {
          "components": [
            {
              "internalType": "address",
              "name": "provider",
              "type": "address"
            },
            {
              "internalType": "string",
              "name": "nodeType",
              "type": "string"
            },
            {
              "internalType": "uint256",
              "name": "cpuCores",
              "type": "uint256"
            },
            {
              "internalType": "uint256",
              "name": "memoryGB",
              "type": "uint256"
            },
            {
              "internalType": "uint256",
              "name": "gpuCount",
              "type": "uint256"
            },
            {
              "internalType": "string",
              "name": "gpuType",
              "type": "string"
            },
            {
              "internalType": "uint256",
              "name": "pricePerHour",
              "type": "uint256"
            },
            {
              "internalType": "bool",
              "name": "available",
              "type": "bool"
            },
            {
              "internalType": "uint256",
              "name": "totalJobs",
              "type": "uint256"
            },
            {
              "internalType": "uint256",
              "name": "successfulJobs",
              "type": "uint256"
            },
            {
              "internalType": "string",
              "name": "endpoint",
              "type": "string"
            }
          ],
          "internalType": "struct EryzaComputeMarketplace.ComputeNode",
          "name": "",
          "type": "tuple"
        }
      ],
      "stateMutability": "view",
      "type": "function"
    },
    {
      "inputs": [
        {
          "internalType": "address",
          "name": "provider",
          "type": "address"
        }
      ],
      "name": "getProviderNodes",
      "outputs": [
        {
          "internalType": "uint256[]",
          "name": "",
          "type": "uint256[]"
        }
      ],
      "stateMutability": "view",
      "type": "function"
    },
    {
      "inputs": [
        {
          "internalType": "uint256",
          "name": "",
          "type": "uint256"
        }
      ],
      "name": "jobEscrow",
      "outputs": [
        {
          "internalType": "uint256",
          "name": "",
          "type": "uint256"
        }
      ],
      "stateMutability": "view",
      "type": "function"
    },
    {
      "inputs": [
        {
          "internalType": "uint256",
          "name": "",
          "type": "uint256"
        }
      ],
      "name": "nodeActiveJobs",
      "outputs": [
        {
          "internalType": "uint256",
          "name": "",
          "type": "uint256"
        }
      ],
      "stateMutability": "view",
      "type": "function"
    },
    {
      "inputs": [],
      "name": "owner",
      "outputs": [
        {
          "internalType": "address",
          "name": "",
          "type": "address"
        }
      ],
      "stateMutability": "view",
      "type": "function"
    },
    {
      "inputs": [],
      "name": "paymentToken",
      "outputs": [
        {
          "internalType": "contract IERC20",
          "name": "",
          "type": "address"
        }
      ],
      "stateMutability": "view",
      "type": "function"
    },
    {
      "inputs": [
        {
          "internalType": "address",
          "name": "",
          "type": "address"
        },
        {
          "internalType": "uint256",
          "name": "",
          "type": "uint256"
        }
      ],
      "name": "providerNodes",
      "outputs": [
        {
          "internalType": "uint256",
          "name": "",
          "type": "uint256"
        }
      ],
      "stateMutability": "view",
      "type": "function"
    },
    {
      "inputs": [
        {
          "internalType": "uint256",
          "name": "jobId",
          "type": "uint256"
        },
        {
          "internalType": "string",
          "name": "reason",
          "type": "string"
        }
      ],
      "name": "raiseDispute",
      "outputs": [],
      "stateMutability": "nonpayable",
      "type": "function"
    },
    {
      "inputs": [
        {
          "internalType": "string",
          "name": "nodeType",
          "type": "string"
        },
        {
          "internalType": "uint256",
          "name": "cpuCores",
          "type": "uint256"
        },
        {
          "internalType": "uint256",
          "name": "memoryGB",
          "type": "uint256"
        },
        {
          "internalType": "uint256",
          "name": "gpuCount",
          "type": "uint256"
        },
        {
          "internalType": "string",
          "name": "gpuType",
          "type": "string"
        },
        {
          "internalType": "uint256",
          "name": "pricePerHour",
          "type": "uint256"
        },
        {
          "internalType": "string",
          "name": "endpoint",
          "type": "string"
        }
      ],
      "name": "registerComputeNode",
      "outputs": [
        {
          "internalType": "uint256",
          "name": "",
          "type": "uint256"
        }
      ],
      "stateMutability": "nonpayable",
      "type": "function"
    },
    {
      "inputs": [
        {
          "internalType": "uint256",
          "name": "jobId",
          "type": "uint256"
        }
      ],
      "name": "releasePayment",
      "outputs": [],
      "stateMutability": "nonpayable",
      "type": "function"
    },
    {
      "inputs": [],
      "name": "renounceOwnership",
      "outputs": [],
      "stateMutability": "nonpayable",
      "type": "function"
    },
    {
      "inputs": [
        {
          "internalType": "uint256",
          "name": "jobId",
          "type": "uint256"
        },
        {
          "internalType": "bool",
          "name": "favorProvider",
          "type": "bool"
        }
      ],
      "name": "resolveDispute",
      "outputs": [],
      "stateMutability": "nonpayable",
      "type": "function"
    },
    {
      "inputs": [
        {
          "internalType": "uint256",
          "name": "jobId",
          "type": "uint256"
        }
      ],
      "name": "startComputeJob",
      "outputs": [],
      "stateMutability": "nonpayable",
      "type": "function"
    },
    {
      "inputs": [
        {
          "internalType": "address",
          "name": "newOwner",
          "type": "address"
        }
      ],
      "name": "transferOwnership",
      "outputs": [],
      "stateMutability": "nonpayable",
      "type": "function"
    },
    {
      "inputs": [
        {
          "internalType": "uint256",
          "name": "newWindow",
          "type": "uint256"
        }
      ],
      "name": "updateDisputeTimeWindow",
      "outputs": [],
      "stateMutability": "nonpayable",
      "type": "function"
    },
    {
      "inputs": [
        {
          "internalType": "uint256",
          "name": "nodeId",
          "type": "uint256"
        },
        {
          "internalType": "bool",
          "name": "available",
          "type": "bool"
        }
      ],
      "name": "updateNodeAvailability",
      "outputs": [],
      "stateMutability": "nonpayable",
      "type": "function"
    },
    {
      "inputs": [
        {
          "internalType": "uint256",
          "name": "nodeId",
          "type": "uint256"
        },
        {
          "internalType": "uint256",
          "name": "newPrice",
          "type": "uint256"
        }
      ],
      "name": "updateNodePrice",
      "outputs": [],
      "stateMutability": "nonpayable",
      "type": "function"
    },
    {
      "inputs": [
        {
          "internalType": "uint256",
          "name": "newFeePercent",
          "type": "uint256"
        }
      ],
      "name": "updatePlatformFee",
      "outputs": [],
      "stateMutability": "nonpayable",
      "type": "function"
    }
  ],
  "bytecode": "0x6080346100e057601f62002abf38819003918201601f19168301916001600160401b038311848410176100e5578084926020946040528339810103126100e057516001600160a01b0390818116908190036100e057600160005533156100c75760018054336001600160a01b03198083168217909355604051949091167f8be0079c531659141344cd1fd0a4f28419497f9722a3daafe3b4186f6b6457e0600080a3620151806003556001600455600160055560025416176002556129c39081620000fc8239f35b604051631e4fbdf760e01b815260006004820152602490fd5b600080fd5b634e487b7160e01b600052604160045260246000fdfe608080604052600436101561001357600080fd5b60003560e01c9081630c4f321f1461246d575080631dffa3dc1461237e5780633013ce291461235557806334b25ee2146121e35780633d44645c14611ad9578063486fbd7914611a8f5780634afedcd614611a3b5780634b9d4bab146119e157806352a662a31461143257806353e215f414611253578063560d52d4146112375780635aef573c14610f61578063715018a614610f0457806372143f4114610df35780637e4dcc0614610dd55780637f4497d814610b8557806388685cd9146109c05780638da5cb5b146109975780638df32711146107fc5780638facd859146107a457806395ccea6714610765578063a3590e4b14610739578063aa0b5988146106df578063be452e0414610667578063cf2646c2146105e3578063e13242dd146105c2578063e1f1c4a7146105a5578063eb1140aa14610464578063eb96e6591461032e578063f2fde38b146102a55763f72d3a7e1461017457600080fd5b346102a0576020806003193601126102a0576004356000818152600783526040902060028101549092906001600160a01b0316330361026957600783019283549360ff851660068110156102535760010361021d5760027fe3afe40bf62af5d61e451ce5ac1a16baa282148052ee6bd241deb3cd0242d21a949542600585015560ff191617905554600052600a815260406000206102128154612761565b9055604051428152a2005b60405162461bcd60e51b815260048101849052600e60248201526d129bd8881b9bdd08199d5b99195960921b6044820152606490fd5b634e487b7160e01b600052602160045260246000fd5b6064906040519062461bcd60e51b82526004820152601060248201526f2737ba103537b110383937bb34b232b960811b6044820152fd5b600080fd5b346102a05760203660031901126102a0576102be612563565b6102c66126e9565b6001600160a01b0390811690811561031557600154826001600160601b0360a01b821617600155167f8be0079c531659141344cd1fd0a4f28419497f9722a3daafe3b4186f6b6457e0600080a3005b604051631e4fbdf760e01b815260006004820152602490fd5b346102a0576020806003193601126102a05760043590816000526007815260406000209061037360018060a01b03806001850154163314908115610454575b5061285c565b60078201805460ff811660068110156102535760020361041d5760039042600686015560ff19161790558154600052600a81526040600020918254928315610407577f41930f16e103c5d76d3ab5a14c0201a0adab06354e8e99241f5b2ad02566525e93600019019055546000526006815260096040600020600881016103fa8154612761565b9055016102128154612761565b634e487b7160e01b600052601160045260246000fd5b60405162461bcd60e51b815260048101849052600f60248201526e129bd8881b9bdd081cdd185c9d1959608a1b6044820152606490fd5b600285015416331490508561036d565b346102a05760203660031901126102a057600435600052600760205260406000208054600160a01b6001900391826001820154169280600283015416906003830154600484015460058501546006860154600787015460ff169160405193848060088b01906104d29161260b565b036104dd90866124ec565b60405195866104ef8160098d0161260b565b036104fa90886124ec565b600a8a01549860405180600b819d01906105139161260b565b0361051e908c6124ec565b6040519c8d9c8d5260208d015260408c015260608b015260808a015260a089015260c088015260e08701610551916126a1565b6101a080610100880152860161056691612591565b85810361012087015261057891612591565b9160ff8116151561014086015260081c166101608401528281036101808401526105a191612591565b0390f35b346102a05760003660031901126102a05760206040516127108152f35b346102a05760203660031901126102a0576105db6126e9565b600435600355005b346102a0576020806003193601126102a0576001600160a01b03610605612563565b1660005260098152604060002090604051908181845491828152019360005281600020916000905b828210610650576105a185610644818903826124ec565b604051918291826126ae565b83548652948501946001938401939091019061062d565b346102a0576020806003193601126102a0576001600160a01b03610689612563565b1660005260088152604060002090604051908181845491828152019360005281600020916000905b8282106106c8576105a185610644818903826124ec565b8354865294850194600193840193909101906106b1565b346102a05760203660031901126102a0576106f86126e9565b6103e86004351161070557005b60405162461bcd60e51b815260206004820152600c60248201526b08ccaca40e8dede40d0d2ced60a31b6044820152606490fd5b346102a05760203660031901126102a057600435600052600a6020526020604060002054604051908152f35b346102a05760403660031901126102a0576107a2610781612563565b6107896126e9565b600154602435916001600160a01b039182169116612925565b005b346102a05760403660031901126102a0576107bd612563565b6001600160a01b03166000908152600960205260409020805460243591908210156102a0576020916107ee91612579565b90546040519160031b1c8152f35b346102a0576020806003193601126102a0576004356001600160401b0381116102a05761082d90369060040161250d565b600091600191600454925b838110610927575061084984612976565b9361085760405195866124ec565b808552610866601f1991612976565b01368386013760009060015b84811061088757604051806105a188826126ae565b8060005260068452604060002060ff60078201541690816108f5575b506108b7575b6108b290612761565b610872565b9185518110156108df576108d78184866108b29460051b8a010152612761565b9290506108a9565b634e487b7160e01b600052603260045260246000fd5b600191506109149061090d604051809481930161260b565b03826124ec565b84815191012082518584012014876108a3565b8060005260068352604060002060ff600782015416908161096c575b50610957575b61095290612761565b610838565b9361096461095291612761565b949050610949565b600191506109849061090d604051809481930161260b565b8381519101208251848401201486610943565b346102a05760003660031901126102a0576001546040516001600160a01b039091168152602090f35b346102a0576020806003193601126102a057600435600260005414610b735760026000558060005260078252604060002060ff6007820154166006811015610253576003610a0e9114612899565b60ff600a82015416610b3f57610a2b6006820154600354906127e7565b4210801590610b29575b15610ae45781600052600b8352610a5260406000205415156128d9565b81600052600b83526000604081205560048101549260fa840284810460fa1485151715610407577f21d71db5be59bb9fa133895586b7404307dd33fb93b16db09dc6f1d9d7d231b092610ad360018060a01b0392610abd886002868154169501948686541690612925565b6127108460025416910490846001541690612925565b541693604051908152a36001600055005b60405162461bcd60e51b815260048101849052601960248201527f446973707574652077696e646f77206e6f7420706173736564000000000000006044820152606490fd5b5060018101546001600160a01b03163314610a35565b60405162461bcd60e51b815260048101849052600c60248201526b129bd888191a5cdc1d5d195960a21b6044820152606490fd5b604051633ee5aeb560e01b8152600490fd5b346102a05760203660031901126102a0576060610180604051610ba7816124b4565b60008152600060208201526000604082015260008382015260006080820152600060a0820152600060c0820152600060e0820152826101008201528261012082015260006101408201526000610160820152015260043560005260076020526040600020604051610c17816124b4565b8154815260018201546001600160a01b03908116602083015260028301541660408201526003820154606082015260048201546080820152600582015460a082015260068083015460c0830152600783015460ff16929083101561025357610ced600b916105a19460e0850152604051610c988161090d816008860161260b565b610100850152604051610cb28161090d816009860161260b565b610120850152600a81015460ff8116151561014086015260081c6001600160a01b031661016085015260405192839161090d9183910161260b565b610180820152604051918291602083528051602084015260018060a01b03602082015116604084015260018060a01b03604082015116606084015260608101516080840152608081015160a084015260a081015160c084015260c081015160e0840152610d6360e08201516101008501906126a1565b610100810151610d826101a091826101208701526101c0860190612591565b90610180610da461012085015193601f199485898303016101408a0152612591565b93610140810151151561016088015260018060a01b0361016082015116828801520151918584030190850152612591565b346102a05760003660031901126102a0576020600354604051908152f35b346102a05760203660031901126102a0576004356000526006602052604060002060018060a01b038154166105a160405192610e3d84610e36816001850161260b565b03856124ec565b600a60028201549160038101546004820154610edd60405195610e6e87610e67816005890161260b565b03886124ec565b60068501549660ff60078701541693600887015495610ea3600989015498610e9c604051809c81930161260b565b038a6124ec565b610ec06040519d8e9d8e528d610160908160208201520190612591565b9360408d015260608c015260808b015289820360a08b0152612591565b9460c0880152151560e0870152610100860152610120850152838203610140850152612591565b346102a05760003660031901126102a057610f1d6126e9565b600180546001600160a01b031981169091556000906001600160a01b03167f8be0079c531659141344cd1fd0a4f28419497f9722a3daafe3b4186f6b6457e08280a3005b346102a05760403660031901126102a0576001600160401b036004356024358281116102a057610f9590369060040161250d565b816000526020926007845260406000209060018060a01b0391610fc96001938085840154163314908115611227575061285c565b60ff6007820154166006811015610253576003610fe69114612899565b600a8101805460ff81166111ef576110056006840154600354906127e7565b42116111b257610100600160a81b031985166001600160a81b0319909116173360081b610100600160a81b0316179055600b0191835191821161119c5761104c83546125d1565b601f8111611153575b5085601f83116001146110c9579180806110b995937f1b84372106d77c6daea0dda35bbc0229d10a83f58ec89909288492519368234197956000936110be575b501b916000199060031b1c19161790555b6040519182918683523396830190612591565b0390a3005b86015192508a611095565b601f9291921982169084600052876000209160005b8982821061113f5750509183916110b996947f1b84372106d77c6daea0dda35bbc0229d10a83f58ec89909288492519368234198969410611126575b5050811b0190556110a6565b85015160001960f88460031b161c19169055888061111a565b8884015185559386019392830192016110de565b8360005286600020601f840160051c810191888510611192575b601f0160051c019082905b828110611186575050611055565b60008155018290611178565b909150819061116d565b634e487b7160e01b600052604160045260246000fd5b60405162461bcd60e51b8152600481018990526015602482015274111a5cdc1d5d19481dda5b991bddc81c185cdcd959605a1b6044820152606490fd5b60405162461bcd60e51b815260048101899052601060248201526f105b1c9958591e48191a5cdc1d5d195960821b6044820152606490fd5b600284015416331490508861036d565b346102a05760003660031901126102a057602060405160fa8152f35b346102a05760203660031901126102a0576060610140604051611275816124d0565b6000815282602082015260006040820152600083820152600060808201528260a0820152600060c0820152600060e082015260006101008201526000610120820152015260043560005260066020526105a16040600020600a61137a604051926112de846124d0565b80546001600160a01b031684526040516112ff8161090d816001860161260b565b60208501526002810154604085015260038101546060850152600481015460808501526040516113368161090d816005860161260b565b60a0850152600681015460c085015260ff600782015416151560e08501526008810154610100850152600981015461012085015261090d604051809481930161260b565b6101408201526040519182916020835260018060a01b03815116602084015260208101516113b661016091826040870152610180860190612591565b906040830151606086015260608301516080860152608083015160a08601526101406113f460a085015193601f1994858983030160c08a0152612591565b9360c081015160e088015260e08101511515610100880152610100810151610120880152610120810151828801520151918584030190850152612591565b346102a05760e03660031901126102a0576004356001600160401b0381116102a05761146290369060040161250d565b6084356001600160401b0381116102a05761148190369060040161250d565b9060c4356001600160401b0381116102a0576114a190369060040161250d565b6114ae60a4351515612715565b6024351561199d576044351561195857600454926114cb84612761565b600455604051926114db846124d0565b338452602084015260243560408401526044356060840152606435608084015260a083015260a43560c0830152600160e08301526000610100830152600061012083015261014082015281600052600660205260406000209160018060a01b038251166001600160601b0360a01b84541617835560208201519283516001600160401b03811161119c5761157260018301546125d1565b601f8111611911575b506020601f82116001146118a2578192939495600092611897575b50508160011b916000199060031b1c19161760018201555b60408301516002820155606083015160038201556080830151600482015560a08301518051906001600160401b03821161119c576115ef60058401546125d1565b601f8111611850575b50602090601f83116001146117da5791806101409492600a946000926117cf575b50508160011b916000199060031b1c19161760058201555b60c0850151600682015561165a60e08601511515600783019060ff801983541691151516179055565b6101008501516008820155610120850151600982015501920151908151926001600160401b03841161119c5761169081546125d1565b93601f8511611787575b602094508493601f8211600114611724579381929394600092611719575b50508160011b916000199060031b1c19161790555b33600052600882526116e3816040600020612770565b8060405160a43581527f9ae856703585c6656a94de0b9fa016ae1dab239ff224e877e311fa47d796e341843392a3604051908152f35b0151905085806116b8565b601f1982169483600052866000209160005b878110611770575083600195969710611757575b505050811b0190556116cd565b015160001960f88460031b161c1916905585808061174a565b919288600181928685015181550194019201611736565b816000526020600020601f820160051c810195602083106117c5575b601f0160051c01945b8581106117b9575061169a565b600081556001016117ac565b90955085906117a3565b015190508780611619565b906005840160005260206000209160005b601f19851681106118385750926101409492600192600a9583601f1981161061181f575b505050811b016005820155611631565b015160001960f88460031b161c1916905587808061180f565b919260206001819286850151815501940192016117eb565b600584016000526020600020601f840160051c810160208510611890575b601f830160051c820181106118845750506115f8565b6000815560010161186e565b508061186e565b015190508580611596565b6001830160005260206000209060005b601f19841681106118f9575060019394959683601f198116106118e0575b505050811b0160018201556115ae565b015160001960f88460031b161c191690558580806118d0565b9091602060018192858b0151815501930191016118b2565b600183016000526020600020601f830160051c810160208410611951575b601f830160051c8201811061194557505061157b565b6000815560010161192f565b508061192f565b60405162461bcd60e51b815260206004820152601d60248201527f4d656d6f7279206d7573742062652067726561746572207468616e20300000006044820152606490fd5b606460405162461bcd60e51b815260206004820152602060248201527f43505520636f726573206d7573742062652067726561746572207468616e20306044820152fd5b346102a05760403660031901126102a05760043560243590806000526006602052611a1a60018060a01b036040600020541633146127aa565b611a25821515612715565b6000526006602052600660406000200155600080f35b346102a0576107a2611a4c36612495565b90806000526006602052611a6e60018060a01b036040600020541633146127aa565b600052600660205260076040600020019060ff801983541691151516179055565b346102a05760403660031901126102a057611aa8612563565b6001600160a01b03166000908152600860205260409020805460243591908210156102a0576020916107ee91612579565b346102a05760803660031901126102a0576044356001600160401b0381116102a057611b0990369060040161250d565b6064356001600160401b0381116102a057611b2890369060040161250d565b600435600052600660205260ff60076040600020015416156121a9576024351561216457600435600052600660205260406000209060068201549060243582029180830460243514901517156104075760fa820282810460fa148315171561040757612710611b989104836127e7565b9360055493611ba685612761565b6005555460405193906001600160a01b0316611bc1856124b4565b6004358552336020860152604085015260243560608501526080840152600060a0840152600060c0840152600060e0840152610100830152610120820152600061014082015260006101608201526040518060208101106001600160401b0360208301111761119c576020810160405260008152610180820152816000526007602052604060002090805182556001820160018060a01b03602083015116906001600160601b0360a01b9182825416179055600283019060018060a01b0360408401511690825416179055606081015160038301556080810151600483015560a0810151600583015560c0810151600683015560e081015160068110156102535760ff801960078501541691161760078301556101008101518051906001600160401b03821161119c578190611cfa60088601546125d1565b601f8111612111575b50602090601f831160011461209f57600092612094575b50508160011b916000199060031b1c19161760088301555b6101208101518051906001600160401b03821161119c57611d5660098501546125d1565b601f811161204d575b50602090601f8311600114611fd95761018093929160009183611fce575b50508160011b916000199060031b1c19161760098401555b611de1600a8401611db96101408401511515829060ff801983541691151516179055565b6101608301518154610100600160a81b03191660089190911b610100600160a81b0316179055565b01518051906001600160401b03821161119c57611e01600b8401546125d1565b601f8111611f87575b50602090601f8311600114611f1957600b929160009183611f0e575b50508160011b916000199060031b1c1916179101555b336000526009602052611e53816040600020612770565b6002546040516323b872dd60e01b6020820152336024820152306044820152606480820185905281526001600160a01b03909116929060a08101908082106001600160401b0383111761119c57602094611eaf926040526127f4565b81600052600b8352604060002055600782526007604060002001600160ff19825416179055604051602435815260043590827f07aedeaaa47605dac1fb02ecea3128d244eea577d97e042a68813b0ddcdcfa35853393a4604051908152f35b015190508680611e26565b90601f19831691600b850160005260206000209260005b818110611f6f5750916001939185600b969410611f56575b505050811b01910155611e3c565b015160001960f88460031b161c19169055868080611f48565b92936020600181928786015181550195019301611f30565b600b84016000526020600020601f840160051c810160208510611fc7575b601f830160051c82018110611fbb575050611e0a565b60008155600101611fa5565b5080611fa5565b015190508780611d7d565b906009850160005260206000209160005b601f198516811061203557509183916001936101809695601f1981161061201c575b505050811b016009840155611d95565b015160001960f88460031b161c1916905587808061200c565b91926020600181928685015181550194019201611fea565b600985016000526020600020601f840160051c81016020851061208d575b601f830160051c82018110612081575050611d5f565b6000815560010161206b565b508061206b565b015190508680611d1a565b9250600885016000526020600020906000935b601f19841685106120f6576001945083601f198116106120dd575b505050811b016008830155611d32565b015160001960f88460031b161c191690558680806120cd565b818101518355602094850194600190930192909101906120b2565b909150600885016000526020600020601f840160051c81016020851061215d575b90849392915b601f830160051c8201811061214e575050611d03565b60008155859450600101612138565b5080612132565b60405162461bcd60e51b815260206004820152601f60248201527f4475726174696f6e206d7573742062652067726561746572207468616e2030006044820152606490fd5b60405162461bcd60e51b81526020600482015260126024820152714e6f6465206e6f7420617661696c61626c6560701b6044820152606490fd5b346102a0576121f136612495565b6121f96126e9565b8160005260206007815260406000209160ff600a84015416156123235783600052600b825260406000205461222f8115156128d9565b6000858152600b8452604081205581156122dc575060048301549260fa840284810460fa1485151715610407577f5a87909bff68caaaaf0b3fd9c74eeccc928832f879315e5c6fb7a73612f26c0c946122b49161229f60018060a01b039283600254168460028801541690612925565b61271082600254169104916001541690612925565b546000526006825260096040600020016122ce8154612761565b90555b6040519015158152a2005b6002546001909401547f5a87909bff68caaaaf0b3fd9c74eeccc928832f879315e5c6fb7a73612f26c0c9461231e92916001600160a01b039081169116612925565b6122d1565b60405162461bcd60e51b815260048101839052600a6024820152694e6f206469737075746560b01b6044820152606490fd5b346102a05760003660031901126102a0576002546040516001600160a01b039091168152602090f35b346102a05760203660031901126102a05760043560008181526007602052604090206001810180546001600160a01b03929083163303612437576007019283549360ff85166006811015610253576001036124025760046107a29560ff1916179055600052600b602052604060002091600083549355806002541691541690612925565b60405162461bcd60e51b815260206004820152600d60248201526c10d85b9b9bdd0818d85b98d95b609a1b6044820152606490fd5b60405162461bcd60e51b815260206004820152600e60248201526d139bdd081a9bd88818db1a595b9d60921b6044820152606490fd5b346102a05760203660031901126102a057602090600435600052600b82526040600020548152f35b60409060031901126102a0576004359060243580151581036102a05790565b6101a081019081106001600160401b0382111761119c57604052565b61016081019081106001600160401b0382111761119c57604052565b90601f801991011681019081106001600160401b0382111761119c57604052565b81601f820112156102a0578035906001600160401b03821161119c5760405192612541601f8401601f1916602001856124ec565b828452602083830101116102a057816000926020809301838601378301015290565b600435906001600160a01b03821682036102a057565b80548210156108df5760005260206000200190600090565b919082519283825260005b8481106125bd575050826000602080949584010152601f8019910116010190565b60208183018101518483018201520161259c565b90600182811c92168015612601575b60208310146125eb57565b634e487b7160e01b600052602260045260246000fd5b91607f16916125e0565b906000929180549161261c836125d1565b91828252600193848116908160001461267e575060011461263e575b50505050565b90919394506000526020928360002092846000945b83861061266a575050505001019038808080612638565b805485870183015294019385908201612653565b9294505050602093945060ff191683830152151560051b01019038808080612638565b9060068210156102535752565b6020908160408183019282815285518094520193019160005b8281106126d5575050505090565b8351855293810193928101926001016126c7565b6001546001600160a01b031633036126fd57565b60405163118cdaa760e01b8152336004820152602490fd5b1561271c57565b60405162461bcd60e51b815260206004820152601c60248201527f5072696365206d7573742062652067726561746572207468616e2030000000006044820152606490fd5b60001981146104075760010190565b80546801000000000000000081101561119c5761279291600182018155612579565b819291549060031b91821b91600019901b1916179055565b156127b157565b60405162461bcd60e51b815260206004820152600e60248201526d2737ba103737b2329037bbb732b960911b6044820152606490fd5b9190820180921161040757565b906000602091828151910182855af115612850576000513d61284757506001600160a01b0381163b155b6128255750565b604051635274afe760e01b81526001600160a01b039091166004820152602490fd5b6001141561281e565b6040513d6000823e3d90fd5b1561286357565b60405162461bcd60e51b815260206004820152600e60248201526d139bdd08185d5d1a1bdc9a5e995960921b6044820152606490fd5b156128a057565b60405162461bcd60e51b8152602060048201526011602482015270129bd8881b9bdd0818dbdb5c1b195d1959607a1b6044820152606490fd5b156128e057565b60405162461bcd60e51b815260206004820152601860248201527f5061796d656e7420616c72656164792072656c656173656400000000000000006044820152606490fd5b60405163a9059cbb60e01b60208201526001600160a01b03909216602483015260448083019390935291815260808101916001600160401b0383118284101761119c57612974926040526127f4565b565b6001600160401b03811161119c5760051b6020019056fea2646970667358221220ed934501bc74ed6ca1ca553509cb6db94397dd47a569704ef8323a3e5320c91d64736f6c63430008140033",
  "linkReferences": {},
  "deployedLinkReferences": {}
}