{
  "_format": "hh-sol-artifact-1",
  "contractName": "EryzaToken",
  "sourceName": "blockchain/contracts/EryzaToken.sol",
  "abi": [
    {
      "inputs": [
        {
          "internalType": "address",
          "name": "_teamVesting",
          "type": "address"
        },
        {
          "internalType": "address",
          "name": "_investorVesting",
          "type": "address"
        },
        {
          "internalType": "address",
          "name": "_communityRewards",
          "type": "address"
        },
        {
          "internalType": "address",
          "name": "_treasury",
          "type": "address"
        },
        {
          "internalType": "address",
          "name": "_liquidityPool",
          "type": "address"
        }
      ],
      "stateMutability": "nonpayable",
      "type": "constructor"
    },
    {
      "inputs": [
        {
          "internalType": "address",
          "name": "spender",
          "type": "address"
        },
        {
          "internalType": "uint256",
          "name": "allowance",
          "type": "uint256"
        },
        {
          "internalType": "uint256",
          "name": "needed",
          "type": "uint256"
        }
      ],
      "name": "ERC20InsufficientAllowance",
      "type": "error"
    },
    {
      "inputs": [
        {
          "internalType": "address",
          "name": "sender",
          "type": "address"
        },
        {
          "internalType": "uint256",
          "name": "balance",
          "type": "uint256"
        },
        {
          "internalType": "uint256",
          "name": "needed",
          "type": "uint256"
        }
      ],
      "name": "ERC20InsufficientBalance",
      "type": "error"
    },
    {
      "inputs": [
        {
          "internalType": "address",
          "name": "approver",
          "type": "address"
        }
      ],
      "name": "ERC20InvalidApprover",
      "type": "error"
    },
    {
      "inputs": [
        {
          "internalType": "address",
          "name": "receiver",
          "type": "address"
        }
      ],
      "name": "ERC20InvalidReceiver",
      "type": "error"
    },
    {
      "inputs": [
        {
          "internalType": "address",
          "name": "sender",
          "type": "address"
        }
      ],
      "name": "ERC20InvalidSender",
      "type": "error"
    },
    {
      "inputs": [
        {
          "internalType": "address",
          "name": "spender",
          "type": "address"
        }
      ],
      "name": "ERC20InvalidSpender",
      "type": "error"
    },
    {
      "inputs": [],
      "name": "EnforcedPause",
      "type": "error"
    },
    {
      "inputs": [],
      "name": "ExpectedPause",
      "type": "error"
    },
    {
      "inputs": [
        {
          "internalType": "address",
          "name": "owner",
          "type": "address"
        }
      ],
      "name": "OwnableInvalidOwner",
      "type": "error"
    },
    {
      "inputs": [
        {
          "internalType": "address",
          "name": "account",
          "type": "address"
        }
      ],
      "name": "OwnableUnauthorizedAccount",
      "type": "error"
    },
    {
      "anonymous": false,
      "inputs": [
        {
          "indexed": true,
          "internalType": "address",
          "name": "owner",
          "type": "address"
        },
        {
          "indexed": true,
          "internalType": "address",
          "name": "spender",
          "type": "address"
        },
        {
          "indexed": false,
          "internalType": "uint256",
          "name": "value",
          "type": "uint256"
        }
      ],
      "name": "Approval",
      "type": "event"
    },
    {
      "anonymous": false,
      "inputs": [
        {
          "indexed": true,
          "internalType": "address",
          "name": "minter",
          "type": "address"
        }
      ],
      "name": "MinterAdded",
      "type": "event"
    },
    {
      "anonymous": false,
      "inputs": [
        {
          "indexed": true,
          "internalType": "address",
          "name": "minter",
          "type": "address"
        }
      ],
      "name": "MinterRemoved",
      "type": "event"
    },
    {
      "anonymous": false,
      "inputs": [
        {
          "indexed": true,
          "internalType": "address",
          "name": "previousOwner",
          "type": "address"
        },
        {
          "indexed": true,
          "internalType": "address",
          "name": "newOwner",
          "type": "address"
        }
      ],
      "name": "OwnershipTransferred",
      "type": "event"
    },
    {
      "anonymous": false,
      "inputs": [
        {
          "indexed": false,
          "internalType": "address",
          "name": "account",
          "type": "address"
        }
      ],
      "name": "Paused",
      "type": "event"
    },
    {
      "anonymous": false,
      "inputs": [
        {
          "indexed": true,
          "internalType": "address",
          "name": "to",
          "type": "address"
        },
        {
          "indexed": false,
          "internalType": "uint256",
          "name": "amount",
          "type": "uint256"
        }
      ],
      "name": "TokensMinted",
      "type": "event"
    },
    {
      "anonymous": false,
      "inputs": [
        {
          "indexed": true,
          "internalType": "address",
          "name": "from",
          "type": "address"
        },
        {
          "indexed": true,
          "internalType": "address",
          "name": "to",
          "type": "address"
        },
        {
          "indexed": false,
          "internalType": "uint256",
          "name": "value",
          "type": "uint256"
        }
      ],
      "name": "Transfer",
      "type": "event"
    },
    {
      "anonymous": false,
      "inputs": [
        {
          "indexed": false,
          "internalType": "address",
          "name": "account",
          "type": "address"
        }
      ],
      "name": "Unpaused",
      "type": "event"
    },
    {
      "inputs": [],
      "name": "COMMUNITY_PERCENT",
      "outputs": [
        {
          "internalType": "uint256",
          "name": "",
          "type": "uint256"
        }
      ],
      "stateMutability": "view",
      "type": "function"
    },
    {
      "inputs": [],
      "name": "INITIAL_SUPPLY",
      "outputs": [
        {
          "internalType": "uint256",
          "name": "",
          "type": "uint256"
        }
      ],
      "stateMutability": "view",
      "type": "function"
    },
    {
      "inputs": [],
      "name": "INVESTORS_PERCENT",
      "outputs": [
        {
          "internalType": "uint256",
          "name": "",
          "type": "uint256"
        }
      ],
      "stateMutability": "view",
      "type": "function"
    },
    {
      "inputs": [],
      "name": "LIQUIDITY_PERCENT",
      "outputs": [
        {
          "internalType": "uint256",
          "name": "",
          "type": "uint256"
        }
      ],
      "stateMutability": "view",
      "type": "function"
    },
    {
      "inputs": [],
      "name": "MAX_SUPPLY",
      "outputs": [
        {
          "internalType": "uint256",
          "name": "",
          "type": "uint256"
        }
      ],
      "stateMutability": "view",
      "type": "function"
    },
    {
      "inputs": [],
      "name": "TEAM_PERCENT",
      "outputs": [
        {
          "internalType": "uint256",
          "name": "",
          "type": "uint256"
        }
      ],
      "stateMutability": "view",
      "type": "function"
    },
    {
      "inputs": [],
      "name": "TREASURY_PERCENT",
      "outputs": [
        {
          "internalType": "uint256",
          "name": "",
          "type": "uint256"
        }
      ],
      "stateMutability": "view",
      "type": "function"
    },
    {
      "inputs": [
        {
          "internalType": "address",
          "name": "minter",
          "type": "address"
        }
      ],
      "name": "addMinter",
      "outputs": [],
      "stateMutability": "nonpayable",
      "type": "function"
    },
    {
      "inputs": [
        {
          "internalType": "address",
          "name": "owner",
          "type": "address"
        },
        {
          "internalType": "address",
          "name": "spender",
          "type": "address"
        }
      ],
      "name": "allowance",
      "outputs": [
        {
          "internalType": "uint256",
          "name": "",
          "type": "uint256"
        }
      ],
      "stateMutability": "view",
      "type": "function"
    },
    {
      "inputs": [
        {
          "internalType": "address",
          "name": "spender",
          "type": "address"
        },
        {
          "internalType": "uint256",
          "name": "value",
          "type": "uint256"
        }
      ],
      "name": "approve",
      "outputs": [
        {
          "internalType": "bool",
          "name": "",
          "type": "bool"
        }
      ],
      "stateMutability": "nonpayable",
      "type": "function"
    },
    {
      "inputs": [
        {
          "internalType": "address",
          "name": "account",
          "type": "address"
        }
      ],
      "name": "balanceOf",
      "outputs": [
        {
          "internalType": "uint256",
          "name": "",
          "type": "uint256"
        }
      ],
      "stateMutability": "view",
      "type": "function"
    },
    {
      "inputs": [
        {
          "internalType": "uint256",
          "name": "amount",
          "type": "uint256"
        }
      ],
      "name": "burn",
      "outputs": [],
      "stateMutability": "nonpayable",
      "type": "function"
    },
    {
      "inputs": [
        {
          "internalType": "address",
          "name": "account",
          "type": "address"
        },
        {
          "internalType": "uint256",
          "name": "amount",
          "type": "uint256"
        }
      ],
      "name": "burnFrom",
      "outputs": [],
      "stateMutability": "nonpayable",
      "type": "function"
    },
    {
      "inputs": [],
      "name": "communityRewards",
      "outputs": [
        {
          "internalType": "address",
          "name": "",
          "type": "address"
        }
      ],
      "stateMutability": "view",
      "type": "function"
    },
    {
      "inputs": [],
      "name": "decimals",
      "outputs": [
        {
          "internalType": "uint8",
          "name": "",
          "type": "uint8"
        }
      ],
      "stateMutability": "view",
      "type": "function"
    },
    {
      "inputs": [],
      "name": "investorVesting",
      "outputs": [
        {
          "internalType": "address",
          "name": "",
          "type": "address"
        }
      ],
      "stateMutability": "view",
      "type": "function"
    },
    {
      "inputs": [],
      "name": "liquidityPool",
      "outputs": [
        {
          "internalType": "address",
          "name": "",
          "type": "address"
        }
      ],
      "stateMutability": "view",
      "type": "function"
    },
    {
      "inputs": [
        {
          "internalType": "address",
          "name": "to",
          "type": "address"
        },
        {
          "internalType": "uint256",
          "name": "amount",
          "type": "uint256"
        }
      ],
      "name": "mint",
      "outputs": [],
      "stateMutability": "nonpayable",
      "type": "function"
    },
    {
      "inputs": [
        {
          "internalType": "address",
          "name": "",
          "type": "address"
        }
      ],
      "name": "minters",
      "outputs": [
        {
          "internalType": "bool",
          "name": "",
          "type": "bool"
        }
      ],
      "stateMutability": "view",
      "type": "function"
    },
    {
      "inputs": [],
      "name": "name",
      "outputs": [
        {
          "internalType": "string",
          "name": "",
          "type": "string"
        }
      ],
      "stateMutability": "view",
      "type": "function"
    },
    {
      "inputs": [],
      "name": "owner",
      "outputs": [
        {
          "internalType": "address",
          "name": "",
          "type": "address"
        }
      ],
      "stateMutability": "view",
      "type": "function"
    },
    {
      "inputs": [],
      "name": "pause",
      "outputs": [],
      "stateMutability": "nonpayable",
      "type": "function"
    },
    {
      "inputs": [],
      "name": "paused",
      "outputs": [
        {
          "internalType": "bool",
          "name": "",
          "type": "bool"
        }
      ],
      "stateMutability": "view",
      "type": "function"
    },
    {
      "inputs": [],
      "name": "remainingSupply",
      "outputs": [
        {
          "internalType": "uint256",
          "name": "",
          "type": "uint256"
        }
      ],
      "stateMutability": "view",
      "type": "function"
    },
    {
      "inputs": [
        {
          "internalType": "address",
          "name": "minter",
          "type": "address"
        }
      ],
      "name": "removeMinter",
      "outputs": [],
      "stateMutability": "nonpayable",
      "type": "function"
    },
    {
      "inputs": [],
      "name": "renounceOwnership",
      "outputs": [],
      "stateMutability": "nonpayable",
      "type": "function"
    },
    {
      "inputs": [],
      "name": "symbol",
      "outputs": [
        {
          "internalType": "string",
          "name": "",
          "type": "string"
        }
      ],
      "stateMutability": "view",
      "type": "function"
    },
    {
      "inputs": [],
      "name": "teamVesting",
      "outputs": [
        {
          "internalType": "address",
          "name": "",
          "type": "address"
        }
      ],
      "stateMutability": "view",
      "type": "function"
    },
    {
      "inputs": [],
      "name": "totalMinted",
      "outputs": [
        {
          "internalType": "uint256",
          "name": "",
          "type": "uint256"
        }
      ],
      "stateMutability": "view",
      "type": "function"
    },
    {
      "inputs": [],
      "name": "totalSupply",
      "outputs": [
        {
          "internalType": "uint256",
          "name": "",
          "type": "uint256"
        }
      ],
      "stateMutability": "view",
      "type": "function"
    },
    {
      "inputs": [
        {
          "internalType": "address",
          "name": "to",
          "type": "address"
        },
        {
          "internalType": "uint256",
          "name": "value",
          "type": "uint256"
        }
      ],
      "name": "transfer",
      "outputs": [
        {
          "internalType": "bool",
          "name": "",
          "type": "bool"
        }
      ],
      "stateMutability": "nonpayable",
      "type": "function"
    },
    {
      "inputs": [
        {
          "internalType": "address",
          "name": "from",
          "type": "address"
        },
        {
          "internalType": "address",
          "name": "to",
          "type": "address"
        },
        {
          "internalType": "uint256",
          "name": "value",
          "type": "uint256"
        }
      ],
      "name": "transferFrom",
      "outputs": [
        {
          "internalType": "bool",
          "name": "",
          "type": "bool"
        }
      ],
      "stateMutability": "nonpayable",
      "type": "function"
    },
    {
      "inputs": [
        {
          "internalType": "address",
          "name": "newOwner",
          "type": "address"
        }
      ],
      "name": "transferOwnership",
      "outputs": [],
      "stateMutability": "nonpayable",
      "type": "function"
    },
    {
      "inputs": [],
      "name": "treasury",
      "outputs": [
        {
          "internalType": "address",
          "name": "",
          "type": "address"
        }
      ],
      "stateMutability": "view",
      "type": "function"
    },
    {
      "inputs": [],
      "name": "unpause",
      "outputs": [],
      "stateMutability": "nonpayable",
      "type": "function"
    }
  ],
  "bytecode": "0x608034620006d957601f620017ef38819003918201601f19168301916001600160401b03831184841017620005ac5780849260a094604052833981010312620006d9576200004d81620006fe565b906200005c60208201620006fe565b6200006a60408301620006fe565b916200008760806200007f60608401620006fe565b9201620006fe565b9062000092620006de565b600b81526a22b93cbd30902a37b5b2b760a91b6020820152620000b4620006de565b60058152644552595a4160d81b6020820152815190916001600160401b038211620005ac5760035490600182811c92168015620006ce575b60208310146200058b5781601f84931162000659575b50602090601f8311600114620005ce57600092620005c2575b50508160011b916000199060031b1c1916176003555b8051906001600160401b038211620005ac5760045490600182811c92168015620005a1575b60208310146200058b5781601f84931162000519575b50602090601f83116001146200048e5760009262000482575b50508160011b916000199060031b1c1916176004555b3315620004695760058054336001600160a01b0319808316821793849055976001600160a01b039283928392839283929083167f8be0079c531659141344cd1fd0a4f28419497f9722a3daafe3b4186f6b6457e0600080a31697888b60065416176006551697888a6007541617600755169384896008541617600855169384886009541617600955168096600a541617600a558315620004505760a01c60ff166200040b576002938454936a108b2a2c2802909400000094858101809111620003f5578655600081815260208181526040808320805489019055519687527fddf252ad1be2c89b69c2b068fc378daa952ba7f163c4a11628f55a4df523b3ef96879190a38015620004505760ff60055460a01c166200040b5784546a0c685fa11e01ec6f000000808201809211620003f55760208691600093895584845283825260408420818154019055604051908152a38015620004505760ff60055460a01c166200040b5783546a18d0bf423c03d8de000000808201809211620003f55760208591600093885584845283825260408420818154019055604051908152a38015620004505760ff60055460a01c166200040b5782546a14adf4b7320334b9000000808201809211620003f55760208491600093875584845283825260408420818154019055604051908152a38215620004505760ff60055460a01c166200040b578154916a084595161401484a000000808401809411620003f5576000936020925584845283825260408420818154019055604051908152a36a52b7d2dcc80cd2e4000000600c556040516110db9081620007148239f35b634e487b7160e01b600052601160045260246000fd5b60405162461bcd60e51b815260206004820152601660248201527f546f6b656e207472616e736665727320706175736564000000000000000000006044820152606490fd5b60405163ec442f0560e01b815260006004820152602490fd5b604051631e4fbdf760e01b815260006004820152602490fd5b01519050388062000185565b600460009081527f8a35acfbc15ff81a39ae7d344fd709f28e8600b4aa8c65c6b64bfe7fe36bd19b9350601f198516905b818110620005005750908460019594939210620004e6575b505050811b016004556200019b565b015160001960f88460031b161c19169055388080620004d7565b92936020600181928786015181550195019301620004bf565b60046000529091507f8a35acfbc15ff81a39ae7d344fd709f28e8600b4aa8c65c6b64bfe7fe36bd19b601f840160051c81016020851062000583575b90849392915b601f830160051c82018110620005735750506200016c565b600081558594506001016200055b565b508062000555565b634e487b7160e01b600052602260045260246000fd5b91607f169162000156565b634e487b7160e01b600052604160045260246000fd5b0151905038806200011b565b600360009081527fc2575a0e9e593c00f959f8c92f12db2869c3395a3b0502d05e2516446f71f85b9350601f198516905b81811062000640575090846001959493921062000626575b505050811b0160035562000131565b015160001960f88460031b161c1916905538808062000617565b92936020600181928786015181550195019301620005ff565b60036000529091507fc2575a0e9e593c00f959f8c92f12db2869c3395a3b0502d05e2516446f71f85b601f840160051c81019160208510620006c3575b90601f859493920160051c01905b818110620006b3575062000102565b60008155849350600101620006a4565b909150819062000696565b91607f1691620000ec565b600080fd5b60408051919082016001600160401b03811183821017620005ac57604052565b51906001600160a01b0382168203620006d95756fe608060408181526004918236101561001657600080fd5b600092833560e01c91826306fdde0314610c3b57508163095ea7b314610b9157816318160ddd14610b72578163193ce1e414610b4957816323b872dd14610b0c5781632ff2e9dc14610ae65781633092afd514610a80578163313ce56714610a6457816332cb6b0c14610a3d5781633ccfbabf14610a215781633f4ba83a146109b157816340c10f19146107d457816342966c68146107b65781634c1861971461079a5781635c975abb14610773578163619f3d6c1461074a57816361d027b314610721578163665a11ca146106f857816370a08231146106c157816371311eed146106a5578163715018a61461064857816379cc67901461061257816383d5e726146105f65781638456cb59146105955781638da5cb5b1461056c57816395d89b411461044d578163983b2d56146103a1578163a2309ff814610382578163a804fcb414610366578163a9059cbb14610335578163da0239a6146102eb578163dd62ed3e146102a2578163f2fde38b1461020e57508063f46eccc4146101d15763f64585c0146101a657600080fd5b346101cd57816003193601126101cd5760075490516001600160a01b039091168152602090f35b5080fd5b50346101cd5760203660031901126101cd5760209160ff9082906001600160a01b036101fb610d5c565b168152600b855220541690519015158152f35b90503461029e57602036600319011261029e57610229610d5c565b90610232610d8d565b6001600160a01b03918216928315610288575050600554826bffffffffffffffffffffffff60a01b821617600555167f8be0079c531659141344cd1fd0a4f28419497f9722a3daafe3b4186f6b6457e08380a380f35b51631e4fbdf760e01b8152908101849052602490fd5b8280fd5b5050346101cd57806003193601126101cd57806020926102c0610d5c565b6102c8610d77565b6001600160a01b0391821683526001865283832091168252845220549051908152f35b8383346101cd57816003193601126101cd57600c54916b033b2e3c9fd0803ce8000000928303928311610322576020838351908152f35b634e487b7160e01b815260118452602490fd5b5050346101cd57806003193601126101cd5760209061035f610355610d5c565b6024359033610db9565b5160018152f35b5050346101cd57816003193601126101cd5760209051601e8152f35b5050346101cd57816003193601126101cd57602090600c549051908152f35b9190503461029e57602036600319011261029e576103bd610d5c565b6103c5610d8d565b6001600160a01b03169182156104125750818352600b6020528220805460ff191660011790557f6ae172837ea30b801fbfcdd4108aa1d5bf8ff775444fd70256b44e6bf3dfc3f68280a280f35b6020606492519162461bcd60e51b83528201526016602482015275496e76616c6964206d696e746572206164647265737360501b6044820152fd5b8383346101cd57816003193601126101cd57805190828454600181811c90808316928315610562575b602093848410811461054f5783885290811561053357506001146104de575b505050829003601f01601f191682019267ffffffffffffffff8411838510176104cb57508291826104c7925282610d13565b0390f35b634e487b7160e01b815260418552602490fd5b8787529192508591837f8a35acfbc15ff81a39ae7d344fd709f28e8600b4aa8c65c6b64bfe7fe36bd19b5b83851061051f5750505050830101858080610495565b805488860183015293019284908201610509565b60ff1916878501525050151560051b8401019050858080610495565b634e487b7160e01b895260228a52602489fd5b91607f1691610476565b5050346101cd57816003193601126101cd5760055490516001600160a01b039091168152602090f35b5050346101cd57816003193601126101cd5760207f62e78cea01bee320cd4e420270b5ea74000d11b0c9f74754ebdbfc544b05a258916105d3610d8d565b6105db610fd8565b6005805460ff60a01b1916600160a01b17905551338152a180f35b5050346101cd57816003193601126101cd576020905160198152f35b5050346101cd573660031901126106455761064261062e610d5c565b6024359061063d823383610ee2565b610ff9565b80f35b80fd5b8334610645578060031936011261064557610661610d8d565b600580546001600160a01b0319811690915581906001600160a01b03167f8be0079c531659141344cd1fd0a4f28419497f9722a3daafe3b4186f6b6457e08280a380f35b5050346101cd57816003193601126101cd5760209051600f8152f35b5050346101cd5760203660031901126101cd5760209181906001600160a01b036106e9610d5c565b16815280845220549051908152f35b5050346101cd57816003193601126101cd57600a5490516001600160a01b039091168152602090f35b5050346101cd57816003193601126101cd5760095490516001600160a01b039091168152602090f35b5050346101cd57816003193601126101cd5760065490516001600160a01b039091168152602090f35b5050346101cd57816003193601126101cd5760209060ff60055460a01c1690519015158152f35b5050346101cd57816003193601126101cd576020905160148152f35b8390346101cd5760203660031901126101cd57610642903533610ff9565b9190503461029e578060031936011261029e576107ef610d5c565b9060243590338552602092600b845260ff82872054161561097657610812610fd8565b6001600160a01b0316938415610941576b033b2e3c9fd0803ce800000061083b84600c54610fb5565b1161090b5760ff60055460a01c166108d15750907f3f2c9d57c068687834f0de942a9babb9e5acab57d516d3480a3c16ee165a4273929161087e82600254610fb5565b60025584865285835280862082815401905584867fddf252ad1be2c89b69c2b068fc378daa952ba7f163c4a11628f55a4df523b3ef858451868152a36108c682600c54610fb5565b600c5551908152a280f35b83606492519162461bcd60e51b83528201526016602482015275151bdad95b881d1c985b9cd9995c9cc81c185d5cd95960521b6044820152fd5b83606492519162461bcd60e51b8352820152601260248201527145786365656473206d617820737570706c7960701b6044820152fd5b83606492519162461bcd60e51b83528201526011602482015270125b9d985b1a59081c9958da5c1a595b9d607a1b6044820152fd5b815162461bcd60e51b815280860185905260156024820152742737ba1030baba3437b934bd32b21036b4b73a32b960591b6044820152606490fd5b90503461029e578260031936011261029e576109cb610d8d565b6005549060ff8260a01c1615610a13575060ff60a01b1916600555513381527f5db9ee0a495bf2e6ff9c91a7834c1ba4fdd244a5e8aa4e537bd38aeae4b073aa90602090a180f35b8251638dfc202b60e01b8152fd5b5050346101cd57816003193601126101cd5760209051600a8152f35b5050346101cd57816003193601126101cd57602090516b033b2e3c9fd0803ce80000008152f35b5050346101cd57816003193601126101cd576020905160128152f35b5050346101cd5760203660031901126101cd57610a9b610d5c565b610aa3610d8d565b6001600160a01b0316808352600b602052908220805460ff191690557fe94479a9f7e1952cc78f2d6baab678adc1b772d936c6583def489e524cb666928280a280f35b5050346101cd57816003193601126101cd57602090516a52b7d2dcc80cd2e40000008152f35b5050346101cd5760603660031901126101cd5760209061035f610b2d610d5c565b610b35610d77565b60443591610b44833383610ee2565b610db9565b5050346101cd57816003193601126101cd5760085490516001600160a01b039091168152602090f35b5050346101cd57816003193601126101cd576020906002549051908152f35b90503461029e578160031936011261029e57610bab610d5c565b602435903315610c24576001600160a01b0316918215610c0d57508083602095338152600187528181208582528752205582519081527f8c5be1e5ebec7d5bd14f71427d1e84f3dd0314c0f7b2291e5b200ac8c7c3b925843392a35160018152f35b8351634a1406b160e11b8152908101859052602490fd5b835163e602df0560e01b8152808401869052602490fd5b8490843461029e578260031936011261029e5782600354600181811c90808316928315610d09575b602093848410811461054f578388529081156105335750600114610cb357505050829003601f01601f191682019267ffffffffffffffff8411838510176104cb57508291826104c7925282610d13565b600387529192508591837fc2575a0e9e593c00f959f8c92f12db2869c3395a3b0502d05e2516446f71f85b5b838510610cf55750505050830101858080610495565b805488860183015293019284908201610cdf565b91607f1691610c63565b6020808252825181830181905290939260005b828110610d4857505060409293506000838284010152601f8019910116010190565b818101860151848201604001528501610d26565b600435906001600160a01b0382168203610d7257565b600080fd5b602435906001600160a01b0382168203610d7257565b6005546001600160a01b03163303610da157565b60405163118cdaa760e01b8152336004820152602490fd5b916001600160a01b03808416928315610ec95716928315610eb05760ff60055460a01c16610e725760009083825281602052604082205490838210610e40575091604082827fddf252ad1be2c89b69c2b068fc378daa952ba7f163c4a11628f55a4df523b3ef958760209652828652038282205586815220818154019055604051908152a3565b60405163391434e360e21b81526001600160a01b03919091166004820152602481019190915260448101839052606490fd5b60405162461bcd60e51b8152602060048201526016602482015275151bdad95b881d1c985b9cd9995c9cc81c185d5cd95960521b6044820152606490fd5b60405163ec442f0560e01b815260006004820152602490fd5b604051634b637e8f60e11b815260006004820152602490fd5b9160018060a01b038093169160009383855260016020526040938486209183169182875260205284862054926000198410610f21575b50505050505050565b848410610f8557508015610f6d578115610f5557855260016020528385209085526020520391205538808080808080610f18565b8451634a1406b160e11b815260048101879052602490fd5b845163e602df0560e01b815260048101879052602490fd5b8551637dc7a0d960e11b81526001600160a01b039190911660048201526024810184905260448101859052606490fd5b91908201809211610fc257565b634e487b7160e01b600052601160045260246000fd5b60ff60055460a01c16610fe757565b60405163d93c066560e01b8152600490fd5b906001600160a01b038216908115610ec95760ff60055460a01c16610e7257600092828452836020526040842054908282106110735750817fddf252ad1be2c89b69c2b068fc378daa952ba7f163c4a11628f55a4df523b3ef926020928587528684520360408620558060025403600255604051908152a3565b60405163391434e360e21b81526001600160a01b03919091166004820152602481019190915260448101829052606490fdfea2646970667358221220026b135a5a437b270e17847882fcadef59754bc4af96c614aba02908cbf2934b64736f6c63430008140033",
  "linkReferences": {},
  "deployedLinkReferences": {}
}