{
  "_format": "hh-sol-artifact-1",
  "contractName": "EryzaStaking",
  "sourceName": "blockchain/contracts/EryzaStaking.sol",
  "abi": [
    {
      "inputs": [
        {
          "internalType": "address",
          "name": "_stakeToken",
          "type": "address"
        },
        {
          "internalType": "address",
          "name": "_rewardToken",
          "type": "address"
        }
      ],
      "stateMutability": "nonpayable",
      "type": "constructor"
    },
    {
      "inputs": [
        {
          "internalType": "address",
          "name": "owner",
          "type": "address"
        }
      ],
      "name": "OwnableInvalidOwner",
      "type": "error"
    },
    {
      "inputs": [
        {
          "internalType": "address",
          "name": "account",
          "type": "address"
        }
      ],
      "name": "OwnableUnauthorizedAccount",
      "type": "error"
    },
    {
      "inputs": [],
      "name": "ReentrancyGuardReentrantCall",
      "type": "error"
    },
    {
      "inputs": [
        {
          "internalType": "address",
          "name": "token",
          "type": "address"
        }
      ],
      "name": "SafeERC20FailedOperation",
      "type": "error"
    },
    {
      "anonymous": false,
      "inputs": [
        {
          "indexed": true,
          "internalType": "address",
          "name": "previousOwner",
          "type": "address"
        },
        {
          "indexed": true,
          "internalType": "address",
          "name": "newOwner",
          "type": "address"
        }
      ],
      "name": "OwnershipTransferred",
      "type": "event"
    },
    {
      "anonymous": false,
      "inputs": [
        {
          "indexed": false,
          "internalType": "uint256",
          "name": "amount",
          "type": "uint256"
        }
      ],
      "name": "RewardsAdded",
      "type": "event"
    },
    {
      "anonymous": false,
      "inputs": [
        {
          "indexed": true,
          "internalType": "address",
          "name": "user",
          "type": "address"
        },
        {
          "indexed": false,
          "internalType": "uint256",
          "name": "reward",
          "type": "uint256"
        }
      ],
      "name": "RewardsClaimed",
      "type": "event"
    },
    {
      "anonymous": false,
      "inputs": [
        {
          "indexed": true,
          "internalType": "address",
          "name": "user",
          "type": "address"
        },
        {
          "indexed": false,
          "internalType": "uint256",
          "name": "amount",
          "type": "uint256"
        }
      ],
      "name": "Staked",
      "type": "event"
    },
    {
      "anonymous": false,
      "inputs": [
        {
          "indexed": true,
          "internalType": "address",
          "name": "user",
          "type": "address"
        },
        {
          "indexed": false,
          "internalType": "uint256",
          "name": "amount",
          "type": "uint256"
        }
      ],
      "name": "Unstaked",
      "type": "event"
    },
    {
      "inputs": [],
      "name": "LOCK_PERIOD",
      "outputs": [
        {
          "internalType": "uint256",
          "name": "",
          "type": "uint256"
        }
      ],
      "stateMutability": "view",
      "type": "function"
    },
    {
      "inputs": [],
      "name": "MINIMUM_STAKE",
      "outputs": [
        {
          "internalType": "uint256",
          "name": "",
          "type": "uint256"
        }
      ],
      "stateMutability": "view",
      "type": "function"
    },
    {
      "inputs": [
        {
          "internalType": "uint256",
          "name": "reward",
          "type": "uint256"
        }
      ],
      "name": "addRewards",
      "outputs": [],
      "stateMutability": "nonpayable",
      "type": "function"
    },
    {
      "inputs": [],
      "name": "claimRewards",
      "outputs": [],
      "stateMutability": "nonpayable",
      "type": "function"
    },
    {
      "inputs": [
        {
          "internalType": "address",
          "name": "account",
          "type": "address"
        }
      ],
      "name": "earned",
      "outputs": [
        {
          "internalType": "uint256",
          "name": "",
          "type": "uint256"
        }
      ],
      "stateMutability": "view",
      "type": "function"
    },
    {
      "inputs": [
        {
          "internalType": "address",
          "name": "token",
          "type": "address"
        },
        {
          "internalType": "uint256",
          "name": "amount",
          "type": "uint256"
        }
      ],
      "name": "emergencyWithdraw",
      "outputs": [],
      "stateMutability": "nonpayable",
      "type": "function"
    },
    {
      "inputs": [],
      "name": "exit",
      "outputs": [],
      "stateMutability": "nonpayable",
      "type": "function"
    },
    {
      "inputs": [],
      "name": "getStakingStats",
      "outputs": [
        {
          "internalType": "uint256",
          "name": "_totalStaked",
          "type": "uint256"
        },
        {
          "internalType": "uint256",
          "name": "_rewardRate",
          "type": "uint256"
        },
        {
          "internalType": "uint256",
          "name": "_periodFinish",
          "type": "uint256"
        },
        {
          "internalType": "uint256",
          "name": "_rewardPerTokenStored",
          "type": "uint256"
        }
      ],
      "stateMutability": "view",
      "type": "function"
    },
    {
      "inputs": [
        {
          "internalType": "address",
          "name": "account",
          "type": "address"
        }
      ],
      "name": "getUserInfo",
      "outputs": [
        {
          "internalType": "uint256",
          "name": "stakedAmount",
          "type": "uint256"
        },
        {
          "internalType": "uint256",
          "name": "earnedRewards",
          "type": "uint256"
        },
        {
          "internalType": "uint256",
          "name": "lockTimeRemaining",
          "type": "uint256"
        }
      ],
      "stateMutability": "view",
      "type": "function"
    },
    {
      "inputs": [],
      "name": "lastTimeRewardApplicable",
      "outputs": [
        {
          "internalType": "uint256",
          "name": "",
          "type": "uint256"
        }
      ],
      "stateMutability": "view",
      "type": "function"
    },
    {
      "inputs": [],
      "name": "lastUpdateTime",
      "outputs": [
        {
          "internalType": "uint256",
          "name": "",
          "type": "uint256"
        }
      ],
      "stateMutability": "view",
      "type": "function"
    },
    {
      "inputs": [],
      "name": "owner",
      "outputs": [
        {
          "internalType": "address",
          "name": "",
          "type": "address"
        }
      ],
      "stateMutability": "view",
      "type": "function"
    },
    {
      "inputs": [],
      "name": "periodFinish",
      "outputs": [
        {
          "internalType": "uint256",
          "name": "",
          "type": "uint256"
        }
      ],
      "stateMutability": "view",
      "type": "function"
    },
    {
      "inputs": [],
      "name": "renounceOwnership",
      "outputs": [],
      "stateMutability": "nonpayable",
      "type": "function"
    },
    {
      "inputs": [],
      "name": "rewardPerToken",
      "outputs": [
        {
          "internalType": "uint256",
          "name": "",
          "type": "uint256"
        }
      ],
      "stateMutability": "view",
      "type": "function"
    },
    {
      "inputs": [],
      "name": "rewardPerTokenStored",
      "outputs": [
        {
          "internalType": "uint256",
          "name": "",
          "type": "uint256"
        }
      ],
      "stateMutability": "view",
      "type": "function"
    },
    {
      "inputs": [],
      "name": "rewardRate",
      "outputs": [
        {
          "internalType": "uint256",
          "name": "",
          "type": "uint256"
        }
      ],
      "stateMutability": "view",
      "type": "function"
    },
    {
      "inputs": [],
      "name": "rewardToken",
      "outputs": [
        {
          "internalType": "contract IERC20",
          "name": "",
          "type": "address"
        }
      ],
      "stateMutability": "view",
      "type": "function"
    },
    {
      "inputs": [
        {
          "internalType": "address",
          "name": "",
          "type": "address"
        }
      ],
      "name": "rewards",
      "outputs": [
        {
          "internalType": "uint256",
          "name": "",
          "type": "uint256"
        }
      ],
      "stateMutability": "view",
      "type": "function"
    },
    {
      "inputs": [],
      "name": "rewardsDuration",
      "outputs": [
        {
          "internalType": "uint256",
          "name": "",
          "type": "uint256"
        }
      ],
      "stateMutability": "view",
      "type": "function"
    },
    {
      "inputs": [
        {
          "internalType": "uint256",
          "name": "_rewardsDuration",
          "type": "uint256"
        }
      ],
      "name": "setRewardsDuration",
      "outputs": [],
      "stateMutability": "nonpayable",
      "type": "function"
    },
    {
      "inputs": [
        {
          "internalType": "uint256",
          "name": "amount",
          "type": "uint256"
        }
      ],
      "name": "stake",
      "outputs": [],
      "stateMutability": "nonpayable",
      "type": "function"
    },
    {
      "inputs": [],
      "name": "stakeToken",
      "outputs": [
        {
          "internalType": "contract IERC20",
          "name": "",
          "type": "address"
        }
      ],
      "stateMutability": "view",
      "type": "function"
    },
    {
      "inputs": [],
      "name": "totalStaked",
      "outputs": [
        {
          "internalType": "uint256",
          "name": "",
          "type": "uint256"
        }
      ],
      "stateMutability": "view",
      "type": "function"
    },
    {
      "inputs": [
        {
          "internalType": "address",
          "name": "newOwner",
          "type": "address"
        }
      ],
      "name": "transferOwnership",
      "outputs": [],
      "stateMutability": "nonpayable",
      "type": "function"
    },
    {
      "inputs": [
        {
          "internalType": "uint256",
          "name": "amount",
          "type": "uint256"
        }
      ],
      "name": "unstake",
      "outputs": [],
      "stateMutability": "nonpayable",
      "type": "function"
    },
    {
      "inputs": [
        {
          "internalType": "address",
          "name": "",
          "type": "address"
        }
      ],
      "name": "userInfo",
      "outputs": [
        {
          "internalType": "uint256",
          "name": "stakedAmount",
          "type": "uint256"
        },
        {
          "internalType": "uint256",
          "name": "rewardDebt",
          "type": "uint256"
        },
        {
          "internalType": "uint256",
          "name": "lastStakeTime",
          "type": "uint256"
        }
      ],
      "stateMutability": "view",
      "type": "function"
    },
    {
      "inputs": [
        {
          "internalType": "address",
          "name": "",
          "type": "address"
        }
      ],
      "name": "userRewardPerTokenPaid",
      "outputs": [
        {
          "internalType": "uint256",
          "name": "",
          "type": "uint256"
        }
      ],
      "stateMutability": "view",
      "type": "function"
    }
  ],
  "bytecode": "0x6080346100ee57601f61111a38819003918201601f19168301916001600160401b038311848410176100f35780849260409485528339810103126100ee57610052602061004b83610109565b9201610109565b600160005533156100d55760018054336001600160a01b031980831682179093556040519492936001600160a01b0393909284929083167f8be0079c531659141344cd1fd0a4f28419497f9722a3daafe3b4186f6b6457e0600080a362093a806008551683600254161760025516906003541617600355610ffc908161011e8239f35b604051631e4fbdf760e01b815260006004820152602490fd5b600080fd5b634e487b7160e01b600052604160045260246000fd5b51906001600160a01b03821682036100ee5756fe6040608081526004908136101561001557600080fd5b600091823560e01c9081628cc26214610b0e5781630700037d14610ad657816308dbbb0314610ab25781631820cabb14610a945781631959a00214610a385781632e17de7814610a0c578163372500ab14610945578163386a95251461092657816351ed6a30146108fd5781636386c1c714610811578163715018a6146107b45781637b0a47ee1461079557816380faa57d14610778578163817b1cd21461075a5781638b876347146107225781638da5cb5b146106f957816395ccea67146106b6578163a694fc3a14610551578163beceed3914610439578163c1dd608414610401578163c8f33c91146103e2578163cc1a378f14610360578163cd3daf9d1461033c578163df136d651461031d578163e9fad8ee14610234578163ebe2b12b14610215578163f2fde38b14610181575063f7c618c11461015657600080fd5b3461017d578160031936011261017d5760035490516001600160a01b039091168152602090f35b5080fd5b9050346102115760203660031901126102115761019c610b34565b906101a5610b4f565b6001600160a01b039182169283156101fb575050600154826bffffffffffffffffffffffff60a01b821617600155167f8be0079c531659141344cd1fd0a4f28419497f9722a3daafe3b4186f6b6457e08380a380f35b51631e4fbdf760e01b8152908101849052602490fd5b8280fd5b50503461017d578160031936011261017d576020906009549051908152f35b50503461017d578160031936011261017d573382526020600a815261027c828420835161026081610c4a565b8460028354938484526001810154878501520154910152610de0565b610284610bf3565b60055561028f610b7b565b600655336102f9575b338352600a81526001828420019081549284846102b25780f35b7ffc30cddea38e2bf4d6ea7d3f9ed3b6ad7f176419f4963bd81318067a4aee73fe93556102ea843360018060a01b0360035416610f76565b519283523392a2388080808480f35b61030233610c7c565b338452600c825282842055600554600b825282842055610298565b50503461017d578160031936011261017d576020906005549051908152f35b50503461017d578160031936011261017d57602090610359610bf3565b9051908152f35b919050346102115760203660031901126102115761037c610b4f565b60095442111561038e57503560085580f35b906020608492519162461bcd60e51b8352820152602860248201527f50726576696f7573207265776172647320706572696f64206d75737420626520604482015267636f6d706c65746560c01b6064820152fd5b50503461017d578160031936011261017d576020906006549051908152f35b905034610211578260031936011261021157608092505490600754906009549060055492815194855260208501528301526060820152f35b9190503461021157602036600319011261021157813591610458610b4f565b610460610bf3565b600555821561051857507ff8fad42e780bfa5459be3fe691e8ba1aec70342250112139c5771c3fd155f31291602091600954804210156000146104e457506104aa60085483610bc6565b6007555b426006556104be60085442610be6565b6009556003546104dc908390309033906001600160a01b0316610cfa565b51908152a180f35b6105076105016104f8610510934290610b90565b60075490610bb3565b84610be6565b60085490610bc6565b6007556104ae565b6020606492519162461bcd60e51b8352820152601460248201527343616e6e6f74206164642030207265776172647360601b6044820152fd5b9190503461021157602090816003193601126106b257823592610572610dbd565b61057a610bf3565b600555610585610b7b565b6006553361068e575b68056bc75e2d63100000841061064d57831561061b5733808652600a84528286206002547f9e71bc8eea02a63969f509818f2dafb9254532904319f9dbda79b67bd34a5f3d959493926105ed91889130916001600160a01b0316610cfa565b6105f8868254610be6565b815560024291015561060b858254610be6565b9055519283523392a26001815580f35b82606492519162461bcd60e51b8352820152600e60248201526d043616e6e6f74207374616b6520360941b6044820152fd5b82606492519162461bcd60e51b8352820152601a60248201527f416d6f756e742062656c6f77206d696e696d756d207374616b650000000000006044820152fd5b61069733610c7c565b338652600c845282862055600554600b84528286205561058e565b8380fd5b50503461017d573660031901126106f6576106f36106d2610b34565b6106da610b4f565b600154602435916001600160a01b039182169116610f76565b80f35b80fd5b50503461017d578160031936011261017d5760015490516001600160a01b039091168152602090f35b50503461017d57602036600319011261017d5760209181906001600160a01b0361074a610b34565b168152600b845220549051908152f35b90503461021157826003193601126102115760209250549051908152f35b50503461017d578160031936011261017d57602090610359610b7b565b50503461017d578160031936011261017d576020906007549051908152f35b83346106f657806003193601126106f6576107cd610b4f565b600180546001600160a01b0319811690915581906001600160a01b03167f8be0079c531659141344cd1fd0a4f28419497f9722a3daafe3b4186f6b6457e08280a380f35b83833461017d57602036600319011261017d5761082c610b34565b6001600160a01b0381168352600a6020528183208251909390916108729061085384610c4a565b8460028754978887526001810154602088015201549401938452610c7c565b9482519262093a80938481018091116108ea574210156108dc57519283018093116108c9575050906108a86108c5924290610b90565b905b51938493846040919493926060820195825260208201520152565b0390f35b634e487b7160e01b825260119052602490fd5b50506108c5929150906108aa565b634e487b7160e01b845260118352602484fd5b50503461017d578160031936011261017d5760025490516001600160a01b039091168152602090f35b50503461017d578160031936011261017d576020906008549051908152f35b50503461017d578160031936011261017d5761095f610dbd565b610967610bf3565b600555610972610b7b565b600655336109e6575b338252600c602052808220908282549283610999575b506001815580f35b556003546109b390839033906001600160a01b0316610f76565b519081527ffc30cddea38e2bf4d6ea7d3f9ed3b6ad7f176419f4963bd81318067a4aee73fe60203392a238808281610991565b6109ef33610c7c565b338352600c60205281832055600554600b6020528183205561097b565b83903461017d57602036600319011261017d57610a3190610a2b610dbd565b35610de0565b6001815580f35b50503461017d57602036600319011261017d579081906001600160a01b03610a5e610b34565b168152600a60205220906108c5825491600260018501549401549051938493846040919493926060820195825260208201520152565b50503461017d578160031936011261017d576020905162093a808152f35b50503461017d578160031936011261017d576020905168056bc75e2d631000008152f35b50503461017d57602036600319011261017d5760209181906001600160a01b03610afe610b34565b168152600c845220549051908152f35b50503461017d57602036600319011261017d57602090610359610b2f610b34565b610c7c565b600435906001600160a01b0382168203610b4a57565b600080fd5b6001546001600160a01b03163303610b6357565b60405163118cdaa760e01b8152336004820152602490fd5b600954804210600014610b8d57504290565b90565b91908203918211610b9d57565b634e487b7160e01b600052601160045260246000fd5b81810292918115918404141715610b9d57565b8115610bd0570490565b634e487b7160e01b600052601260045260246000fd5b91908201809211610b9d57565b6004548015610c4357600554610c166104f8610c0d610b7b565b60065490610b90565b670de0b6b3a764000090818102918183041490151715610b9d57610b8d92610c3d91610bc6565b90610be6565b5060055490565b6060810190811067ffffffffffffffff821117610c6657604052565b634e487b7160e01b600052604160045260246000fd5b610b8d9060018060a01b031660406000828152600a602052670de0b6b3a7640000610ce98383208451610cae81610c4a565b856002835493848452600181015460208501520154910152610ce3610cd1610bf3565b878652600b6020528686205490610b90565b90610bb3565b04928152600c602052205490610be6565b6040516323b872dd60e01b60208201526001600160a01b03928316602482015292909116604483015260648083019390935291815260a081019181831067ffffffffffffffff841117610c6657610d5392604052610d55565b565b906000602091828151910182855af115610db1576000513d610da857506001600160a01b0381163b155b610d865750565b604051635274afe760e01b81526001600160a01b039091166004820152602490fd5b60011415610d7f565b6040513d6000823e3d90fd5b600260005414610dce576002600055565b604051633ee5aeb560e01b8152600490fd5b610de8610bf3565b600555610df3610b7b565b60065533610f4b575b8015610f135733600052600a60205260406000208054828110610ece57600282015462093a808101809111610b9d574210610e935782610e3b91610b90565b9055610e4981600454610b90565b600455600254610e6590829033906001600160a01b0316610f76565b6040519081527f0f5bb82176feb1b5e747e28471aa92156a04d9f3ab9f45f28e2d704232b93f7560203392a2565b60405162461bcd60e51b8152602060048201526013602482015272151bdad95b9cc81cdd1a5b1b081b1bd8dad959606a1b6044820152606490fd5b60405162461bcd60e51b815260206004820152601a60248201527f496e73756666696369656e74207374616b656420616d6f756e740000000000006044820152606490fd5b60405162461bcd60e51b815260206004820152601060248201526f043616e6e6f7420756e7374616b6520360841b6044820152606490fd5b610f5433610c7c565b33600052600c602052604060002055600554600b602052604060002055610dfc565b60405163a9059cbb60e01b60208201526001600160a01b039092166024830152604480830193909352918152608081019167ffffffffffffffff831182841017610c6657610d5392604052610d5556fea2646970667358221220c5244a9e76fb3ec26d8422bd881120f00c6b17ecd31d37c9ea74e74763b758ae64736f6c63430008140033",
  "linkReferences": {},
  "deployedLinkReferences": {}
}