{
  "_format": "hh-sol-artifact-1",
  "contractName": "EryzaToken",
  "sourceName": "contracts/EryzaToken.sol",
  "abi": [
    {
      "inputs": [
        {
          "internalType": "uint256",
          "name": "initialSupply",
          "type": "uint256"
        }
      ],
      "stateMutability": "nonpayable",
      "type": "constructor"
    },
    {
      "inputs": [
        {
          "internalType": "address",
          "name": "spender",
          "type": "address"
        },
        {
          "internalType": "uint256",
          "name": "allowance",
          "type": "uint256"
        },
        {
          "internalType": "uint256",
          "name": "needed",
          "type": "uint256"
        }
      ],
      "name": "ERC20InsufficientAllowance",
      "type": "error"
    },
    {
      "inputs": [
        {
          "internalType": "address",
          "name": "sender",
          "type": "address"
        },
        {
          "internalType": "uint256",
          "name": "balance",
          "type": "uint256"
        },
        {
          "internalType": "uint256",
          "name": "needed",
          "type": "uint256"
        }
      ],
      "name": "ERC20InsufficientBalance",
      "type": "error"
    },
    {
      "inputs": [
        {
          "internalType": "address",
          "name": "approver",
          "type": "address"
        }
      ],
      "name": "ERC20InvalidApprover",
      "type": "error"
    },
    {
      "inputs": [
        {
          "internalType": "address",
          "name": "receiver",
          "type": "address"
        }
      ],
      "name": "ERC20InvalidReceiver",
      "type": "error"
    },
    {
      "inputs": [
        {
          "internalType": "address",
          "name": "sender",
          "type": "address"
        }
      ],
      "name": "ERC20InvalidSender",
      "type": "error"
    },
    {
      "inputs": [
        {
          "internalType": "address",
          "name": "spender",
          "type": "address"
        }
      ],
      "name": "ERC20InvalidSpender",
      "type": "error"
    },
    {
      "inputs": [],
      "name": "EnforcedPause",
      "type": "error"
    },
    {
      "inputs": [],
      "name": "ExpectedPause",
      "type": "error"
    },
    {
      "inputs": [
        {
          "internalType": "address",
          "name": "owner",
          "type": "address"
        }
      ],
      "name": "OwnableInvalidOwner",
      "type": "error"
    },
    {
      "inputs": [
        {
          "internalType": "address",
          "name": "account",
          "type": "address"
        }
      ],
      "name": "OwnableUnauthorizedAccount",
      "type": "error"
    },
    {
      "inputs": [],
      "name": "ReentrancyGuardReentrantCall",
      "type": "error"
    },
    {
      "anonymous": false,
      "inputs": [
        {
          "indexed": true,
          "internalType": "address",
          "name": "owner",
          "type": "address"
        },
        {
          "indexed": true,
          "internalType": "address",
          "name": "spender",
          "type": "address"
        },
        {
          "indexed": false,
          "internalType": "uint256",
          "name": "value",
          "type": "uint256"
        }
      ],
      "name": "Approval",
      "type": "event"
    },
    {
      "anonymous": false,
      "inputs": [
        {
          "indexed": true,
          "internalType": "address",
          "name": "previousOwner",
          "type": "address"
        },
        {
          "indexed": true,
          "internalType": "address",
          "name": "newOwner",
          "type": "address"
        }
      ],
      "name": "OwnershipTransferred",
      "type": "event"
    },
    {
      "anonymous": false,
      "inputs": [
        {
          "indexed": false,
          "internalType": "address",
          "name": "account",
          "type": "address"
        }
      ],
      "name": "Paused",
      "type": "event"
    },
    {
      "anonymous": false,
      "inputs": [
        {
          "indexed": true,
          "internalType": "bytes32",
          "name": "jobId",
          "type": "bytes32"
        },
        {
          "indexed": true,
          "internalType": "address",
          "name": "user",
          "type": "address"
        },
        {
          "indexed": true,
          "internalType": "address",
          "name": "provider",
          "type": "address"
        },
        {
          "indexed": false,
          "internalType": "uint256",
          "name": "amount",
          "type": "uint256"
        }
      ],
      "name": "TokensLocked",
      "type": "event"
    },
    {
      "anonymous": false,
      "inputs": [
        {
          "indexed": true,
          "internalType": "bytes32",
          "name": "jobId",
          "type": "bytes32"
        },
        {
          "indexed": true,
          "internalType": "address",
          "name": "user",
          "type": "address"
        },
        {
          "indexed": false,
          "internalType": "uint256",
          "name": "amount",
          "type": "uint256"
        }
      ],
      "name": "TokensRefunded",
      "type": "event"
    },
    {
      "anonymous": false,
      "inputs": [
        {
          "indexed": true,
          "internalType": "bytes32",
          "name": "jobId",
          "type": "bytes32"
        },
        {
          "indexed": true,
          "internalType": "address",
          "name": "provider",
          "type": "address"
        },
        {
          "indexed": false,
          "internalType": "uint256",
          "name": "amount",
          "type": "uint256"
        }
      ],
      "name": "TokensReleased",
      "type": "event"
    },
    {
      "anonymous": false,
      "inputs": [
        {
          "indexed": true,
          "internalType": "address",
          "name": "from",
          "type": "address"
        },
        {
          "indexed": true,
          "internalType": "address",
          "name": "to",
          "type": "address"
        },
        {
          "indexed": false,
          "internalType": "uint256",
          "name": "value",
          "type": "uint256"
        }
      ],
      "name": "Transfer",
      "type": "event"
    },
    {
      "anonymous": false,
      "inputs": [
        {
          "indexed": false,
          "internalType": "address",
          "name": "account",
          "type": "address"
        }
      ],
      "name": "Unpaused",
      "type": "event"
    },
    {
      "inputs": [
        {
          "internalType": "address",
          "name": "owner",
          "type": "address"
        },
        {
          "internalType": "address",
          "name": "spender",
          "type": "address"
        }
      ],
      "name": "allowance",
      "outputs": [
        {
          "internalType": "uint256",
          "name": "",
          "type": "uint256"
        }
      ],
      "stateMutability": "view",
      "type": "function"
    },
    {
      "inputs": [
        {
          "internalType": "address",
          "name": "spender",
          "type": "address"
        },
        {
          "internalType": "uint256",
          "name": "value",
          "type": "uint256"
        }
      ],
      "name": "approve",
      "outputs": [
        {
          "internalType": "bool",
          "name": "",
          "type": "bool"
        }
      ],
      "stateMutability": "nonpayable",
      "type": "function"
    },
    {
      "inputs": [
        {
          "internalType": "address",
          "name": "account",
          "type": "address"
        }
      ],
      "name": "balanceOf",
      "outputs": [
        {
          "internalType": "uint256",
          "name": "",
          "type": "uint256"
        }
      ],
      "stateMutability": "view",
      "type": "function"
    },
    {
      "inputs": [],
      "name": "decimals",
      "outputs": [
        {
          "internalType": "uint8",
          "name": "",
          "type": "uint8"
        }
      ],
      "stateMutability": "view",
      "type": "function"
    },
    {
      "inputs": [
        {
          "internalType": "bytes32",
          "name": "jobId",
          "type": "bytes32"
        }
      ],
      "name": "getEscrowDetails",
      "outputs": [
        {
          "internalType": "uint256",
          "name": "amount",
          "type": "uint256"
        },
        {
          "internalType": "address",
          "name": "user",
          "type": "address"
        },
        {
          "internalType": "address",
          "name": "provider",
          "type": "address"
        },
        {
          "internalType": "bool",
          "name": "locked",
          "type": "bool"
        },
        {
          "internalType": "bool",
          "name": "released",
          "type": "bool"
        },
        {
          "internalType": "uint256",
          "name": "deadline",
          "type": "uint256"
        }
      ],
      "stateMutability": "view",
      "type": "function"
    },
    {
      "inputs": [
        {
          "internalType": "bytes32",
          "name": "",
          "type": "bytes32"
        }
      ],
      "name": "jobEscrows",
      "outputs": [
        {
          "internalType": "uint256",
          "name": "amount",
          "type": "uint256"
        },
        {
          "internalType": "address",
          "name": "user",
          "type": "address"
        },
        {
          "internalType": "address",
          "name": "provider",
          "type": "address"
        },
        {
          "internalType": "bool",
          "name": "locked",
          "type": "bool"
        },
        {
          "internalType": "bool",
          "name": "released",
          "type": "bool"
        },
        {
          "internalType": "uint256",
          "name": "deadline",
          "type": "uint256"
        }
      ],
      "stateMutability": "view",
      "type": "function"
    },
    {
      "inputs": [
        {
          "internalType": "bytes32",
          "name": "jobId",
          "type": "bytes32"
        },
        {
          "internalType": "uint256",
          "name": "amount",
          "type": "uint256"
        },
        {
          "internalType": "address",
          "name": "provider",
          "type": "address"
        }
      ],
      "name": "lockTokens",
      "outputs": [],
      "stateMutability": "nonpayable",
      "type": "function"
    },
    {
      "inputs": [],
      "name": "name",
      "outputs": [
        {
          "internalType": "string",
          "name": "",
          "type": "string"
        }
      ],
      "stateMutability": "view",
      "type": "function"
    },
    {
      "inputs": [],
      "name": "owner",
      "outputs": [
        {
          "internalType": "address",
          "name": "",
          "type": "address"
        }
      ],
      "stateMutability": "view",
      "type": "function"
    },
    {
      "inputs": [
        {
          "internalType": "bytes32",
          "name": "jobId",
          "type": "bytes32"
        },
        {
          "internalType": "uint256",
          "name": "refundAmount",
          "type": "uint256"
        }
      ],
      "name": "partialRefund",
      "outputs": [],
      "stateMutability": "nonpayable",
      "type": "function"
    },
    {
      "inputs": [],
      "name": "pause",
      "outputs": [],
      "stateMutability": "nonpayable",
      "type": "function"
    },
    {
      "inputs": [],
      "name": "paused",
      "outputs": [
        {
          "internalType": "bool",
          "name": "",
          "type": "bool"
        }
      ],
      "stateMutability": "view",
      "type": "function"
    },
    {
      "inputs": [
        {
          "internalType": "bytes32",
          "name": "jobId",
          "type": "bytes32"
        }
      ],
      "name": "refundTokens",
      "outputs": [],
      "stateMutability": "nonpayable",
      "type": "function"
    },
    {
      "inputs": [
        {
          "internalType": "bytes32",
          "name": "jobId",
          "type": "bytes32"
        }
      ],
      "name": "releaseTokens",
      "outputs": [],
      "stateMutability": "nonpayable",
      "type": "function"
    },
    {
      "inputs": [],
      "name": "renounceOwnership",
      "outputs": [],
      "stateMutability": "nonpayable",
      "type": "function"
    },
    {
      "inputs": [],
      "name": "symbol",
      "outputs": [
        {
          "internalType": "string",
          "name": "",
          "type": "string"
        }
      ],
      "stateMutability": "view",
      "type": "function"
    },
    {
      "inputs": [],
      "name": "totalSupply",
      "outputs": [
        {
          "internalType": "uint256",
          "name": "",
          "type": "uint256"
        }
      ],
      "stateMutability": "view",
      "type": "function"
    },
    {
      "inputs": [
        {
          "internalType": "address",
          "name": "to",
          "type": "address"
        },
        {
          "internalType": "uint256",
          "name": "value",
          "type": "uint256"
        }
      ],
      "name": "transfer",
      "outputs": [
        {
          "internalType": "bool",
          "name": "",
          "type": "bool"
        }
      ],
      "stateMutability": "nonpayable",
      "type": "function"
    },
    {
      "inputs": [
        {
          "internalType": "address",
          "name": "from",
          "type": "address"
        },
        {
          "internalType": "address",
          "name": "to",
          "type": "address"
        },
        {
          "internalType": "uint256",
          "name": "value",
          "type": "uint256"
        }
      ],
      "name": "transferFrom",
      "outputs": [
        {
          "internalType": "bool",
          "name": "",
          "type": "bool"
        }
      ],
      "stateMutability": "nonpayable",
      "type": "function"
    },
    {
      "inputs": [
        {
          "internalType": "address",
          "name": "newOwner",
          "type": "address"
        }
      ],
      "name": "transferOwnership",
      "outputs": [],
      "stateMutability": "nonpayable",
      "type": "function"
    },
    {
      "inputs": [],
      "name": "unpause",
      "outputs": [],
      "stateMutability": "nonpayable",
      "type": "function"
    }
  ],
  "bytecode": "0x608034620003f457601f906001600160401b0390601f1962001510388190038581018316840185811185821017620002f857849282916040528339602093849181010312620003f457519262000054620003f9565b90600b82526a22b93cbd30902a37b5b2b760a91b8483015262000076620003f9565b956003908188526245525960e81b868901528351838111620002f85782546001958682811c92168015620003e9575b89831014620003d35781848493116200037d575b5088908483116001146200031a576000926200030e575b505060001982851b1c191690851b1782555b8751928311620002f85760049485548581811c91168015620002ed575b88821014620002d8578281116200028d575b50869184116001146200022757508293949596976000936200021b575b505082841b92600019911b1c19161782555b3315620002035760058054336001600160a01b0319821681179092556001600160a01b03167f8be0079c531659141344cd1fd0a4f28419497f9722a3daafe3b4186f6b6457e0600080a360065560025490838201809211620001ee57506000917fddf252ad1be2c89b69c2b068fc378daa952ba7f163c4a11628f55a4df523b3ef91600255338352828152604083208481540190556040519384523393a36040516110f690816200041a8239f35b601190634e487b7160e01b6000525260246000fd5b604051631e4fbdf760e01b8152600081840152602490fd5b0151915038806200012e565b60008681528781209392918516905b8181106200027757509884869798999a106200025c575b50505050811b01825562000140565b01519060f884600019921b161c19169055388080806200024d565b8a83015185559386019391880191880162000236565b86600052876000208380870160051c8201928a8810620002ce575b0160051c019086905b828110620002c157505062000111565b60008155018690620002b1565b92508192620002a8565b602287634e487b7160e01b6000525260246000fd5b90607f1690620000ff565b634e487b7160e01b600052604160045260246000fd5b015190503880620000d0565b908888941691866000528a6000209260005b8c8282106200036657505084116200034d575b505050811b018255620000e2565b015160001983871b60f8161c191690553880806200033f565b8385015186558b979095019493840193016200032c565b90915084600052886000208480850160051c8201928b8610620003c9575b918991869594930160051c01915b828110620003b9575050620000b9565b60008155859450899101620003a9565b925081926200039b565b634e487b7160e01b600052602260045260246000fd5b91607f1691620000a5565b600080fd5b60408051919082016001600160401b03811183821017620002f85760405256fe6080604081815260048036101561001557600080fd5b600092833560e01c90816306fdde0314610d6b57508063095ea7b314610cc257806318160ddd14610ca357806323b872dd14610bb0578063313ce56714610b945780633f4ba83a14610b255780634397ca8014610a6957806351a89ce8146109af57806358d7faad146109385780635c975abb146109115780636a30a1941461077b57806370a0823114610744578063715018a6146106e45780638456cb59146106835780638da5cb5b1461065a57806395d89b41146105565780639caa0f3d146102dc5780639f1fa6e21461021a578063a9059cbb146101e9578063dd62ed3e1461019c5763f2fde38b1461010a57600080fd5b3461019857602036600319011261019857610123610eaa565b9061012c610edb565b6001600160a01b03918216928315610182575050600554826bffffffffffffffffffffffff60a01b821617600555167f8be0079c531659141344cd1fd0a4f28419497f9722a3daafe3b4186f6b6457e08380a380f35b51631e4fbdf760e01b8152908101849052602490fd5b8280fd5b5050346101e557806003193601126101e557806020926101ba610eaa565b6101c2610ec5565b6001600160a01b0391821683526001865283832091168252845220549051908152f35b5080fd5b5050346101e557806003193601126101e557602090610213610209610eaa565b6024359033610f5b565b5160018152f35b5034610198576020366003190112610198573561023561105a565b61023d611039565b610245610edb565b80835260076020527f62eb4bd96d9a7a66875a9f46f9f9d8bf6cfed3fe0578671b752301427d2a4f6660208385206002810180549160ff8360a01c16806102cd575b6102909061107d565b80546001600160a01b03936102a89190851630610f5b565b815461ffff60a01b198116600160a81b179092555495519586521693a3600160065580f35b5060a883901c60ff1615610287565b50903461019857606036600319011261019857813560248035926044359460018060a01b03908187168097036105525761031461105a565b61031c611039565b85156105105786156104ce578488526020936007855260ff6002858b20015460a01c1661048c5733895288855286848a2054106104535761035e873033610f5b565b6201518042019182421161044257505090600383927fb64df744d1ae5af3157545a341ad27ba7390ffc9d9262575d6c17c16eca25f11959451926103a184610f07565b8884528584013381528b868601928c845260608701926001845288608089019380855260a08a019788528d815260078c52209751885581600189019151166bffffffffffffffffffffffff60a01b8254161790556002870193511683549260ff60a01b9051151560a01b169160ff60a81b9051151560a81b169269ffffffffffffffffffff60b01b16171717905551910155519384523393a4600160065580f35b634e487b7160e01b8a526011905288fd5b835162461bcd60e51b815291820185905260149082015273496e73756666696369656e742062616c616e636560601b6044820152606490fd5b835162461bcd60e51b8152918201859052601d908201527f4a6f6220616c726561647920686173206c6f636b656420746f6b656e730000006044820152606490fd5b606490601885602086519362461bcd60e51b85528401528201527f496e76616c69642070726f7669646572206164647265737300000000000000006044820152fd5b606490601d85602086519362461bcd60e51b85528401528201527f416d6f756e74206d7573742062652067726561746572207468616e20300000006044820152fd5b8780fd5b509190346101e557816003193601126101e557805191809380549160019083821c92828516948515610650575b602095868610811461063d5785895290811561061957506001146105c1575b6105bd87876105b3828c0383610f39565b5191829182610e61565b0390f35b81529295507f8a35acfbc15ff81a39ae7d344fd709f28e8600b4aa8c65c6b64bfe7fe36bd19b5b82841061060657505050826105bd946105b3928201019438806105a2565b80548685018801529286019281016105e8565b60ff19168887015250505050151560051b83010192506105b3826105bd38806105a2565b634e487b7160e01b845260228352602484fd5b93607f1693610583565b5050346101e557816003193601126101e55760055490516001600160a01b039091168152602090f35b5050346101e557816003193601126101e55760207f62e78cea01bee320cd4e420270b5ea74000d11b0c9f74754ebdbfc544b05a258916106c1610edb565b6106c9611039565b6005805460ff60a01b1916600160a01b17905551338152a180f35b83346107415780600319360112610741576106fd610edb565b600580546001600160a01b0319811690915581906001600160a01b03167f8be0079c531659141344cd1fd0a4f28419497f9722a3daafe3b4186f6b6457e08280a380f35b80fd5b5050346101e55760203660031901126101e55760209181906001600160a01b0361076c610eaa565b16815280845220549051908152f35b5090346101985780600319360112610198578135906024359061079c61105a565b6107a4611039565b6107ac610edb565b82855260076020528085209160028301926107d6845460ff8160a01c169081610902575b5061107d565b80548083116108bf57828103968188116108ac57509282867f8b7a551d23f6a979c88b4753bede741d74553e8d70650ddf73b8d2655c2daea460207f62eb4bd96d9a7a66875a9f46f9f9d8bf6cfed3fe0578671b752301427d2a4f669895848299600199610892575b0361087a575b8654968860a81b61ffff60a01b198916179055878060a01b03978891015416938551908152a3519586521693a3600160065580f35b61088d8c898060a01b0389541630610f5b565b610845565b6108a7828b8060a01b038c8601541630610f5b565b61083f565b634e487b7160e01b895260119052602488fd5b835162461bcd60e51b8152602081890152601c60248201527f526566756e642065786365656473206c6f636b656420616d6f756e74000000006044820152606490fd5b60ff915060a81c1615386107d0565b5050346101e557816003193601126101e55760209060ff60055460a01c1690519015158152f35b503461019857602036600319011261019857358252600760209081529181902080546001820154600283015460039093015493519182526001600160a01b0390811694820194909452928116604084015260ff60a082811c82161515606086015260a89290921c161515608084015282015260c090f35b5034610198576020366003190112610198579181923581526007602052206105bd60a08351926109de84610f07565b805493848152600180841b039081600184015416968760208301526002840154928316918282820152600360ff8086891c1615159586606085015260a81c16151595866080840152015495869101525196879687929160a094919796959260c08501988552600180871b03809216602086015216604084015215156060830152151560808201520152565b50346101985760203660031901126101985735610a8461105a565b610a8c611039565b610a94610edb565b80835260076020527f8b7a551d23f6a979c88b4753bede741d74553e8d70650ddf73b8d2655c2daea460208385209360028501610adf815460ff8160a01c169081610902575061107d565b60018601805487546001600160a01b039391610afe9190851630610f5b565b805461ffff60a01b1916600160a81b179055549554915191825290941693a3600160065580f35b5034610198578260031936011261019857610b3e610edb565b6005549060ff8260a01c1615610b86575060ff60a01b1916600555513381527f5db9ee0a495bf2e6ff9c91a7834c1ba4fdd244a5e8aa4e537bd38aeae4b073aa90602090a180f35b8251638dfc202b60e01b8152fd5b5050346101e557816003193601126101e5576020905160128152f35b50823461074157606036600319011261074157610bcb610eaa565b610bd3610ec5565b916044359360018060a01b038316808352600160205286832033845260205286832054916000198310610c0f575b602088610213898989610f5b565b868310610c77578115610c60573315610c495750825260016020908152868320338452815291869020908590039055829061021387610c01565b8751634a1406b160e11b8152908101849052602490fd5b875163e602df0560e01b8152908101849052602490fd5b8751637dc7a0d960e11b8152339181019182526020820193909352604081018790528291506060010390fd5b5050346101e557816003193601126101e5576020906002549051908152f35b5034610198578160031936011261019857610cdb610eaa565b602435903315610d54576001600160a01b0316918215610d3d57508083602095338152600187528181208582528752205582519081527f8c5be1e5ebec7d5bd14f71427d1e84f3dd0314c0f7b2291e5b200ac8c7c3b925843392a35160018152f35b8351634a1406b160e11b8152908101859052602490fd5b835163e602df0560e01b8152808401869052602490fd5b9291905034610e5d5783600319360112610e5d57600354600181811c9186908281168015610e53575b6020958686108214610e405750848852908115610e1e5750600114610dc5575b6105bd86866105b3828b0383610f39565b929550600383527fc2575a0e9e593c00f959f8c92f12db2869c3395a3b0502d05e2516446f71f85b5b828410610e0b57505050826105bd946105b3928201019438610db4565b8054868501880152928601928101610dee565b60ff191687860152505050151560051b83010192506105b3826105bd38610db4565b634e487b7160e01b845260229052602483fd5b93607f1693610d94565b8380fd5b6020808252825181830181905290939260005b828110610e9657505060409293506000838284010152601f8019910116010190565b818101860151848201604001528501610e74565b600435906001600160a01b0382168203610ec057565b600080fd5b602435906001600160a01b0382168203610ec057565b6005546001600160a01b03163303610eef57565b60405163118cdaa760e01b8152336004820152602490fd5b60c0810190811067ffffffffffffffff821117610f2357604052565b634e487b7160e01b600052604160045260246000fd5b90601f8019910116810190811067ffffffffffffffff821117610f2357604052565b916001600160a01b0380841692831561102057169283156110075760009083825281602052604082205490838210610fd5575091604082827fddf252ad1be2c89b69c2b068fc378daa952ba7f163c4a11628f55a4df523b3ef958760209652828652038282205586815220818154019055604051908152a3565b60405163391434e360e21b81526001600160a01b03919091166004820152602481019190915260448101839052606490fd5b60405163ec442f0560e01b815260006004820152602490fd5b604051634b637e8f60e11b815260006004820152602490fd5b60ff60055460a01c1661104857565b60405163d93c066560e01b8152600490fd5b60026006541461106b576002600655565b604051633ee5aeb560e01b8152600490fd5b1561108457565b60405162461bcd60e51b8152602060048201526014602482015273496e76616c696420657363726f7720737461746560601b6044820152606490fdfea26469706673582212209d89a6bcf6d29c481498ca27f1f7b8155c44155918c118d1977b6ff7ed2ddf2e64736f6c63430008140033",
  "linkReferences": {},
  "deployedLinkReferences": {}
}